{
  "contractName": "Blocker",
  "abi": [
    {
      "inputs": [
        {
          "name": "_token",
          "type": "address"
        }
      ],
      "payable": false,
      "stateMutability": "nonpayable",
      "type": "constructor"
    },
    {
      "constant": true,
      "inputs": [],
      "name": "getToken",
      "outputs": [
        {
          "name": "",
          "type": "address"
        }
      ],
      "payable": false,
      "stateMutability": "view",
      "type": "function"
    },
    {
      "constant": false,
      "inputs": [
        {
          "name": "_owner",
          "type": "address"
        },
        {
          "name": "amount",
          "type": "uint256"
        }
      ],
      "name": "blockTokens",
      "outputs": [],
      "payable": false,
      "stateMutability": "nonpayable",
      "type": "function"
    },
    {
      "constant": false,
      "inputs": [
        {
          "name": "_owner",
          "type": "address"
        },
        {
          "name": "amount",
          "type": "uint256"
        }
      ],
      "name": "unblockTokens",
      "outputs": [],
      "payable": false,
      "stateMutability": "nonpayable",
      "type": "function"
    },
    {
      "constant": false,
      "inputs": [
        {
          "name": "_owner",
          "type": "address"
        },
        {
          "name": "_receiver",
          "type": "address"
        },
        {
          "name": "amount",
          "type": "uint256"
        }
      ],
      "name": "unblockTokensTo",
      "outputs": [],
      "payable": false,
      "stateMutability": "nonpayable",
      "type": "function"
    }
  ],
  "bytecode": "0x608060405234801561001057600080fd5b50604051602080610321833981016040525160008054600160a060020a03909216600160a060020a03199092169190911790556102cf806100526000396000f3006080604052600436106100615763ffffffff7c0100000000000000000000000000000000000000000000000000000000600035041663044d9c39811461006657806321df0da7146100925780633c1a88d7146100c35780639b267540146100e7575b600080fd5b34801561007257600080fd5b50610090600160a060020a036004358116906024351660443561010b565b005b34801561009e57600080fd5b506100a761019b565b60408051600160a060020a039092168252519081900360200190f35b3480156100cf57600080fd5b50610090600160a060020a03600435166024356101aa565b3480156100f357600080fd5b50610090600160a060020a0360043516602435610231565b60008054604080517f47b27b8b000000000000000000000000000000000000000000000000000000008152600160a060020a038781166004830152868116602483015260448201869052915191909216926347b27b8b926064808201939182900301818387803b15801561017e57600080fd5b505af1158015610192573d6000803e3d6000fd5b50505050505050565b600054600160a060020a031690565b60008054604080517f3c1a88d7000000000000000000000000000000000000000000000000000000008152600160a060020a0386811660048301526024820186905291519190921692633c1a88d7926044808201939182900301818387803b15801561021557600080fd5b505af1158015610229573d6000803e3d6000fd5b505050505050565b60008054604080517f47b27b8b000000000000000000000000000000000000000000000000000000008152600160a060020a0386811660048301819052602483015260448201869052915191909216926347b27b8b926064808201939182900301818387803b15801561021557600080fd00a165627a7a7230582098618a9fefffd810595005c18a2fed471cacbd02f455877eb669649d2497f5960029",
  "source": "pragma solidity ^0.4.2;\n\nimport \"../token-sale-contracts/TokenSale/Token/Token.sol\";\n\ncontract Blocker {\n    Token token;\n\n    constructor(address _token) public {\n        token = Token(_token);\n    }\n\n    function getToken() public constant returns (address) {\n        return address(token);\n    }\n\n    function blockTokens(address _owner, uint amount) public {\n        token.blockTokens(_owner, amount);\n    }\n\n    function unblockTokens(address _owner, uint amount) public {\n        token.unblockTokens(_owner, _owner, amount);\n    }\n\n    function unblockTokensTo(address _owner, address _receiver, uint amount) public {\n        token.unblockTokens(_owner, _receiver, amount);\n    }\n}\n",
  "sourcePath": "/Users/nickolay/workspace/rsk/app/contracts/test/Blocker.sol",
  "compiler": {
    "name": "solc",
    "version": "0.4.24+commit.e67f0147.Emscripten.clang"
  },
  "schemaVersion": "2.0.0",
  "updatedAt": "2018-06-23T12:42:06.191Z"
}