{
  "contractName": "Main",
  "abi": [
    {
      "constant": true,
      "inputs": [],
      "name": "eventBase",
      "outputs": [
        {
          "name": "",
          "type": "address"
        }
      ],
      "payable": false,
      "stateMutability": "view",
      "type": "function"
    },
    {
      "inputs": [
        {
          "name": "_token",
          "type": "address"
        },
        {
          "name": "_whitelist",
          "type": "address"
        },
        {
          "name": "_eventBase",
          "type": "address"
        }
      ],
      "payable": false,
      "stateMutability": "nonpayable",
      "type": "constructor"
    },
    {
      "anonymous": false,
      "inputs": [
        {
          "indexed": true,
          "name": "eventAddress",
          "type": "address"
        },
        {
          "indexed": false,
          "name": "deposit",
          "type": "uint256"
        },
        {
          "indexed": false,
          "name": "eventData",
          "type": "bytes"
        }
      ],
      "name": "NewEvent",
      "type": "event"
    },
    {
      "constant": false,
      "inputs": [
        {
          "name": "newOwner",
          "type": "address"
        }
      ],
      "name": "transferOwnership",
      "outputs": [],
      "payable": false,
      "stateMutability": "nonpayable",
      "type": "function"
    },
    {
      "constant": true,
      "inputs": [],
      "name": "getToken",
      "outputs": [
        {
          "name": "",
          "type": "address"
        }
      ],
      "payable": false,
      "stateMutability": "view",
      "type": "function"
    },
    {
      "constant": false,
      "inputs": [
        {
          "name": "_from",
          "type": "address"
        },
        {
          "name": "_value",
          "type": "uint256"
        },
        {
          "name": "_data",
          "type": "bytes"
        }
      ],
      "name": "tokenFallback",
      "outputs": [],
      "payable": false,
      "stateMutability": "nonpayable",
      "type": "function"
    },
    {
      "constant": false,
      "inputs": [
        {
          "name": "_eventBase",
          "type": "address"
        }
      ],
      "name": "updateEventBase",
      "outputs": [],
      "payable": false,
      "stateMutability": "nonpayable",
      "type": "function"
    }
  ],
  "bytecode": "0x60806040526002805460a060020a60ff0219167401000000000000000000000000000000000000000017905534801561003757600080fd5b5060405160608061095983398101604090815281516020830151919092015160038054600160a060020a0319908116331790915560008054600160a060020a0395861690831617905560018054938516938216939093179092556002805493909116929091169190911790556108a7806100b26000396000f30060806040526004361061006c5763ffffffff7c010000000000000000000000000000000000000000000000000000000060003504166313781d87811461007157806321df0da7146100a257806335373d80146100b7578063c0ee0b8a146100da578063f2fde38b14610143575b600080fd5b34801561007d57600080fd5b50610086610164565b60408051600160a060020a039092168252519081900360200190f35b3480156100ae57600080fd5b50610086610173565b3480156100c357600080fd5b506100d8600160a060020a0360043516610182565b005b3480156100e657600080fd5b50604080516020600460443581810135601f81018490048402850184019095528484526100d8948235600160a060020a03169460248035953695946064949201919081908401838280828437509497506101ef9650505050505050565b34801561014f57600080fd5b506100d8600160a060020a03600435166102a8565b600254600160a060020a031681565b600054600160a060020a031690565b600354600160a060020a0316331461019957600080fd5b80803b600081116101a957600080fd5b600160a060020a03831615156101be57600080fd5b50506002805473ffffffffffffffffffffffffffffffffffffffff1916600160a060020a0392909216919091179055565b600054600160a060020a031663a9059cbb61020b858585610303565b846040518363ffffffff167c01000000000000000000000000000000000000000000000000000000000281526004018083600160a060020a0316600160a060020a0316815260200182815260200192505050602060405180830381600087803b15801561027757600080fd5b505af115801561028b573d6000803e3d6000fd5b505050506040513d60208110156102a157600080fd5b5050505050565b600354600160a060020a031633146102bf57600080fd5b600160a060020a03811615156102d457600080fd5b6003805473ffffffffffffffffffffffffffffffffffffffff1916600160a060020a0392909216919091179055565b600154604080517f9b19251a00000000000000000000000000000000000000000000000000000000815232600482015290516000928392600160a060020a0390911691639b19251a9160248082019260209290919082900301818787803b15801561036d57600080fd5b505af1158015610381573d6000803e3d6000fd5b505050506040513d602081101561039757600080fd5b505115156001146103a757600080fd5b60008054604080517f17221e2c0000000000000000000000000000000000000000000000000000000081523060048201529051600160a060020a03909216926317221e2c926024808401936020939083900390910190829087803b15801561040e57600080fd5b505af1158015610422573d6000803e3d6000fd5b505050506040513d602081101561043857600080fd5b5051151560011461044857600080fd5b600254600160a060020a031661045c6106d5565b600160a060020a03909116815260405190819003602001906000f080158015610489573d6000803e3d6000fd5b50600080546001546040517f5632cae1000000000000000000000000000000000000000000000000000000008152600160a060020a0392831660048201818152928416602483018190528b85166044840152606483018b905260a0608484019081528a5160a48501528a5197985094881696635632cae196929591948d948d948d94929360c49092019160208601918190849084905b8381101561053757818101518382015260200161051f565b50505050905090810190601f1680156105645780820380516001836020036101000a031916815260200191505b509650505050505050600060405180830381600087803b15801561058757600080fd5b505af115801561059b573d6000803e3d6000fd5b505060008054604080517fb3e1f523000000000000000000000000000000000000000000000000000000008152600160a060020a03878116600483015260016024830152915191909216945063b3e1f52393506044808301939282900301818387803b15801561060a57600080fd5b505af115801561061e573d6000803e3d6000fd5b5050505080600160a060020a03167fd730fa95c5bb5c4eb6114d88c2631e49b926a4250c70fe663af9ed63947907a685856040518083815260200180602001828103825283818151815260200191508051906020019080838360005b8381101561069257818101518382015260200161067a565b50505050905090810190601f1680156106bf5780820380516001836020036101000a031916815260200191505b50935050505060405180910390a2949350505050565b604051610196806106e6833901905600608060405234801561001057600080fd5b50604051602080610196833981016040525160018054600160a060020a0319908116331790915560008054600160a060020a03909316929091169190911790556101378061005f6000396000f30060806040526004361061004b5763ffffffff7c01000000000000000000000000000000000000000000000000000000006000350416635001f3b581146100805780638da5cb5b146100be575b34801561005757600080fd5b506000543660008037600080366000845af43d806000803e81801561007b57816000f35b600080fd5b34801561008c57600080fd5b506100956100d3565b6040805173ffffffffffffffffffffffffffffffffffffffff9092168252519081900360200190f35b3480156100ca57600080fd5b506100956100ef565b60005473ffffffffffffffffffffffffffffffffffffffff1681565b60015473ffffffffffffffffffffffffffffffffffffffff16815600a165627a7a72305820ef4398c8003c2448f2a0452064d130554d091db04da3e2f5312fb64ec87c09f90029a165627a7a72305820fff1702f31bf856b3736762e74df69392b8a446276ba3ff868edb9b416bf7e7c0029",
  "source": "pragma solidity ^0.4.2;\n\nimport \"./token-sale-contracts/TokenSale/Token/Token.sol\";\nimport \"./Event.sol\";\nimport \"./EventBase.sol\";\nimport \"./Whitelist.sol\";\nimport \"./token-sale-contracts/TokenSale/ERC223ReceivingContract.sol\";\n\ncontract Main is ERC223ReceivingContract {\n    Token token;\n    Whitelist whitelist;\n    EventBase public eventBase;\n    uint8 version = 1;\n\n    address owner;\n\n    modifier onlyOwner() {\n        require(msg.sender == owner);\n        _;\n    }\n\n    modifier contractOnly(address _to) {\n        uint256 codeLength;\n\n        assembly {\n        // Retrieve the size of the code on target address, this needs assembly .\n        codeLength := extcodesize(_to)\n        }\n\n        require(codeLength > 0);\n\n        _;\n    }\n\n    constructor(address _token, address _whitelist, address _eventBase) public {\n        owner = msg.sender;\n\n        token = Token(_token);\n        whitelist = Whitelist(_whitelist);\n        eventBase = EventBase(_eventBase);\n    }\n\n    function transferOwnership(address newOwner) public onlyOwner {\n        require(newOwner != address(0));\n        owner = newOwner;\n    }\n\n    function getToken() public constant returns (address) {\n        return address(token);\n    }\n\n    event NewEvent(address indexed eventAddress, uint256 deposit, bytes eventData);\n\n    function tokenFallback(address _from, uint256 _value, bytes memory _data) public {\n        token.transfer(newEvent(_from, _value, _data), _value);\n    }\n\n    function updateEventBase(address _eventBase) public onlyOwner contractOnly(_eventBase) {\n        require(_eventBase != address(0));\n        eventBase = EventBase(_eventBase);\n    }\n\n    function newEvent(address _creator, uint256 _deposit, bytes memory buffer) internal returns (address) {\n        require(whitelist.whitelist(tx.origin) == true);\n        require(token.grantedToSetUnpausedWallet(address(this)) == true);\n\n        EventBase _lastEvent = EventBase(address(new Event(address(eventBase))));\n        _lastEvent.init(address(token), address(whitelist), _creator, _deposit, buffer);\n\n        token.setUnpausedWallet(address(_lastEvent), true);\n\n        emit NewEvent(\n            address(_lastEvent),\n            _deposit,\n            buffer\n        );\n\n        return address(_lastEvent);\n    }\n}\n",
  "sourcePath": "/Users/nickolay/workspace/rsk/app/contracts/Main.sol",
  "compiler": {
    "name": "solc",
    "version": "0.4.24+commit.e67f0147.Emscripten.clang"
  },
  "schemaVersion": "2.0.0",
  "updatedAt": "2018-06-23T12:42:06.194Z"
}