{
  "contractName": "MigratableToken",
  "abi": [
    {
      "constant": true,
      "inputs": [],
      "name": "totalSupply",
      "outputs": [
        {
          "name": "",
          "type": "uint256"
        }
      ],
      "payable": false,
      "stateMutability": "view",
      "type": "function"
    },
    {
      "constant": true,
      "inputs": [
        {
          "name": "_owner",
          "type": "address"
        }
      ],
      "name": "balanceOf",
      "outputs": [
        {
          "name": "balance",
          "type": "uint256"
        }
      ],
      "payable": false,
      "stateMutability": "view",
      "type": "function"
    },
    {
      "constant": true,
      "inputs": [],
      "name": "migrationAgent",
      "outputs": [
        {
          "name": "",
          "type": "address"
        }
      ],
      "payable": false,
      "stateMutability": "view",
      "type": "function"
    },
    {
      "constant": true,
      "inputs": [],
      "name": "owner",
      "outputs": [
        {
          "name": "",
          "type": "address"
        }
      ],
      "payable": false,
      "stateMutability": "view",
      "type": "function"
    },
    {
      "constant": true,
      "inputs": [],
      "name": "totalMigrated",
      "outputs": [
        {
          "name": "",
          "type": "uint256"
        }
      ],
      "payable": false,
      "stateMutability": "view",
      "type": "function"
    },
    {
      "constant": false,
      "inputs": [
        {
          "name": "_to",
          "type": "address"
        },
        {
          "name": "_value",
          "type": "uint256"
        }
      ],
      "name": "transfer",
      "outputs": [
        {
          "name": "",
          "type": "bool"
        }
      ],
      "payable": false,
      "stateMutability": "nonpayable",
      "type": "function"
    },
    {
      "constant": false,
      "inputs": [
        {
          "name": "newOwner",
          "type": "address"
        }
      ],
      "name": "transferOwnership",
      "outputs": [],
      "payable": false,
      "stateMutability": "nonpayable",
      "type": "function"
    },
    {
      "anonymous": false,
      "inputs": [
        {
          "indexed": true,
          "name": "_from",
          "type": "address"
        },
        {
          "indexed": true,
          "name": "_to",
          "type": "address"
        },
        {
          "indexed": false,
          "name": "_value",
          "type": "uint256"
        }
      ],
      "name": "Migrate",
      "type": "event"
    },
    {
      "anonymous": false,
      "inputs": [
        {
          "indexed": true,
          "name": "previousOwner",
          "type": "address"
        },
        {
          "indexed": true,
          "name": "newOwner",
          "type": "address"
        }
      ],
      "name": "OwnershipTransferred",
      "type": "event"
    },
    {
      "anonymous": false,
      "inputs": [
        {
          "indexed": true,
          "name": "from",
          "type": "address"
        },
        {
          "indexed": true,
          "name": "to",
          "type": "address"
        },
        {
          "indexed": false,
          "name": "value",
          "type": "uint256"
        }
      ],
      "name": "Transfer",
      "type": "event"
    },
    {
      "constant": false,
      "inputs": [
        {
          "name": "_migrationAgent",
          "type": "address"
        }
      ],
      "name": "setMigrationAgent",
      "outputs": [],
      "payable": false,
      "stateMutability": "nonpayable",
      "type": "function"
    },
    {
      "constant": false,
      "inputs": [
        {
          "name": "_holders",
          "type": "address[]"
        }
      ],
      "name": "migrateAll",
      "outputs": [],
      "payable": false,
      "stateMutability": "nonpayable",
      "type": "function"
    },
    {
      "constant": false,
      "inputs": [],
      "name": "migrate",
      "outputs": [],
      "payable": false,
      "stateMutability": "nonpayable",
      "type": "function"
    }
  ],
  "bytecode": "0x608060405260028054600160a060020a0319163317905561064d806100256000396000f3006080604052600436106100a35763ffffffff7c010000000000000000000000000000000000000000000000000000000060003504166318160ddd81146100a8578063680b3bdf146100cf57806370a082311461012657806375e2ff65146101475780638328dbcd146101685780638da5cb5b146101995780638fd3ab80146101ae57806395a0f5eb146101c3578063a9059cbb146101d8578063f2fde38b14610210575b600080fd5b3480156100b457600080fd5b506100bd610231565b60408051918252519081900360200190f35b3480156100db57600080fd5b5060408051602060048035808201358381028086018501909652808552610124953695939460249493850192918291850190849080828437509497506102379650505050505050565b005b34801561013257600080fd5b506100bd600160a060020a036004351661028a565b34801561015357600080fd5b50610124600160a060020a03600435166102a5565b34801561017457600080fd5b5061017d610301565b60408051600160a060020a039092168252519081900360200190f35b3480156101a557600080fd5b5061017d610310565b3480156101ba57600080fd5b5061012461031f565b3480156101cf57600080fd5b506100bd610344565b3480156101e457600080fd5b506101fc600160a060020a036004351660243561034a565b604080519115158252519081900360200190f35b34801561021c57600080fd5b50610124600160a060020a036004351661042b565b60015490565b600254600090600160a060020a0316331461025157600080fd5b5060005b81518110156102865761027e828281518110151561026f57fe5b906020019060200201516104c0565b600101610255565b5050565b600160a060020a031660009081526020819052604090205490565b600254600160a060020a031633146102bc57600080fd5b600454600160a060020a0316156102d257600080fd5b6004805473ffffffffffffffffffffffffffffffffffffffff1916600160a060020a0392909216919091179055565b600454600160a060020a031681565b600254600160a060020a031681565b336000908152602081905260408120541161033957600080fd5b610342336104c0565b565b60035481565b6000600160a060020a038316151561036157600080fd5b3360009081526020819052604090205482111561037d57600080fd5b3360009081526020819052604090205461039d908363ffffffff6105f916565b3360009081526020819052604080822092909255600160a060020a038516815220546103cf908363ffffffff61060b16565b600160a060020a038416600081815260208181526040918290209390935580518581529051919233927fddf252ad1be2c89b69c2b068fc378daa952ba7f163c4a11628f55a4df523b3ef9281900390910190a350600192915050565b600254600160a060020a0316331461044257600080fd5b600160a060020a038116151561045757600080fd5b600254604051600160a060020a038084169216907f8be0079c531659141344cd1fd0a4f28419497f9722a3daafe3b4186f6b6457e090600090a36002805473ffffffffffffffffffffffffffffffffffffffff1916600160a060020a0392909216919091179055565b600454600090600160a060020a031615156104da57600080fd5b50600160a060020a0381166000908152602081905260408120805491905560015461050b908263ffffffff6105f916565b600155600354610521908263ffffffff61060b16565b60035560048054604080517f7a3130e3000000000000000000000000000000000000000000000000000000008152600160a060020a03868116948201949094526024810185905290519290911691637a3130e39160448082019260009290919082900301818387803b15801561059657600080fd5b505af11580156105aa573d6000803e3d6000fd5b5050600454604080518581529051600160a060020a03928316945091861692507f18df02dcc52b9c494f391df09661519c0069bd8540141946280399408205ca1a919081900360200190a35050565b60008282111561060557fe5b50900390565b60008282018381101561061a57fe5b93925050505600a165627a7a723058202b7763113afd8132d60a58dd09b1bdf9a6c6453d403252f681e8171f0ed266f40029",
  "source": "pragma solidity ^0.4.21;\n\nimport '../Ownable.sol';\nimport './BasicToken.sol';\nimport './MigrationAgent.sol';\n\ncontract MigratableToken is BasicToken,Ownable {\n\n    uint256 public totalMigrated;\n    address public migrationAgent;\n\n    event Migrate(address indexed _from, address indexed _to, uint256 _value);\n\n    function setMigrationAgent(address _migrationAgent) public onlyOwner {\n        require(migrationAgent == 0x0);\n        migrationAgent = _migrationAgent;\n    }\n\n    function migrateInternal(address _holder) internal {\n        require(migrationAgent != 0x0);\n\n        uint256 value = balances[_holder];\n        balances[_holder] = 0;\n\n        totalSupply_ = totalSupply_.sub(value);\n        totalMigrated = totalMigrated.add(value);\n\n        MigrationAgent(migrationAgent).migrateFrom(_holder, value);\n        emit Migrate(_holder,migrationAgent,value);\n    }\n\n    function migrateAll(address[] _holders) public onlyOwner {\n        for(uint i = 0; i < _holders.length; i++){\n            migrateInternal(_holders[i]);\n        }\n    }\n\n    // Reissue your tokens.\n    function migrate() public\n    {\n        require(balances[msg.sender] > 0);\n        migrateInternal(msg.sender);\n    }\n\n}\n",
  "sourcePath": "/Users/nickolay/workspace/rsk/app/contracts/token-sale-contracts/TokenSale/Token/MigratableToken.sol",
  "compiler": {
    "name": "solc",
    "version": "0.4.24+commit.e67f0147.Emscripten.clang"
  },
  "schemaVersion": "2.0.0",
  "updatedAt": "2018-06-23T12:35:52.216Z"
}