{
  "contractName": "Pausable",
  "abi": [
    {
      "constant": true,
      "inputs": [],
      "name": "paused",
      "outputs": [
        {
          "name": "",
          "type": "bool"
        }
      ],
      "payable": false,
      "stateMutability": "view",
      "type": "function"
    },
    {
      "constant": true,
      "inputs": [],
      "name": "owner",
      "outputs": [
        {
          "name": "",
          "type": "address"
        }
      ],
      "payable": false,
      "stateMutability": "view",
      "type": "function"
    },
    {
      "constant": true,
      "inputs": [
        {
          "name": "",
          "type": "address"
        }
      ],
      "name": "unpausedWallet",
      "outputs": [
        {
          "name": "",
          "type": "bool"
        }
      ],
      "payable": false,
      "stateMutability": "view",
      "type": "function"
    },
    {
      "constant": false,
      "inputs": [
        {
          "name": "newOwner",
          "type": "address"
        }
      ],
      "name": "transferOwnership",
      "outputs": [],
      "payable": false,
      "stateMutability": "nonpayable",
      "type": "function"
    },
    {
      "anonymous": false,
      "inputs": [],
      "name": "Pause",
      "type": "event"
    },
    {
      "anonymous": false,
      "inputs": [],
      "name": "Unpause",
      "type": "event"
    },
    {
      "anonymous": false,
      "inputs": [
        {
          "indexed": true,
          "name": "previousOwner",
          "type": "address"
        },
        {
          "indexed": true,
          "name": "newOwner",
          "type": "address"
        }
      ],
      "name": "OwnershipTransferred",
      "type": "event"
    },
    {
      "constant": false,
      "inputs": [
        {
          "name": "_wallet",
          "type": "address"
        },
        {
          "name": "mode",
          "type": "bool"
        }
      ],
      "name": "setUnpausedWallet",
      "outputs": [],
      "payable": false,
      "stateMutability": "nonpayable",
      "type": "function"
    },
    {
      "constant": false,
      "inputs": [
        {
          "name": "mode",
          "type": "bool"
        }
      ],
      "name": "setPause",
      "outputs": [],
      "payable": false,
      "stateMutability": "nonpayable",
      "type": "function"
    }
  ],
  "bytecode": "0x60806040526002805460ff1916600117905560008054600160a060020a031916331790556103e0806100326000396000f3006080604052600436106100775763ffffffff7c01000000000000000000000000000000000000000000000000000000006000350416635c975abb811461007c5780638da5cb5b146100a5578063b3e1f523146100d6578063b8b3db4f146100fe578063bedb86fb1461011f578063f2fde38b14610139575b600080fd5b34801561008857600080fd5b5061009161015a565b604080519115158252519081900360200190f35b3480156100b157600080fd5b506100ba610163565b60408051600160a060020a039092168252519081900360200190f35b3480156100e257600080fd5b506100fc600160a060020a03600435166024351515610172565b005b34801561010a57600080fd5b50610091600160a060020a036004351661025c565b34801561012b57600080fd5b506100fc6004351515610271565b34801561014557600080fd5b506100fc600160a060020a0360043516610320565b60025460ff1681565b600054600160a060020a031681565b600054600160a060020a03163314806102265750600054600160a060020a0316637ad71f7260026040518263ffffffff167c0100000000000000000000000000000000000000000000000000000000028152600401808260ff168152602001915050602060405180830381600087803b1580156101ee57600080fd5b505af1158015610202573d6000803e3d6000fd5b505050506040513d602081101561021857600080fd5b5051600160a060020a031633145b151561023157600080fd5b600160a060020a03919091166000908152600160205260409020805460ff1916911515919091179055565b60016020526000908152604090205460ff1681565b600054600160a060020a0316331461028857600080fd5b60025460ff161580156102985750805b156102d4576002805460ff191660011790556040517f6985a02210a168e66602d3235cb6db0e70f92b3ba4d376a33c0f3d9434bff62590600090a15b60025460ff1680156102e4575080155b1561031d576002805460ff191690556040517f7805862f689e2f13df9f062ff482ad3ad112aca9e0847911ed832e158c525b3390600090a15b50565b600054600160a060020a0316331461033757600080fd5b600160a060020a038116151561034c57600080fd5b60008054604051600160a060020a03808516939216917f8be0079c531659141344cd1fd0a4f28419497f9722a3daafe3b4186f6b6457e091a36000805473ffffffffffffffffffffffffffffffffffffffff1916600160a060020a03929092169190911790555600a165627a7a72305820c527715d5b008f7930011515b8d10bba1b8289f21f0dc38b7c65a7db866ef8430029",
  "source": "pragma solidity ^0.4.21;\n\nimport './Ownable.sol';\nimport './Crowdsale/Crowdsale.sol';\n\n/**\n * @title Pausable\n * @dev Base contract which allows children to implement an emergency stop mechanism.\n */\ncontract Pausable is Ownable {\n\n    mapping (address => bool) public unpausedWallet;\n\n    event Pause();\n    event Unpause();\n\n    bool public paused = true;\n\n\n    /**\n     * @dev Modifier to make a function callable only when the contract is not paused.\n     */\n    modifier whenNotPaused(address _to) {\n        require(!paused||unpausedWallet[msg.sender]||unpausedWallet[_to]);\n        _;\n    }\n\n    // Add a wallet ignoring the \"Exchange pause\". Available to the owner of the contract.\n    function setUnpausedWallet(address _wallet, bool mode) public {\n        require(owner == msg.sender || msg.sender == Crowdsale(owner).wallets(uint8(Crowdsale.Roles.manager)));\n        unpausedWallet[_wallet] = mode;\n    }\n\n    /**\n     * @dev called by the owner to pause, triggers stopped state\n     */\n    function setPause(bool mode) public onlyOwner {\n        if (!paused && mode) {\n            paused = true;\n            emit Pause();\n        }\n        if (paused && !mode) {\n            paused = false;\n            emit Unpause();\n        }\n    }\n\n}\n",
  "sourcePath": "/Users/nickolay/workspace/rsk/app/contracts/token-sale-contracts/TokenSale/Pausable.sol",
  "compiler": {
    "name": "solc",
    "version": "0.4.24+commit.e67f0147.Emscripten.clang"
  },
  "schemaVersion": "2.0.0",
  "updatedAt": "2018-06-23T12:35:52.200Z"
}