{
  "contractName": "RefundVault",
  "abi": [
    {
      "constant": true,
      "inputs": [
        {
          "name": "",
          "type": "uint8"
        },
        {
          "name": "",
          "type": "address"
        }
      ],
      "name": "deposited",
      "outputs": [
        {
          "name": "",
          "type": "uint256"
        }
      ],
      "payable": false,
      "stateMutability": "view",
      "type": "function"
    },
    {
      "constant": true,
      "inputs": [],
      "name": "owner",
      "outputs": [
        {
          "name": "",
          "type": "address"
        }
      ],
      "payable": false,
      "stateMutability": "view",
      "type": "function"
    },
    {
      "constant": true,
      "inputs": [],
      "name": "state",
      "outputs": [
        {
          "name": "",
          "type": "uint8"
        }
      ],
      "payable": false,
      "stateMutability": "view",
      "type": "function"
    },
    {
      "constant": false,
      "inputs": [
        {
          "name": "newOwner",
          "type": "address"
        }
      ],
      "name": "transferOwnership",
      "outputs": [],
      "payable": false,
      "stateMutability": "nonpayable",
      "type": "function"
    },
    {
      "inputs": [],
      "payable": false,
      "stateMutability": "nonpayable",
      "type": "constructor"
    },
    {
      "anonymous": false,
      "inputs": [],
      "name": "Closed",
      "type": "event"
    },
    {
      "anonymous": false,
      "inputs": [],
      "name": "RefundsEnabled",
      "type": "event"
    },
    {
      "anonymous": false,
      "inputs": [
        {
          "indexed": true,
          "name": "beneficiary",
          "type": "address"
        },
        {
          "indexed": false,
          "name": "weiAmount",
          "type": "uint256"
        }
      ],
      "name": "Refunded",
      "type": "event"
    },
    {
      "anonymous": false,
      "inputs": [
        {
          "indexed": true,
          "name": "beneficiary",
          "type": "address"
        },
        {
          "indexed": false,
          "name": "weiAmount",
          "type": "uint256"
        }
      ],
      "name": "Deposited",
      "type": "event"
    },
    {
      "anonymous": false,
      "inputs": [
        {
          "indexed": true,
          "name": "previousOwner",
          "type": "address"
        },
        {
          "indexed": true,
          "name": "newOwner",
          "type": "address"
        }
      ],
      "name": "OwnershipTransferred",
      "type": "event"
    },
    {
      "constant": false,
      "inputs": [
        {
          "name": "investor",
          "type": "address"
        }
      ],
      "name": "deposit",
      "outputs": [],
      "payable": true,
      "stateMutability": "payable",
      "type": "function"
    },
    {
      "constant": false,
      "inputs": [
        {
          "name": "_wallet1",
          "type": "address"
        },
        {
          "name": "_wallet2",
          "type": "address"
        },
        {
          "name": "_feesValue",
          "type": "uint256"
        }
      ],
      "name": "close",
      "outputs": [],
      "payable": false,
      "stateMutability": "nonpayable",
      "type": "function"
    },
    {
      "constant": false,
      "inputs": [],
      "name": "enableRefunds",
      "outputs": [],
      "payable": false,
      "stateMutability": "nonpayable",
      "type": "function"
    },
    {
      "constant": false,
      "inputs": [
        {
          "name": "investor",
          "type": "address"
        }
      ],
      "name": "refund",
      "outputs": [],
      "payable": false,
      "stateMutability": "nonpayable",
      "type": "function"
    },
    {
      "constant": false,
      "inputs": [],
      "name": "restart",
      "outputs": [],
      "payable": false,
      "stateMutability": "nonpayable",
      "type": "function"
    },
    {
      "constant": false,
      "inputs": [
        {
          "name": "_wallet",
          "type": "address"
        }
      ],
      "name": "del",
      "outputs": [],
      "payable": false,
      "stateMutability": "nonpayable",
      "type": "function"
    }
  ],
  "bytecode": "0x608060405234801561001057600080fd5b5060008054600160a060020a031916331781556002805460ff191690556106f590819061003d90396000f3006080604052600436106100a35763ffffffff7c01000000000000000000000000000000000000000000000000000000006000350416631ef3755d81146100a857806347fa061e146100bf5780638c52dc41146100f85780638da5cb5b1461010d578063b9caebf41461013e578063c19d93fb1461015f578063f2fde38b14610198578063f340fa01146101b9578063f5bf7413146101cd578063fa89401a146101f7575b600080fd5b3480156100b457600080fd5b506100bd610218565b005b3480156100cb57600080fd5b506100e660ff60043516600160a060020a036024351661028b565b60408051918252519081900360200190f35b34801561010457600080fd5b506100bd6102a8565b34801561011957600080fd5b50610122610314565b60408051600160a060020a039092168252519081900360200190f35b34801561014a57600080fd5b506100bd600160a060020a0360043516610323565b34801561016b57600080fd5b50610174610346565b6040518082600281111561018457fe5b60ff16815260200191505060405180910390f35b3480156101a457600080fd5b506100bd600160a060020a036004351661034f565b6100bd600160a060020a03600435166103e3565b3480156101d957600080fd5b506100bd600160a060020a03600435811690602435166044356104ba565b34801561020357600080fd5b506100bd600160a060020a03600435166105bb565b600054600160a060020a0316331461022f57600080fd5b6002805460ff168181111561024057fe5b1461024a57600080fd5b6000805474ff000000000000000000000000000000000000000019811660a060020a9182900460ff908116600101169091021790556002805460ff19169055565b600160209081526000928352604080842090915290825290205481565b600054600160a060020a031633146102bf57600080fd5b60006002805460ff16908111156102d257fe5b146102dc57600080fd5b6002805460ff191660011790556040517f599d8e5a83cffb867d051598c4d70e805d59802d8081c1c7d6dffc5b6aca2b8990600090a1565b600054600160a060020a031681565b600054600160a060020a0316331461033a57600080fd5b80600160a060020a0316ff5b60025460ff1681565b600054600160a060020a0316331461036657600080fd5b600160a060020a038116151561037b57600080fd5b60008054604051600160a060020a03808516939216917f8be0079c531659141344cd1fd0a4f28419497f9722a3daafe3b4186f6b6457e091a36000805473ffffffffffffffffffffffffffffffffffffffff1916600160a060020a0392909216919091179055565b600054600160a060020a031633146103fa57600080fd5b60006002805460ff169081111561040d57fe5b1461041757600080fd5b6000805460a060020a900460ff168152600160209081526040808320600160a060020a038516845290915290205461044f90346106b3565b6000805460a060020a900460ff168152600160209081526040808320600160a060020a03861680855290835292819020939093558251348152925191927f2da466a7b24304f47e87fa2e1e5a81b9831ce54fec19055ce277ca2f39ba42c4929081900390910190a250565b600054600160a060020a031633146104d157600080fd5b60006002805460ff16908111156104e457fe5b146104ee57600080fd5b600160a060020a038316151561050357600080fd5b6002805460ff1916811790556040517f1cdde67b72a90f19919ac732a437ac2f7a10fc128d28c2a6e525d89ce5cd9d3a90600090a1600160a060020a0382161561057f57604051600160a060020a0383169082156108fc029083906000818181858888f1935050505015801561057d573d6000803e3d6000fd5b505b604051600160a060020a03841690303180156108fc02916000818181858888f193505050501580156105b5573d6000803e3d6000fd5b50505050565b600060016002805460ff16908111156105d057fe5b146105da57600080fd5b506000805460a060020a900460ff168152600160209081526040808320600160a060020a038516845290915281205490811161061557600080fd5b6000805460a060020a900460ff168152600160209081526040808320600160a060020a03861680855292528083208390555190916108fc841502918491818181858888f1935050505015801561066f573d6000803e3d6000fd5b50604080518281529051600160a060020a038416917fd7dee2702d63ad89917b6a4da9981c90c4d24f8c2bdfd64c604ecae57d8d0651919081900360200190a25050565b6000828201838110156106c257fe5b93925050505600a165627a7a72305820e8175a2b52eadcb63eeda6755fe307ba2b4ecca42577765f488b42cc70b818790029",
  "source": "pragma solidity ^0.4.21;\n\nimport '../Ownable.sol';\nimport '../SafeMath.sol';\n\n// (A3)\n// Contract for freezing of investors' funds. Hence, investors will be able to withdraw money if the\n// round does not attain the softcap. From here the wallet of the beneficiary will receive all the\n// money (namely, the beneficiary, not the manager's wallet).\ncontract RefundVault is Ownable {\n    using SafeMath for uint256;\n\n    enum State { Active, Refunding, Closed }\n\n    uint8 round;\n\n    mapping (uint8 => mapping (address => uint256)) public deposited;\n\n    State public state;\n\n    event Closed();\n    event RefundsEnabled();\n    event Refunded(address indexed beneficiary, uint256 weiAmount);\n    event Deposited(address indexed beneficiary, uint256 weiAmount);\n\n    function RefundVault() public {\n        state = State.Active;\n    }\n\n    // Depositing funds on behalf of an TokenSale investor. Available to the owner of the contract (Crowdsale Contract).\n    function deposit(address investor) onlyOwner public payable {\n        require(state == State.Active);\n        deposited[round][investor] = deposited[round][investor].add(msg.value);\n        emit Deposited(investor,msg.value);\n    }\n\n    // Move the collected funds to a specified address. Available to the owner of the contract.\n    function close(address _wallet1, address _wallet2, uint256 _feesValue) onlyOwner public {\n        require(state == State.Active);\n        require(_wallet1 != 0x0);\n        state = State.Closed;\n        emit Closed();\n        if(_wallet2 != 0x0)\n        _wallet2.transfer(_feesValue);\n        _wallet1.transfer(address(this).balance);\n    }\n\n    // Allow refund to investors. Available to the owner of the contract.\n    function enableRefunds() onlyOwner public {\n        require(state == State.Active);\n        state = State.Refunding;\n        emit RefundsEnabled();\n    }\n\n    // Return the funds to a specified investor. In case of failure of the round, the investor\n    // should call this method of this contract (RefundVault) or call the method claimRefund of Crowdsale\n    // contract. This function should be called either by the investor himself, or the company\n    // (or anyone) can call this function in the loop to return funds to all investors en masse.\n    function refund(address investor) public {\n        require(state == State.Refunding);\n        uint256 depositedValue = deposited[round][investor];\n        require(depositedValue > 0);\n        deposited[round][investor] = 0;\n        investor.transfer(depositedValue);\n        emit Refunded(investor, depositedValue);\n    }\n\n    function restart() external onlyOwner {\n        require(state == State.Closed);\n        round++;\n        state = State.Active;\n\n    }\n\n    // Destruction of the contract with return of funds to the specified address. Available to\n    // the owner of the contract.\n    function del(address _wallet) external onlyOwner {\n        selfdestruct(_wallet);\n    }\n}\n",
  "sourcePath": "/Users/nickolay/workspace/rsk/app/contracts/token-sale-contracts/TokenSale/Crowdsale/RefundVault.sol",
  "compiler": {
    "name": "solc",
    "version": "0.4.24+commit.e67f0147.Emscripten.clang"
  },
  "schemaVersion": "2.0.0",
  "updatedAt": "2018-06-23T12:35:52.162Z"
}