{
  "contractName": "AllocationTOSS",
  "abi": [
    {
      "constant": true,
      "inputs": [],
      "name": "totalShare",
      "outputs": [
        {
          "name": "",
          "type": "uint256"
        }
      ],
      "payable": false,
      "stateMutability": "view",
      "type": "function"
    },
    {
      "constant": true,
      "inputs": [],
      "name": "owner",
      "outputs": [
        {
          "name": "",
          "type": "address"
        }
      ],
      "payable": false,
      "stateMutability": "view",
      "type": "function"
    },
    {
      "constant": true,
      "inputs": [],
      "name": "unlockPart1",
      "outputs": [
        {
          "name": "",
          "type": "uint256"
        }
      ],
      "payable": false,
      "stateMutability": "view",
      "type": "function"
    },
    {
      "constant": true,
      "inputs": [
        {
          "name": "",
          "type": "address"
        }
      ],
      "name": "shares",
      "outputs": [
        {
          "name": "proportion",
          "type": "uint256"
        },
        {
          "name": "forPart",
          "type": "uint256"
        }
      ],
      "payable": false,
      "stateMutability": "view",
      "type": "function"
    },
    {
      "constant": true,
      "inputs": [],
      "name": "unlockPart2",
      "outputs": [
        {
          "name": "",
          "type": "uint256"
        }
      ],
      "payable": false,
      "stateMutability": "view",
      "type": "function"
    },
    {
      "constant": false,
      "inputs": [
        {
          "name": "newOwner",
          "type": "address"
        }
      ],
      "name": "transferOwnership",
      "outputs": [],
      "payable": false,
      "stateMutability": "nonpayable",
      "type": "function"
    },
    {
      "constant": true,
      "inputs": [],
      "name": "token",
      "outputs": [
        {
          "name": "",
          "type": "address"
        }
      ],
      "payable": false,
      "stateMutability": "view",
      "type": "function"
    },
    {
      "inputs": [
        {
          "name": "_token",
          "type": "address"
        },
        {
          "name": "_unlockPart1",
          "type": "uint256"
        },
        {
          "name": "_unlockPart2",
          "type": "uint256"
        }
      ],
      "payable": false,
      "stateMutability": "nonpayable",
      "type": "constructor"
    },
    {
      "anonymous": false,
      "inputs": [
        {
          "indexed": true,
          "name": "previousOwner",
          "type": "address"
        },
        {
          "indexed": true,
          "name": "newOwner",
          "type": "address"
        }
      ],
      "name": "OwnershipTransferred",
      "type": "event"
    },
    {
      "constant": false,
      "inputs": [
        {
          "name": "_beneficiary",
          "type": "address"
        },
        {
          "name": "_proportion",
          "type": "uint256"
        },
        {
          "name": "_percenForFirstPart",
          "type": "uint256"
        }
      ],
      "name": "addShare",
      "outputs": [],
      "payable": false,
      "stateMutability": "nonpayable",
      "type": "function"
    },
    {
      "constant": false,
      "inputs": [
        {
          "name": "_owner",
          "type": "address"
        }
      ],
      "name": "unlockFor",
      "outputs": [],
      "payable": false,
      "stateMutability": "nonpayable",
      "type": "function"
    }
  ],
  "bytecode": "0x6060604052341561000f57600080fd5b60405160608061063d83398101604052808051919060200180519190602001805160008054600160a060020a03338116600160a060020a0319928316179092556001959095556002919091556005805495909116949093169390931790915550506105be8061007f6000396000f30060606040526004361061007f5763ffffffff60e060020a600035041663026c420781146100845780638da5cb5b146100a9578063ae7d0cac146100d8578063c631ca0a146100ff578063ce7c2ac214610112578063dde4997914610149578063ed28de8114610168578063f2fde38b1461017b578063fc0c546a1461019a575b600080fd5b341561008f57600080fd5b6100976101ad565b60405190815260200160405180910390f35b34156100b457600080fd5b6100bc6101b3565b604051600160a060020a03909116815260200160405180910390f35b34156100e357600080fd5b6100fd600160a060020a03600435166024356044356101c2565b005b341561010a57600080fd5b61009761025e565b341561011d57600080fd5b610131600160a060020a0360043516610264565b60405191825260208201526040908101905180910390f35b341561015457600080fd5b6100fd600160a060020a036004351661027d565b341561017357600080fd5b610097610474565b341561018657600080fd5b6100fd600160a060020a036004351661047a565b34156101a557600080fd5b6100bc610515565b60035481565b600654600160a060020a031681565b60005433600160a060020a039081169116146101dd57600080fd5b604080519081016040908152600160a060020a0385166000908152600460205220548190610211908563ffffffff61052416565b81526020908101839052600160a060020a038516600090815260049091526040902081518155602082015160019091015550600354610256908363ffffffff61052416565b600355505050565b60015481565b6004602052600090815260409020805460019091015482565b600080600154421015151561029157600080fd5b600160a060020a03831660009081526004602052604090205460025490925042101561031057600160a060020a0383166000908152600460205260409020600101546064906102e790849063ffffffff61053e16565b8115156102f057fe5b600160a060020a0385166000908152600460205260408120600101550491505b600082111561046f576003546005546103a6919061039a908590600160a060020a03166370a082313060405160e060020a63ffffffff8416028152600160a060020a039091166004820152602401602060405180830381600087803b151561037757600080fd5b5af1151561038457600080fd5b505050604051805191905063ffffffff61053e16565b9063ffffffff61056916565b600160a060020a0384166000908152600460205260409020549091506103d2908363ffffffff61058016565b600160a060020a0384166000908152600460205260409020556003546103fe908363ffffffff61058016565b600355600554600160a060020a031663a9059cbb848360405160e060020a63ffffffff8516028152600160a060020a0390921660048301526024820152604401602060405180830381600087803b151561045757600080fd5b5af1151561046457600080fd5b505050604051805150505b505050565b60025481565b60005433600160a060020a0390811691161461049557600080fd5b600160a060020a03811615156104aa57600080fd5b600054600160a060020a0380831691167f8be0079c531659141344cd1fd0a4f28419497f9722a3daafe3b4186f6b6457e060405160405180910390a36000805473ffffffffffffffffffffffffffffffffffffffff1916600160a060020a0392909216919091179055565b600554600160a060020a031681565b60008282018381101561053357fe5b8091505b5092915050565b6000808315156105515760009150610537565b5082820282848281151561056157fe5b041461053357fe5b600080828481151561057757fe5b04949350505050565b60008282111561058c57fe5b509003905600a165627a7a72305820550fd0c3bb0b98f314618164ed6dc71ad16d1f106004ae484925292ab3f36ce00029",
  "source": "pragma solidity ^0.4.21;\n\nimport '../Ownable.sol';\nimport '../SafeMath.sol';\nimport '../Token/ERC20Basic.sol';\n\n// (B)\n// The contract for freezing tokens for the team..\ncontract AllocationTOSS is Ownable {\n    using SafeMath for uint256;\n\n    struct Share {\n    uint256 proportion;\n    uint256 forPart;\n    }\n\n    // How many days to freeze from the moment of finalizing ICO\n    uint256 public unlockPart1;\n    uint256 public unlockPart2;\n    uint256 public totalShare;\n\n    mapping(address => Share) public shares;\n\n    ERC20Basic public token;\n\n    address public owner;\n\n    // The contract takes the ERC20 coin address from which this contract will work and from the\n    // owner (Team wallet) who owns the funds.\n    function AllocationTOSS(ERC20Basic _token, uint256 _unlockPart1, uint256 _unlockPart2) public{\n        unlockPart1 = _unlockPart1;\n        unlockPart2 = _unlockPart2;\n        token = _token;\n    }\n\n    function addShare(address _beneficiary, uint256 _proportion, uint256 _percenForFirstPart) onlyOwner external {\n        shares[_beneficiary] = Share(shares[_beneficiary].proportion.add(_proportion),_percenForFirstPart);\n        totalShare = totalShare.add(_proportion);\n    }\n\n    // If the time of freezing expired will return the funds to the owner.\n    function unlockFor(address _owner) public {\n        require(now >= unlockPart1);\n        uint256 share = shares[_owner].proportion;\n        if (now < unlockPart2) {\n            share = share.mul(shares[_owner].forPart)/100;\n            shares[_owner].forPart = 0;\n        }\n        if (share > 0) {\n            uint256 unlockedToken = token.balanceOf(this).mul(share).div(totalShare);\n            shares[_owner].proportion = shares[_owner].proportion.sub(share);\n            totalShare = totalShare.sub(share);\n            token.transfer(_owner,unlockedToken);\n        }\n    }\n}\n",
  "sourcePath": "/home/gitlab-runner/builds/eb462ed4/0/axioma/proof-of-toss/contracts/token-sale-contracts/TokenSale/Crowdsale/AllocationToss.sol",
  "compiler": {
    "name": "solc",
    "version": "0.4.21+commit.dfe3193c.Emscripten.clang"
  },
  "schemaVersion": "2.0.0",
  "updatedAt": "2018-05-28T16:03:35.876Z"
}