{
  "contractName": "Blocker",
  "abi": [
    {
      "inputs": [
        {
          "name": "_token",
          "type": "address"
        }
      ],
      "payable": false,
      "stateMutability": "nonpayable",
      "type": "constructor"
    },
    {
      "constant": true,
      "inputs": [],
      "name": "getToken",
      "outputs": [
        {
          "name": "",
          "type": "address"
        }
      ],
      "payable": false,
      "stateMutability": "view",
      "type": "function"
    },
    {
      "constant": false,
      "inputs": [
        {
          "name": "_owner",
          "type": "address"
        },
        {
          "name": "amount",
          "type": "uint256"
        }
      ],
      "name": "blockTokens",
      "outputs": [],
      "payable": false,
      "stateMutability": "nonpayable",
      "type": "function"
    },
    {
      "constant": false,
      "inputs": [
        {
          "name": "_owner",
          "type": "address"
        },
        {
          "name": "amount",
          "type": "uint256"
        }
      ],
      "name": "unblockTokens",
      "outputs": [],
      "payable": false,
      "stateMutability": "nonpayable",
      "type": "function"
    },
    {
      "constant": false,
      "inputs": [
        {
          "name": "_owner",
          "type": "address"
        },
        {
          "name": "_receiver",
          "type": "address"
        },
        {
          "name": "amount",
          "type": "uint256"
        }
      ],
      "name": "unblockTokensTo",
      "outputs": [],
      "payable": false,
      "stateMutability": "nonpayable",
      "type": "function"
    }
  ],
  "bytecode": "0x6060604052341561000f57600080fd5b6040516020806102be8339810160405280805160008054600160a060020a03909216600160a060020a0319909216919091179055505061026a806100546000396000f3006060604052600436106100485763ffffffff60e060020a600035041663044d9c39811461004d57806321df0da7146100775780633c1a88d7146100a65780639b267540146100c8575b600080fd5b341561005857600080fd5b610075600160a060020a03600435811690602435166044356100ea565b005b341561008257600080fd5b61008a610162565b604051600160a060020a03909116815260200160405180910390f35b34156100b157600080fd5b610075600160a060020a0360043516602435610171565b34156100d357600080fd5b610075600160a060020a03600435166024356101db565b600054600160a060020a03166347b27b8b84848460405160e060020a63ffffffff8616028152600160a060020a0393841660048201529190921660248201526044810191909152606401600060405180830381600087803b151561014d57600080fd5b5af1151561015a57600080fd5b505050505050565b600054600160a060020a031690565b600054600160a060020a0316633c1a88d7838360405160e060020a63ffffffff8516028152600160a060020a0390921660048301526024820152604401600060405180830381600087803b15156101c757600080fd5b5af115156101d457600080fd5b5050505050565b600054600160a060020a03166347b27b8b83808460405160e060020a63ffffffff8616028152600160a060020a0393841660048201529190921660248201526044810191909152606401600060405180830381600087803b15156101c757600080fd00a165627a7a72305820fba4006adae3c982ee9e0d8d08cb47df5f8e55897be6c5cc946d8640a08810480029",
  "source": "pragma solidity ^0.4.2;\n\nimport \"../token-sale-contracts/TokenSale/Token/Token.sol\";\n\ncontract Blocker {\n    Token token;\n\n    function Blocker(address _token) {\n        token = Token(_token);\n    }\n\n    function getToken() constant returns (address) {\n        return address(token);\n    }\n\n    function blockTokens(address _owner, uint amount) {\n        token.blockTokens(_owner, amount);\n    }\n\n    function unblockTokens(address _owner, uint amount) {\n        token.unblockTokens(_owner, _owner, amount);\n    }\n\n    function unblockTokensTo(address _owner, address _receiver, uint amount) {\n        token.unblockTokens(_owner, _receiver, amount);\n    }\n}\n",
  "sourcePath": "/home/dmitrya2e/Work/Projects/ProofOfToss/Code/proof-of-toss/contracts/test/Blocker.sol",
  "compiler": {
    "name": "solc",
    "version": "0.4.21+commit.dfe3193c.Emscripten.clang"
  },
  "schemaVersion": "2.0.0",
  "updatedAt": "2018-05-28T10:22:19.618Z"
}