{
  "contractName": "BurnableToken",
  "abi": [
    {
      "constant": true,
      "inputs": [],
      "name": "totalSupply",
      "outputs": [
        {
          "name": "",
          "type": "uint256"
        }
      ],
      "payable": false,
      "stateMutability": "view",
      "type": "function"
    },
    {
      "constant": true,
      "inputs": [
        {
          "name": "_owner",
          "type": "address"
        }
      ],
      "name": "balanceOf",
      "outputs": [
        {
          "name": "balance",
          "type": "uint256"
        }
      ],
      "payable": false,
      "stateMutability": "view",
      "type": "function"
    },
    {
      "constant": true,
      "inputs": [],
      "name": "owner",
      "outputs": [
        {
          "name": "",
          "type": "address"
        }
      ],
      "payable": false,
      "stateMutability": "view",
      "type": "function"
    },
    {
      "constant": false,
      "inputs": [
        {
          "name": "_to",
          "type": "address"
        },
        {
          "name": "_value",
          "type": "uint256"
        }
      ],
      "name": "transfer",
      "outputs": [
        {
          "name": "",
          "type": "bool"
        }
      ],
      "payable": false,
      "stateMutability": "nonpayable",
      "type": "function"
    },
    {
      "constant": false,
      "inputs": [
        {
          "name": "newOwner",
          "type": "address"
        }
      ],
      "name": "transferOwnership",
      "outputs": [],
      "payable": false,
      "stateMutability": "nonpayable",
      "type": "function"
    },
    {
      "anonymous": false,
      "inputs": [
        {
          "indexed": true,
          "name": "burner",
          "type": "address"
        },
        {
          "indexed": false,
          "name": "value",
          "type": "uint256"
        }
      ],
      "name": "Burn",
      "type": "event"
    },
    {
      "anonymous": false,
      "inputs": [
        {
          "indexed": true,
          "name": "previousOwner",
          "type": "address"
        },
        {
          "indexed": true,
          "name": "newOwner",
          "type": "address"
        }
      ],
      "name": "OwnershipTransferred",
      "type": "event"
    },
    {
      "anonymous": false,
      "inputs": [
        {
          "indexed": true,
          "name": "from",
          "type": "address"
        },
        {
          "indexed": true,
          "name": "to",
          "type": "address"
        },
        {
          "indexed": false,
          "name": "value",
          "type": "uint256"
        }
      ],
      "name": "Transfer",
      "type": "event"
    },
    {
      "constant": false,
      "inputs": [
        {
          "name": "_beneficiary",
          "type": "address"
        },
        {
          "name": "_value",
          "type": "uint256"
        }
      ],
      "name": "burn",
      "outputs": [],
      "payable": false,
      "stateMutability": "nonpayable",
      "type": "function"
    }
  ],
  "bytecode": "0x606060405260028054600160a060020a03191633600160a060020a03161790556104b18061002e6000396000f3006060604052600436106100775763ffffffff7c010000000000000000000000000000000000000000000000000000000060003504166318160ddd811461007c57806370a08231146100a15780638da5cb5b146100c05780639dc29fac146100ef578063a9059cbb14610113578063f2fde38b14610149575b600080fd5b341561008757600080fd5b61008f610168565b60405190815260200160405180910390f35b34156100ac57600080fd5b61008f600160a060020a036004351661016e565b34156100cb57600080fd5b6100d3610189565b604051600160a060020a03909116815260200160405180910390f35b34156100fa57600080fd5b610111600160a060020a0360043516602435610198565b005b341561011e57600080fd5b610135600160a060020a03600435166024356102b0565b604051901515815260200160405180910390f35b341561015457600080fd5b610111600160a060020a03600435166103c2565b60015490565b600160a060020a031660009081526020819052604090205490565b600254600160a060020a031681565b60025433600160a060020a039081169116146101b357600080fd5b600160a060020a0382166000908152602081905260409020548111156101d857600080fd5b600160a060020a038216600090815260208190526040902054610201908263ffffffff61045d16565b600160a060020a03831660009081526020819052604090205560015461022d908263ffffffff61045d16565b600155600160a060020a0382167fcc16f5dbb4873280815c1ee09dbd06736cffcc184412cf7a71a0fdb75d397ca58260405190815260200160405180910390a26000600160a060020a0383167fddf252ad1be2c89b69c2b068fc378daa952ba7f163c4a11628f55a4df523b3ef8360405190815260200160405180910390a35050565b6000600160a060020a03831615156102c757600080fd5b600160a060020a0333166000908152602081905260409020548211156102ec57600080fd5b600160a060020a033316600090815260208190526040902054610315908363ffffffff61045d16565b600160a060020a03338116600090815260208190526040808220939093559085168152205461034a908363ffffffff61046f16565b60008085600160a060020a0316600160a060020a031681526020019081526020016000208190555082600160a060020a031633600160a060020a03167fddf252ad1be2c89b69c2b068fc378daa952ba7f163c4a11628f55a4df523b3ef8460405190815260200160405180910390a350600192915050565b60025433600160a060020a039081169116146103dd57600080fd5b600160a060020a03811615156103f257600080fd5b600254600160a060020a0380831691167f8be0079c531659141344cd1fd0a4f28419497f9722a3daafe3b4186f6b6457e060405160405180910390a36002805473ffffffffffffffffffffffffffffffffffffffff1916600160a060020a0392909216919091179055565b60008282111561046957fe5b50900390565b60008282018381101561047e57fe5b93925050505600a165627a7a72305820fedf15f748f675ec2818ee21f339629a70792e3f8274a611620ad801c5ed3c970029",
  "source": "pragma solidity ^0.4.21;\n\nimport './BasicToken.sol';\nimport '../Ownable.sol';\n\ncontract BurnableToken is BasicToken, Ownable {\n\n    event Burn(address indexed burner, uint256 value);\n\n    /**\n     * @dev Burns a specific amount of tokens.\n     * @param _value The amount of token to be burned.\n     */\n    function burn(address _beneficiary, uint256 _value) public onlyOwner {\n        require(_value <= balances[_beneficiary]);\n        // no need to require value <= totalSupply, since that would imply the\n        // sender's balance is greater than the totalSupply, which *should* be an assertion failure\n\n        balances[_beneficiary] = balances[_beneficiary].sub(_value);\n        totalSupply_ = totalSupply_.sub(_value);\n        emit Burn(_beneficiary, _value);\n        emit Transfer(_beneficiary, address(0), _value);\n    }\n}\n",
  "sourcePath": "/Users/nickolay/workspace/rsk/app/contracts/token-sale-contracts/TokenSale/Token/BurnableToken.sol",
  "compiler": {
    "name": "solc",
    "version": "0.4.21+commit.dfe3193c.Emscripten.clang"
  },
  "schemaVersion": "2.0.0",
  "updatedAt": "2018-05-29T10:33:34.915Z"
}