{
  "contractName": "Creator",
  "abi": [
    {
      "constant": true,
      "inputs": [],
      "name": "refund",
      "outputs": [
        {
          "name": "",
          "type": "address"
        }
      ],
      "payable": false,
      "stateMutability": "view",
      "type": "function"
    },
    {
      "constant": true,
      "inputs": [],
      "name": "token",
      "outputs": [
        {
          "name": "",
          "type": "address"
        }
      ],
      "payable": false,
      "stateMutability": "view",
      "type": "function"
    },
    {
      "constant": false,
      "inputs": [],
      "name": "createToken",
      "outputs": [
        {
          "name": "",
          "type": "address"
        }
      ],
      "payable": false,
      "stateMutability": "nonpayable",
      "type": "function"
    },
    {
      "constant": false,
      "inputs": [
        {
          "name": "_token",
          "type": "address"
        },
        {
          "name": "_unlockPart1",
          "type": "uint256"
        },
        {
          "name": "_unlockPart2",
          "type": "uint256"
        }
      ],
      "name": "createAllocation",
      "outputs": [
        {
          "name": "",
          "type": "address"
        }
      ],
      "payable": false,
      "stateMutability": "nonpayable",
      "type": "function"
    },
    {
      "constant": false,
      "inputs": [],
      "name": "createRefund",
      "outputs": [
        {
          "name": "",
          "type": "address"
        }
      ],
      "payable": false,
      "stateMutability": "nonpayable",
      "type": "function"
    }
  ],
  "bytecode": "0x606060405261000c610090565b604051809103906000f080151561002257600080fd5b60008054600160a060020a031916600160a060020a039290921691909117905561004a6100a0565b604051809103906000f080151561006057600080fd5b60018054600160a060020a031916600160a060020a0392909216919091179055341561008b57600080fd5b6100b0565b604051612168806109d883390190565b60405161074280612b4083390190565b610919806100bf6000396000f3006060604052600436106100535763ffffffff60e060020a6000350416633b8b4a618114610058578063590e1ae31461008757806379dcbd3d1461009a5780639cbf9e36146100bf578063fc0c546a146100d2575b600080fd5b341561006357600080fd5b61006b6100e5565b604051600160a060020a03909116815260200160405180910390f35b341561009257600080fd5b61006b610159565b34156100a557600080fd5b61006b600160a060020a0360043516602435604435610168565b34156100ca57600080fd5b61006b61021f565b34156100dd57600080fd5b61006b610291565b600154600090600160a060020a031663f2fde38b3360405160e060020a63ffffffff8416028152600160a060020a039091166004820152602401600060405180830381600087803b151561013857600080fd5b5af1151561014557600080fd5b5050600154600160a060020a031691505090565b600154600160a060020a031681565b6000808484846101766102a0565b8084600160a060020a0316600160a060020a031681526020018381526020018281526020019350505050604051809103906000f08015156101b657600080fd5b905080600160a060020a031663f2fde38b3360405160e060020a63ffffffff8416028152600160a060020a039091166004820152602401600060405180830381600087803b151561020657600080fd5b5af1151561021357600080fd5b50919695505050505050565b60008054600160a060020a031663f2fde38b3360405160e060020a63ffffffff8416028152600160a060020a039091166004820152602401600060405180830381600087803b151561027057600080fd5b5af1151561027d57600080fd5b5050600054600160a060020a031691505090565b600054600160a060020a031681565b60405161063d806102b18339019056006060604052341561000f57600080fd5b60405160608061063d83398101604052808051919060200180519190602001805160008054600160a060020a03338116600160a060020a0319928316179092556001959095556002919091556005805495909116949093169390931790915550506105be8061007f6000396000f30060606040526004361061007f5763ffffffff60e060020a600035041663026c420781146100845780638da5cb5b146100a9578063ae7d0cac146100d8578063c631ca0a146100ff578063ce7c2ac214610112578063dde4997914610149578063ed28de8114610168578063f2fde38b1461017b578063fc0c546a1461019a575b600080fd5b341561008f57600080fd5b6100976101ad565b60405190815260200160405180910390f35b34156100b457600080fd5b6100bc6101b3565b604051600160a060020a03909116815260200160405180910390f35b34156100e357600080fd5b6100fd600160a060020a03600435166024356044356101c2565b005b341561010a57600080fd5b61009761025e565b341561011d57600080fd5b610131600160a060020a0360043516610264565b60405191825260208201526040908101905180910390f35b341561015457600080fd5b6100fd600160a060020a036004351661027d565b341561017357600080fd5b610097610474565b341561018657600080fd5b6100fd600160a060020a036004351661047a565b34156101a557600080fd5b6100bc610515565b60035481565b600654600160a060020a031681565b60005433600160a060020a039081169116146101dd57600080fd5b604080519081016040908152600160a060020a0385166000908152600460205220548190610211908563ffffffff61052416565b81526020908101839052600160a060020a038516600090815260049091526040902081518155602082015160019091015550600354610256908363ffffffff61052416565b600355505050565b60015481565b6004602052600090815260409020805460019091015482565b600080600154421015151561029157600080fd5b600160a060020a03831660009081526004602052604090205460025490925042101561031057600160a060020a0383166000908152600460205260409020600101546064906102e790849063ffffffff61053e16565b8115156102f057fe5b600160a060020a0385166000908152600460205260408120600101550491505b600082111561046f576003546005546103a6919061039a908590600160a060020a03166370a082313060405160e060020a63ffffffff8416028152600160a060020a039091166004820152602401602060405180830381600087803b151561037757600080fd5b5af1151561038457600080fd5b505050604051805191905063ffffffff61053e16565b9063ffffffff61056916565b600160a060020a0384166000908152600460205260409020549091506103d2908363ffffffff61058016565b600160a060020a0384166000908152600460205260409020556003546103fe908363ffffffff61058016565b600355600554600160a060020a031663a9059cbb848360405160e060020a63ffffffff8516028152600160a060020a0390921660048301526024820152604401602060405180830381600087803b151561045757600080fd5b5af1151561046457600080fd5b505050604051805150505b505050565b60025481565b60005433600160a060020a0390811691161461049557600080fd5b600160a060020a03811615156104aa57600080fd5b600054600160a060020a0380831691167f8be0079c531659141344cd1fd0a4f28419497f9722a3daafe3b4186f6b6457e060405160405180910390a36000805473ffffffffffffffffffffffffffffffffffffffff1916600160a060020a0392909216919091179055565b600554600160a060020a031681565b60008282018381101561053357fe5b8091505b5092915050565b6000808315156105515760009150610537565b5082820282848281151561056157fe5b041461053357fe5b600080828481151561057757fe5b04949350505050565b60008282111561058c57fe5b509003905600a165627a7a72305820550fd0c3bb0b98f314618164ed6dc71ad16d1f106004ae484925292ab3f36ce00029a165627a7a72305820ea7269596fae2b5bfc09375c26e51d76e48cc18f8512ca78255ad9149f6df0c0002960606040526005805460ff1916600117905560038054600160a060020a033316600160a060020a031990911617905561212b8061003d6000396000f3006060604052600436106101c95763ffffffff60e060020a60003504166306fdde0381146101ce578063095ea7b31461025857806311cfb19d1461028e57806317221e2c146102bf57806318160ddd146102de5780631b0a7774146102f15780631d67ef251461031657806320ceb5361461033b57806323b872dd1461036157806324db1f5014610389578063313ce567146104585780633c1a88d7146104815780633f35d033146104a357806340c10f191461050857806347b27b8b1461052a57806350bb117a146105525780635c975abb146105715780636093e22a1461058457806366188463146105a9578063680b3bdf146105cb57806370a082311461061a57806375e2ff65146106395780638328dbcd14610658578063852e9f46146106875780638da5cb5b146106ac5780638fd3ab80146106bf57806395a0f5eb146106d257806395d89b41146106e55780639dc29fac146106f8578063a9059cbb1461071a578063b3e1f5231461073c578063b58e521614610760578063b8b3db4f14610785578063ba8ad39e146107a4578063bedb86fb146107c8578063d73dd623146107e0578063dd62ed3e14610802578063f2fde38b14610827578063f831ebab14610846575b600080fd5b34156101d957600080fd5b6101e161086b565b60405160208082528190810183818151815260200191508051906020019080838360005b8381101561021d578082015183820152602001610205565b50505050905090810190601f16801561024a5780820380516001836020036101000a031916815260200191505b509250505060405180910390f35b341561026357600080fd5b61027a600160a060020a03600435166024356108a2565b604051901515815260200160405180910390f35b341561029957600080fd5b6102ad600160a060020a036004351661090e565b60405190815260200160405180910390f35b34156102ca57600080fd5b61027a600160a060020a0360043516610947565b34156102e957600080fd5b6102ad61095c565b34156102fc57600080fd5b61027a600160a060020a0360043581169060243516610962565b341561032157600080fd5b6102ad600160a060020a0360043581169060243516610982565b341561034657600080fd5b61035f600160a060020a0360043516602435151561099f565b005b341561036c57600080fd5b61027a600160a060020a0360043581169060243516604435610a64565b341561039457600080fd5b61035f60046024813581810190830135806020818102016040519081016040528093929190818152602001838360200280828437820191505050505050919080359060200190820180359060200190808060200260200160405190810160405280939291908181526020018383602002808284378201915050505050509190803590602001908201803590602001908080602002602001604051908101604052809392919081815260200183836020028082843750949650610aa695505050505050565b341561046357600080fd5b61046b610c04565b60405160ff909116815260200160405180910390f35b341561048c57600080fd5b61035f600160a060020a0360043516602435610c09565b34156104ae57600080fd5b61027a60048035600160a060020a03169060248035919060649060443590810190830135806020601f82018190048102016040519081016040528181529291906020840183838082843750949650610df295505050505050565b341561051357600080fd5b61027a600160a060020a0360043516602435610efb565b341561053557600080fd5b61035f600160a060020a0360043581169060243516604435610fe0565b341561055d57600080fd5b6102ad600160a060020a0360043516611235565b341561057c57600080fd5b61027a61126d565b341561058f57600080fd5b61027a600160a060020a0360043581169060243516611276565b34156105b457600080fd5b61027a600160a060020a0360043516602435611296565b34156105d657600080fd5b61035f600460248135818101908301358060208181020160405190810160405280939291908181526020018383602002808284375094965061139095505050505050565b341561062557600080fd5b6102ad600160a060020a03600435166113e5565b341561064457600080fd5b61035f600160a060020a0360043516611400565b341561066357600080fd5b61066b611460565b604051600160a060020a03909116815260200160405180910390f35b341561069257600080fd5b61035f600160a060020a036004351660243560443561146f565b34156106b757600080fd5b61066b6114f4565b34156106ca57600080fd5b61035f611503565b34156106dd57600080fd5b6102ad611531565b34156106f057600080fd5b6101e1611537565b341561070357600080fd5b61035f600160a060020a036004351660243561156e565b341561072557600080fd5b61027a600160a060020a0360043516602435611674565b341561074757600080fd5b61035f600160a060020a036004351660243515156116a8565b341561076b57600080fd5b61035f600160a060020a0360043581169060243516611790565b341561079057600080fd5b61027a600160a060020a03600435166118a6565b34156107af57600080fd5b61035f600160a060020a036004351660243515156118bb565b34156107d357600080fd5b61035f6004351515611963565b34156107eb57600080fd5b61027a600160a060020a0360043516602435611a1c565b341561080d57600080fd5b6102ad600160a060020a0360043581169060243516611ac0565b341561083257600080fd5b61035f600160a060020a0360043516611aeb565b341561085157600080fd5b61035f600160a060020a0360043516602435604435611b86565b60408051908101604052600481527f544f535300000000000000000000000000000000000000000000000000000000602082015281565b600160a060020a03338116600081815260026020908152604080832094871680845294909152808220859055909291907f8c5be1e5ebec7d5bd14f71427d1e84f3dd0314c0f7b2291e5b200ac8c7c3b9259085905190815260200160405180910390a350600192915050565b600160a060020a038116600090815260076020526040812060018101544290101561093c5760009150610941565b805491505b50919050565b60066020526000908152604090205460ff1681565b60015490565b600b60209081526000928352604080842090915290825290205460ff1681565b600c60209081526000928352604080842090915290825290205481565b60035433600160a060020a0390811691161480610a2e5750600354600160a060020a0316637ad71f72600260405160e060020a63ffffffff841602815260ff9091166004820152602401602060405180830381600087803b1515610a0257600080fd5b5af11515610a0f57600080fd5b50505060405180519050600160a060020a031633600160a060020a0316145b1515610a3957600080fd5b600160a060020a03919091166000908152600660205260409020805460ff1916911515919091179055565b6000610a7f82610a738661090e565b9063ffffffff611c4616565b610a88856113e5565b1015610a9357600080fd5b610a9e848484611c55565b949350505050565b600354600090819033600160a060020a0390811691161480610b3a5750600354600160a060020a0316637ad71f72600260405160e060020a63ffffffff841602815260ff9091166004820152602401602060405180830381600087803b1515610b0e57600080fd5b5af11515610b1b57600080fd5b50505060405180519050600160a060020a031633600160a060020a0316145b1515610b4557600080fd5b83518551148015610b57575082518551145b1515610b6257600080fd5b600091505b84518261ffff161015610bfd5760076000868461ffff1681518110610b8857fe5b90602001906020020151600160a060020a0316600160a060020a031681526020019081526020016000209050838261ffff1681518110610bc457fe5b9060200190602002015181558261ffff831681518110610be057fe5b906020019060200201516001808301919091559190910190610b67565b5050505050565b601281565b600554829060ff161580610c355750600160a060020a03331660009081526004602052604090205460ff165b80610c585750600160a060020a03811660009081526004602052604090205460ff165b1515610c6357600080fd5b600160a060020a038084166000908152600b60209081526040808320339094168352929052205460ff161515610c9857600080fd5b610ca582610a738561090e565b610cae846113e5565b10158015610cbc5750600082115b1515610cc757600080fd5b600160a060020a038316600090815260208190526040902054610cf0908363ffffffff611cc616565b600160a060020a0380851660009081526020818152604080832094909455600c8152838220339093168252919091522054610d31908363ffffffff611c4616565b600160a060020a038085166000818152600c6020908152604080832033909516835293905282812093909355906000805160206120e08339815191529085905190815260200160405180910390a333600160a060020a0316600084600160a060020a03166000805160206120c083398151915285604051602081019190915260408082526005818301527f626c6f636b00000000000000000000000000000000000000000000000000000060608301526080909101905180910390a4505050565b60008084803b828111610e0457600080fd5b610e0e8787611674565b5086925082600160a060020a031663c0ee0b8a3388886040518463ffffffff1660e060020a0281526004018084600160a060020a0316600160a060020a0316815260200183815260200180602001828103825283818151815260200191508051906020019080838360005b83811015610e91578082015183820152602001610e79565b50505050905090810190601f168015610ebe5780820380516001836020036101000a031916815260200191505b50945050505050600060405180830381600087803b1515610ede57600080fd5b5af11515610eeb57600080fd5b5060019998505050505050505050565b60035460009033600160a060020a03908116911614610f1957600080fd5b600154610f2c908363ffffffff611c4616565b600155600160a060020a038316600090815260208190526040902054610f58908363ffffffff611c4616565b600160a060020a0384166000818152602081905260409081902092909255907f0f6798a560793a54c3bcfe86a93cde1e73087d944c0ea20544137d41213968859084905190815260200160405180910390a2600160a060020a03831660006000805160206120e08339815191528460405190815260200160405180910390a350600192915050565b600554829060ff16158061100c5750600160a060020a03331660009081526004602052604090205460ff165b8061102f5750600160a060020a03811660009081526004602052604090205460ff165b151561103a57600080fd5b600160a060020a038085166000908152600b60209081526040808320339094168352929052205460ff16151561106f57600080fd5b600160a060020a038085166000908152600c6020908152604080832033909416835292905220548290108015906110a65750600082115b15156110b157600080fd5b600160a060020a038085166000908152600c6020908152604080832033909416835292905220546110e8908363ffffffff611cc616565b600160a060020a038086166000908152600c602090815260408083203385168452825280832094909455918616815290819052205461112d908363ffffffff611c4616565b600160a060020a0380851660009081526020819052604080822093909355908616916000805160206120e08339815191529085905190815260200160405180910390a3600160a060020a03848116908416146111b95782600160a060020a031684600160a060020a03166000805160206120e08339815191528460405190815260200160405180910390a35b33600160a060020a031683600160a060020a031685600160a060020a03166000805160206120c083398151915285604051602081019190915260408082526007818301527f756e626c6f636b0000000000000000000000000000000000000000000000000060608301526080909101905180910390a450505050565b600160a060020a03811660009081526007602052604081206001810154429010156112635760009150610941565b6001015492915050565b60055460ff1681565b600a60209081526000928352604080842090915290825290205460ff1681565b600160a060020a033381166000908152600260209081526040808320938616835292905290812054808311156112f357600160a060020a03338116600090815260026020908152604080832093881683529290529081205561132a565b611303818463ffffffff611cc616565b600160a060020a033381166000908152600260209081526040808320938916835292905220555b600160a060020a0333811660008181526002602090815260408083209489168084529490915290819020547f8c5be1e5ebec7d5bd14f71427d1e84f3dd0314c0f7b2291e5b200ac8c7c3b925915190815260200160405180910390a35060019392505050565b60035460009033600160a060020a039081169116146113ae57600080fd5b5060005b81518110156113e1576113d98282815181106113ca57fe5b90602001906020020151611cd8565b6001016113b2565b5050565b600160a060020a031660009081526020819052604090205490565b60035433600160a060020a0390811691161461141b57600080fd5b600954600160a060020a03161561143157600080fd5b6009805473ffffffffffffffffffffffffffffffffffffffff1916600160a060020a0392909216919091179055565b600954600160a060020a031681565b600160a060020a03331660009081526004602052604081205460ff16151561149657600080fd5b60008211156114ea5750600160a060020a038316600090815260076020526040902080546114ca908463ffffffff611c4616565b815560018101548290116114de57816114e4565b80600101545b60018201555b610bfd8484611674565b600354600160a060020a031681565b600160a060020a0333166000908152602081905260408120541161152657600080fd5b61152f33611cd8565b565b60085481565b60408051908101604052600d81527f50524f4f46204f4620544f535300000000000000000000000000000000000000602082015281565b60035433600160a060020a0390811691161461158957600080fd5b600160a060020a0382166000908152602081905260409020548111156115ae57600080fd5b600160a060020a0382166000908152602081905260409020546115d7908263ffffffff611cc616565b600160a060020a038316600090815260208190526040902055600154611603908263ffffffff611cc616565b600155600160a060020a0382167fcc16f5dbb4873280815c1ee09dbd06736cffcc184412cf7a71a0fdb75d397ca58260405190815260200160405180910390a26000600160a060020a0383166000805160206120e08339815191528360405190815260200160405180910390a35050565b600061168382610a733361090e565b61168c336113e5565b101561169757600080fd5b6116a18383611dea565b9392505050565b60035433600160a060020a03908116911614806116dd5750600160a060020a03331660009081526006602052604090205460ff165b8061175a5750600354600160a060020a0316637ad71f72600260405160e060020a63ffffffff841602815260ff9091166004820152602401602060405180830381600087803b151561172e57600080fd5b5af1151561173b57600080fd5b50505060405180519050600160a060020a031633600160a060020a0316145b151561176557600080fd5b600160a060020a03919091166000908152600460205260409020805460ff1916911515919091179055565b80803b600081116117a057600080fd5b33600160a060020a031683600160a060020a0316141580156117d05750600354600160a060020a03848116911614155b15156117db57600080fd5b600160a060020a038085166000908152600a60209081526040808320339094168352929052205460ff16151561181057600080fd5b600160a060020a038085166000818152600b602090815260408083208886168085529252808320805460ff1916600117905533909416939092916000805160206120c0833981519152915160208101919091526040808252600e818301527f616c6c6f775f626c6f636b696e6700000000000000000000000000000000000060608301526080909101905180910390a450505050565b60046020526000908152604090205460ff1681565b81803b600081116118cb57600080fd5b33600160a060020a039081166000818152600a6020908152604080832094891680845294909152808220805460ff1916881515179055909291906000805160206120c083398151915290849051602081019190915260408082526014818301527f6772616e745f616c6c6f775f626c6f636b696e6700000000000000000000000060608301526080909101905180910390a450505050565b60035433600160a060020a0390811691161461197e57600080fd5b60055460ff1615801561198e5750805b156119cd576005805460ff191660011790557f6985a02210a168e66602d3235cb6db0e70f92b3ba4d376a33c0f3d9434bff62560405160405180910390a15b60055460ff1680156119dd575080155b15611a19576005805460ff191690557f7805862f689e2f13df9f062ff482ad3ad112aca9e0847911ed832e158c525b3360405160405180910390a15b50565b600160a060020a033381166000908152600260209081526040808320938616835292905290812054611a54908363ffffffff611c4616565b600160a060020a0333811660008181526002602090815260408083209489168084529490915290819020849055919290917f8c5be1e5ebec7d5bd14f71427d1e84f3dd0314c0f7b2291e5b200ac8c7c3b92591905190815260200160405180910390a350600192915050565b600160a060020a03918216600090815260026020908152604080832093909416825291909152205490565b60035433600160a060020a03908116911614611b0657600080fd5b600160a060020a0381161515611b1b57600080fd5b600354600160a060020a0380831691167f8be0079c531659141344cd1fd0a4f28419497f9722a3daafe3b4186f6b6457e060405160405180910390a36003805473ffffffffffffffffffffffffffffffffffffffff1916600160a060020a0392909216919091179055565b60035460009033600160a060020a0390811691161480611c185750600354600160a060020a0316637ad71f72600260405160e060020a63ffffffff841602815260ff9091166004820152602401602060405180830381600087803b1515611bec57600080fd5b5af11515611bf957600080fd5b50505060405180519050600160a060020a031633600160a060020a0316145b1515611c2357600080fd5b50600160a060020a03909216600090815260076020526040902090815560010155565b6000828201838110156116a157fe5b600554600090839060ff161580611c845750600160a060020a03331660009081526004602052604090205460ff165b80611ca75750600160a060020a03811660009081526004602052604090205460ff165b1515611cb257600080fd5b611cbd858585611e51565b95945050505050565b600082821115611cd257fe5b50900390565b600954600090600160a060020a03161515611cf257600080fd5b50600160a060020a03811660009081526020819052604081208054919055600154611d23908263ffffffff611cc616565b600155600854611d39908263ffffffff611c4616565b600855600954600160a060020a0316637a3130e3838360405160e060020a63ffffffff8516028152600160a060020a0390921660048301526024820152604401600060405180830381600087803b1515611d9257600080fd5b5af11515611d9f57600080fd5b5050600954600160a060020a03908116915083167f18df02dcc52b9c494f391df09661519c0069bd8540141946280399408205ca1a8360405190815260200160405180910390a35050565b600554600090839060ff161580611e195750600160a060020a03331660009081526004602052604090205460ff165b80611e3c5750600160a060020a03811660009081526004602052604090205460ff165b1515611e4757600080fd5b610a9e8484611fbf565b6000600160a060020a0383161515611e6857600080fd5b600160a060020a038416600090815260208190526040902054821115611e8d57600080fd5b600160a060020a0380851660009081526002602090815260408083203390941683529290522054821115611ec057600080fd5b600160a060020a038416600090815260208190526040902054611ee9908363ffffffff611cc616565b600160a060020a038086166000908152602081905260408082209390935590851681522054611f1e908363ffffffff611c4616565b600160a060020a0380851660009081526020818152604080832094909455878316825260028152838220339093168252919091522054611f64908363ffffffff611cc616565b600160a060020a03808616600081815260026020908152604080832033861684529091529081902093909355908516916000805160206120e08339815191529085905190815260200160405180910390a35060019392505050565b6000600160a060020a0383161515611fd657600080fd5b600160a060020a033316600090815260208190526040902054821115611ffb57600080fd5b600160a060020a033316600090815260208190526040902054612024908363ffffffff611cc616565b600160a060020a033381166000908152602081905260408082209390935590851681522054612059908363ffffffff611c4616565b60008085600160a060020a0316600160a060020a031681526020019081526020016000208190555082600160a060020a031633600160a060020a03166000805160206120e08339815191528460405190815260200160405180910390a35060019291505056009b56fa31e6a762f0fbec5f6102fd26a9d0c578481150835eed4ad0c037eb7e95ddf252ad1be2c89b69c2b068fc378daa952ba7f163c4a11628f55a4df523b3efa165627a7a72305820163bf0172b3a9bda0f09fbf5da2cd725d2f0206291122d0a3522e4ad01034d2800296060604052341561000f57600080fd5b60008054600160a060020a03191633600160a060020a03161781556002805460ff191690556106fe90819061004490396000f3006060604052600436106100a35763ffffffff7c01000000000000000000000000000000000000000000000000000000006000350416631ef3755d81146100a857806347fa061e146100bd5780638c52dc41146100f45780638da5cb5b14610107578063b9caebf414610136578063c19d93fb14610155578063f2fde38b1461018c578063f340fa01146101ab578063f5bf7413146101bf578063fa89401a146101e7575b600080fd5b34156100b357600080fd5b6100bb610206565b005b34156100c857600080fd5b6100e260ff60043516600160a060020a036024351661027d565b60405190815260200160405180910390f35b34156100ff57600080fd5b6100bb61029a565b341561011257600080fd5b61011a61030d565b604051600160a060020a03909116815260200160405180910390f35b341561014157600080fd5b6100bb600160a060020a036004351661031c565b341561016057600080fd5b610168610343565b6040518082600281111561017857fe5b60ff16815260200191505060405180910390f35b341561019757600080fd5b6100bb600160a060020a036004351661034c565b6100bb600160a060020a03600435166103e7565b34156101ca57600080fd5b6100bb600160a060020a03600435811690602435166044356104c0565b34156101f257600080fd5b6100bb600160a060020a03600435166105c7565b60005433600160a060020a0390811691161461022157600080fd5b6002805460ff168181111561023257fe5b1461023c57600080fd5b6000805474ff000000000000000000000000000000000000000019811660a060020a9182900460ff908116600101169091021790556002805460ff19169055565b600160209081526000928352604080842090915290825290205481565b60005433600160a060020a039081169116146102b557600080fd5b60006002805460ff16908111156102c857fe5b146102d257600080fd5b6002805460ff191660011790557f599d8e5a83cffb867d051598c4d70e805d59802d8081c1c7d6dffc5b6aca2b8960405160405180910390a1565b600054600160a060020a031681565b60005433600160a060020a0390811691161461033757600080fd5b80600160a060020a0316ff5b60025460ff1681565b60005433600160a060020a0390811691161461036757600080fd5b600160a060020a038116151561037c57600080fd5b600054600160a060020a0380831691167f8be0079c531659141344cd1fd0a4f28419497f9722a3daafe3b4186f6b6457e060405160405180910390a36000805473ffffffffffffffffffffffffffffffffffffffff1916600160a060020a0392909216919091179055565b60005433600160a060020a0390811691161461040257600080fd5b60006002805460ff169081111561041557fe5b1461041f57600080fd5b6000805460a060020a900460ff168152600160209081526040808320600160a060020a038516845290915290205461045790346106bc565b6000805460a060020a900460ff168152600160209081526040808320600160a060020a038616808552925291829020929092557f2da466a7b24304f47e87fa2e1e5a81b9831ce54fec19055ce277ca2f39ba42c49034905190815260200160405180910390a250565b60005433600160a060020a039081169116146104db57600080fd5b60006002805460ff16908111156104ee57fe5b146104f857600080fd5b600160a060020a038316151561050d57600080fd5b6002805460ff1916811790557f1cdde67b72a90f19919ac732a437ac2f7a10fc128d28c2a6e525d89ce5cd9d3a60405160405180910390a1600160a060020a0382161561058557600160a060020a03821681156108fc0282604051600060405180830381858888f19350505050151561058557600080fd5b82600160a060020a03166108fc30600160a060020a0316319081150290604051600060405180830381858888f1935050505015156105c257600080fd5b505050565b600060016002805460ff16908111156105dc57fe5b146105e657600080fd5b506000805460a060020a900460ff168152600160209081526040808320600160a060020a038516845290915281205490811161062157600080fd5b6000805460a060020a900460ff168152600160209081526040808320600160a060020a038616808552925280832092909255906108fc83150290839051600060405180830381858888f19350505050151561067b57600080fd5b81600160a060020a03167fd7dee2702d63ad89917b6a4da9981c90c4d24f8c2bdfd64c604ecae57d8d06518260405190815260200160405180910390a25050565b6000828201838110156106cb57fe5b93925050505600a165627a7a7230582052969d4537f3573a52af16151bc7f7095915368abb0ad4d538a08dab02c861b80029",
  "source": "pragma solidity ^0.4.21;\n\nimport './RefundVault.sol';\nimport './AllocationToss.sol';\nimport '../Token/Token.sol';\n\ncontract Creator{\n    Token public token = new Token();\n    RefundVault public refund = new RefundVault();\n\n    function createToken() external returns (Token) {\n        token.transferOwnership(msg.sender);\n        return token;\n    }\n\n    function createAllocation(Token _token, uint256 _unlockPart1, uint256 _unlockPart2) external returns (AllocationTOSS) {\n        AllocationTOSS allocation = new AllocationTOSS(_token,_unlockPart1,_unlockPart2);\n        allocation.transferOwnership(msg.sender);\n        return allocation;\n    }\n\n    function createRefund() external returns (RefundVault) {\n        refund.transferOwnership(msg.sender);\n        return refund;\n    }\n\n}\n",
  "sourcePath": "/home/gitlab-runner/builds/eb462ed4/0/axioma/proof-of-toss/contracts/token-sale-contracts/TokenSale/Crowdsale/Creator.sol",
  "compiler": {
    "name": "solc",
    "version": "0.4.21+commit.dfe3193c.Emscripten.clang"
  },
  "schemaVersion": "2.0.0",
  "updatedAt": "2018-05-28T16:03:35.879Z"
}