{
  "contractName": "Crowdsale",
  "abi": [
    {
      "constant": true,
      "inputs": [],
      "name": "creator",
      "outputs": [
        {
          "name": "",
          "type": "address"
        }
      ],
      "payable": false,
      "stateMutability": "view",
      "type": "function"
    },
    {
      "constant": true,
      "inputs": [],
      "name": "weiRound1",
      "outputs": [
        {
          "name": "",
          "type": "uint256"
        }
      ],
      "payable": false,
      "stateMutability": "view",
      "type": "function"
    },
    {
      "constant": true,
      "inputs": [],
      "name": "rate",
      "outputs": [
        {
          "name": "",
          "type": "uint256"
        }
      ],
      "payable": false,
      "stateMutability": "view",
      "type": "function"
    },
    {
      "constant": true,
      "inputs": [
        {
          "name": "",
          "type": "uint256"
        }
      ],
      "name": "profits",
      "outputs": [
        {
          "name": "percent",
          "type": "uint256"
        },
        {
          "name": "duration",
          "type": "uint256"
        }
      ],
      "payable": false,
      "stateMutability": "view",
      "type": "function"
    },
    {
      "constant": true,
      "inputs": [],
      "name": "TokenSale",
      "outputs": [
        {
          "name": "",
          "type": "uint8"
        }
      ],
      "payable": false,
      "stateMutability": "view",
      "type": "function"
    },
    {
      "constant": true,
      "inputs": [],
      "name": "endTime",
      "outputs": [
        {
          "name": "",
          "type": "uint256"
        }
      ],
      "payable": false,
      "stateMutability": "view",
      "type": "function"
    },
    {
      "constant": true,
      "inputs": [],
      "name": "isInitialized",
      "outputs": [
        {
          "name": "",
          "type": "bool"
        }
      ],
      "payable": false,
      "stateMutability": "view",
      "type": "function"
    },
    {
      "constant": true,
      "inputs": [],
      "name": "maxAllProfit",
      "outputs": [
        {
          "name": "",
          "type": "uint256"
        }
      ],
      "payable": false,
      "stateMutability": "view",
      "type": "function"
    },
    {
      "constant": true,
      "inputs": [],
      "name": "ethWeiRaised",
      "outputs": [
        {
          "name": "",
          "type": "uint256"
        }
      ],
      "payable": false,
      "stateMutability": "view",
      "type": "function"
    },
    {
      "constant": true,
      "inputs": [],
      "name": "renewal",
      "outputs": [
        {
          "name": "",
          "type": "uint256"
        }
      ],
      "payable": false,
      "stateMutability": "view",
      "type": "function"
    },
    {
      "constant": true,
      "inputs": [],
      "name": "totalSaledToken",
      "outputs": [
        {
          "name": "",
          "type": "uint256"
        }
      ],
      "payable": false,
      "stateMutability": "view",
      "type": "function"
    },
    {
      "constant": true,
      "inputs": [],
      "name": "startTime",
      "outputs": [
        {
          "name": "",
          "type": "uint256"
        }
      ],
      "payable": false,
      "stateMutability": "view",
      "type": "function"
    },
    {
      "constant": true,
      "inputs": [
        {
          "name": "",
          "type": "uint256"
        }
      ],
      "name": "wallets",
      "outputs": [
        {
          "name": "",
          "type": "address"
        }
      ],
      "payable": false,
      "stateMutability": "view",
      "type": "function"
    },
    {
      "constant": true,
      "inputs": [],
      "name": "minPay",
      "outputs": [
        {
          "name": "",
          "type": "uint256"
        }
      ],
      "payable": false,
      "stateMutability": "view",
      "type": "function"
    },
    {
      "constant": true,
      "inputs": [],
      "name": "allocation",
      "outputs": [
        {
          "name": "",
          "type": "address"
        }
      ],
      "payable": false,
      "stateMutability": "view",
      "type": "function"
    },
    {
      "constant": true,
      "inputs": [],
      "name": "isFinalized",
      "outputs": [
        {
          "name": "",
          "type": "bool"
        }
      ],
      "payable": false,
      "stateMutability": "view",
      "type": "function"
    },
    {
      "constant": true,
      "inputs": [],
      "name": "softCap",
      "outputs": [
        {
          "name": "",
          "type": "uint256"
        }
      ],
      "payable": false,
      "stateMutability": "view",
      "type": "function"
    },
    {
      "constant": true,
      "inputs": [
        {
          "name": "",
          "type": "uint256"
        }
      ],
      "name": "bonuses",
      "outputs": [
        {
          "name": "value",
          "type": "uint256"
        },
        {
          "name": "procent",
          "type": "uint256"
        },
        {
          "name": "freezeTime",
          "type": "uint256"
        }
      ],
      "payable": false,
      "stateMutability": "view",
      "type": "function"
    },
    {
      "constant": true,
      "inputs": [],
      "name": "canFirstMint",
      "outputs": [
        {
          "name": "",
          "type": "bool"
        }
      ],
      "payable": false,
      "stateMutability": "view",
      "type": "function"
    },
    {
      "constant": true,
      "inputs": [],
      "name": "nonEthWeiRaised",
      "outputs": [
        {
          "name": "",
          "type": "uint256"
        }
      ],
      "payable": false,
      "stateMutability": "view",
      "type": "function"
    },
    {
      "constant": true,
      "inputs": [],
      "name": "chargeBonuses",
      "outputs": [
        {
          "name": "",
          "type": "bool"
        }
      ],
      "payable": false,
      "stateMutability": "view",
      "type": "function"
    },
    {
      "constant": true,
      "inputs": [],
      "name": "isPausedCrowdsale",
      "outputs": [
        {
          "name": "",
          "type": "bool"
        }
      ],
      "payable": false,
      "stateMutability": "view",
      "type": "function"
    },
    {
      "constant": true,
      "inputs": [],
      "name": "exchange",
      "outputs": [
        {
          "name": "",
          "type": "uint256"
        }
      ],
      "payable": false,
      "stateMutability": "view",
      "type": "function"
    },
    {
      "constant": true,
      "inputs": [],
      "name": "overLimit",
      "outputs": [
        {
          "name": "",
          "type": "uint256"
        }
      ],
      "payable": false,
      "stateMutability": "view",
      "type": "function"
    },
    {
      "constant": true,
      "inputs": [],
      "name": "tokenReserved",
      "outputs": [
        {
          "name": "",
          "type": "uint256"
        }
      ],
      "payable": false,
      "stateMutability": "view",
      "type": "function"
    },
    {
      "constant": true,
      "inputs": [],
      "name": "hardCap",
      "outputs": [
        {
          "name": "",
          "type": "uint256"
        }
      ],
      "payable": false,
      "stateMutability": "view",
      "type": "function"
    },
    {
      "constant": true,
      "inputs": [],
      "name": "vault",
      "outputs": [
        {
          "name": "",
          "type": "address"
        }
      ],
      "payable": false,
      "stateMutability": "view",
      "type": "function"
    },
    {
      "constant": true,
      "inputs": [],
      "name": "token",
      "outputs": [
        {
          "name": "",
          "type": "address"
        }
      ],
      "payable": false,
      "stateMutability": "view",
      "type": "function"
    },
    {
      "inputs": [
        {
          "name": "_creator",
          "type": "address"
        }
      ],
      "payable": false,
      "stateMutability": "nonpayable",
      "type": "constructor"
    },
    {
      "payable": true,
      "stateMutability": "payable",
      "type": "fallback"
    },
    {
      "anonymous": false,
      "inputs": [
        {
          "indexed": true,
          "name": "purchaser",
          "type": "address"
        },
        {
          "indexed": true,
          "name": "beneficiary",
          "type": "address"
        },
        {
          "indexed": false,
          "name": "value",
          "type": "uint256"
        },
        {
          "indexed": false,
          "name": "amount",
          "type": "uint256"
        }
      ],
      "name": "TokenPurchase",
      "type": "event"
    },
    {
      "anonymous": false,
      "inputs": [],
      "name": "Finalized",
      "type": "event"
    },
    {
      "anonymous": false,
      "inputs": [],
      "name": "Initialized",
      "type": "event"
    },
    {
      "constant": false,
      "inputs": [
        {
          "name": "_amount",
          "type": "uint256"
        }
      ],
      "name": "firstMintRound0",
      "outputs": [],
      "payable": false,
      "stateMutability": "nonpayable",
      "type": "function"
    },
    {
      "constant": true,
      "inputs": [],
      "name": "totalSupply",
      "outputs": [
        {
          "name": "",
          "type": "uint256"
        }
      ],
      "payable": false,
      "stateMutability": "view",
      "type": "function"
    },
    {
      "constant": true,
      "inputs": [],
      "name": "getTokenSaleType",
      "outputs": [
        {
          "name": "",
          "type": "string"
        }
      ],
      "payable": false,
      "stateMutability": "view",
      "type": "function"
    },
    {
      "constant": true,
      "inputs": [],
      "name": "hasEnded",
      "outputs": [
        {
          "name": "",
          "type": "bool"
        }
      ],
      "payable": false,
      "stateMutability": "view",
      "type": "function"
    },
    {
      "constant": false,
      "inputs": [],
      "name": "finalize",
      "outputs": [],
      "payable": false,
      "stateMutability": "nonpayable",
      "type": "function"
    },
    {
      "constant": false,
      "inputs": [],
      "name": "finalize2",
      "outputs": [],
      "payable": false,
      "stateMutability": "nonpayable",
      "type": "function"
    },
    {
      "constant": false,
      "inputs": [],
      "name": "initialize",
      "outputs": [],
      "payable": false,
      "stateMutability": "nonpayable",
      "type": "function"
    },
    {
      "constant": false,
      "inputs": [],
      "name": "claimRefund",
      "outputs": [],
      "payable": false,
      "stateMutability": "nonpayable",
      "type": "function"
    },
    {
      "constant": true,
      "inputs": [],
      "name": "goalReached",
      "outputs": [
        {
          "name": "",
          "type": "bool"
        }
      ],
      "payable": false,
      "stateMutability": "view",
      "type": "function"
    },
    {
      "constant": false,
      "inputs": [
        {
          "name": "_startTime",
          "type": "uint256"
        },
        {
          "name": "_endTime",
          "type": "uint256"
        },
        {
          "name": "_softCap",
          "type": "uint256"
        },
        {
          "name": "_hardCap",
          "type": "uint256"
        },
        {
          "name": "_rate",
          "type": "uint256"
        },
        {
          "name": "_exchange",
          "type": "uint256"
        },
        {
          "name": "_maxAllProfit",
          "type": "uint256"
        },
        {
          "name": "_overLimit",
          "type": "uint256"
        },
        {
          "name": "_minPay",
          "type": "uint256"
        },
        {
          "name": "_durationTB",
          "type": "uint256[]"
        },
        {
          "name": "_percentTB",
          "type": "uint256[]"
        },
        {
          "name": "_valueVB",
          "type": "uint256[]"
        },
        {
          "name": "_percentVB",
          "type": "uint256[]"
        },
        {
          "name": "_freezeTimeVB",
          "type": "uint256[]"
        }
      ],
      "name": "setup",
      "outputs": [],
      "payable": false,
      "stateMutability": "nonpayable",
      "type": "function"
    },
    {
      "constant": true,
      "inputs": [],
      "name": "weiRaised",
      "outputs": [
        {
          "name": "",
          "type": "uint256"
        }
      ],
      "payable": false,
      "stateMutability": "view",
      "type": "function"
    },
    {
      "constant": true,
      "inputs": [],
      "name": "weiTotalRaised",
      "outputs": [
        {
          "name": "",
          "type": "uint256"
        }
      ],
      "payable": false,
      "stateMutability": "view",
      "type": "function"
    },
    {
      "constant": true,
      "inputs": [],
      "name": "getProfitPercent",
      "outputs": [
        {
          "name": "",
          "type": "uint256"
        }
      ],
      "payable": false,
      "stateMutability": "view",
      "type": "function"
    },
    {
      "constant": true,
      "inputs": [
        {
          "name": "_timeNow",
          "type": "uint256"
        }
      ],
      "name": "getProfitPercentForData",
      "outputs": [
        {
          "name": "",
          "type": "uint256"
        }
      ],
      "payable": false,
      "stateMutability": "view",
      "type": "function"
    },
    {
      "constant": true,
      "inputs": [
        {
          "name": "_value",
          "type": "uint256"
        }
      ],
      "name": "getBonuses",
      "outputs": [
        {
          "name": "",
          "type": "uint256"
        },
        {
          "name": "",
          "type": "uint256"
        },
        {
          "name": "",
          "type": "uint256"
        }
      ],
      "payable": false,
      "stateMutability": "view",
      "type": "function"
    },
    {
      "constant": false,
      "inputs": [],
      "name": "tokenUnpause",
      "outputs": [],
      "payable": false,
      "stateMutability": "nonpayable",
      "type": "function"
    },
    {
      "constant": false,
      "inputs": [],
      "name": "tokenPause",
      "outputs": [],
      "payable": false,
      "stateMutability": "nonpayable",
      "type": "function"
    },
    {
      "constant": false,
      "inputs": [
        {
          "name": "mode",
          "type": "bool"
        }
      ],
      "name": "setCrowdsalePause",
      "outputs": [],
      "payable": false,
      "stateMutability": "nonpayable",
      "type": "function"
    },
    {
      "constant": false,
      "inputs": [
        {
          "name": "_migrationAgent",
          "type": "address"
        }
      ],
      "name": "moveTokens",
      "outputs": [],
      "payable": false,
      "stateMutability": "nonpayable",
      "type": "function"
    },
    {
      "constant": false,
      "inputs": [
        {
          "name": "_holders",
          "type": "address[]"
        }
      ],
      "name": "migrateAll",
      "outputs": [],
      "payable": false,
      "stateMutability": "nonpayable",
      "type": "function"
    },
    {
      "constant": false,
      "inputs": [
        {
          "name": "_role",
          "type": "uint8"
        },
        {
          "name": "_wallet",
          "type": "address"
        }
      ],
      "name": "changeWallet",
      "outputs": [],
      "payable": false,
      "stateMutability": "nonpayable",
      "type": "function"
    },
    {
      "constant": false,
      "inputs": [],
      "name": "resetAllWallets",
      "outputs": [],
      "payable": false,
      "stateMutability": "nonpayable",
      "type": "function"
    },
    {
      "constant": false,
      "inputs": [
        {
          "name": "_beneficiary",
          "type": "address[]"
        },
        {
          "name": "_value",
          "type": "uint256[]"
        }
      ],
      "name": "massBurnTokens",
      "outputs": [],
      "payable": false,
      "stateMutability": "nonpayable",
      "type": "function"
    },
    {
      "constant": false,
      "inputs": [
        {
          "name": "_duration",
          "type": "uint256"
        }
      ],
      "name": "prolong",
      "outputs": [],
      "payable": false,
      "stateMutability": "nonpayable",
      "type": "function"
    },
    {
      "constant": false,
      "inputs": [],
      "name": "distructVault",
      "outputs": [],
      "payable": false,
      "stateMutability": "nonpayable",
      "type": "function"
    },
    {
      "constant": false,
      "inputs": [
        {
          "name": "_token",
          "type": "uint256"
        },
        {
          "name": "_value",
          "type": "uint256"
        }
      ],
      "name": "paymentsInOtherCurrency",
      "outputs": [],
      "payable": false,
      "stateMutability": "nonpayable",
      "type": "function"
    },
    {
      "constant": false,
      "inputs": [
        {
          "name": "beneficiary",
          "type": "address"
        }
      ],
      "name": "buyTokens",
      "outputs": [],
      "payable": true,
      "stateMutability": "payable",
      "type": "function"
    }
  ],
  "bytecode": "0x6060604090815260008054600160ff199091161760b060020a60ff02191690556003805460c060020a60ff021916780100000000000000000000000000000000000000000000000017905561014090519081016040908152600160a060020a03331680835260208301819052908201819052738a91ac199440da0b45b2e278f3fe616b1bccc49460608301526080820181905260a0820181905260c0820181905260e082018190526101008201819052610120820152620000c590600490600a6200019e565b50635adef210601055635b2f5d5460115569021e19e0c9bab24000006013556825f273933db57000006014556901ccc9324511e4500000601555690f2405d408c3adb000006016556801158e460913d0000060175566fc3e1fb30d8000601855601e60195534156200013657600080fd5b6040516020806200318d8339810160405280805160008054600160a060020a039092166101000261010060a860020a031960a860020a60ff02199093167501000000000000000000000000000000000000000000179290921691909117905550620002279050565b82600a8101928215620001eb579160200282015b82811115620001eb5782518254600160a060020a031916600160a060020a039190911617825560209290920191600190910190620001b2565b50620001f9929150620001fd565b5090565b6200022491905b80821115620001f9578054600160a060020a031916815560010162000204565b90565b612f5680620002376000396000f3006060604052600436106102795763ffffffff60e060020a60003504166302093ee2811461028457806302d05d3f146102975780630580d5c7146102c65780630abd2ba8146102f05780631391697d1461030357806318160ddd146103285780631a63aa4d1461033b5780631b302a16146103515780632c4e722e146103645780632cde15d1146103775780632e5f6d4c1461038a57806331380c89146103b85780633197cbb6146103ef578063333dbda814610402578063392e53cd1461041b5780634042b66f14610442578063426f5531146104555780634bb278f3146104685780634bca46261461047b5780635241b39d1461048e578063549df19f146104a1578063566fc6de146104b457806360a22932146104c757806363689b4a146104da578063680b3bdf146104f957806378e97925146105485780637ad71f721461055b5780637d3d6522146105715780637ebdab54146105845780638129fc1c146106fc57806382d186501461070f57806388a17bde146107225780638a0c47cd146107355780638d4e40831461075a578063906a26e01461076d578063918169811461078057806399554fb714610796578063ab375641146107a9578063ac60c969146107e3578063b0e657a7146107f6578063b16d15381461080c578063b5545a3c1461081f578063bc7411b214610832578063c8b43c1014610845578063caa035d614610858578063d2f7265a146108e2578063e06e0e43146108f5578063e195d09614610908578063e59c9ada1461091b578063e9bec83314610931578063ec8ac4d814610949578063ecb70fb71461095d578063fb86a40414610970578063fbfa77cf14610983578063fc0c546a14610996575b610282336109a9565b005b341561028f57600080fd5b610282610b24565b34156102a257600080fd5b6102aa610fca565b604051600160a060020a03909116815260200160405180910390f35b34156102d157600080fd5b6102826024600480358281019290820135918135918201910135610fde565b34156102fb57600080fd5b6102826110e4565b341561030e57600080fd5b610316611161565b60405190815260200160405180910390f35b341561033357600080fd5b610316611167565b341561034657600080fd5b6102826004356111c5565b341561035c57600080fd5b61028261123c565b341561036f57600080fd5b610316611310565b341561038257600080fd5b610316611316565b341561039557600080fd5b6103a0600435611337565b60405191825260208201526040908101905180910390f35b34156103c357600080fd5b6103cb611363565b604051808260018111156103db57fe5b60ff16815260200191505060405180910390f35b34156103fa57600080fd5b61031661136c565b341561040d57600080fd5b610282600435602435611372565b341561042657600080fd5b61042e61140a565b604051901515815260200160405180910390f35b341561044d57600080fd5b61031661141a565b341561046057600080fd5b610316611433565b341561047357600080fd5b610282611439565b341561048657600080fd5b610316611563565b341561049957600080fd5b610316611569565b34156104ac57600080fd5b61028261156f565b34156104bf57600080fd5b61031661166b565b34156104d257600080fd5b610316611676565b34156104e557600080fd5b610282600160a060020a036004351661167c565b341561050457600080fd5b61028260046024813581810190830135806020818102016040519081016040528093929190818152602001838360200280828437509496506116e995505050505050565b341561055357600080fd5b61031661177b565b341561056657600080fd5b6102aa600435611781565b341561057c57600080fd5b61042e61179e565b341561058f57600080fd5b6102826004803590602480359160443591606435916084359160a4359160c4359160e43591610104359161014490610124359081019083013580602081810201604051908101604052809392919081815260200183836020028082843782019150505050505091908035906020019082018035906020019080806020026020016040519081016040528093929190818152602001838360200280828437820191505050505050919080359060200190820180359060200190808060200260200160405190810160405280939291908181526020018383602002808284378201915050505050509190803590602001908201803590602001908080602002602001604051908101604052809392919081815260200183836020028082843782019150505050505091908035906020019082018035906020019080806020026020016040519081016040528093929190818152602001838360200280828437509496506117b295505050505050565b341561070757600080fd5b6102826119c4565b341561071a57600080fd5b610316611a7a565b341561072d57600080fd5b6102aa611a80565b341561074057600080fd5b61028260ff60043516600160a060020a0360243516611a8f565b341561076557600080fd5b61042e611b88565b341561077857600080fd5b610316611b98565b341561078b57600080fd5b610316600435611b9e565b34156107a157600080fd5b610282611c41565b34156107b457600080fd5b6107bf600435611da0565b60405180848152602001838152602001828152602001935050505060405180910390f35b34156107ee57600080fd5b61042e611dd1565b341561080157600080fd5b610282600435611df6565b341561081757600080fd5b610316611eac565b341561082a57600080fd5b610282611eb2565b341561083d57600080fd5b61042e611f19565b341561085057600080fd5b61042e611f3d565b341561086357600080fd5b61086b611f4d565b60405160208082528190810183818151815260200191508051906020019080838360005b838110156108a757808201518382015260200161088f565b50505050905090810190601f1680156108d45780820380516001836020036101000a031916815260200191505b509250505060405180910390f35b34156108ed57600080fd5b610316611fde565b341561090057600080fd5b610316611fe4565b341561091357600080fd5b610316611fea565b341561092657600080fd5b6107bf600435611ff0565b341561093c57600080fd5b6102826004351515612110565b610282600160a060020a03600435166109a9565b341561096857600080fd5b61042e61214b565b341561097b57600080fd5b61031661219f565b341561098e57600080fd5b6102aa6121a5565b34156109a157600080fd5b6102aa6121b4565b60008060008060006109b9612e53565b60008080600160a060020a038a1615156109d257600080fd5b6109da6121c3565b15156109e557600080fd5b3498506109f061166b565b97506109fb89611ff0565b9198509650945060606040519081016040528088815260200187815260200186815250935083602001519250828810610a345787610a36565b825b91506019548211610a475781610a4b565b6019545b9150610a9a68056bc75e2d63100000610a8e610a6e85606463ffffffff61226216565b601354610a82908e9063ffffffff61227c16565b9063ffffffff61227c16565b9063ffffffff6122a716565b601a54909150610ab0908a63ffffffff61226216565b601a55610ac28a8260408701516122be565b89600160a060020a031633600160a060020a03167f623b3804fa71d67900d064613da8f94b9617215ee90799290593e1745087ad188b8460405191825260208201526040908101905180910390a3610b186124b9565b50505050505050505050565b610b2e600061257f565b60035477010000000000000000000000000000000000000000000000900460ff161515610b5a57600080fd5b6003805477ff000000000000000000000000000000000000000000000019169055600054600154600160a060020a036101009092048216916379dcbd3d91166301e1338042908101906303c267000160405160e060020a63ffffffff8616028152600160a060020a03909316600484015260248301919091526044820152606401602060405180830381600087803b1515610bf457600080fd5b5af11515610c0157600080fd5b50505060405180516003805473ffffffffffffffffffffffffffffffffffffffff1916600160a060020a039283161790819055600180548316935063b3e1f52392919091169060405160e060020a63ffffffff8516028152600160a060020a03909216600483015215156024820152604401600060405180830381600087803b1515610c8c57600080fd5b5af11515610c9957600080fd5b5050600354600160a060020a0316905063ae7d0cac600460060154600160a060020a03166006603260405160e060020a63ffffffff8616028152600160a060020a03909316600484015260248301919091526044820152606401600060405180830381600087803b1515610d0c57600080fd5b5af11515610d1957600080fd5b5050600354600160a060020a0316905063ae7d0cac600460070154600160a060020a0316600a603260405160e060020a63ffffffff8616028152600160a060020a03909316600484015260248301919091526044820152606401600060405180830381600087803b1515610d8c57600080fd5b5af11515610d9957600080fd5b5050600354600160a060020a0316905063ae7d0cac600460080154600160a060020a03166006606460405160e060020a63ffffffff8616028152600160a060020a03909316600484015260248301919091526044820152606401600060405180830381600087803b1515610e0c57600080fd5b5af11515610e1957600080fd5b5050600154600354601e54600160a060020a0392831693506340c10f199290911690610e4d90604690610a8e90601661227c565b60405160e060020a63ffffffff8516028152600160a060020a0390921660048301526024820152604401602060405180830381600087803b1515610e9057600080fd5b5af11515610e9d57600080fd5b50505060405180515050600154600854601e54600160a060020a03928316926340c10f19921690610ed690604690610a8e90600761227c565b60405160e060020a63ffffffff8516028152600160a060020a0390921660048301526024820152604401602060405180830381600087803b1515610f1957600080fd5b5af11515610f2657600080fd5b50505060405180515050600154600160a060020a03166340c10f19600460050154601e54600160a060020a0390911690610f6e90604690610a8e90600163ffffffff61227c16565b60405160e060020a63ffffffff8516028152600160a060020a0390921660048301526024820152604401602060405180830381600087803b1515610fb157600080fd5b5af11515610fbe57600080fd5b50505060405180515050565b6000546101009004600160a060020a031681565b6000610fea600061257f565b426110156276a70061100960125460115461226290919063ffffffff16565b9063ffffffff61226216565b1161101f57600080fd5b83821461102b57600080fd5b61ffff8116849010156110dd57600154600160a060020a0316639dc29fac868661ffff851681811061105957fe5b90506020020135600160a060020a031685858561ffff16818110151561107b57fe5b9050602002013560405160e060020a63ffffffff8516028152600160a060020a0390921660048301526024820152604401600060405180830381600087803b15156110c557600080fd5b5af115156110d257600080fd5b50505060010161102b565b5050505050565b6110ee600061257f565b60035460a060020a900460ff161561110557600080fd5b60018054600160a060020a03169063bedb86fb9060405160e060020a63ffffffff84160281529015156004820152602401600060405180830381600087803b151561114f57600080fd5b5af1151561115c57600080fd5b505050565b601c5481565b600154600090600160a060020a03166318160ddd6040518163ffffffff1660e060020a028152600401602060405180830381600087803b15156111a957600080fd5b5af115156111b657600080fd5b50505060405180519150505b90565b6111cf600061257f565b601054421180156111f357506012546011546111f09163ffffffff61226216565b42105b8015611208575060035460a860020a900460ff165b151561121357600080fd5b601254611226908263ffffffff61226216565b6012819055600090111561123957600080fd5b50565b33600160a060020a0316600460020154600160a060020a031614806112bc575061127a624f1a0061100960125460115461226290919063ffffffff16565b421180156112985750600160005460ff16600181111561129657fe5b145b80156112ad575060035460a060020a900460ff165b80156112bc57506112bc61179e565b15156112c757600080fd5b600154600160a060020a031663bedb86fb600060405160e060020a63ffffffff84160281529015156004820152602401600060405180830381600087803b151561114f57600080fd5b60135481565b600061133261132361141a565b601c549063ffffffff61226216565b905090565b600f80548290811061134557fe5b60009182526020909120600290910201805460019091015490915082565b60005460ff1681565b60115481565b60008061137f600161257f565b60105442101580156113a557506012546011546113a19163ffffffff61226216565b4211155b91506113be60175460165461226290919063ffffffff16565b601a546113d290859063ffffffff61226216565b111590508180156113e05750805b80156113f5575060035460a860020a900460ff165b151561140057600080fd5b5050601b55601d55565b60035460a860020a900460ff1681565b6000611332601b54601a5461226290919063ffffffff16565b60195481565b33600160a060020a0316600460020154600160a060020a03161480611474575033600160a060020a0316600460000154600160a060020a0316145b80611484575061148261179e565b155b151561148f57600080fd5b60035460a060020a900460ff16156114a657600080fd5b6114ae61214b565b806114fe575033600160a060020a0316600460020154600160a060020a031614806114ef575033600160a060020a0316600460000154600160a060020a0316145b80156114fe57506114fe61179e565b151561150957600080fd5b6003805474ff0000000000000000000000000000000000000000191660a060020a1790556115356125f3565b7f6823b073d48d6e3a7d385eeb601452d680e74bb46afe3255a7d778f3a9b1768160405160405180910390a1565b601a5481565b60125481565b600454600160a060020a03908116906000903316821461158e57600080fd5b5060005b600a8160ff16101561160357600960ff821614806115b35750600660ff8216145b156115bd576115fb565b81600460ff8316600a81106115ce57fe5b01805473ffffffffffffffffffffffffffffffffffffffff1916600160a060020a03929092169190911790555b600101611592565b60018054600160a060020a03169063b3e1f52390849060405160e060020a63ffffffff8516028152600160a060020a03909216600483015215156024820152604401600060405180830381600087803b151561165e57600080fd5b5af115156110dd57600080fd5b600061133242611b9e565b601e5481565b611686600061257f565b600154600160a060020a03166375e2ff658260405160e060020a63ffffffff8416028152600160a060020a039091166004820152602401600060405180830381600087803b15156116d657600080fd5b5af115156116e357600080fd5b50505050565b6116f3600061257f565b600154600160a060020a031663680b3bdf826040518263ffffffff1660e060020a0281526004018080602001828103825283818151815260200191508051906020019060200280838360005b8381101561175757808201518382015260200161173f565b5050505090500192505050600060405180830381600087803b15156116d657600080fd5b60105481565b600481600a811061178e57fe5b0154600160a060020a0316905081565b60006015546117ab61141a565b1015905090565b60006117be600061257f565b60035460a860020a900460ff16156117d557600080fd5b6117dd612875565b428f9011156117eb57600080fd5b8d8f106117f757600080fd5b60108f905560118e90558b8d111561180e57600080fd5b60158d905560168c905560008b1161182557600080fd5b60138b90556017889055601887905560148a9055601989905582518451148015611850575081518451145b151561185b57600080fd5b8351611868600e82612e75565b50600090505b83518110156119125760606040519081016040528085838151811061188f57fe5b9060200190602002015181526020018483815181106118aa57fe5b9060200190602002015181526020018383815181106118c557fe5b906020019060200201519052600e8054839081106118df57fe5b9060005260206000209060030201600082015181556020820151816001015560408201516002909101555060010161186e565b855185511461192057600080fd5b845161192d600f82612ea1565b50600090505b84518110156119b357604080519081016040528086838151811061195357fe5b90602001906020020151815260200187838151811061196e57fe5b906020019060200201519052600f80548390811061198857fe5b9060005260206000209060020201600082015181556020820151600191820155919091019050611933565b505050505050505050505050505050565b6119ce600061257f565b60035460a860020a900460ff16156119e557600080fd5b6119ed612875565b6010544211156119fc57600080fd5b611a04612d82565b7f5daa87a0e9463431830481fd4b6e3403442dfb9a12b9c07597e9f61d50b633c860405160405180910390a160038054600060125578ff0000000000000000000000000000000000000000000000001975ff0000000000000000000000000000000000000000001990911660a860020a17169055565b60185481565b600354600160a060020a031681565b6004826009811115611a9d57fe5b60ff16600a8110611aaa57fe5b015433600160a060020a039081169116148015611ad357506003826009811115611ad057fe5b14155b80611b31575060046002015433600160a060020a039081169116148015611b19575060035460a860020a900460ff161580611b1957506003826009811115611b1757fe5b145b8015611b3157506009826009811115611b2e57fe5b14155b1515611b3c57600080fd5b806004836009811115611b4b57fe5b60ff16600a8110611b5857fe5b01805473ffffffffffffffffffffffffffffffffffffffff1916600160a060020a03929092169190911790555050565b60035460a060020a900460ff1681565b60155481565b600080805b600f5460ff82161015611c3557611be6600f8260ff16815481101515611bc557fe5b9060005260206000209060020201600101548361226290919063ffffffff16565b601054909250611bfc908363ffffffff61226216565b841015611c2d57600f805460ff8316908110611c1457fe5b9060005260206000209060020201600001549250611c3a565b600101611ba3565b600092505b5050919050565b600254600160a060020a03161515611c5857600080fd5b33600160a060020a0316600460000154600160a060020a0316148015611c935750601054611c909063020f580063ffffffff61226216565b42115b15611d0757600254600160a060020a031663b9caebf4600460000154600160a060020a031660405160e060020a63ffffffff8416028152600160a060020a039091166004820152602401600060405180830381600087803b1515611cf657600080fd5b5af11515611d0357600080fd5b5050505b33600160a060020a0316600460020154600160a060020a0316148015611d425750601054611d3f90630317040063ffffffff61226216565b42115b15611d9e57600254600654600160a060020a039182169163b9caebf4911660405160e060020a63ffffffff8416028152600160a060020a039091166004820152602401600060405180830381600087803b151561114f57600080fd5b565b600e805482908110611dae57fe5b600091825260209091206003909102018054600182015460029092015490925083565b6003547801000000000000000000000000000000000000000000000000900460ff1681565b611e00600061257f565b6003547801000000000000000000000000000000000000000000000000900460ff161515611e2d57600080fd5b611e35612875565b600154600554600160a060020a03918216916340c10f1991168360405160e060020a63ffffffff8516028152600160a060020a0390921660048301526024820152604401602060405180830381600087803b1515611e9257600080fd5b5af11515611e9f57600080fd5b5050506040518051505050565b601b5481565b600254600160a060020a03161515611ec957600080fd5b600254600160a060020a031663fa89401a3360405160e060020a63ffffffff8416028152600160a060020a039091166004820152602401600060405180830381600087803b151561114f57600080fd5b60035477010000000000000000000000000000000000000000000000900460ff1681565b60035460b060020a900460ff1681565b611f55612ecd565b6000805460ff166001811115611f6757fe5b14611fa55760408051908101604052600681527f726f756e643200000000000000000000000000000000000000000000000000006020820152611332565b60408051908101604052600681527f726f756e643100000000000000000000000000000000000000000000000000006020820152905090565b60145481565b60175481565b601d5481565b600080600080600e805490506000148061202a575084600e600081548110151561201657fe5b906000526020600020906003020160000154115b1561203e5760009350839250829150612108565b5060015b600e5461ffff821610156120895784600e8261ffff1681548110151561206457fe5b906000526020600020906003020160000154111561208157612089565b600101612042565b600e805461ffff60001984011690811061209f57fe5b906000526020600020906003020160000154600e6001830361ffff168154811015156120c757fe5b906000526020600020906003020160010154600e6001840361ffff168154811015156120ef57fe5b9060005260206000209060030201600201549350935093505b509193909250565b61211a600061257f565b6003805491151560b060020a0276ff0000000000000000000000000000000000000000000019909216919091179055565b600080600061216760125460115461226290919063ffffffff16565b4211915060165461217661141a565b1015905081806121835750805b8015612198575060035460a860020a900460ff165b9250505090565b60165481565b600254600160a060020a031681565b600154600160a060020a031681565b600080600080601054421180156121ed57506012546011546121ea9163ffffffff61226216565b42105b9250601854341015915061221760175461100961220861141a565b6016549063ffffffff612e4116565b34111590508280156122265750815b801561222f5750805b8015612244575060035460a860020a900460ff165b801561225a575060035460b060020a900460ff16155b935050505090565b60008282018381101561227157fe5b8091505b5092915050565b60008083151561228f5760009150612275565b5082820282848281151561229f57fe5b041461227157fe5b60008082848115156122b557fe5b04949350505050565b60008060008084111561244457600154612344908690600160a060020a03166311cfb19d8960405160e060020a63ffffffff8416028152600160a060020a039091166004820152602401602060405180830381600087803b151561232157600080fd5b5af1151561232e57600080fd5b505050604051805191905063ffffffff61226216565b600154909350600160a060020a03166350bb117a8760405160e060020a63ffffffff8416028152600160a060020a039091166004820152602401602060405180830381600087803b151561239757600080fd5b5af115156123a457600080fd5b505050604051805192506123c09050844263ffffffff61226216565b90508082116123cf57806123d1565b815b600154909150600160a060020a031663f831ebab87858460405160e060020a63ffffffff8616028152600160a060020a03909316600484015260248301919091526044820152606401600060405180830381600087803b151561243357600080fd5b5af1151561244057600080fd5b5050505b600154600160a060020a03166340c10f19878760405160e060020a63ffffffff8516028152600160a060020a0390921660048301526024820152604401602060405180830381600087803b151561249a57600080fd5b5af115156124a757600080fd5b50505060405180515050505050505050565b600254600160a060020a03161561253057600254600160a060020a031663f340fa01343360405160e060020a63ffffffff8516028152600160a060020a0390911660048201526024016000604051808303818588803b151561251a57600080fd5b5af1151561252757600080fd5b50505050611d9e565b600030600160a060020a0316311115611d9e57600460000154600160a060020a039081169030163180156108fc0290604051600060405180830381858888f193505050501515611d9e57600080fd5b33600160a060020a0316600460020154600160a060020a031614806125ba575033600160a060020a0316600460000154600160a060020a0316145b806125e8575060018115151480156125e8575033600160a060020a0316600460030154600160a060020a0316145b151561123957600080fd5b6125fb61179e565b1561282557600254600160a060020a0316156126a657600254600454600d54601a54600160a060020a039384169363f5bf741393811692169061264690606490610a8e90600761227c565b60405160e060020a63ffffffff8616028152600160a060020a0393841660048201529190921660248201526044810191909152606401600060405180830381600087803b151561269557600080fd5b5af115156126a257600080fd5b5050505b6000601d54111561272e57600154600554601d54600160a060020a03928316926340c10f1992169060405160e060020a63ffffffff8516028152600160a060020a0390921660048301526024820152604401602060405180830381600087803b151561271157600080fd5b5af1151561271e57600080fd5b505050604051805150506000601d555b6000805460ff16600181111561274057fe5b141561278c576003805475ffff0000000000000000000000000000000000000000191690556000805460ff1916600117905561277a61141a565b601c556000601a819055601b55612820565b6003805477ff0000000000000000000000000000000000000000000000191677010000000000000000000000000000000000000000000000179055600154600160a060020a03166318160ddd6040518163ffffffff1660e060020a028152600401602060405180830381600087803b151561280657600080fd5b5af1151561281357600080fd5b5050506040518051601e55505b611d9e565b600254600160a060020a031615611d9e57600254600160a060020a0316638c52dc416040518163ffffffff1660e060020a028152600401600060405180830381600087803b151561114f57600080fd5b60005460b060020a900460ff161561288c57611d9e565b6000805476ff00000000000000000000000000000000000000000000191660b060020a1790819055600160a060020a0361010090910416639cbf9e366040518163ffffffff1660e060020a028152600401602060405180830381600087803b15156128f657600080fd5b5af1151561290357600080fd5b50505060405180516001805473ffffffffffffffffffffffffffffffffffffffff1916600160a060020a03929092169190911790555060005460a860020a900460ff16156129d3576000546101009004600160a060020a0316633b8b4a616040518163ffffffff1660e060020a028152600401602060405180830381600087803b151561298f57600080fd5b5af1151561299c57600080fd5b50505060405180516002805473ffffffffffffffffffffffffffffffffffffffff1916600160a060020a0392909216919091179055505b60018054600160a060020a03169063b3e1f523906004900154600160a060020a0316600160405160e060020a63ffffffff8516028152600160a060020a03909216600483015215156024820152604401600060405180830381600087803b1515612a3c57600080fd5b5af11515612a4957600080fd5b5050600154600160a060020a0316905063b3e1f523600460020154600160a060020a0316600160405160e060020a63ffffffff8516028152600160a060020a03909216600483015215156024820152604401600060405180830381600087803b1515612ab457600080fd5b5af11515612ac157600080fd5b5050600154600160a060020a0316905063b3e1f5236004800154600160a060020a0316600160405160e060020a63ffffffff8516028152600160a060020a03909216600483015215156024820152604401600060405180830381600087803b1515612b2b57600080fd5b5af11515612b3857600080fd5b5050600154600160a060020a0316905063b3e1f523600460050154600160a060020a0316600160405160e060020a63ffffffff8516028152600160a060020a03909216600483015215156024820152604401600060405180830381600087803b1515612ba357600080fd5b5af11515612bb057600080fd5b5050600154600160a060020a0316905063b3e1f523600460030154600160a060020a0316600160405160e060020a63ffffffff8516028152600160a060020a03909216600483015215156024820152604401600060405180830381600087803b1515612c1b57600080fd5b5af11515612c2857600080fd5b505050600e8054806001018281612c3f9190612e75565b91600052602060002090600302016000606060405190810160409081526803d952abd36cbc00008252601e602083015262c5c10090820152919050815181556020820151816001015560408201516002909101555050600f805460018101612ca78382612ea1565b9160005260206000209060020201600060408051908101604052600f81526201518060208201529190508151815560208201518160010155505050600f8054806001018281612cf69190612ea1565b9160005260206000209060020201600060408051908101604052600a81526202a30060208201529190508151815560208201518160010155505050600f8054806001018281612d459190612ea1565b9160005260206000209060020201600060408051908101604052600581526205460060208201529190508151815560208201518160010155505050565b600254600160a060020a031615801590612dfd57506000600254600160a060020a031663c19d93fb6040518163ffffffff1660e060020a028152600401602060405180830381600087803b1515612dd857600080fd5b5af11515612de557600080fd5b505050604051805190506002811115612dfa57fe5b14155b15611d9e57600254600160a060020a0316631ef3755d6040518163ffffffff1660e060020a028152600401600060405180830381600087803b151561114f57600080fd5b600082821115612e4d57fe5b50900390565b6060604051908101604052806000815260200160008152602001600081525090565b81548183558181151161115c5760030281600302836000526020600020918201910161115c9190612edf565b81548183558181151161115c5760020281600202836000526020600020918201910161115c9190612f0a565b60206040519081016040526000815290565b6111c291905b80821115612f06576000808255600182018190556002820155600301612ee5565b5090565b6111c291905b80821115612f065760008082556001820155600201612f105600a165627a7a7230582000060566294ec12221d566dd908ef0627aec095dbabf2100e3c7436682b5397a0029",
  "source": "pragma solidity ^0.4.21;\n\nimport '../SafeMath.sol';\nimport '../Token/Token.sol';\nimport './RefundVault.sol';\nimport './AllocationToss.sol';\nimport './Creator.sol';\n\n// (A1)\n// The main contract for the sale and management of rounds.\n// 0000000000000000000000000000000000000000000000000000000000000000\ncontract Crowdsale{\n\n    uint256 constant USER_UNPAUSE_TOKEN_TIMEOUT =  60 days;\n    uint256 constant FORCED_REFUND_TIMEOUT1     = 400 days;\n    uint256 constant FORCED_REFUND_TIMEOUT2     = 600 days;\n    uint256 constant ROUND_PROLONGATE           =   0 days;\n    uint256 constant BURN_TOKENS_TIME           =  90 days;\n\n    using SafeMath for uint256;\n\n    enum TokenSaleType {round1, round2}\n    TokenSaleType public TokenSale = TokenSaleType.round2;\n\n    //              0             1         2        3        4        5      6       7        8     9\n    enum Roles {beneficiary, accountant, manager, observer, bounty, company, team, founders, fund, fees}\n\n    Creator public creator;\n    bool creator2;\n    bool isBegin=false;\n    Token public token;\n    RefundVault public vault;\n    AllocationTOSS public allocation;\n\n    bool public isFinalized;\n    bool public isInitialized;\n    bool public isPausedCrowdsale;\n    bool public chargeBonuses;\n    bool public canFirstMint=true;\n\n    // Initially, all next 7+ roles/wallets are given to the Manager. The Manager is an employee of the company\n    // with knowledge of IT, who publishes the contract and sets it up. However, money and tokens require\n    // a Beneficiary and other roles (Accountant, Team, etc.). The Manager will not have the right\n    // to receive them. To enable this, the Manager must either enter specific wallets here, or perform\n    // this via method changeWallet. In the finalization methods it is written which wallet and\n    // what percentage of tokens are received.\n    address[10] public wallets = [\n\n    // Beneficiary\n    // Receives all the money (when finalizing Round1 & Round2)\n    msg.sender,\n\n    // Accountant\n    // Receives all the tokens for non-ETH investors (when finalizing Round1 & Round2)\n    msg.sender,\n\n    // Manager\n    // All rights except the rights to receive tokens or money. Has the right to change any other\n    // wallets (Beneficiary, Accountant, ...), but only if the round has not started. Once the\n    // round is initialized, the Manager has lost all rights to change the wallets.\n    // If the TokenSale is conducted by one person, then nothing needs to be changed. Permit all 7 roles\n    // point to a single wallet.\n    msg.sender,\n\n    // Observer\n    // Has only the right to call paymentsInOtherCurrency (please read the document)\n    0x8a91aC199440Da0B45B2E278f3fE616b1bCcC494,\n\n    // Bounty - 7% tokens\n    msg.sender,\n\n    // Company, White list 1%\n    msg.sender,\n\n    // Team, 6%, freeze 1+1 year\n    msg.sender,\n\n    // Founders, 10% freeze 1+1 year\n    msg.sender,\n\n    // Fund, 6%\n    msg.sender,\n\n    // Fees, 7% money\n    msg.sender\n\n    ];\n\n\n\n    struct Bonus {\n    uint256 value;\n    uint256 procent;\n    uint256 freezeTime;\n    }\n\n    struct Profit {\n    uint256 percent;\n    uint256 duration;\n    }\n\n    struct Freezed {\n    uint256 value;\n    uint256 dateTo;\n    }\n\n    Bonus[] public bonuses;\n    Profit[] public profits;\n\n\n    uint256 public startTime= 1524560400;\n    uint256 public endTime  = 1529830740;\n    uint256 public renewal;\n\n    // How many tokens (excluding the bonus) are transferred to the investor in exchange for 1 ETH\n    // **QUINTILLIONS** 10^18 for human, *10**18 for Solidity, 1e18 for MyEtherWallet (MEW).\n    // Example: if 1ETH = 40.5 Token ==> use 40500 finney\n    uint256 public rate = 10000 ether;\n\n    // ETH/USD rate in US$\n    // **QUINTILLIONS** 10^18 / *10**18 / 1e18. Example: ETH/USD=$1000 ==> use 1000*10**18 (Solidity) or 1000 ether or 1000e18 (MEW)\n    uint256 public exchange  = 700 ether; // not in use\n\n    // If the round does not attain this value before the closing date, the round is recognized as a\n    // failure and investors take the money back (the founders will not interfere in any way).\n    // **QUINTILLIONS** 10^18 / *10**18 / 1e18. Example: softcap=15ETH ==> use 15*10**18 (Solidity) or 15e18 (MEW)\n    uint256 public softCap = 8500 ether;\n\n    // The maximum possible amount of income\n    // **QUINTILLIONS** 10^18 / *10**18 / 1e18. Example: hardcap=123.45ETH ==> use 123450*10**15 (Solidity) or 12345e15 (MEW)\n    uint256 public hardCap = 71500 ether;\n\n    // If the last payment is slightly higher than the hardcap, then the usual contracts do\n    // not accept it, because it goes beyond the hardcap. However it is more reasonable to accept the\n    // last payment, very slightly raising the hardcap. The value indicates by how many ETH the\n    // last payment can exceed the hardcap to allow it to be paid. Immediately after this payment, the\n    // round closes. The funders should write here a small number, not more than 1% of the CAP.\n    // Can be equal to zero, to cancel.\n    // **QUINTILLIONS** 10^18 / *10**18 / 1e18\n    uint256 public overLimit = 20 ether;\n\n    // The minimum possible payment from an investor in ETH. Payments below this value will be rejected.\n    // **QUINTILLIONS** 10^18 / *10**18 / 1e18. Example: minPay=0.1ETH ==> use 100*10**15 (Solidity) or 100e15 (MEW)\n    uint256 public minPay = 71 finney;\n\n    uint256 public maxAllProfit = 30;\n\n    uint256 public ethWeiRaised;\n    uint256 public nonEthWeiRaised;\n    uint256 public weiRound1;\n    uint256 public tokenReserved;\n\n    uint256 public totalSaledToken;\n\n    event TokenPurchase(address indexed purchaser, address indexed beneficiary, uint256 value, uint256 amount);\n\n    event Finalized();\n    event Initialized();\n\n    function Crowdsale(Creator _creator) public\n    {\n        creator2=true;\n        creator=_creator;\n    }\n\n    function onlyAdmin(bool forObserver) internal view {\n        require(wallets[uint8(Roles.manager)] == msg.sender || wallets[uint8(Roles.beneficiary)] == msg.sender ||\n        forObserver==true && wallets[uint8(Roles.observer)] == msg.sender);\n    }\n\n    // Setting of basic parameters, analog of class constructor\n    // @ Do I have to use the function      see your scenario\n    // @ When it is possible to call        before Round 1/2\n    // @ When it is launched automatically  -\n    // @ Who can call the function          admins\n    function begin() internal\n    {\n        if (isBegin) return;\n        isBegin=true;\n\n        token = creator.createToken();\n        if (creator2) {\n            vault = creator.createRefund();\n        }\n\n        token.setUnpausedWallet(wallets[uint8(Roles.accountant)], true);\n        token.setUnpausedWallet(wallets[uint8(Roles.manager)], true);\n        token.setUnpausedWallet(wallets[uint8(Roles.bounty)], true);\n        token.setUnpausedWallet(wallets[uint8(Roles.company)], true);\n        token.setUnpausedWallet(wallets[uint8(Roles.observer)], true);\n\n        bonuses.push(Bonus(71 ether, 30, 30*5 days));\n\n        profits.push(Profit(15,1 days));\n        profits.push(Profit(10,2 days));\n        profits.push(Profit(5,4 days));\n\n    }\n\n\n\n    // Issue of tokens for the zero round, it is usually called: private pre-sale (Round 0)\n    // @ Do I have to use the function      may be\n    // @ When it is possible to call        before Round 1/2\n    // @ When it is launched automatically  -\n    // @ Who can call the function          admins\n    function firstMintRound0(uint256 _amount) public {\n        onlyAdmin(false);\n        require(canFirstMint);\n        begin();\n        token.mint(wallets[uint8(Roles.accountant)],_amount);\n    }\n\n    // info\n    function totalSupply() external view returns (uint256){\n        return token.totalSupply();\n    }\n\n    // Returns the name of the current round in plain text. Constant.\n    function getTokenSaleType() external view returns(string){\n        return (TokenSale == TokenSaleType.round1)?'round1':'round2';\n    }\n\n    // Transfers the funds of the investor to the contract of return of funds. Internal.\n    function forwardFunds() internal {\n        if(address(vault) != 0x0){\n            vault.deposit.value(msg.value)(msg.sender);\n        }else {\n            if(address(this).balance > 0){\n                wallets[uint8(Roles.beneficiary)].transfer(address(this).balance);\n            }\n        }\n\n    }\n\n    // Check for the possibility of buying tokens. Inside. Constant.\n    function validPurchase() internal view returns (bool) {\n\n        // The round started and did not end\n        bool withinPeriod = (now > startTime && now < endTime.add(renewal));\n\n        // Rate is greater than or equal to the minimum\n        bool nonZeroPurchase = msg.value >= minPay;\n\n        // hardCap is not reached, and in the event of a transaction, it will not be exceeded by more than OverLimit\n        bool withinCap = msg.value <= hardCap.sub(weiRaised()).add(overLimit);\n\n        // round is initialized and no \"Pause of trading\" is set\n        return withinPeriod && nonZeroPurchase && withinCap && isInitialized && !isPausedCrowdsale;\n    }\n\n    // Check for the ability to finalize the round. Constant.\n    function hasEnded() public view returns (bool) {\n\n        bool timeReached = now > endTime.add(renewal);\n\n        bool capReached = weiRaised() >= hardCap;\n\n        return (timeReached || capReached) && isInitialized;\n    }\n\n    // Finalize. Only available to the Manager and the Beneficiary. If the round failed, then\n    // anyone can call the finalization to unlock the return of funds to investors\n    // You must call a function to finalize each round (after the Round1 & after the Round2)\n    // @ Do I have to use the function      yes\n    // @ When it is possible to call        after end of Round1 & Round2\n    // @ When it is launched automatically  no\n    // @ Who can call the function          admins or anybody (if round is failed)\n    function finalize() public {\n\n        require(wallets[uint8(Roles.manager)] == msg.sender || wallets[uint8(Roles.beneficiary)] == msg.sender || !goalReached());\n        require(!isFinalized);\n        require(hasEnded() || ((wallets[uint8(Roles.manager)] == msg.sender || wallets[uint8(Roles.beneficiary)] == msg.sender) && goalReached()));\n\n        isFinalized = true;\n        finalization();\n        emit Finalized();\n    }\n\n    // The logic of finalization. Internal\n    // @ Do I have to use the function      no\n    // @ When it is possible to call        -\n    // @ When it is launched automatically  after end of round\n    // @ Who can call the function          -\n    function finalization() internal {\n\n        //uint256 feesValue;\n        // If the goal of the achievement\n        if (goalReached()) {\n\n            if(address(vault) != 0x0){\n                // Send ether to Beneficiary\n                vault.close(wallets[uint8(Roles.beneficiary)], wallets[uint8(Roles.fees)], ethWeiRaised.mul(7).div(100)); //7% for fees\n            }\n\n            // if there is anything to give\n            if (tokenReserved > 0) {\n\n                token.mint(wallets[uint8(Roles.accountant)],tokenReserved);\n\n                // Reset the counter\n                tokenReserved = 0;\n            }\n\n            // If the finalization is Round 1\n            if (TokenSale == TokenSaleType.round1) {\n\n                // Reset settings\n                isInitialized = false;\n                isFinalized = false;\n\n                // Switch to the second round (to Round2)\n                TokenSale = TokenSaleType.round2;\n\n                // Reset the collection counter\n                weiRound1 = weiRaised();\n                ethWeiRaised = 0;\n                nonEthWeiRaised = 0;\n\n\n\n            }\n            else // If the second round is finalized\n            {\n\n                // Permission to collect tokens to those who can pick them up\n                chargeBonuses = true;\n\n                totalSaledToken = token.totalSupply();\n\n            }\n\n        }\n        else if (address(vault) != 0x0) // If they failed round\n        {\n            // Allow investors to withdraw their funds\n\n            vault.enableRefunds();\n        }\n    }\n\n    // The Manager freezes the tokens for the Team.\n    // You must call a function to finalize Round 2 (only after the Round2)\n    // @ Do I have to use the function      yes\n    // @ When it is possible to call        Round2\n    // @ When it is launched automatically  -\n    // @ Who can call the function          admins\n    function finalize2() public {\n\n        onlyAdmin(false);\n        require(chargeBonuses);\n        chargeBonuses = false;\n\n        allocation = creator.createAllocation(token, now + 1 years /* stage N1 */, now + 2 years /* stage N2 */);\n        token.setUnpausedWallet(allocation, true);\n\n        // Team = 6%, Founders = 10%, Fund = 6%    TOTAL = 22%\n        allocation.addShare(wallets[uint8(Roles.team)],       6,  50); // only 50% - first year, stage N1  (and +50 for stage N2)\n        allocation.addShare(wallets[uint8(Roles.founders)],  10,  50); // only 50% - first year, stage N1  (and +50 for stage N2)\n        allocation.addShare(wallets[uint8(Roles.fund)],       6, 100); // 100% - first year\n\n        // 22% - tokens to freeze contract (Team+Founders+Fund)\n        token.mint(allocation, totalSaledToken.mul(22).div(70));\n\n        // 7% - tokens to Bounty wallet\n        token.mint(wallets[uint8(Roles.bounty)], totalSaledToken.mul(7).div(70));\n\n        // 1% - tokens to Company (White List) wallet\n        token.mint(wallets[uint8(Roles.company)], totalSaledToken.mul(1).div(70));\n\n    }\n\n\n\n    // Initializing the round. Available to the manager. After calling the function,\n    // the Manager loses all rights: Manager can not change the settings (setup), change\n    // wallets, prevent the beginning of the round, etc. You must call a function after setup\n    // for the initial round (before the Round1 and before the Round2)\n    // @ Do I have to use the function      yes\n    // @ When it is possible to call        before each round\n    // @ When it is launched automatically  -\n    // @ Who can call the function          admins\n    function initialize() public {\n\n        onlyAdmin(false);\n        // If not yet initialized\n        require(!isInitialized);\n        begin();\n\n\n        // And the specified start time has not yet come\n        // If initialization return an error, check the start date!\n        require(now <= startTime);\n\n        initialization();\n\n        emit Initialized();\n\n        isInitialized = true;\n        renewal = 0;\n        canFirstMint = false;\n    }\n\n    function initialization() internal {\n        if (address(vault) != 0x0 && vault.state() != RefundVault.State.Active){\n            vault.restart();\n        }\n    }\n\n    // At the request of the investor, we raise the funds (if the round has failed because of the hardcap)\n    // @ Do I have to use the function      no\n    // @ When it is possible to call        if round is failed (softcap not reached)\n    // @ When it is launched automatically  -\n    // @ Who can call the function          all investors\n    function claimRefund() external {\n        require(address(vault) != 0x0);\n        vault.refund(msg.sender);\n    }\n\n    // We check whether we collected the necessary minimum funds. Constant.\n    function goalReached() public view returns (bool) {\n        return weiRaised() >= softCap;\n    }\n\n\n    // Customize. The arguments are described in the constructor above.\n    // @ Do I have to use the function      yes\n    // @ When it is possible to call        before each rond\n    // @ When it is launched automatically  -\n    // @ Who can call the function          admins\n    function setup(uint256 _startTime, uint256 _endTime, uint256 _softCap, uint256 _hardCap,\n    uint256 _rate, uint256 _exchange,\n    uint256 _maxAllProfit, uint256 _overLimit, uint256 _minPay,\n    uint256[] _durationTB , uint256[] _percentTB, uint256[] _valueVB, uint256[] _percentVB, uint256[] _freezeTimeVB) public\n    {\n\n        onlyAdmin(false);\n        require(!isInitialized);\n\n        begin();\n\n        // Date and time are correct\n        require(now <= _startTime);\n        require(_startTime < _endTime);\n        startTime = _startTime;\n        endTime = _endTime;\n\n        // The parameters are correct\n        require(_softCap <= _hardCap);\n        softCap = _softCap;\n        hardCap = _hardCap;\n\n        require(_rate > 0);\n        rate = _rate;\n\n        overLimit = _overLimit;\n        minPay = _minPay;\n        exchange = _exchange;\n        maxAllProfit = _maxAllProfit;\n\n        require(_valueVB.length == _percentVB.length && _valueVB.length == _freezeTimeVB.length);\n        bonuses.length = _valueVB.length;\n        for(uint256 i = 0; i < _valueVB.length; i++){\n            bonuses[i] = Bonus(_valueVB[i],_percentVB[i],_freezeTimeVB[i]);\n        }\n\n        require(_percentTB.length == _durationTB.length);\n        profits.length = _percentTB.length;\n        for( i = 0; i < _percentTB.length; i++){\n            profits[i] = Profit(_percentTB[i],_durationTB[i]);\n        }\n\n    }\n\n    // Collected funds for the current round. Constant.\n    function weiRaised() public constant returns(uint256){\n        return ethWeiRaised.add(nonEthWeiRaised);\n    }\n\n    // Returns the amount of fees for both phases. Constant.\n    function weiTotalRaised() external constant returns(uint256){\n        return weiRound1.add(weiRaised());\n    }\n\n    // Returns the percentage of the bonus on the current date. Constant.\n    function getProfitPercent() public constant returns (uint256){\n        return getProfitPercentForData(now);\n    }\n\n    // Returns the percentage of the bonus on the given date. Constant.\n    function getProfitPercentForData(uint256 _timeNow) public constant returns (uint256){\n        uint256 allDuration;\n        for(uint8 i = 0; i < profits.length; i++){\n            allDuration = allDuration.add(profits[i].duration);\n            if(_timeNow < startTime.add(allDuration)){\n                return profits[i].percent;\n            }\n        }\n        return 0;\n    }\n\n    function getBonuses(uint256 _value) public constant returns (uint256,uint256,uint256){\n        if(bonuses.length == 0 || bonuses[0].value > _value){\n            return (0,0,0);\n        }\n        uint16 i = 1;\n        for(i; i < bonuses.length; i++){\n            if(bonuses[i].value > _value){\n                break;\n            }\n        }\n        return (bonuses[i-1].value,bonuses[i-1].procent,bonuses[i-1].freezeTime);\n    }\n\n    // Remove the \"Pause of exchange\". Available to the manager at any time. If the\n    // manager refuses to remove the pause, then 30-120 days after the successful\n    // completion of the TokenSale, anyone can remove a pause and allow the exchange to continue.\n    // The manager does not interfere and will not be able to delay the term.\n    // He can only cancel the pause before the appointed time.\n    // ***CHECK***SCENARIO***\n    // @ Do I have to use the function      YES YES YES\n    // @ When it is possible to call        after end of Token Sale  (or any time - not necessary)\n    // @ When it is launched automatically  -\n    // @ Who can call the function          admins or anybody\n    function tokenUnpause() external {\n\n        require(wallets[uint8(Roles.manager)] == msg.sender\n        || (now > endTime.add(renewal).add(USER_UNPAUSE_TOKEN_TIMEOUT) && TokenSale == TokenSaleType.round2 && isFinalized && goalReached()));\n        token.setPause(false);\n    }\n\n    // Enable the \"Pause of exchange\". Available to the manager until the TokenSale is completed.\n    // The manager cannot turn on the pause, for example, 3 years after the end of the TokenSale.\n    // ***CHECK***SCENARIO***\n    // @ Do I have to use the function      no\n    // @ When it is possible to call        while Round2 not ended\n    // @ When it is launched automatically  Round0\n    // @ Who can call the function          admins\n    function tokenPause() public {\n        onlyAdmin(false);\n        require(!isFinalized);\n        token.setPause(true);\n    }\n\n    // Pause of sale. Available to the manager.\n    // @ Do I have to use the function      no\n    // @ When it is possible to call        during active rounds\n    // @ When it is launched automatically  -\n    // @ Who can call the function          admins\n    function setCrowdsalePause(bool mode) public {\n        onlyAdmin(false);\n        isPausedCrowdsale = mode;\n    }\n\n    // For example - After 5 years of the project's existence, all of us suddenly decided collectively\n    // (company + investors) that it would be more profitable for everyone to switch to another smart\n    // contract responsible for tokens. The company then prepares a new token, investors\n    // disassemble, study, discuss, etc. After a general agreement, the manager allows any investor:\n    //      - to burn the tokens of the previous contract\n    //      - generate new tokens for a new contract\n    // It is understood that after a general solution through this function all investors\n    // will collectively (and voluntarily) move to a new token.\n    // @ Do I have to use the function      no\n    // @ When it is possible to call        only after Token Sale!\n    // @ When it is launched automatically  -\n    // @ Who can call the function          admins\n    function moveTokens(address _migrationAgent) public {\n        onlyAdmin(false);\n        token.setMigrationAgent(_migrationAgent);\n    }\n\n    // @ Do I have to use the function      no\n    // @ When it is possible to call        only after Token Sale!\n    // @ When it is launched automatically  -\n    // @ Who can call the function          admins\n    function migrateAll(address[] _holders) public {\n        onlyAdmin(false);\n        token.migrateAll(_holders);\n    }\n\n    // Change the address for the specified role.\n    // Available to any wallet owner except the observer.\n    // Available to the manager until the round is initialized.\n    // The Observer's wallet or his own manager can change at any time.\n    // @ Do I have to use the function      no\n    // @ When it is possible to call        depend...\n    // @ When it is launched automatically  -\n    // @ Who can call the function          staff (all 7+ roles)\n    function changeWallet(Roles _role, address _wallet) external\n    {\n        require(\n        (msg.sender == wallets[uint8(_role)] && _role != Roles.observer)\n        ||\n        (msg.sender == wallets[uint8(Roles.manager)] && (!isInitialized || _role == Roles.observer) && _role != Roles.fees )\n        );\n\n        wallets[uint8(_role)] = _wallet;\n    }\n\n\n    // The beneficiary at any time can take rights in all roles and prescribe his wallet in all the\n    // rollers. Thus, he will become the recipient of tokens for the role of Accountant,\n    // Team, etc. Works at any time.\n    // @ Do I have to use the function      no\n    // @ When it is possible to call        any time\n    // @ When it is launched automatically  -\n    // @ Who can call the function          only Beneficiary\n    function resetAllWallets() external{\n        address _beneficiary = wallets[uint8(Roles.beneficiary)];\n        require(msg.sender == _beneficiary);\n        for(uint8 i = 0; i < wallets.length; i++){\n            if(uint8(Roles.fees) == i || uint8(Roles.team) == i)\n                continue;\n\n            wallets[i] = _beneficiary;\n        }\n        token.setUnpausedWallet(_beneficiary, true);\n    }\n\n\n    // Burn the investor tokens, if provided by the Token Sale scenario. Limited time available - BURN_TOKENS_TIME\n    // ***CHECK***SCENARIO***\n    // @ Do I have to use the function      no\n    // @ When it is possible to call        any time\n    // @ When it is launched automatically  -\n    // @ Who can call the function          admin\n    function massBurnTokens(address[] _beneficiary, uint256[] _value) external {\n        onlyAdmin(false);\n        require(endTime.add(renewal).add(BURN_TOKENS_TIME) > now);\n        require(_beneficiary.length == _value.length);\n        for(uint16 i; i<_beneficiary.length; i++) {\n            token.burn(_beneficiary[i],_value[i]);\n        }\n    }\n\n    // Extend the round time, if provided by the script. Extend the round only for\n    // a limited number of days - ROUND_PROLONGATE\n    // ***CHECK***SCENARIO***\n    // @ Do I have to use the function      no\n    // @ When it is possible to call        during active round\n    // @ When it is launched automatically  -\n    // @ Who can call the function          admins\n    function prolong(uint256 _duration) external {\n        onlyAdmin(false);\n        require(now > startTime && now < endTime.add(renewal) && isInitialized);//\n        renewal = renewal.add(_duration);\n        require(renewal <= ROUND_PROLONGATE);\n\n    }\n    // If a little more than a year has elapsed (Round2 start date + 400 days), a smart contract\n    // will allow you to send all the money to the Beneficiary, if any money is present. This is\n    // possible if you mistakenly launch the Round2 for 30 years (not 30 days), investors will transfer\n    // money there and you will not be able to pick them up within a reasonable time. It is also\n    // possible that in our checked script someone will make unforeseen mistakes, spoiling the\n    // finalization. Without finalization, money cannot be returned. This is a rescue option to\n    // get around this problem, but available only after a year (400 days).\n\n    // Another reason - the TokenSale was a failure, but not all ETH investors took their money during the year after.\n    // Some investors may have lost a wallet key, for example.\n\n    // The method works equally with the Round1 and Round2. When the Round1 starts, the time for unlocking\n    // the distructVault begins. If the TokenSale is then started, then the term starts anew from the first day of the TokenSale.\n\n    // Next, act independently, in accordance with obligations to investors.\n\n    // Within 400 days (FORCED_REFUND_TIMEOUT1) of the start of the Round, if it fails only investors can take money. After\n    // the deadline this can also include the company as well as investors, depending on who is the first to use the method.\n    // @ Do I have to use the function      no\n    // @ When it is possible to call        -\n    // @ When it is launched automatically  -\n    // @ Who can call the function          beneficiary & manager\n    function distructVault() public {\n        require(address(vault) != 0x0);\n        if (wallets[uint8(Roles.beneficiary)] == msg.sender && (now > startTime.add(FORCED_REFUND_TIMEOUT1))) {\n            vault.del(wallets[uint8(Roles.beneficiary)]);\n        }\n        if (wallets[uint8(Roles.manager)] == msg.sender && (now > startTime.add(FORCED_REFUND_TIMEOUT2))) {\n            vault.del(wallets[uint8(Roles.manager)]);\n        }\n    }\n\n\n    // We accept payments other than Ethereum (ETH) and other currencies, for example, Bitcoin (BTC).\n    // Perhaps other types of cryptocurrency - see the original terms in the white paper and on the TokenSale website.\n\n    // We release tokens on Ethereum. During the Round1 and Round2 with a smart contract, you directly transfer\n    // the tokens there and immediately, with the same transaction, receive tokens in your wallet.\n\n    // When paying in any other currency, for example in BTC, we accept your money via one common wallet.\n    // Our manager fixes the amount received for the bitcoin wallet and calls the method of the smart\n    // contract paymentsInOtherCurrency to inform him how much foreign currency has been received - on a daily basis.\n    // The smart contract pins the number of accepted ETH directly and the number of BTC. Smart contract\n    // monitors softcap and hardcap, so as not to go beyond this framework.\n\n    // In theory, it is possible that when approaching hardcap, we will receive a transfer (one or several\n    // transfers) to the wallet of BTC, that together with previously received money will exceed the hardcap in total.\n    // In this case, we will refund all the amounts above, in order not to exceed the hardcap.\n\n    // Collection of money in BTC will be carried out via one common wallet. The wallet's address will be published\n    // everywhere (in a white paper, on the TokenSale website, on Telegram, on Bitcointalk, in this code, etc.)\n    // Anyone interested can check that the administrator of the smart contract writes down exactly the amount\n    // in ETH (in equivalent for BTC) there. In theory, the ability to bypass a smart contract to accept money in\n    // BTC and not register them in ETH creates a possibility for manipulation by the company. Thanks to\n    // paymentsInOtherCurrency however, this threat is leveled.\n\n    // Any user can check the amounts in BTC and the variable of the smart contract that accounts for this\n    // (paymentsInOtherCurrency method). Any user can easily check the incoming transactions in a smart contract\n    // on a daily basis. Any hypothetical tricks on the part of the company can be exposed and panic during the TokenSale,\n    // simply pointing out the incompatibility of paymentsInOtherCurrency (ie, the amount of ETH + BTC collection)\n    // and the actual transactions in BTC. The company strictly adheres to the described principles of openness.\n\n    // The company administrator is required to synchronize paymentsInOtherCurrency every working day (but you\n    // cannot synchronize if there are no new BTC payments). In the case of unforeseen problems, such as\n    // brakes on the Ethereum network, this operation may be difficult. You should only worry if the\n    // administrator does not synchronize the amount for more than 96 hours in a row, and the BTC wallet\n    // receives significant amounts.\n\n    // This scenario ensures that for the sum of all fees in all currencies this value does not exceed hardcap.\n\n    // ** QUINTILLIONS ** 10^18 / 1**18 / 1e18\n\n    // @ Do I have to use the function      no\n    // @ When it is possible to call        during active rounds\n    // @ When it is launched automatically  every day from cryptob2b token software\n    // @ Who can call the function          admins + observer\n    function paymentsInOtherCurrency(uint256 _token, uint256 _value) public {\n        //require(wallets[uint8(Roles.observer)] == msg.sender || wallets[uint8(Roles.manager)] == msg.sender);\n        onlyAdmin(true);\n        bool withinPeriod = (now >= startTime && now <= endTime.add(renewal));\n\n        bool withinCap = _value.add(ethWeiRaised) <= hardCap.add(overLimit);\n        require(withinPeriod && withinCap && isInitialized);\n\n        nonEthWeiRaised = _value;\n        tokenReserved = _token;\n\n    }\n\n    function lokedMint(address _beneficiary, uint256 _value, uint256 _freezeTime) internal {\n        if(_freezeTime > 0){\n\n            uint256 totalBloked = token.freezedTokenOf(_beneficiary).add(_value);\n            uint256 pastDateUnfreeze = token.defrostDate(_beneficiary);\n            uint256 newDateUnfreeze = _freezeTime.add(now);\n            newDateUnfreeze = (pastDateUnfreeze > newDateUnfreeze ) ? pastDateUnfreeze : newDateUnfreeze;\n\n            token.freezeTokens(_beneficiary,totalBloked,newDateUnfreeze);\n        }\n        token.mint(_beneficiary,_value);\n    }\n\n\n    // The function for obtaining smart contract funds in ETH. If all the checks are true, the token is\n    // transferred to the buyer, taking into account the current bonus.\n    function buyTokens(address beneficiary) public payable {\n        require(beneficiary != 0x0);\n        require(validPurchase());\n\n        uint256 weiAmount = msg.value;\n\n        uint256 ProfitProcent = getProfitPercent();\n\n        uint256 value;\n        uint256 percent;\n        uint256 freezeTime;\n\n        (value,\n        percent,\n        freezeTime) = getBonuses(weiAmount);\n\n        Bonus memory curBonus = Bonus(value,percent,freezeTime);\n\n        uint256 bonus = curBonus.procent;\n\n        // --------------------------------------------------------------------------------------------\n        // *** Scenario 1 - select max from all bonuses + check maxAllProfit\n        uint256 totalProfit = (ProfitProcent < bonus) ? bonus : ProfitProcent;\n\n        // --------------------------------------------------------------------------------------------\n        totalProfit = (totalProfit > maxAllProfit) ? maxAllProfit : totalProfit;\n\n        // calculate token amount to be created\n        uint256 tokens = weiAmount.mul(rate).mul(totalProfit.add(100)).div(100 ether);\n\n        // update state\n        ethWeiRaised = ethWeiRaised.add(weiAmount);\n\n        lokedMint(beneficiary, tokens, curBonus.freezeTime);\n\n        emit TokenPurchase(msg.sender, beneficiary, weiAmount, tokens);\n\n        forwardFunds();\n    }\n\n    // buyTokens alias\n    function () public payable {\n        buyTokens(msg.sender);\n    }\n\n\n\n}\n",
  "sourcePath": "/home/dmitrya2e/Work/Projects/ProofOfToss/Code/proof-of-toss/contracts/token-sale-contracts/TokenSale/Crowdsale/Crowdsale.sol",
  "compiler": {
    "name": "solc",
    "version": "0.4.21+commit.dfe3193c.Emscripten.clang"
  },
  "schemaVersion": "2.0.0",
  "updatedAt": "2018-05-28T10:18:09.021Z"
}