{
  "contractName": "EventBase",
  "abi": [
    {
      "constant": true,
      "inputs": [],
      "name": "creator",
      "outputs": [
        {
          "name": "",
          "type": "address"
        }
      ],
      "payable": false,
      "stateMutability": "view",
      "type": "function"
    },
    {
      "constant": true,
      "inputs": [
        {
          "name": "",
          "type": "uint256"
        }
      ],
      "name": "possibleResults",
      "outputs": [
        {
          "name": "customCoefficient",
          "type": "uint64"
        },
        {
          "name": "betCount",
          "type": "uint32"
        },
        {
          "name": "betSum",
          "type": "uint256"
        }
      ],
      "payable": false,
      "stateMutability": "view",
      "type": "function"
    },
    {
      "constant": true,
      "inputs": [],
      "name": "startDate",
      "outputs": [
        {
          "name": "",
          "type": "uint64"
        }
      ],
      "payable": false,
      "stateMutability": "view",
      "type": "function"
    },
    {
      "constant": true,
      "inputs": [
        {
          "name": "",
          "type": "address"
        }
      ],
      "name": "rewardWithdraws",
      "outputs": [
        {
          "name": "",
          "type": "uint256"
        }
      ],
      "payable": false,
      "stateMutability": "view",
      "type": "function"
    },
    {
      "constant": true,
      "inputs": [],
      "name": "resultsCount",
      "outputs": [
        {
          "name": "",
          "type": "uint8"
        }
      ],
      "payable": false,
      "stateMutability": "view",
      "type": "function"
    },
    {
      "constant": true,
      "inputs": [
        {
          "name": "",
          "type": "uint256"
        }
      ],
      "name": "bets",
      "outputs": [
        {
          "name": "timestamp",
          "type": "uint256"
        },
        {
          "name": "bettor",
          "type": "address"
        },
        {
          "name": "result",
          "type": "uint8"
        },
        {
          "name": "amount",
          "type": "uint256"
        }
      ],
      "payable": false,
      "stateMutability": "view",
      "type": "function"
    },
    {
      "constant": true,
      "inputs": [
        {
          "name": "",
          "type": "address"
        }
      ],
      "name": "withdraws",
      "outputs": [
        {
          "name": "",
          "type": "uint256"
        }
      ],
      "payable": false,
      "stateMutability": "view",
      "type": "function"
    },
    {
      "constant": true,
      "inputs": [],
      "name": "resolvedResult",
      "outputs": [
        {
          "name": "",
          "type": "uint8"
        }
      ],
      "payable": false,
      "stateMutability": "view",
      "type": "function"
    },
    {
      "constant": true,
      "inputs": [
        {
          "name": "",
          "type": "address"
        },
        {
          "name": "",
          "type": "uint256"
        }
      ],
      "name": "betWithdraws",
      "outputs": [
        {
          "name": "",
          "type": "uint256"
        }
      ],
      "payable": false,
      "stateMutability": "view",
      "type": "function"
    },
    {
      "constant": true,
      "inputs": [],
      "name": "owner",
      "outputs": [
        {
          "name": "",
          "type": "address"
        }
      ],
      "payable": false,
      "stateMutability": "view",
      "type": "function"
    },
    {
      "constant": true,
      "inputs": [],
      "name": "whitelist",
      "outputs": [
        {
          "name": "",
          "type": "address"
        }
      ],
      "payable": false,
      "stateMutability": "view",
      "type": "function"
    },
    {
      "constant": true,
      "inputs": [],
      "name": "lastWithdraw",
      "outputs": [
        {
          "name": "",
          "type": "uint256"
        }
      ],
      "payable": false,
      "stateMutability": "view",
      "type": "function"
    },
    {
      "constant": true,
      "inputs": [],
      "name": "operatorId",
      "outputs": [
        {
          "name": "",
          "type": "address"
        }
      ],
      "payable": false,
      "stateMutability": "view",
      "type": "function"
    },
    {
      "constant": true,
      "inputs": [],
      "name": "state",
      "outputs": [
        {
          "name": "",
          "type": "uint8"
        }
      ],
      "payable": false,
      "stateMutability": "view",
      "type": "function"
    },
    {
      "constant": true,
      "inputs": [],
      "name": "endDate",
      "outputs": [
        {
          "name": "",
          "type": "uint64"
        }
      ],
      "payable": false,
      "stateMutability": "view",
      "type": "function"
    },
    {
      "constant": true,
      "inputs": [],
      "name": "deposit",
      "outputs": [
        {
          "name": "",
          "type": "uint256"
        }
      ],
      "payable": false,
      "stateMutability": "view",
      "type": "function"
    },
    {
      "constant": true,
      "inputs": [
        {
          "name": "",
          "type": "address"
        },
        {
          "name": "",
          "type": "uint256"
        }
      ],
      "name": "usersBets",
      "outputs": [
        {
          "name": "",
          "type": "uint256"
        }
      ],
      "payable": false,
      "stateMutability": "view",
      "type": "function"
    },
    {
      "constant": true,
      "inputs": [],
      "name": "bidType",
      "outputs": [
        {
          "name": "",
          "type": "bytes32"
        }
      ],
      "payable": false,
      "stateMutability": "view",
      "type": "function"
    },
    {
      "constant": true,
      "inputs": [],
      "name": "meta_version",
      "outputs": [
        {
          "name": "",
          "type": "uint256"
        }
      ],
      "payable": false,
      "stateMutability": "view",
      "type": "function"
    },
    {
      "constant": true,
      "inputs": [],
      "name": "token",
      "outputs": [
        {
          "name": "",
          "type": "address"
        }
      ],
      "payable": false,
      "stateMutability": "view",
      "type": "function"
    },
    {
      "inputs": [
        {
          "name": "_token",
          "type": "address"
        }
      ],
      "payable": false,
      "stateMutability": "nonpayable",
      "type": "constructor"
    },
    {
      "anonymous": false,
      "inputs": [
        {
          "indexed": false,
          "name": "_contract",
          "type": "address"
        },
        {
          "indexed": false,
          "name": "_data",
          "type": "bytes"
        }
      ],
      "name": "Updated",
      "type": "event"
    },
    {
      "constant": false,
      "inputs": [
        {
          "name": "_contract",
          "type": "address"
        },
        {
          "name": "_data",
          "type": "bytes"
        }
      ],
      "name": "updated",
      "outputs": [],
      "payable": false,
      "stateMutability": "nonpayable",
      "type": "function"
    },
    {
      "constant": true,
      "inputs": [],
      "name": "betsCount",
      "outputs": [
        {
          "name": "",
          "type": "uint256"
        }
      ],
      "payable": false,
      "stateMutability": "view",
      "type": "function"
    },
    {
      "constant": true,
      "inputs": [
        {
          "name": "_user",
          "type": "address"
        }
      ],
      "name": "userBetsCount",
      "outputs": [
        {
          "name": "",
          "type": "uint256"
        }
      ],
      "payable": false,
      "stateMutability": "view",
      "type": "function"
    },
    {
      "constant": false,
      "inputs": [
        {
          "name": "_token",
          "type": "address"
        },
        {
          "name": "_whitelist",
          "type": "address"
        },
        {
          "name": "_creator",
          "type": "address"
        },
        {
          "name": "_deposit",
          "type": "uint256"
        },
        {
          "name": "_startDate",
          "type": "uint64"
        },
        {
          "name": "_endDate",
          "type": "uint64"
        },
        {
          "name": "_resultsCount",
          "type": "uint8"
        }
      ],
      "name": "init",
      "outputs": [],
      "payable": false,
      "stateMutability": "nonpayable",
      "type": "function"
    },
    {
      "constant": false,
      "inputs": [
        {
          "name": "customCoefficient",
          "type": "uint64"
        }
      ],
      "name": "addResult",
      "outputs": [],
      "payable": false,
      "stateMutability": "nonpayable",
      "type": "function"
    },
    {
      "constant": false,
      "inputs": [
        {
          "name": "_from",
          "type": "address"
        },
        {
          "name": "_value",
          "type": "uint256"
        },
        {
          "name": "_data",
          "type": "bytes"
        }
      ],
      "name": "tokenFallback",
      "outputs": [],
      "payable": false,
      "stateMutability": "nonpayable",
      "type": "function"
    },
    {
      "constant": true,
      "inputs": [],
      "name": "getState",
      "outputs": [
        {
          "name": "",
          "type": "uint8"
        }
      ],
      "payable": false,
      "stateMutability": "view",
      "type": "function"
    },
    {
      "constant": false,
      "inputs": [
        {
          "name": "result",
          "type": "uint8"
        }
      ],
      "name": "resolve",
      "outputs": [],
      "payable": false,
      "stateMutability": "nonpayable",
      "type": "function"
    },
    {
      "constant": true,
      "inputs": [
        {
          "name": "_user",
          "type": "address"
        }
      ],
      "name": "getUserBets",
      "outputs": [
        {
          "name": "",
          "type": "uint256[]"
        }
      ],
      "payable": false,
      "stateMutability": "view",
      "type": "function"
    },
    {
      "constant": true,
      "inputs": [],
      "name": "isOperatorEvent",
      "outputs": [
        {
          "name": "",
          "type": "bool"
        }
      ],
      "payable": false,
      "stateMutability": "view",
      "type": "function"
    },
    {
      "constant": true,
      "inputs": [],
      "name": "isPlayer",
      "outputs": [
        {
          "name": "",
          "type": "bool"
        }
      ],
      "payable": false,
      "stateMutability": "view",
      "type": "function"
    },
    {
      "constant": true,
      "inputs": [],
      "name": "calculateBetsSums",
      "outputs": [
        {
          "name": "",
          "type": "uint256"
        },
        {
          "name": "",
          "type": "uint256"
        },
        {
          "name": "",
          "type": "uint256"
        }
      ],
      "payable": false,
      "stateMutability": "view",
      "type": "function"
    },
    {
      "constant": true,
      "inputs": [
        {
          "name": "_userBet",
          "type": "uint256"
        }
      ],
      "name": "getPrize",
      "outputs": [
        {
          "name": "",
          "type": "uint256"
        }
      ],
      "payable": false,
      "stateMutability": "view",
      "type": "function"
    },
    {
      "constant": true,
      "inputs": [
        {
          "name": "_userBet",
          "type": "uint256"
        }
      ],
      "name": "getRefund",
      "outputs": [
        {
          "name": "",
          "type": "uint256"
        }
      ],
      "payable": false,
      "stateMutability": "view",
      "type": "function"
    },
    {
      "constant": true,
      "inputs": [],
      "name": "getEventCreatorReward",
      "outputs": [
        {
          "name": "",
          "type": "uint256"
        }
      ],
      "payable": false,
      "stateMutability": "view",
      "type": "function"
    },
    {
      "constant": true,
      "inputs": [],
      "name": "getEventCreatorRefund",
      "outputs": [
        {
          "name": "",
          "type": "uint256"
        }
      ],
      "payable": false,
      "stateMutability": "view",
      "type": "function"
    },
    {
      "constant": true,
      "inputs": [
        {
          "name": "user",
          "type": "address"
        }
      ],
      "name": "getShare",
      "outputs": [
        {
          "name": "",
          "type": "uint256"
        }
      ],
      "payable": false,
      "stateMutability": "view",
      "type": "function"
    },
    {
      "constant": false,
      "inputs": [],
      "name": "withdraw",
      "outputs": [],
      "payable": false,
      "stateMutability": "nonpayable",
      "type": "function"
    },
    {
      "constant": false,
      "inputs": [
        {
          "name": "bet",
          "type": "uint256"
        }
      ],
      "name": "withdrawPrize",
      "outputs": [],
      "payable": false,
      "stateMutability": "nonpayable",
      "type": "function"
    },
    {
      "constant": false,
      "inputs": [],
      "name": "withdrawReward",
      "outputs": [],
      "payable": false,
      "stateMutability": "nonpayable",
      "type": "function"
    }
  ],
  "bytecode": "0x606060405260058054600160a060020a03191660011790556000600f55341561002757600080fd5b6040516020806121bb8339810160405280805160018054600160a060020a03338116600160a060020a031992831617909255600280549290931691161790555050612144806100776000396000f3006060604052600436106101d45763ffffffff60e060020a60003504166302d05d3f81146101d957806304ef0a3d146102085780630b97bc8614610252578063112292b6146102825780631865c57d146102a45780631a1e0927146102db5780631a8ba72f1461030c578063209b5bc21461031f57806322af00fa146103485780632d56657d146103955780633b887c96146104075780633ccfd60b1461041a57806346a4e92f1461042d57806348179ee51461048c5780634b3ab9c5146104ab578063626a5b41146104ca57806365f90fee146105015780636a50965c146105485780637420b9d41461055b57806376740de01461057d5780637b2386bb146105a45780638da5cb5b146105c357806393e59dc1146105d6578063a0270dbc146105e9578063a1099bf214610602578063aa74dc7514610618578063b52eea741461062b578063bf68b8161461063e578063c0ee0b8a14610651578063c19d93fb146106b6578063c20eec7b146106c9578063c24a0f8b146106df578063c885bc58146106f2578063d0e30db014610705578063d2f0be9914610718578063e7519f2f1461072e578063e7cdc27b14610750578063eca41b8914610763578063f1c23a7614610776578063fc0c546a14610789575b600080fd5b34156101e457600080fd5b6101ec61079c565b604051600160a060020a03909116815260200160405180910390f35b341561021357600080fd5b61021e6004356107ab565b60405167ffffffffffffffff909316835263ffffffff90911660208301526040808301919091526060909101905180910390f35b341561025d57600080fd5b6102656107f5565b60405167ffffffffffffffff909116815260200160405180910390f35b341561028d57600080fd5b6102a267ffffffffffffffff60043516610805565b005b34156102af57600080fd5b6102b761090d565b604051808260068111156102c757fe5b60ff16815260200191505060405180910390f35b34156102e657600080fd5b6102fa600160a060020a0360043516610a06565b60405190815260200160405180910390f35b341561031757600080fd5b6102fa610a18565b341561032a57600080fd5b610332610a1e565b60405160ff909116815260200160405180910390f35b341561035357600080fd5b61035e600435610a27565b604051938452600160a060020a03909216602084015260ff1660408084019190915260608301919091526080909101905180910390f35b34156103a057600080fd5b6103b4600160a060020a0360043516610a7f565b60405160208082528190810183818151815260200191508051906020019060200280838360005b838110156103f35780820151838201526020016103db565b505050509050019250505060405180910390f35b341561041257600080fd5b6102fa610b03565b341561042557600080fd5b6102a2610bad565b341561043857600080fd5b6102a260048035600160a060020a03169060446024803590810190830135806020601f82018190048102016040519081016040528181529291906020840183838082843750949650610d5895505050505050565b341561049757600080fd5b6102fa600160a060020a0360043516610e34565b34156104b657600080fd5b6102fa600160a060020a0360043516610e46565b34156104d557600080fd5b6104dd610ec7565b60405180848152602001838152602001828152602001935050505060405180910390f35b341561050c57600080fd5b6102a2600160a060020a036004358116906024358116906044351660643567ffffffffffffffff60843581169060a4351660ff60c43516610fae565b341561055357600080fd5b6103326110a9565b341561056657600080fd5b6102fa600160a060020a03600435166024356110b2565b341561058857600080fd5b6105906110cf565b604051901515815260200160405180910390f35b34156105af57600080fd5b6102fa600160a060020a03600435166110ec565b34156105ce57600080fd5b6101ec611107565b34156105e157600080fd5b6101ec611116565b34156105f457600080fd5b6102a260ff60043516611125565b341561060d57600080fd5b6102fa6004356112a6565b341561062357600080fd5b6102fa61146d565b341561063657600080fd5b6102fa6114eb565b341561064957600080fd5b6101ec6114f1565b341561065c57600080fd5b6102a260048035600160a060020a03169060248035919060649060443590810190830135806020601f8201819004810201604051908101604052818152929190602084018383808284375094965061150095505050505050565b34156106c157600080fd5b6102b761158e565b34156106d457600080fd5b6102a260043561159c565b34156106ea57600080fd5b61026561176c565b34156106fd57600080fd5b6102a2611788565b341561071057600080fd5b6102fa611882565b341561072357600080fd5b6102fa600435611888565b341561073957600080fd5b6102fa600160a060020a036004351660243561193a565b341561075b57600080fd5b610590611968565b341561076e57600080fd5b6102fa61196d565b341561078157600080fd5b6102fa611973565b341561079457600080fd5b6101ec611978565b600454600160a060020a031681565b600a8054829081106107b957fe5b60009182526020909120600290910201805460019091015467ffffffffffffffff821692506801000000000000000090910463ffffffff169083565b60075467ffffffffffffffff1681565b60015433600160a060020a0390811691161461082057600080fd5b6000600954610100900460ff16600681111561083857fe5b1461084257600080fd5b600a8054600181016108548382611ffb565b916000526020600020906002020160006060604051908101604090815267ffffffffffffffff86168252600060208301819052908201529190508151815467ffffffffffffffff191667ffffffffffffffff919091161781556020820151815463ffffffff9190911668010000000000000000026bffffffff00000000000000001990911617815560408201516001909101555050600954600a5460ff909116141561090a576009805461ff0019166101001790555b50565b60075460009067ffffffffffffffff1642101561094057600b54600090111561093857506002610a03565b506001610a03565b600b54600090111561098a5760075468010000000000000000900467ffffffffffffffff1642101561097457506003610a03565b600d5460ff908116141561098a57506004610a03565b600254600160a060020a03166370a082313060405160e060020a63ffffffff8416028152600160a060020a039091166004820152602401602060405180830381600087803b15156109da57600080fd5b5af115156109e757600080fd5b5050506040518051151590506109ff57506006610a03565b5060055b90565b60116020526000908152604090205481565b600b5490565b60095460ff1681565b600b805482908110610a3557fe5b6000918252602090912060039091020180546001820154600290920154909250600160a060020a0382169174010000000000000000000000000000000000000000900460ff169084565b610a8761202c565b600c600083600160a060020a0316600160a060020a03168152602001908152602001600020805480602002602001604051908101604052809291908181526020018280548015610af657602002820191906000526020600020905b815481526020019060010190808311610ae2575b505050505090505b919050565b6004546000908190819032600160a060020a03908116911614610b295760009250610ba8565b6005600954610100900460ff166006811115610b4157fe5b14610b4f5760009250610ba8565b610b57611987565b9150610b6a82606463ffffffff6119e316565b9050600654811015610b9157600654610b8a90829063ffffffff6119ff16565b9250610ba8565b600654610ba590600263ffffffff611a1516565b92505b505090565b6000610bb761202c565b600160a060020a0333166000908152600e602052604090205415610bda57600080fd5b610be333610e46565b915060008211610bf257600080fd5b42600f81905533600160a060020a038181166000908152600e60205260409081902093909355600254169163a9059cbb919085905160e060020a63ffffffff8516028152600160a060020a0390921660048301526024820152604401602060405180830381600087803b1515610c6757600080fd5b5af11515610c7457600080fd5b50505060405180515050600054600160a060020a03166346a4e92f30836040518363ffffffff1660e060020a0281526004018083600160a060020a0316600160a060020a0316815260200180602001828103825283818151815260200191508051906020019080838360005b83811015610cf8578082015183820152602001610ce0565b50505050905090810190601f168015610d255780820380516001836020036101000a031916815260200191505b509350505050600060405180830381600087803b1515610d4457600080fd5b5af11515610d5157600080fd5b5050505050565b813b600081118015610d7b575082600160a060020a031633600160a060020a0316145b1515610d8657600080fd5b7fcbbecdace00991a8a26d8fc6085c610d5474f351252a818795d55a375a84bfa18383604051600160a060020a038316815260406020820181815290820183818151815260200191508051906020019080838360005b83811015610df4578082015183820152602001610ddc565b50505050905090810190601f168015610e215780820380516001836020036101000a031916815260200191505b50935050505060405180910390a1505050565b600e6020526000908152604090205481565b6000808080610e63610e56610b03565b849063ffffffff6119ff16565b9250610e70610e5661146d565b600160a060020a0332166000908152600c602052604081205491945090925090505b81811015610ebe57610ea6610e56826112a6565b9250610eb4610e5682611888565b9250600101610e92565b50909392505050565b600d54600a805460009283928392839283928392839260ff16908110610ee957fe5b9060005260206000209060020201600101549150600090505b60095460ff9081169082161015610fa257610f49600a8260ff16815481101515610f2857fe5b906000526020600020906002020160010154856119ff90919063ffffffff16565b600d5490945060ff82811691161415610f6157610f9a565b610f97600a8260ff16815481101515610f7657fe5b906000526020600020906002020160010154846119ff90919063ffffffff16565b92505b600101610f02565b50919591945092509050565b60015433600160a060020a03908116911614610fc957600080fd5b60dc60ff821610610fd957600080fd5b67ffffffffffffffff8083169084161115610ff357600080fd5b6002805473ffffffffffffffffffffffffffffffffffffffff19908116600160a060020a03998a1617909155600380548216978916979097179096556004805490961694909616939093179093556006556007805467ffffffffffffffff191667ffffffffffffffff938416176fffffffffffffffff000000000000000019166801000000000000000093909216929092021790556009805460ff1990811660ff93841617909155600d80549091169091179055565b600d5460ff1681565b601060209081526000928352604080842090915290825290205481565b600160a060020a0332166000908152600c60205260408120541190565b600160a060020a03166000908152600c602052604090205490565b600154600160a060020a031681565b600354600160a060020a031681565b61112d61202c565b61113561090d565b6009805461ff00191661010083600681111561114d57fe5b0217905550600354600160a060020a0316639b19251a3360405160e060020a63ffffffff8416028152600160a060020a039091166004820152602401602060405180830381600087803b15156111a257600080fd5b5af115156111af57600080fd5b5050506040518051151560011490506111c757600080fd5b6004600954610100900460ff1660068111156111df57fe5b146111e957600080fd5b60095460ff9081169083161080611204575060dc8260ff1610155b151561120f57600080fd5b600d805460ff191660ff84161790556009805461ff001916610500179055600054600160a060020a03166346a4e92f30836040518363ffffffff1660e060020a0281526004018083600160a060020a0316600160a060020a03168152602001806020018281038252838181518152602001915080519060200190808383600083811015610cf8578082015183820152602001610ce0565b60008080808080806005600954610100900460ff1660068111156112c657fe5b146112d45760009650611462565b600160a060020a0332166000908152600c602052604090205488106112f857600080fd5b600160a060020a0332166000908152600c602052604090208054600b91908a90811061132057fe5b6000918252602090912001548154811061133657fe5b60009182526020909120600d54600390920201600181015490975060ff9182167401000000000000000000000000000000000000000090910491909116141561145d57611381611968565b156113cf57600d54600a80546113c89260ff1690811061139d57fe5b6000918252602090912060029182020154908801549067ffffffffffffffff1663ffffffff611a1516565b9650611462565b6113d7610ec7565b6002890154929750955093506113f3908463ffffffff6119e316565b915061145361142a8361141e606461141289606363ffffffff611a1516565b9063ffffffff6119e316565b9063ffffffff611a1516565b611447606461141260638b60020154611a1590919063ffffffff16565b9063ffffffff6119ff16565b9050809650611462565b600096505b505050505050919050565b600454600090819032600160a060020a0390811691161461149157600091506114e7565b6005600954610100900460ff1660068111156114a957fe5b1415806114b957506114b9611a40565b156114c757600091506114e7565b6114cf611987565b90508015156114e157600091506114e7565b60065491505b5090565b600f5481565b600554600160a060020a031681565b60008060008351915081151561151557611586565b61151f8285611a4e565b92506000199091019060ff8316151561153757611586565b8260ff16600114156115645761154d8285611a4e565b905060018203915061155f8186611a5b565b611586565b8260ff166002141561157557600080fd5b8260ff16600314156101d457600080fd5b505050505050565b600954610100900460ff1681565b60006115a661202c565b600160a060020a0333166000908152601060209081526040808320868452909152902054156115d457600080fd5b6115e96115e084611888565b611447856112a6565b9150600082116115f857600080fd5b42600f81905533600160a060020a038181166000908152600e60209081526040808320869055601082528083208984529091529081902093909355600254169163a9059cbb919085905160e060020a63ffffffff8516028152600160a060020a0390921660048301526024820152604401602060405180830381600087803b151561168257600080fd5b5af1151561168f57600080fd5b50505060405180515050600054600160a060020a03166346a4e92f30836040518363ffffffff1660e060020a0281526004018083600160a060020a0316600160a060020a0316815260200180602001828103825283818151815260200191508051906020019080838360005b838110156117135780820151838201526020016116fb565b50505050905090810190601f1680156117405780820380516001836020036101000a031916815260200191505b509350505050600060405180830381600087803b151561175f57600080fd5b5af1151561158657600080fd5b60075468010000000000000000900467ffffffffffffffff1681565b600061179261202c565b60045432600160a060020a039081169116146117ad57600080fd5b600160a060020a033316600090815260116020526040902054156117d057600080fd5b6117d8611a40565b6117e9576117e461146d565b6117f1565b6117f1610b03565b91506000821161180057600080fd5b42600f81905533600160a060020a038181166000908152600e6020908152604080832086905560119091529081902093909355600254169163a9059cbb919085905160e060020a63ffffffff8516028152600160a060020a0390921660048301526024820152604401602060405180830381600087803b1515610c6757600080fd5b60065481565b60006005600954610100900460ff1660068111156118a257fe5b1415806118b257506118b2611a40565b156118bf57506000610afe565b600160a060020a0332166000908152600c602052604090205482106118e357600080fd5b600160a060020a0332166000908152600c602052604090208054600b91908490811061190b57fe5b6000918252602090912001548154811061192157fe5b9060005260206000209060030201600201549050919050565b600c6020528160005260406000208181548110151561195557fe5b6000918252602090912001549150829050565b600090565b60085481565b600181565b600254600160a060020a031681565b600080805b60095460ff90811690821610156119dd576119d3600a8260ff168154811015156119b257fe5b906000526020600020906002020160010154836119ff90919063ffffffff16565b915060010161198c565b50919050565b60008082848115156119f157fe5b0490508091505b5092915050565b600082820183811015611a0e57fe5b9392505050565b600080831515611a2857600091506119f8565b50828202828482811515611a3857fe5b0414611a0e57fe5b600d5460dc60ff9091161090565b6000828201519392505050565b611a6361202c565b611a6b61090d565b6009805461ff001916610100836006811115611a8357fe5b02179055506001600954610100900460ff166006811115611aa057fe5b1480611ac157506002600954610100900460ff166006811115611abf57fe5b145b1515611acc57600080fd5b60008360ff1610158015611ae8575060095460ff908116908416105b1515611af357600080fd5b6007546102571967ffffffffffffffff91821601164210611b1357600080fd5b600b805460018101611b25838261203e565b9160005260206000209060030201600060806040519081016040908152428252600160a060020a033216602083015260ff8816908201526060810186905291905081518155602082015160018201805473ffffffffffffffffffffffffffffffffffffffff1916600160a060020a039290921691909117905560408201518160010160146101000a81548160ff021916908360ff16021790555060608201518160020155505050611c106001600a8560ff16815481101515611be357fe5b600091825260209091206002909102015463ffffffff68010000000000000000909104811691906119ff16565b600a805460ff8616908110611c2157fe5b906000526020600020906002020160000160086101000a81548163ffffffff021916908363ffffffff160217905550611c8682600a8560ff16815481101515611c6657fe5b9060005260206000209060020201600101546119ff90919063ffffffff16565b600a805460ff8616908110611c9757fe5b600091825260208083206001600290930201820193909355600160a060020a0332168252600c90925260409020805490918101611cd4838261206a565b5060009182526020909120600b54600019019101556009805461ff001916610200179055611d03610100611db7565b604051805910611d105750595b818152601f19601f830116810160200160405290509050611d3e611d35610100611db7565b600b5483611dc8565b600054600160a060020a03166346a4e92f30836040518363ffffffff1660e060020a0281526004018083600160a060020a0316600160a060020a031681526020018060200182810382528381815181526020019150805190602001908083836000838110156117135780820151838201526020016116fb565b6000611dc282611dce565b92915050565b90910152565b60008160088114611edb5760108114611ee45760188114611eed5760208114611ef65760288114611eff5760308114611f085760388114611f115760408114611f1a5760488114611f235760508114611f2c5760588114611f355760608114611f3e5760688114611f475760708114611f505760788114611f595760808114611f625760888114611f6b5760908114611f745760988114611f7d5760a08114611f865760a88114611f8f5760b08114611f985760b88114611fa15760c08114611faa5760c88114611fb35760d08114611fbc5760d88114611fc55760e08114611fce5760e88114611fd75760f08114611fe05760f88114611fe9576101008114611ff257602091506119dd565b600191506119dd565b600291506119dd565b600391506119dd565b600491506119dd565b600591506119dd565b600691506119dd565b600791506119dd565b600891506119dd565b600991506119dd565b600a91506119dd565b600b91506119dd565b600c91506119dd565b600d91506119dd565b600e91506119dd565b600f91506119dd565b601091506119dd565b601191506119dd565b601291506119dd565b601391506119dd565b601491506119dd565b601591506119dd565b601691506119dd565b601791506119dd565b601891506119dd565b601991506119dd565b601a91506119dd565b601b91506119dd565b601c91506119dd565b601d91506119dd565b601e91506119dd565b601f91506119dd565b50602092915050565b81548183558181151161202757600202816002028360005260206000209182019101612027919061208e565b505050565b60206040519081016040526000815290565b8154818355818115116120275760030281600302836000526020600020918201910161202791906120be565b815481835581811511612027576000838152602090206120279181019083016120fe565b610a0391905b808211156114e75780546bffffffffffffffffffffffff1916815560006001820155600201612094565b610a0391905b808211156114e757600080825560018201805474ffffffffffffffffffffffffffffffffffffffffff1916905560028201556003016120c4565b610a0391905b808211156114e757600081556001016121045600a165627a7a72305820f6e0f7bb593545d17445ab75621b65a4b441ea2f18a429ca7ca78e6ea23b73bf0029",
  "source": "pragma solidity ^0.4.2;\n\nimport \"./installed_contracts/Seriality/Seriality.sol\";\nimport \"./token-sale-contracts/TokenSale/Token/Token.sol\";\nimport \"./Whitelist.sol\";\nimport \"./token-sale-contracts/TokenSale/ERC223ReceivingContract.sol\";\n\ncontract EventBase is ERC223ReceivingContract, Seriality {\n    using SafeMath for uint256;\n    using SafeMath for uint32;\n\n    // Declare Event contract's fields because fields must match\n    EventBase base;\n    address public owner;\n\n    // enum States { Created, Published, Accepted, Started, Finished, Resolved, Dispute, Judging, Closed, Distributed } // Full\n    enum States { Created, Published, Accepted, Started, Finished, Closed, Distributed } // Simplified\n\n    struct Result {\n        uint64 customCoefficient;\n        uint32 betCount;\n        uint256 betSum;\n    }\n\n    struct Bet {\n        uint timestamp;\n        address bettor;\n        uint8 result;\n        uint256 amount;\n    }\n\n    Token public token;\n    Whitelist public whitelist;\n\n    address public creator;\n    address public operatorId = 1;\n    uint256 public deposit;\n    uint64 public startDate;\n    uint64 public endDate;\n    bytes32 public bidType;\n    uint8 public resultsCount;\n\n    States public state;\n    Result[] public possibleResults;\n    Bet[] public bets;\n    mapping (address => uint[]) public usersBets;\n\n    uint8 public resolvedResult; // 255 - not set; 254  different result; 253  undefined result; 232  event was canceled; etc ... todo\n\n    uint constant public meta_version = 1;\n\n    event Updated(address _contract, bytes _data);\n\n    function updated(address _contract, bytes _data) public {\n        uint codeLength;\n\n        assembly {\n            codeLength := extcodesize(_contract)\n        }\n\n        require(codeLength > 0 && msg.sender == _contract);\n\n        emit Updated(_contract, _data);\n    }\n\n    function betsCount() public constant returns(uint) {\n        return bets.length;\n    }\n\n    function userBetsCount(address _user) public constant returns(uint) {\n        return usersBets[_user].length;\n    }\n\n    function EventBase(address _token) {\n        owner = msg.sender;\n        token = Token(_token);\n    }\n\n    function init(address _token, address _whitelist, address _creator, uint256 _deposit, uint64 _startDate, uint64 _endDate, uint8 _resultsCount) public {\n        require(msg.sender == owner);\n        require(_resultsCount < 220); // 220 - 255 reserved for special results\n        require(_startDate <= _endDate);\n\n        token = Token(_token);\n        whitelist = Whitelist(_whitelist);\n\n        creator = _creator;\n        deposit = _deposit;\n        startDate = _startDate;\n        endDate = _endDate;\n        resultsCount = _resultsCount;\n\n        resolvedResult = 255;\n    }\n\n    function addResult(uint64 customCoefficient) public {\n        require(msg.sender == owner);\n        require(state == States.Created);\n\n        possibleResults.push(Result(customCoefficient, 0, 0));\n\n        if (possibleResults.length == resultsCount) {\n            state = States.Published;\n        }\n    }\n\n    // Data mapping:\n    //                                uint8 action (0 - deposit/operator's pledge)\n    //                 uint8 result | uint8 action (1 - bet)\n    // TODO                         | uint8 action (2 - vote)\n    // TODO                         | uint8 action (3 - claim)\n    function tokenFallback(address _from, uint _value, bytes _data) public {\n        uint8 action;\n        uint offset = _data.length;\n\n        if (offset == 0) { // Empty data, same as action == 0\n            return;\n        }\n\n        action = bytesToUint8(offset, _data);\n        offset -= 1; // sizeOfUint(8);\n\n        if (action == 0) {\n            return;\n        } else if (action == 1) { // Bet\n            uint8 result;\n\n            result = bytesToUint8(offset, _data);\n            offset -= 1; // sizeOfUint(8);\n\n            newBet(result, _value);\n\n        } else if (action == 2) {\n            throw; // Not implemented\n        } else if (action == 3) {\n            throw; // Not implemented\n        } else {\n            throw; // Invalid action\n        }\n    }\n\n    function getState() constant returns (States) {\n        if(now < startDate) { // time.checkTime(startDate)\n            if(bets.length > 0) {\n                return States.Accepted;\n            } else {\n                return States.Published;\n            }\n        } else { // now >= startDate\n            if(bets.length > 0) {\n                if(now < endDate) { // time.checkTime(endDate)\n                    return States.Started;\n                }\n\n                if(resolvedResult == 255) {\n                    return States.Finished;\n                }\n            }\n\n            // Final check:\n            if(token.balanceOf(address(this)) == 0) {\n                return States.Distributed;\n            } else {\n                return States.Closed;\n            }\n        }\n    }\n\n    modifier stateTransitions() {\n        state = getState();\n        _;\n    }\n\n    function newBet(uint8 result, uint256 amount) stateTransitions internal {\n        require(state == States.Published || state == States.Accepted);\n        require(result >= 0 && result < resultsCount);\n        require(now < startDate - (10 minutes));\n\n        bets.push(Bet(now, tx.origin, result, amount));\n\n        possibleResults[result].betCount = uint32(possibleResults[result].betCount.add(1));\n        possibleResults[result].betSum = possibleResults[result].betSum.add(amount);\n\n        usersBets[tx.origin].push(bets.length - 1);\n        state = States.Accepted;\n\n        bytes memory buffer = new bytes(sizeOfUint(256));\n        uintToBytes(sizeOfUint(256), bets.length, buffer);\n        base.updated(address(this), buffer);\n    }\n\n    function resolve(uint8 result) stateTransitions {\n        require(whitelist.whitelist(msg.sender) == true);\n        require(state == States.Finished);\n        require(result < resultsCount || result >= 220);\n\n        resolvedResult = result;\n        state = States.Closed;\n\n        bytes memory empty;\n        base.updated(address(this), empty);\n    }\n\n    function getUserBets(address _user) view returns (uint[]) {\n        return usersBets[_user];\n    }\n\n    function isOperatorEvent() constant returns (bool) {\n        return false;\n    }\n\n    function hasDefinedResult() constant internal returns (bool) {\n        return resolvedResult < 220;\n    }\n    \n    function isPlayer() constant returns (bool) {\n        return usersBets[tx.origin].length > 0;\n    }\n\n    function calculateLosersBetSum() private view returns (uint256) {\n        uint256 losersBetSum = 0;\n        for(uint8 i = 0; i < resultsCount; i++) {\n            if(i == resolvedResult) {\n                continue;\n            }\n\n            losersBetSum += possibleResults[i].betSum;\n        }\n\n        return losersBetSum;\n    }\n\n    function calculateBetsSum() private view returns (uint256) {\n        uint256 betsSum = 0;\n        for(uint8 i = 0; i < resultsCount; i++) {\n            betsSum = betsSum.add(possibleResults[i].betSum);\n        }\n\n        return betsSum;\n    }\n\n    function calculateBetsSums() public view returns (uint256, uint256, uint256) { // betSum, winnersBetSum, losersBetSum\n        uint256 betsSum = 0;\n        uint256 losersBetSum = 0;\n        uint256 winnersBetSum = possibleResults[resolvedResult].betSum;\n\n        for(uint8 i = 0; i < resultsCount; i++) {\n            betsSum = betsSum.add(possibleResults[i].betSum);\n\n            if(i == resolvedResult) {\n                continue;\n            }\n\n            losersBetSum = losersBetSum.add(possibleResults[i].betSum);\n        }\n\n        return (betsSum, winnersBetSum, losersBetSum);\n    }\n \n    function getPrize(uint _userBet) constant returns (uint256) {\n        if (state != States.Closed) {\n            return 0;\n        }\n\n        require(_userBet < usersBets[tx.origin].length);\n\n        Bet bet = bets[usersBets[tx.origin][_userBet]];\n\n        if (bet.result == resolvedResult) {\n            if (isOperatorEvent()) {\n                return bet.amount.mul(possibleResults[resolvedResult].customCoefficient);\n            } else {\n                uint256 betSum;\n                uint256 losersBetSum;\n                uint256 winnersBetSum;\n\n                (betSum, winnersBetSum, losersBetSum) = calculateBetsSums();\n\n                uint256 coefficient = bet.amount.div(winnersBetSum);\n                uint256 prize = bet.amount.mul(99).div(100).add(\n                    losersBetSum.mul(99).div(100).mul(coefficient)\n                );\n\n                return prize;\n            }\n        }\n\n        return 0;\n    }\n\n    function getRefund(uint _userBet) constant returns (uint256) {\n        if (state != States.Closed || hasDefinedResult()) {\n            return 0;\n        }\n\n        require(_userBet < usersBets[tx.origin].length);\n\n        return bets[usersBets[tx.origin][_userBet]].amount;\n    }\n\n    function getEventCreatorReward() constant returns (uint256) {\n        if (tx.origin != creator) {\n            return 0;\n        }\n\n        if (state != States.Closed) {\n            return 0;\n        }\n\n        uint256 betSum = calculateBetsSum();\n\n        // uint256 eventCreatorPercent = betsSum.mul(200); // TODO use this when judging implemented\n        uint256 eventCreatorPercent = betSum.div(100);\n\n        if(eventCreatorPercent < deposit) {\n            return eventCreatorPercent.add(deposit);\n        }\n\n        return deposit.mul(2);\n    }\n\n    function getEventCreatorRefund() constant returns (uint256) {\n        if (tx.origin != creator) {\n            return 0;\n        }\n\n        if (state != States.Closed || hasDefinedResult()) {\n            return 0;\n        }\n\n        uint256 betSum = calculateBetsSum();\n\n        if (betSum == 0) {\n            return 0;\n        }\n\n        return deposit;\n    }\n\n    function getShare(address user) constant returns (uint) {\n        uint share = 0;\n\n        share = share.add(getEventCreatorReward());\n        share = share.add(getEventCreatorRefund());\n\n        uint betsCount = usersBets[tx.origin].length;\n\n        for(uint i = 0; i < betsCount; i++) {\n            share = share.add(getPrize(i));\n            share = share.add(getRefund(i));\n        }\n\n        return share;\n    }\n\n    // --------------------------------\n\n    mapping(address => uint) public withdraws; // User address => withdrawal timestamp\n    uint public lastWithdraw = 0;\n\n    function withdraw() {\n        require(withdraws[msg.sender] == 0);\n\n        uint256 share = getShare(msg.sender);\n\n        require(share > 0);\n\n        if (lastWithdraw == 0) {\n            // TODO transfer jackpot\n        }\n\n        lastWithdraw = now;\n        withdraws[msg.sender] = lastWithdraw;\n\n        token.transfer(msg.sender, share);\n\n        bytes memory empty;\n        base.updated(address(this), empty);\n    }\n\n    mapping(address => mapping(uint => uint)) public betWithdraws; // User address => userBet index => withdrawal timestamp\n\n    function withdrawPrize(uint bet) {\n        require(betWithdraws[msg.sender][bet] == 0);\n\n        uint share = getPrize(bet).add(getRefund(bet));\n\n        require(share > 0);\n\n        lastWithdraw = now;\n        withdraws[msg.sender] = lastWithdraw;\n        betWithdraws[msg.sender][bet] = lastWithdraw;\n\n        token.transfer(msg.sender, share);\n\n        bytes memory empty;\n        base.updated(address(this), empty);\n    }\n\n    mapping(address => uint) public rewardWithdraws; // User address => withdrawal timestamp\n\n    function withdrawReward() {\n        require(tx.origin == creator) ;\n        require(rewardWithdraws[msg.sender] == 0);\n\n        uint share = hasDefinedResult() ? getEventCreatorReward() : getEventCreatorRefund();\n\n        require(share > 0);\n\n        lastWithdraw = now;\n        withdraws[msg.sender] = lastWithdraw;\n        rewardWithdraws[msg.sender] = lastWithdraw;\n\n        token.transfer(msg.sender, share);\n\n        bytes memory empty;\n        base.updated(address(this), empty);\n    }\n}\n",
  "sourcePath": "/home/dmitrya2e/Work/Projects/ProofOfToss/Code/proof-of-toss/contracts/EventBase.sol",
  "compiler": {
    "name": "solc",
    "version": "0.4.21+commit.dfe3193c.Emscripten.clang"
  },
  "schemaVersion": "2.0.0",
  "updatedAt": "2018-05-28T10:22:19.669Z"
}