{
  "contractName": "Event",
  "abi": [
    {
      "constant": true,
      "inputs": [],
      "name": "base",
      "outputs": [
        {
          "name": "",
          "type": "address"
        }
      ],
      "payable": false,
      "stateMutability": "view",
      "type": "function"
    },
    {
      "constant": true,
      "inputs": [],
      "name": "owner",
      "outputs": [
        {
          "name": "",
          "type": "address"
        }
      ],
      "payable": false,
      "stateMutability": "view",
      "type": "function"
    },
    {
      "inputs": [
        {
          "name": "_base",
          "type": "address"
        }
      ],
      "payable": false,
      "stateMutability": "nonpayable",
      "type": "constructor"
    },
    {
      "payable": false,
      "stateMutability": "nonpayable",
      "type": "fallback"
    }
  ],
  "bytecode": "0x6060604052341561000f57600080fd5b6040516020806101858339810160405280805160018054600160a060020a03338116600160a060020a0319928316179092556000805492909316911617905550506101268061005f6000396000f30060606040526004361060485763ffffffff7c01000000000000000000000000000000000000000000000000000000006000350416635001f3b5811460795780638da5cb5b1460b2575b3415605257600080fd5b6000543660008037600080366000845af43d806000803e818015607457816000f35b600080fd5b3415608357600080fd5b608960c2565b60405173ffffffffffffffffffffffffffffffffffffffff909116815260200160405180910390f35b341560bc57600080fd5b608960de565b60005473ffffffffffffffffffffffffffffffffffffffff1681565b60015473ffffffffffffffffffffffffffffffffffffffff16815600a165627a7a72305820a72e6005d029e0d86ff6030430758e677f27c197dfc80f8feb75c7a0be99e5920029",
  "source": "pragma solidity ^0.4.2;\n\nimport \"./EventBase.sol\";\n\ncontract Event {\n    EventBase public base;\n    address public owner;\n\n    function Event(address _base) {\n        owner = msg.sender;\n        base = EventBase(_base);\n    }\n\n    function() public {\n        assembly {\n            let _target := sload(0)\n            calldatacopy(0x0, 0x0, calldatasize)\n            let retval := delegatecall(gas, _target, 0x0, calldatasize, 0x0, 0)\n            let returnsize := returndatasize\n            returndatacopy(0x0, 0x0, returnsize)\n            switch retval case 0 {revert(0, 0)} default {return (0, returnsize)}\n        }\n    }\n}\n",
  "sourcePath": "/Users/nickolay/workspace/rsk/app/contracts/Event.sol",
  "compiler": {
    "name": "solc",
    "version": "0.4.21+commit.dfe3193c.Emscripten.clang"
  },
  "schemaVersion": "2.0.0",
  "updatedAt": "2018-05-29T10:33:34.851Z"
}