{
  "contractName": "FreezingToken",
  "abi": [
    {
      "constant": false,
      "inputs": [
        {
          "name": "_spender",
          "type": "address"
        },
        {
          "name": "_value",
          "type": "uint256"
        }
      ],
      "name": "approve",
      "outputs": [
        {
          "name": "",
          "type": "bool"
        }
      ],
      "payable": false,
      "stateMutability": "nonpayable",
      "type": "function"
    },
    {
      "constant": true,
      "inputs": [
        {
          "name": "",
          "type": "address"
        }
      ],
      "name": "grantedToSetUnpausedWallet",
      "outputs": [
        {
          "name": "",
          "type": "bool"
        }
      ],
      "payable": false,
      "stateMutability": "view",
      "type": "function"
    },
    {
      "constant": true,
      "inputs": [],
      "name": "totalSupply",
      "outputs": [
        {
          "name": "",
          "type": "uint256"
        }
      ],
      "payable": false,
      "stateMutability": "view",
      "type": "function"
    },
    {
      "constant": false,
      "inputs": [
        {
          "name": "_to",
          "type": "address"
        },
        {
          "name": "permission",
          "type": "bool"
        }
      ],
      "name": "grantToSetUnpausedWallet",
      "outputs": [],
      "payable": false,
      "stateMutability": "nonpayable",
      "type": "function"
    },
    {
      "constant": true,
      "inputs": [],
      "name": "paused",
      "outputs": [
        {
          "name": "",
          "type": "bool"
        }
      ],
      "payable": false,
      "stateMutability": "view",
      "type": "function"
    },
    {
      "constant": false,
      "inputs": [
        {
          "name": "_spender",
          "type": "address"
        },
        {
          "name": "_subtractedValue",
          "type": "uint256"
        }
      ],
      "name": "decreaseApproval",
      "outputs": [
        {
          "name": "",
          "type": "bool"
        }
      ],
      "payable": false,
      "stateMutability": "nonpayable",
      "type": "function"
    },
    {
      "constant": true,
      "inputs": [
        {
          "name": "_owner",
          "type": "address"
        }
      ],
      "name": "balanceOf",
      "outputs": [
        {
          "name": "balance",
          "type": "uint256"
        }
      ],
      "payable": false,
      "stateMutability": "view",
      "type": "function"
    },
    {
      "constant": true,
      "inputs": [],
      "name": "owner",
      "outputs": [
        {
          "name": "",
          "type": "address"
        }
      ],
      "payable": false,
      "stateMutability": "view",
      "type": "function"
    },
    {
      "constant": false,
      "inputs": [
        {
          "name": "_wallet",
          "type": "address"
        },
        {
          "name": "mode",
          "type": "bool"
        }
      ],
      "name": "setUnpausedWallet",
      "outputs": [],
      "payable": false,
      "stateMutability": "nonpayable",
      "type": "function"
    },
    {
      "constant": true,
      "inputs": [
        {
          "name": "",
          "type": "address"
        }
      ],
      "name": "unpausedWallet",
      "outputs": [
        {
          "name": "",
          "type": "bool"
        }
      ],
      "payable": false,
      "stateMutability": "view",
      "type": "function"
    },
    {
      "constant": false,
      "inputs": [
        {
          "name": "mode",
          "type": "bool"
        }
      ],
      "name": "setPause",
      "outputs": [],
      "payable": false,
      "stateMutability": "nonpayable",
      "type": "function"
    },
    {
      "constant": false,
      "inputs": [
        {
          "name": "_spender",
          "type": "address"
        },
        {
          "name": "_addedValue",
          "type": "uint256"
        }
      ],
      "name": "increaseApproval",
      "outputs": [
        {
          "name": "",
          "type": "bool"
        }
      ],
      "payable": false,
      "stateMutability": "nonpayable",
      "type": "function"
    },
    {
      "constant": true,
      "inputs": [
        {
          "name": "_owner",
          "type": "address"
        },
        {
          "name": "_spender",
          "type": "address"
        }
      ],
      "name": "allowance",
      "outputs": [
        {
          "name": "",
          "type": "uint256"
        }
      ],
      "payable": false,
      "stateMutability": "view",
      "type": "function"
    },
    {
      "constant": false,
      "inputs": [
        {
          "name": "newOwner",
          "type": "address"
        }
      ],
      "name": "transferOwnership",
      "outputs": [],
      "payable": false,
      "stateMutability": "nonpayable",
      "type": "function"
    },
    {
      "anonymous": false,
      "inputs": [],
      "name": "Pause",
      "type": "event"
    },
    {
      "anonymous": false,
      "inputs": [],
      "name": "Unpause",
      "type": "event"
    },
    {
      "anonymous": false,
      "inputs": [
        {
          "indexed": true,
          "name": "previousOwner",
          "type": "address"
        },
        {
          "indexed": true,
          "name": "newOwner",
          "type": "address"
        }
      ],
      "name": "OwnershipTransferred",
      "type": "event"
    },
    {
      "anonymous": false,
      "inputs": [
        {
          "indexed": true,
          "name": "owner",
          "type": "address"
        },
        {
          "indexed": true,
          "name": "spender",
          "type": "address"
        },
        {
          "indexed": false,
          "name": "value",
          "type": "uint256"
        }
      ],
      "name": "Approval",
      "type": "event"
    },
    {
      "anonymous": false,
      "inputs": [
        {
          "indexed": true,
          "name": "from",
          "type": "address"
        },
        {
          "indexed": true,
          "name": "to",
          "type": "address"
        },
        {
          "indexed": false,
          "name": "value",
          "type": "uint256"
        }
      ],
      "name": "Transfer",
      "type": "event"
    },
    {
      "constant": true,
      "inputs": [
        {
          "name": "_beneficiary",
          "type": "address"
        }
      ],
      "name": "freezedTokenOf",
      "outputs": [
        {
          "name": "amount",
          "type": "uint256"
        }
      ],
      "payable": false,
      "stateMutability": "view",
      "type": "function"
    },
    {
      "constant": true,
      "inputs": [
        {
          "name": "_beneficiary",
          "type": "address"
        }
      ],
      "name": "defrostDate",
      "outputs": [
        {
          "name": "Date",
          "type": "uint256"
        }
      ],
      "payable": false,
      "stateMutability": "view",
      "type": "function"
    },
    {
      "constant": false,
      "inputs": [
        {
          "name": "_beneficiary",
          "type": "address"
        },
        {
          "name": "_amount",
          "type": "uint256"
        },
        {
          "name": "_when",
          "type": "uint256"
        }
      ],
      "name": "freezeTokens",
      "outputs": [],
      "payable": false,
      "stateMutability": "nonpayable",
      "type": "function"
    },
    {
      "constant": false,
      "inputs": [
        {
          "name": "_beneficiary",
          "type": "address[]"
        },
        {
          "name": "_amount",
          "type": "uint256[]"
        },
        {
          "name": "_when",
          "type": "uint256[]"
        }
      ],
      "name": "masFreezedTokens",
      "outputs": [],
      "payable": false,
      "stateMutability": "nonpayable",
      "type": "function"
    },
    {
      "constant": false,
      "inputs": [
        {
          "name": "_to",
          "type": "address"
        },
        {
          "name": "_value",
          "type": "uint256"
        },
        {
          "name": "_when",
          "type": "uint256"
        }
      ],
      "name": "transferAndFreeze",
      "outputs": [],
      "payable": false,
      "stateMutability": "nonpayable",
      "type": "function"
    },
    {
      "constant": false,
      "inputs": [
        {
          "name": "_to",
          "type": "address"
        },
        {
          "name": "_value",
          "type": "uint256"
        }
      ],
      "name": "transfer",
      "outputs": [
        {
          "name": "",
          "type": "bool"
        }
      ],
      "payable": false,
      "stateMutability": "nonpayable",
      "type": "function"
    },
    {
      "constant": false,
      "inputs": [
        {
          "name": "_from",
          "type": "address"
        },
        {
          "name": "_to",
          "type": "address"
        },
        {
          "name": "_value",
          "type": "uint256"
        }
      ],
      "name": "transferFrom",
      "outputs": [
        {
          "name": "",
          "type": "bool"
        }
      ],
      "payable": false,
      "stateMutability": "nonpayable",
      "type": "function"
    }
  ],
  "bytecode": "0x60606040526005805460ff1916600117905560038054600160a060020a033316600160a060020a03199091161790556111678061003d6000396000f3006060604052600436106101035763ffffffff60e060020a600035041663095ea7b3811461010857806311cfb19d1461013e57806317221e2c1461016f57806318160ddd1461018e57806320ceb536146101a157806323b872dd146101c757806324db1f50146101ef57806350bb117a146102be5780635c975abb146102dd57806366188463146102f057806370a0823114610312578063852e9f46146103315780638da5cb5b14610356578063a9059cbb14610385578063b3e1f523146103a7578063b8b3db4f146103cb578063bedb86fb146103ea578063d73dd62314610402578063dd62ed3e14610424578063f2fde38b14610449578063f831ebab14610468575b600080fd5b341561011357600080fd5b61012a600160a060020a036004351660243561048d565b604051901515815260200160405180910390f35b341561014957600080fd5b61015d600160a060020a03600435166104f9565b60405190815260200160405180910390f35b341561017a57600080fd5b61012a600160a060020a0360043516610532565b341561019957600080fd5b61015d610547565b34156101ac57600080fd5b6101c5600160a060020a0360043516602435151561054d565b005b34156101d257600080fd5b61012a600160a060020a0360043581169060243516604435610612565b34156101fa57600080fd5b6101c56004602481358181019083013580602081810201604051908101604052809392919081815260200183836020028082843782019150505050505091908035906020019082018035906020019080806020026020016040519081016040528093929190818152602001838360200280828437820191505050505050919080359060200190820180359060200190808060200260200160405190810160405280939291908181526020018383602002808284375094965061065495505050505050565b34156102c957600080fd5b61015d600160a060020a03600435166107b2565b34156102e857600080fd5b61012a6107ea565b34156102fb57600080fd5b61012a600160a060020a03600435166024356107f3565b341561031d57600080fd5b61015d600160a060020a03600435166108ed565b341561033c57600080fd5b6101c5600160a060020a0360043516602435604435610908565b341561036157600080fd5b61036961098d565b604051600160a060020a03909116815260200160405180910390f35b341561039057600080fd5b61012a600160a060020a036004351660243561099c565b34156103b257600080fd5b6101c5600160a060020a036004351660243515156109d0565b34156103d657600080fd5b61012a600160a060020a0360043516610ab8565b34156103f557600080fd5b6101c56004351515610acd565b341561040d57600080fd5b61012a600160a060020a0360043516602435610b86565b341561042f57600080fd5b61015d600160a060020a0360043581169060243516610c2a565b341561045457600080fd5b6101c5600160a060020a0360043516610c55565b341561047357600080fd5b6101c5600160a060020a0360043516602435604435610cf0565b600160a060020a03338116600081815260026020908152604080832094871680845294909152808220859055909291907f8c5be1e5ebec7d5bd14f71427d1e84f3dd0314c0f7b2291e5b200ac8c7c3b9259085905190815260200160405180910390a350600192915050565b600160a060020a0381166000908152600760205260408120600181015442901015610527576000915061052c565b805491505b50919050565b60066020526000908152604090205460ff1681565b60015490565b60035433600160a060020a03908116911614806105dc5750600354600160a060020a0316637ad71f72600260405160e060020a63ffffffff841602815260ff9091166004820152602401602060405180830381600087803b15156105b057600080fd5b5af115156105bd57600080fd5b50505060405180519050600160a060020a031633600160a060020a0316145b15156105e757600080fd5b600160a060020a03919091166000908152600660205260409020805460ff1916911515919091179055565b600061062d82610621866104f9565b9063ffffffff610db016565b610636856108ed565b101561064157600080fd5b61064c848484610dbf565b949350505050565b600354600090819033600160a060020a03908116911614806106e85750600354600160a060020a0316637ad71f72600260405160e060020a63ffffffff841602815260ff9091166004820152602401602060405180830381600087803b15156106bc57600080fd5b5af115156106c957600080fd5b50505060405180519050600160a060020a031633600160a060020a0316145b15156106f357600080fd5b83518551148015610705575082518551145b151561071057600080fd5b600091505b84518261ffff1610156107ab5760076000868461ffff168151811061073657fe5b90602001906020020151600160a060020a0316600160a060020a031681526020019081526020016000209050838261ffff168151811061077257fe5b9060200190602002015181558261ffff83168151811061078e57fe5b906020019060200201516001808301919091559190910190610715565b5050505050565b600160a060020a03811660009081526007602052604081206001810154429010156107e0576000915061052c565b6001015492915050565b60055460ff1681565b600160a060020a0333811660009081526002602090815260408083209386168352929052908120548083111561085057600160a060020a033381166000908152600260209081526040808320938816835292905290812055610887565b610860818463ffffffff610e3016565b600160a060020a033381166000908152600260209081526040808320938916835292905220555b600160a060020a0333811660008181526002602090815260408083209489168084529490915290819020547f8c5be1e5ebec7d5bd14f71427d1e84f3dd0314c0f7b2291e5b200ac8c7c3b925915190815260200160405180910390a35060019392505050565b600160a060020a031660009081526020819052604090205490565b600160a060020a03331660009081526004602052604081205460ff16151561092f57600080fd5b60008211156109835750600160a060020a03831660009081526007602052604090208054610963908463ffffffff610db016565b81556001810154829011610977578161097d565b80600101545b60018201555b6107ab848461099c565b600354600160a060020a031681565b60006109ab82610621336104f9565b6109b4336108ed565b10156109bf57600080fd5b6109c98383610e42565b9392505050565b60035433600160a060020a0390811691161480610a055750600160a060020a03331660009081526006602052604090205460ff165b80610a825750600354600160a060020a0316637ad71f72600260405160e060020a63ffffffff841602815260ff9091166004820152602401602060405180830381600087803b1515610a5657600080fd5b5af11515610a6357600080fd5b50505060405180519050600160a060020a031633600160a060020a0316145b1515610a8d57600080fd5b600160a060020a03919091166000908152600460205260409020805460ff1916911515919091179055565b60046020526000908152604090205460ff1681565b60035433600160a060020a03908116911614610ae857600080fd5b60055460ff16158015610af85750805b15610b37576005805460ff191660011790557f6985a02210a168e66602d3235cb6db0e70f92b3ba4d376a33c0f3d9434bff62560405160405180910390a15b60055460ff168015610b47575080155b15610b83576005805460ff191690557f7805862f689e2f13df9f062ff482ad3ad112aca9e0847911ed832e158c525b3360405160405180910390a15b50565b600160a060020a033381166000908152600260209081526040808320938616835292905290812054610bbe908363ffffffff610db016565b600160a060020a0333811660008181526002602090815260408083209489168084529490915290819020849055919290917f8c5be1e5ebec7d5bd14f71427d1e84f3dd0314c0f7b2291e5b200ac8c7c3b92591905190815260200160405180910390a350600192915050565b600160a060020a03918216600090815260026020908152604080832093909416825291909152205490565b60035433600160a060020a03908116911614610c7057600080fd5b600160a060020a0381161515610c8557600080fd5b600354600160a060020a0380831691167f8be0079c531659141344cd1fd0a4f28419497f9722a3daafe3b4186f6b6457e060405160405180910390a36003805473ffffffffffffffffffffffffffffffffffffffff1916600160a060020a0392909216919091179055565b60035460009033600160a060020a0390811691161480610d825750600354600160a060020a0316637ad71f72600260405160e060020a63ffffffff841602815260ff9091166004820152602401602060405180830381600087803b1515610d5657600080fd5b5af11515610d6357600080fd5b50505060405180519050600160a060020a031633600160a060020a0316145b1515610d8d57600080fd5b50600160a060020a03909216600090815260076020526040902090815560010155565b6000828201838110156109c957fe5b600554600090839060ff161580610dee5750600160a060020a03331660009081526004602052604090205460ff165b80610e115750600160a060020a03811660009081526004602052604090205460ff165b1515610e1c57600080fd5b610e27858585610ea9565b95945050505050565b600082821115610e3c57fe5b50900390565b600554600090839060ff161580610e715750600160a060020a03331660009081526004602052604090205460ff165b80610e945750600160a060020a03811660009081526004602052604090205460ff165b1515610e9f57600080fd5b61064c8484611029565b6000600160a060020a0383161515610ec057600080fd5b600160a060020a038416600090815260208190526040902054821115610ee557600080fd5b600160a060020a0380851660009081526002602090815260408083203390941683529290522054821115610f1857600080fd5b600160a060020a038416600090815260208190526040902054610f41908363ffffffff610e3016565b600160a060020a038086166000908152602081905260408082209390935590851681522054610f76908363ffffffff610db016565b600160a060020a0380851660009081526020818152604080832094909455878316825260028152838220339093168252919091522054610fbc908363ffffffff610e3016565b600160a060020a03808616600081815260026020908152604080832033861684529091529081902093909355908516917fddf252ad1be2c89b69c2b068fc378daa952ba7f163c4a11628f55a4df523b3ef9085905190815260200160405180910390a35060019392505050565b6000600160a060020a038316151561104057600080fd5b600160a060020a03331660009081526020819052604090205482111561106557600080fd5b600160a060020a03331660009081526020819052604090205461108e908363ffffffff610e3016565b600160a060020a0333811660009081526020819052604080822093909355908516815220546110c3908363ffffffff610db016565b60008085600160a060020a0316600160a060020a031681526020019081526020016000208190555082600160a060020a031633600160a060020a03167fddf252ad1be2c89b69c2b068fc378daa952ba7f163c4a11628f55a4df523b3ef8460405190815260200160405180910390a3506001929150505600a165627a7a72305820db583f7a5d76b60fff6c235ea6cc1314742fdede2a83db9b4216ba5d40b2291f0029",
  "source": "pragma solidity ^0.4.21;\n\nimport './PausableToken.sol';\n\ncontract FreezingToken is PausableToken {\n    struct freeze {\n    uint256 amount;\n    uint256 when;\n    }\n\n\n    mapping (address => freeze) freezedTokens;\n\n\n    // @ Do I have to use the function      no\n    // @ When it is possible to call        any time\n    // @ When it is launched automatically  -\n    // @ Who can call the function          any\n    function freezedTokenOf(address _beneficiary) public view returns (uint256 amount){\n        freeze storage _freeze = freezedTokens[_beneficiary];\n        if(_freeze.when < now) return 0;\n        return _freeze.amount;\n    }\n\n    // @ Do I have to use the function      no\n    // @ When it is possible to call        any time\n    // @ When it is launched automatically  -\n    // @ Who can call the function          any\n    function defrostDate(address _beneficiary) public view returns (uint256 Date) {\n        freeze storage _freeze = freezedTokens[_beneficiary];\n        if(_freeze.when < now) return 0;\n        return _freeze.when;\n    }\n\n\n    // ***CHECK***SCENARIO***\n    function freezeTokens(address _beneficiary, uint256 _amount, uint256 _when) public {\n        require(owner == msg.sender || msg.sender == Crowdsale(owner).wallets(uint8(Crowdsale.Roles.manager)));\n        freeze storage _freeze = freezedTokens[_beneficiary];\n        _freeze.amount = _amount;\n        _freeze.when = _when;\n    }\n\n    // ***CHECK***SCENARIO***\n    function masFreezedTokens(address[] _beneficiary, uint256[] _amount, uint256[] _when) public {\n        require(owner == msg.sender || msg.sender == Crowdsale(owner).wallets(uint8(Crowdsale.Roles.manager)));\n        require(_beneficiary.length == _amount.length && _beneficiary.length == _when.length);\n        for(uint16 i = 0; i < _beneficiary.length; i++){\n            freeze storage _freeze = freezedTokens[_beneficiary[i]];\n            _freeze.amount = _amount[i];\n            _freeze.when = _when[i];\n        }\n    }\n\n\n    function transferAndFreeze(address _to, uint256 _value, uint256 _when) external {\n        require(unpausedWallet[msg.sender]);\n        if(_when > 0){\n            freeze storage _freeze = freezedTokens[_to];\n            _freeze.amount = _freeze.amount.add(_value);\n            _freeze.when = (_freeze.when > _when)? _freeze.when: _when;\n        }\n        transfer(_to,_value);\n    }\n\n    function transfer(address _to, uint256 _value) public returns (bool) {\n        require(balanceOf(msg.sender) >= freezedTokenOf(msg.sender).add(_value));\n        return super.transfer(_to,_value);\n    }\n\n    function transferFrom(address _from, address _to, uint256 _value) public returns (bool) {\n        require(balanceOf(_from) >= freezedTokenOf(_from).add(_value));\n        return super.transferFrom( _from,_to,_value);\n    }\n\n\n\n}\n",
  "sourcePath": "/Users/nickolay/workspace/rsk/app/contracts/token-sale-contracts/TokenSale/Token/FreezingToken.sol",
  "compiler": {
    "name": "solc",
    "version": "0.4.21+commit.dfe3193c.Emscripten.clang"
  },
  "schemaVersion": "2.0.0",
  "updatedAt": "2018-05-29T10:33:34.916Z"
}