{
  "contractName": "Main",
  "abi": [
    {
      "constant": true,
      "inputs": [],
      "name": "eventBase",
      "outputs": [
        {
          "name": "",
          "type": "address"
        }
      ],
      "payable": false,
      "stateMutability": "view",
      "type": "function"
    },
    {
      "inputs": [
        {
          "name": "_token",
          "type": "address"
        },
        {
          "name": "_whitelist",
          "type": "address"
        },
        {
          "name": "_eventBase",
          "type": "address"
        }
      ],
      "payable": false,
      "stateMutability": "nonpayable",
      "type": "constructor"
    },
    {
      "anonymous": false,
      "inputs": [
        {
          "indexed": true,
          "name": "eventAddress",
          "type": "address"
        },
        {
          "indexed": false,
          "name": "deposit",
          "type": "uint64"
        },
        {
          "indexed": false,
          "name": "eventData",
          "type": "bytes"
        }
      ],
      "name": "NewEvent",
      "type": "event"
    },
    {
      "constant": false,
      "inputs": [
        {
          "name": "newOwner",
          "type": "address"
        }
      ],
      "name": "transferOwnership",
      "outputs": [],
      "payable": false,
      "stateMutability": "nonpayable",
      "type": "function"
    },
    {
      "constant": true,
      "inputs": [],
      "name": "getToken",
      "outputs": [
        {
          "name": "",
          "type": "address"
        }
      ],
      "payable": false,
      "stateMutability": "view",
      "type": "function"
    },
    {
      "constant": false,
      "inputs": [
        {
          "name": "_from",
          "type": "address"
        },
        {
          "name": "_value",
          "type": "uint256"
        },
        {
          "name": "_data",
          "type": "bytes"
        }
      ],
      "name": "tokenFallback",
      "outputs": [],
      "payable": false,
      "stateMutability": "nonpayable",
      "type": "function"
    }
  ],
  "bytecode": "0x60606040526002805460a060020a60ff02191674010000000000000000000000000000000000000000179055341561003657600080fd5b60405160608061086683398101604052808051919060200180519190602001805160038054600160a060020a031990811633600160a060020a03908116919091179092556000805482169783169790971787556001805482169683169690961790955560028054909516911617909255506107ae918291506100b890396000f3006060604052600436106100485763ffffffff60e060020a60003504166313781d87811461004d57806321df0da71461007c578063c0ee0b8a1461008f578063f2fde38b146100f6575b600080fd5b341561005857600080fd5b610060610115565b604051600160a060020a03909116815260200160405180910390f35b341561008757600080fd5b610060610124565b341561009a57600080fd5b6100f460048035600160a060020a03169060248035919060649060443590810190830135806020601f8201819004810201604051908101604052818152929190602084018383808284375094965061013395505050505050565b005b341561010157600080fd5b6100f4600160a060020a03600435166101af565b600254600160a060020a031681565b600054600160a060020a031690565b600054600160a060020a031663a9059cbb61014f85858561020e565b8460405160e060020a63ffffffff8516028152600160a060020a0390921660048301526024820152604401602060405180830381600087803b151561019357600080fd5b5af115156101a057600080fd5b50505060405180515050505050565b60035433600160a060020a039081169116146101ca57600080fd5b600160a060020a03811615156101df57600080fd5b6003805473ffffffffffffffffffffffffffffffffffffffff1916600160a060020a0392909216919091179055565b6001546000908190819081908190819081908190600160a060020a0316639b19251a3260405160e060020a63ffffffff8416028152600160a060020a039091166004820152602401602060405180830381600087803b151561026f57600080fd5b5af1151561027c57600080fd5b50505060405180511515600114905061029457600080fd5b600054600160a060020a03166317221e2c3060405160e060020a63ffffffff8416028152600160a060020a039091166004820152602401602060405180830381600087803b15156102e457600080fd5b5af115156102f157600080fd5b50505060405180511515600114905061030957600080fd5b88519250610317838a6105e0565b9650600883039250610329838a6105e0565b955060088303925061033b838a6105e0565b60025490955060011990930192600160a060020a03166103596105ed565b600160a060020a039091168152602001604051809103906000f080151561037f57600080fd5b600054600154919350600160a060020a03808516926365f90fee92821691168e8e8c8c8c60405163ffffffff891660e060020a028152600160a060020a039788166004820152958716602487015293909516604485015267ffffffffffffffff91821660648501528116608484015290921660a482015260ff90911660c482015260e401600060405180830381600087803b151561041c57600080fd5b5af1151561042957600080fd5b505050600090505b8460ff168110156104b557610446838a6105e0565b935060088303925081600160a060020a031663112292b68560405160e060020a63ffffffff841602815267ffffffffffffffff9091166004820152602401600060405180830381600087803b151561049d57600080fd5b5af115156104aa57600080fd5b505050600101610431565b600054600160a060020a031663b3e1f52383600160405160e060020a63ffffffff8516028152600160a060020a03909216600483015215156024820152604401600060405180830381600087803b151561050e57600080fd5b5af1151561051b57600080fd5b50505081600160a060020a03167f6687c86e22b35b067161dc12847d7418869e3f18b76897e9b6d01edee3201b5c8b8b60405167ffffffffffffffff8316815260406020820181815290820183818151815260200191508051906020019080838360005b8381101561059757808201518382015260200161057f565b50505050905090810190601f1680156105c45780820380516001836020036101000a031916815260200191505b50935050505060405180910390a2509998505050505050505050565b6000828201519392505050565b604051610185806105fe8339019056006060604052341561000f57600080fd5b6040516020806101858339810160405280805160018054600160a060020a03338116600160a060020a0319928316179092556000805492909316911617905550506101268061005f6000396000f30060606040526004361060485763ffffffff7c01000000000000000000000000000000000000000000000000000000006000350416635001f3b5811460795780638da5cb5b1460b2575b3415605257600080fd5b6000543660008037600080366000845af43d806000803e818015607457816000f35b600080fd5b3415608357600080fd5b608960c2565b60405173ffffffffffffffffffffffffffffffffffffffff909116815260200160405180910390f35b341560bc57600080fd5b608960de565b60005473ffffffffffffffffffffffffffffffffffffffff1681565b60015473ffffffffffffffffffffffffffffffffffffffff16815600a165627a7a7230582043d34f435a3f8a3cab4ec7cf3efd3f6861521381a737175acd87d587185cfe610029a165627a7a723058207eb2d4586124b54ef98dab0e7bbd5f93f28d9c11c23151a6a2c2bbbb030a1ede0029",
  "source": "pragma solidity ^0.4.2;\n\nimport \"./token-sale-contracts/TokenSale/Token/Token.sol\";\nimport \"./Event.sol\";\nimport \"./EventBase.sol\";\nimport \"./Whitelist.sol\";\nimport \"./token-sale-contracts/TokenSale/ERC223ReceivingContract.sol\";\nimport \"./installed_contracts/Seriality/Seriality.sol\";\n\ncontract Main is ERC223ReceivingContract, Seriality {\n    Token token;\n    Whitelist whitelist;\n    EventBase public eventBase;\n    uint8 version = 1;\n\n    address owner;\n\n    modifier onlyOwner() {\n        require(msg.sender == owner);\n        _;\n    }\n\n    function transferOwnership(address newOwner) public onlyOwner {\n        require(newOwner != address(0));\n        owner = newOwner;\n    }\n\n    function Main(address _token, address _whitelist, address _eventBase) {\n        owner = msg.sender;\n\n        token = Token(_token);\n        whitelist = Whitelist(_whitelist);\n        eventBase = EventBase(_eventBase);\n    }\n\n    function getToken() constant returns (address) {\n        return address(token);\n    }\n\n    event NewEvent(address indexed eventAddress, uint64 deposit, bytes eventData);\n\n    function tokenFallback(address _from, uint _value, bytes memory _data) {\n        token.transfer(newEvent(_from, uint64(_value), _data), _value);\n    }\n\n    // Mapping:\n    // ... | string tagName_2 | string tagName_1\n    // ... | string result_3Description | string result_2Description | string result_1Description\n    // string sourceUrl\n    // string description\n    // string name\n    // bytes32 category\n    // bytes32 bidType\n    // bytes2 locale\n    // ... | uint64 result_3Coefficient | uint64 result_2Coefficient | uint64 result_1Coefficient\n    // uint8 tagsCount | uint8 resultsCount | uint64 endDate | uint64 startDate\n    function newEvent(address _creator, uint64 _deposit, bytes memory buffer) internal returns (address) {\n        require(whitelist.whitelist(tx.origin) == true);\n        require(token.grantedToSetUnpausedWallet(address(this)) == true);\n\n        uint64 _startDate;\n        uint64 _endDate;\n        uint8 _resultsCount;\n        uint64 _resultCoefficient;\n\n        uint offset = buffer.length;\n\n        _startDate = bytesToUint64(offset, buffer);\n        offset -= 8; // sizeOfUint(64);\n\n        _endDate = bytesToUint64(offset, buffer);\n        offset -= 8; // sizeOfUint(64);\n\n        _resultsCount = bytesToUint8(offset, buffer);\n        offset -= 1; // sizeOfUint(8);\n\n        // bypass tagsCount\n        offset -= 1; // sizeOfUint(8);\n\n            EventBase _lastEvent = EventBase(address(new Event(address(eventBase))));\n\n        _lastEvent.init(address(token), address(whitelist), _creator, _deposit, _startDate, _endDate, _resultsCount);\n\n        for (uint i = 0; i < _resultsCount; i++) {\n            _resultCoefficient = bytesToUint64(offset, buffer);\n            offset -= 8; // sizeOfUint(64);\n\n            _lastEvent.addResult(_resultCoefficient);\n        }\n\n        token.setUnpausedWallet(address(_lastEvent), true);\n\n        emit NewEvent(\n            address(_lastEvent),\n            _deposit,\n            buffer\n        );\n\n        return address(_lastEvent);\n    }\n}\n",
  "sourcePath": "/home/dmitrya2e/Work/Projects/ProofOfToss/Code/proof-of-toss/contracts/Main.sol",
  "compiler": {
    "name": "solc",
    "version": "0.4.21+commit.dfe3193c.Emscripten.clang"
  },
  "schemaVersion": "2.0.0",
  "updatedAt": "2018-05-28T10:22:19.604Z"
}