{
  "contractName": "MigratableToken",
  "abi": [
    {
      "constant": true,
      "inputs": [],
      "name": "totalSupply",
      "outputs": [
        {
          "name": "",
          "type": "uint256"
        }
      ],
      "payable": false,
      "stateMutability": "view",
      "type": "function"
    },
    {
      "constant": true,
      "inputs": [
        {
          "name": "_owner",
          "type": "address"
        }
      ],
      "name": "balanceOf",
      "outputs": [
        {
          "name": "balance",
          "type": "uint256"
        }
      ],
      "payable": false,
      "stateMutability": "view",
      "type": "function"
    },
    {
      "constant": true,
      "inputs": [],
      "name": "migrationAgent",
      "outputs": [
        {
          "name": "",
          "type": "address"
        }
      ],
      "payable": false,
      "stateMutability": "view",
      "type": "function"
    },
    {
      "constant": true,
      "inputs": [],
      "name": "owner",
      "outputs": [
        {
          "name": "",
          "type": "address"
        }
      ],
      "payable": false,
      "stateMutability": "view",
      "type": "function"
    },
    {
      "constant": true,
      "inputs": [],
      "name": "totalMigrated",
      "outputs": [
        {
          "name": "",
          "type": "uint256"
        }
      ],
      "payable": false,
      "stateMutability": "view",
      "type": "function"
    },
    {
      "constant": false,
      "inputs": [
        {
          "name": "_to",
          "type": "address"
        },
        {
          "name": "_value",
          "type": "uint256"
        }
      ],
      "name": "transfer",
      "outputs": [
        {
          "name": "",
          "type": "bool"
        }
      ],
      "payable": false,
      "stateMutability": "nonpayable",
      "type": "function"
    },
    {
      "constant": false,
      "inputs": [
        {
          "name": "newOwner",
          "type": "address"
        }
      ],
      "name": "transferOwnership",
      "outputs": [],
      "payable": false,
      "stateMutability": "nonpayable",
      "type": "function"
    },
    {
      "anonymous": false,
      "inputs": [
        {
          "indexed": true,
          "name": "_from",
          "type": "address"
        },
        {
          "indexed": true,
          "name": "_to",
          "type": "address"
        },
        {
          "indexed": false,
          "name": "_value",
          "type": "uint256"
        }
      ],
      "name": "Migrate",
      "type": "event"
    },
    {
      "anonymous": false,
      "inputs": [
        {
          "indexed": true,
          "name": "previousOwner",
          "type": "address"
        },
        {
          "indexed": true,
          "name": "newOwner",
          "type": "address"
        }
      ],
      "name": "OwnershipTransferred",
      "type": "event"
    },
    {
      "anonymous": false,
      "inputs": [
        {
          "indexed": true,
          "name": "from",
          "type": "address"
        },
        {
          "indexed": true,
          "name": "to",
          "type": "address"
        },
        {
          "indexed": false,
          "name": "value",
          "type": "uint256"
        }
      ],
      "name": "Transfer",
      "type": "event"
    },
    {
      "constant": false,
      "inputs": [
        {
          "name": "_migrationAgent",
          "type": "address"
        }
      ],
      "name": "setMigrationAgent",
      "outputs": [],
      "payable": false,
      "stateMutability": "nonpayable",
      "type": "function"
    },
    {
      "constant": false,
      "inputs": [
        {
          "name": "_holders",
          "type": "address[]"
        }
      ],
      "name": "migrateAll",
      "outputs": [],
      "payable": false,
      "stateMutability": "nonpayable",
      "type": "function"
    },
    {
      "constant": false,
      "inputs": [],
      "name": "migrate",
      "outputs": [],
      "payable": false,
      "stateMutability": "nonpayable",
      "type": "function"
    }
  ],
  "bytecode": "0x606060405260028054600160a060020a03191633600160a060020a031617905561066d8061002e6000396000f3006060604052600436106100a35763ffffffff7c010000000000000000000000000000000000000000000000000000000060003504166318160ddd81146100a8578063680b3bdf146100cd57806370a082311461011e57806375e2ff651461013d5780638328dbcd1461015c5780638da5cb5b1461018b5780638fd3ab801461019e57806395a0f5eb146101b1578063a9059cbb146101c4578063f2fde38b146101fa575b600080fd5b34156100b357600080fd5b6100bb610219565b60405190815260200160405180910390f35b34156100d857600080fd5b61011c600460248135818101908301358060208181020160405190810160405280939291908181526020018383602002808284375094965061021f95505050505050565b005b341561012957600080fd5b6100bb600160a060020a0360043516610274565b341561014857600080fd5b61011c600160a060020a036004351661028f565b341561016757600080fd5b61016f6102ef565b604051600160a060020a03909116815260200160405180910390f35b341561019657600080fd5b61016f6102fe565b34156101a957600080fd5b61011c61030d565b34156101bc57600080fd5b6100bb61033b565b34156101cf57600080fd5b6101e6600160a060020a0360043516602435610341565b604051901515815260200160405180910390f35b341561020557600080fd5b61011c600160a060020a0360043516610453565b60015490565b60025460009033600160a060020a0390811691161461023d57600080fd5b5060005b81518110156102705761026882828151811061025957fe5b906020019060200201516104ee565b600101610241565b5050565b600160a060020a031660009081526020819052604090205490565b60025433600160a060020a039081169116146102aa57600080fd5b600454600160a060020a0316156102c057600080fd5b6004805473ffffffffffffffffffffffffffffffffffffffff1916600160a060020a0392909216919091179055565b600454600160a060020a031681565b600254600160a060020a031681565b600160a060020a0333166000908152602081905260408120541161033057600080fd5b610339336104ee565b565b60035481565b6000600160a060020a038316151561035857600080fd5b600160a060020a03331660009081526020819052604090205482111561037d57600080fd5b600160a060020a0333166000908152602081905260409020546103a6908363ffffffff61061916565b600160a060020a0333811660009081526020819052604080822093909355908516815220546103db908363ffffffff61062b16565b60008085600160a060020a0316600160a060020a031681526020019081526020016000208190555082600160a060020a031633600160a060020a03167fddf252ad1be2c89b69c2b068fc378daa952ba7f163c4a11628f55a4df523b3ef8460405190815260200160405180910390a350600192915050565b60025433600160a060020a0390811691161461046e57600080fd5b600160a060020a038116151561048357600080fd5b600254600160a060020a0380831691167f8be0079c531659141344cd1fd0a4f28419497f9722a3daafe3b4186f6b6457e060405160405180910390a36002805473ffffffffffffffffffffffffffffffffffffffff1916600160a060020a0392909216919091179055565b600454600090600160a060020a0316151561050857600080fd5b50600160a060020a03811660009081526020819052604081208054919055600154610539908263ffffffff61061916565b60015560035461054f908263ffffffff61062b16565b600355600454600160a060020a0316637a3130e383836040517c010000000000000000000000000000000000000000000000000000000063ffffffff8516028152600160a060020a0390921660048301526024820152604401600060405180830381600087803b15156105c157600080fd5b5af115156105ce57600080fd5b5050600454600160a060020a03908116915083167f18df02dcc52b9c494f391df09661519c0069bd8540141946280399408205ca1a8360405190815260200160405180910390a35050565b60008282111561062557fe5b50900390565b60008282018381101561063a57fe5b93925050505600a165627a7a72305820b6fa06bda804e8571ccd74e78d7119a3e5bc415d281e75d23de58016687ac2660029",
  "source": "pragma solidity ^0.4.21;\n\nimport '../Ownable.sol';\nimport './BasicToken.sol';\nimport './MigrationAgent.sol';\n\ncontract MigratableToken is BasicToken,Ownable {\n\n    uint256 public totalMigrated;\n    address public migrationAgent;\n\n    event Migrate(address indexed _from, address indexed _to, uint256 _value);\n\n    function setMigrationAgent(address _migrationAgent) public onlyOwner {\n        require(migrationAgent == 0x0);\n        migrationAgent = _migrationAgent;\n    }\n\n    function migrateInternal(address _holder) internal {\n        require(migrationAgent != 0x0);\n\n        uint256 value = balances[_holder];\n        balances[_holder] = 0;\n\n        totalSupply_ = totalSupply_.sub(value);\n        totalMigrated = totalMigrated.add(value);\n\n        MigrationAgent(migrationAgent).migrateFrom(_holder, value);\n        emit Migrate(_holder,migrationAgent,value);\n    }\n\n    function migrateAll(address[] _holders) public onlyOwner {\n        for(uint i = 0; i < _holders.length; i++){\n            migrateInternal(_holders[i]);\n        }\n    }\n\n    // Reissue your tokens.\n    function migrate() public\n    {\n        require(balances[msg.sender] > 0);\n        migrateInternal(msg.sender);\n    }\n\n}\n",
  "sourcePath": "/home/dmitrya2e/Work/Projects/ProofOfToss/Code/proof-of-toss/contracts/token-sale-contracts/TokenSale/Token/MigratableToken.sol",
  "compiler": {
    "name": "solc",
    "version": "0.4.21+commit.dfe3193c.Emscripten.clang"
  },
  "schemaVersion": "2.0.0",
  "updatedAt": "2018-05-28T10:18:09.079Z"
}