{
  "contractName": "Pausable",
  "abi": [
    {
      "constant": true,
      "inputs": [],
      "name": "paused",
      "outputs": [
        {
          "name": "",
          "type": "bool"
        }
      ],
      "payable": false,
      "stateMutability": "view",
      "type": "function"
    },
    {
      "constant": true,
      "inputs": [],
      "name": "owner",
      "outputs": [
        {
          "name": "",
          "type": "address"
        }
      ],
      "payable": false,
      "stateMutability": "view",
      "type": "function"
    },
    {
      "constant": true,
      "inputs": [
        {
          "name": "",
          "type": "address"
        }
      ],
      "name": "unpausedWallet",
      "outputs": [
        {
          "name": "",
          "type": "bool"
        }
      ],
      "payable": false,
      "stateMutability": "view",
      "type": "function"
    },
    {
      "constant": false,
      "inputs": [
        {
          "name": "newOwner",
          "type": "address"
        }
      ],
      "name": "transferOwnership",
      "outputs": [],
      "payable": false,
      "stateMutability": "nonpayable",
      "type": "function"
    },
    {
      "anonymous": false,
      "inputs": [],
      "name": "Pause",
      "type": "event"
    },
    {
      "anonymous": false,
      "inputs": [],
      "name": "Unpause",
      "type": "event"
    },
    {
      "anonymous": false,
      "inputs": [
        {
          "indexed": true,
          "name": "previousOwner",
          "type": "address"
        },
        {
          "indexed": true,
          "name": "newOwner",
          "type": "address"
        }
      ],
      "name": "OwnershipTransferred",
      "type": "event"
    },
    {
      "constant": false,
      "inputs": [
        {
          "name": "_wallet",
          "type": "address"
        },
        {
          "name": "mode",
          "type": "bool"
        }
      ],
      "name": "setUnpausedWallet",
      "outputs": [],
      "payable": false,
      "stateMutability": "nonpayable",
      "type": "function"
    },
    {
      "constant": false,
      "inputs": [
        {
          "name": "mode",
          "type": "bool"
        }
      ],
      "name": "setPause",
      "outputs": [],
      "payable": false,
      "stateMutability": "nonpayable",
      "type": "function"
    }
  ],
  "bytecode": "0x60606040526002805460ff1916600117905560008054600160a060020a033316600160a060020a03199091161790556103d98061003d6000396000f3006060604052600436106100775763ffffffff7c01000000000000000000000000000000000000000000000000000000006000350416635c975abb811461007c5780638da5cb5b146100a3578063b3e1f523146100d2578063b8b3db4f146100f8578063bedb86fb14610117578063f2fde38b1461012f575b600080fd5b341561008757600080fd5b61008f61014e565b604051901515815260200160405180910390f35b34156100ae57600080fd5b6100b6610157565b604051600160a060020a03909116815260200160405180910390f35b34156100dd57600080fd5b6100f6600160a060020a03600435166024351515610166565b005b341561010357600080fd5b61008f600160a060020a0360043516610244565b341561012257600080fd5b6100f66004351515610259565b341561013a57600080fd5b6100f6600160a060020a0360043516610312565b60025460ff1681565b600054600160a060020a031681565b60005433600160a060020a039081169116148061020e5750600054600160a060020a0316637ad71f7260026040517c010000000000000000000000000000000000000000000000000000000063ffffffff841602815260ff9091166004820152602401602060405180830381600087803b15156101e257600080fd5b5af115156101ef57600080fd5b50505060405180519050600160a060020a031633600160a060020a0316145b151561021957600080fd5b600160a060020a03919091166000908152600160205260409020805460ff1916911515919091179055565b60016020526000908152604090205460ff1681565b60005433600160a060020a0390811691161461027457600080fd5b60025460ff161580156102845750805b156102c3576002805460ff191660011790557f6985a02210a168e66602d3235cb6db0e70f92b3ba4d376a33c0f3d9434bff62560405160405180910390a15b60025460ff1680156102d3575080155b1561030f576002805460ff191690557f7805862f689e2f13df9f062ff482ad3ad112aca9e0847911ed832e158c525b3360405160405180910390a15b50565b60005433600160a060020a0390811691161461032d57600080fd5b600160a060020a038116151561034257600080fd5b600054600160a060020a0380831691167f8be0079c531659141344cd1fd0a4f28419497f9722a3daafe3b4186f6b6457e060405160405180910390a36000805473ffffffffffffffffffffffffffffffffffffffff1916600160a060020a03929092169190911790555600a165627a7a72305820279b8bd8c34f3f28a5351d79497ef0a99180547278a5807ebd656909c10bb8200029",
  "source": "pragma solidity ^0.4.21;\n\nimport './Ownable.sol';\nimport './Crowdsale/Crowdsale.sol';\n\n/**\n * @title Pausable\n * @dev Base contract which allows children to implement an emergency stop mechanism.\n */\ncontract Pausable is Ownable {\n\n    mapping (address => bool) public unpausedWallet;\n\n    event Pause();\n    event Unpause();\n\n    bool public paused = true;\n\n\n    /**\n     * @dev Modifier to make a function callable only when the contract is not paused.\n     */\n    modifier whenNotPaused(address _to) {\n        require(!paused||unpausedWallet[msg.sender]||unpausedWallet[_to]);\n        _;\n    }\n\n    // Add a wallet ignoring the \"Exchange pause\". Available to the owner of the contract.\n    function setUnpausedWallet(address _wallet, bool mode) public {\n        require(owner == msg.sender || msg.sender == Crowdsale(owner).wallets(uint8(Crowdsale.Roles.manager)));\n        unpausedWallet[_wallet] = mode;\n    }\n\n    /**\n     * @dev called by the owner to pause, triggers stopped state\n     */\n    function setPause(bool mode) public onlyOwner {\n        if (!paused && mode) {\n            paused = true;\n            emit Pause();\n        }\n        if (paused && !mode) {\n            paused = false;\n            emit Unpause();\n        }\n    }\n\n}\n",
  "sourcePath": "/home/gitlab-runner/builds/eb462ed4/0/axioma/proof-of-toss/contracts/token-sale-contracts/TokenSale/Pausable.sol",
  "compiler": {
    "name": "solc",
    "version": "0.4.21+commit.dfe3193c.Emscripten.clang"
  },
  "schemaVersion": "2.0.0",
  "updatedAt": "2018-05-28T16:03:35.934Z"
}