{
  "contractName": "PausableToken",
  "abi": [
    {
      "constant": false,
      "inputs": [
        {
          "name": "_spender",
          "type": "address"
        },
        {
          "name": "_value",
          "type": "uint256"
        }
      ],
      "name": "approve",
      "outputs": [
        {
          "name": "",
          "type": "bool"
        }
      ],
      "payable": false,
      "stateMutability": "nonpayable",
      "type": "function"
    },
    {
      "constant": true,
      "inputs": [
        {
          "name": "",
          "type": "address"
        }
      ],
      "name": "grantedToSetUnpausedWallet",
      "outputs": [
        {
          "name": "",
          "type": "bool"
        }
      ],
      "payable": false,
      "stateMutability": "view",
      "type": "function"
    },
    {
      "constant": true,
      "inputs": [],
      "name": "totalSupply",
      "outputs": [
        {
          "name": "",
          "type": "uint256"
        }
      ],
      "payable": false,
      "stateMutability": "view",
      "type": "function"
    },
    {
      "constant": true,
      "inputs": [],
      "name": "paused",
      "outputs": [
        {
          "name": "",
          "type": "bool"
        }
      ],
      "payable": false,
      "stateMutability": "view",
      "type": "function"
    },
    {
      "constant": false,
      "inputs": [
        {
          "name": "_spender",
          "type": "address"
        },
        {
          "name": "_subtractedValue",
          "type": "uint256"
        }
      ],
      "name": "decreaseApproval",
      "outputs": [
        {
          "name": "",
          "type": "bool"
        }
      ],
      "payable": false,
      "stateMutability": "nonpayable",
      "type": "function"
    },
    {
      "constant": true,
      "inputs": [
        {
          "name": "_owner",
          "type": "address"
        }
      ],
      "name": "balanceOf",
      "outputs": [
        {
          "name": "balance",
          "type": "uint256"
        }
      ],
      "payable": false,
      "stateMutability": "view",
      "type": "function"
    },
    {
      "constant": true,
      "inputs": [],
      "name": "owner",
      "outputs": [
        {
          "name": "",
          "type": "address"
        }
      ],
      "payable": false,
      "stateMutability": "view",
      "type": "function"
    },
    {
      "constant": true,
      "inputs": [
        {
          "name": "",
          "type": "address"
        }
      ],
      "name": "unpausedWallet",
      "outputs": [
        {
          "name": "",
          "type": "bool"
        }
      ],
      "payable": false,
      "stateMutability": "view",
      "type": "function"
    },
    {
      "constant": false,
      "inputs": [
        {
          "name": "mode",
          "type": "bool"
        }
      ],
      "name": "setPause",
      "outputs": [],
      "payable": false,
      "stateMutability": "nonpayable",
      "type": "function"
    },
    {
      "constant": false,
      "inputs": [
        {
          "name": "_spender",
          "type": "address"
        },
        {
          "name": "_addedValue",
          "type": "uint256"
        }
      ],
      "name": "increaseApproval",
      "outputs": [
        {
          "name": "",
          "type": "bool"
        }
      ],
      "payable": false,
      "stateMutability": "nonpayable",
      "type": "function"
    },
    {
      "constant": true,
      "inputs": [
        {
          "name": "_owner",
          "type": "address"
        },
        {
          "name": "_spender",
          "type": "address"
        }
      ],
      "name": "allowance",
      "outputs": [
        {
          "name": "",
          "type": "uint256"
        }
      ],
      "payable": false,
      "stateMutability": "view",
      "type": "function"
    },
    {
      "constant": false,
      "inputs": [
        {
          "name": "newOwner",
          "type": "address"
        }
      ],
      "name": "transferOwnership",
      "outputs": [],
      "payable": false,
      "stateMutability": "nonpayable",
      "type": "function"
    },
    {
      "anonymous": false,
      "inputs": [],
      "name": "Pause",
      "type": "event"
    },
    {
      "anonymous": false,
      "inputs": [],
      "name": "Unpause",
      "type": "event"
    },
    {
      "anonymous": false,
      "inputs": [
        {
          "indexed": true,
          "name": "previousOwner",
          "type": "address"
        },
        {
          "indexed": true,
          "name": "newOwner",
          "type": "address"
        }
      ],
      "name": "OwnershipTransferred",
      "type": "event"
    },
    {
      "anonymous": false,
      "inputs": [
        {
          "indexed": true,
          "name": "owner",
          "type": "address"
        },
        {
          "indexed": true,
          "name": "spender",
          "type": "address"
        },
        {
          "indexed": false,
          "name": "value",
          "type": "uint256"
        }
      ],
      "name": "Approval",
      "type": "event"
    },
    {
      "anonymous": false,
      "inputs": [
        {
          "indexed": true,
          "name": "from",
          "type": "address"
        },
        {
          "indexed": true,
          "name": "to",
          "type": "address"
        },
        {
          "indexed": false,
          "name": "value",
          "type": "uint256"
        }
      ],
      "name": "Transfer",
      "type": "event"
    },
    {
      "constant": false,
      "inputs": [
        {
          "name": "_to",
          "type": "address"
        },
        {
          "name": "_value",
          "type": "uint256"
        }
      ],
      "name": "transfer",
      "outputs": [
        {
          "name": "",
          "type": "bool"
        }
      ],
      "payable": false,
      "stateMutability": "nonpayable",
      "type": "function"
    },
    {
      "constant": false,
      "inputs": [
        {
          "name": "_from",
          "type": "address"
        },
        {
          "name": "_to",
          "type": "address"
        },
        {
          "name": "_value",
          "type": "uint256"
        }
      ],
      "name": "transferFrom",
      "outputs": [
        {
          "name": "",
          "type": "bool"
        }
      ],
      "payable": false,
      "stateMutability": "nonpayable",
      "type": "function"
    },
    {
      "constant": false,
      "inputs": [
        {
          "name": "_to",
          "type": "address"
        },
        {
          "name": "permission",
          "type": "bool"
        }
      ],
      "name": "grantToSetUnpausedWallet",
      "outputs": [],
      "payable": false,
      "stateMutability": "nonpayable",
      "type": "function"
    },
    {
      "constant": false,
      "inputs": [
        {
          "name": "_wallet",
          "type": "address"
        },
        {
          "name": "mode",
          "type": "bool"
        }
      ],
      "name": "setUnpausedWallet",
      "outputs": [],
      "payable": false,
      "stateMutability": "nonpayable",
      "type": "function"
    }
  ],
  "bytecode": "0x60606040526005805460ff1916600117905560038054600160a060020a033316600160a060020a0319909116179055610c5e8061003d6000396000f3006060604052600436106100cc5763ffffffff60e060020a600035041663095ea7b381146100d157806317221e2c1461010757806318160ddd1461012657806320ceb5361461014b57806323b872dd146101715780635c975abb1461019957806366188463146101ac57806370a08231146101ce5780638da5cb5b146101ed578063a9059cbb1461021c578063b3e1f5231461023e578063b8b3db4f14610262578063bedb86fb14610281578063d73dd62314610299578063dd62ed3e146102bb578063f2fde38b146102e0575b600080fd5b34156100dc57600080fd5b6100f3600160a060020a03600435166024356102ff565b604051901515815260200160405180910390f35b341561011257600080fd5b6100f3600160a060020a036004351661036b565b341561013157600080fd5b610139610380565b60405190815260200160405180910390f35b341561015657600080fd5b61016f600160a060020a03600435166024351515610386565b005b341561017c57600080fd5b6100f3600160a060020a036004358116906024351660443561044b565b34156101a457600080fd5b6100f36104bc565b34156101b757600080fd5b6100f3600160a060020a03600435166024356104c5565b34156101d957600080fd5b610139600160a060020a03600435166105bf565b34156101f857600080fd5b6102006105da565b604051600160a060020a03909116815260200160405180910390f35b341561022757600080fd5b6100f3600160a060020a03600435166024356105e9565b341561024957600080fd5b61016f600160a060020a03600435166024351515610658565b341561026d57600080fd5b6100f3600160a060020a0360043516610740565b341561028c57600080fd5b61016f6004351515610755565b34156102a457600080fd5b6100f3600160a060020a036004351660243561080e565b34156102c657600080fd5b610139600160a060020a03600435811690602435166108b2565b34156102eb57600080fd5b61016f600160a060020a03600435166108dd565b600160a060020a03338116600081815260026020908152604080832094871680845294909152808220859055909291907f8c5be1e5ebec7d5bd14f71427d1e84f3dd0314c0f7b2291e5b200ac8c7c3b9259085905190815260200160405180910390a350600192915050565b60066020526000908152604090205460ff1681565b60015490565b60035433600160a060020a03908116911614806104155750600354600160a060020a0316637ad71f72600260405160e060020a63ffffffff841602815260ff9091166004820152602401602060405180830381600087803b15156103e957600080fd5b5af115156103f657600080fd5b50505060405180519050600160a060020a031633600160a060020a0316145b151561042057600080fd5b600160a060020a03919091166000908152600660205260409020805460ff1916911515919091179055565b600554600090839060ff16158061047a5750600160a060020a03331660009081526004602052604090205460ff165b8061049d5750600160a060020a03811660009081526004602052604090205460ff165b15156104a857600080fd5b6104b3858585610978565b95945050505050565b60055460ff1681565b600160a060020a0333811660009081526002602090815260408083209386168352929052908120548083111561052257600160a060020a033381166000908152600260209081526040808320938816835292905290812055610559565b610532818463ffffffff610af816565b600160a060020a033381166000908152600260209081526040808320938916835292905220555b600160a060020a0333811660008181526002602090815260408083209489168084529490915290819020547f8c5be1e5ebec7d5bd14f71427d1e84f3dd0314c0f7b2291e5b200ac8c7c3b925915190815260200160405180910390a35060019392505050565b600160a060020a031660009081526020819052604090205490565b600354600160a060020a031681565b600554600090839060ff1615806106185750600160a060020a03331660009081526004602052604090205460ff165b8061063b5750600160a060020a03811660009081526004602052604090205460ff165b151561064657600080fd5b6106508484610b0a565b949350505050565b60035433600160a060020a039081169116148061068d5750600160a060020a03331660009081526006602052604090205460ff165b8061070a5750600354600160a060020a0316637ad71f72600260405160e060020a63ffffffff841602815260ff9091166004820152602401602060405180830381600087803b15156106de57600080fd5b5af115156106eb57600080fd5b50505060405180519050600160a060020a031633600160a060020a0316145b151561071557600080fd5b600160a060020a03919091166000908152600460205260409020805460ff1916911515919091179055565b60046020526000908152604090205460ff1681565b60035433600160a060020a0390811691161461077057600080fd5b60055460ff161580156107805750805b156107bf576005805460ff191660011790557f6985a02210a168e66602d3235cb6db0e70f92b3ba4d376a33c0f3d9434bff62560405160405180910390a15b60055460ff1680156107cf575080155b1561080b576005805460ff191690557f7805862f689e2f13df9f062ff482ad3ad112aca9e0847911ed832e158c525b3360405160405180910390a15b50565b600160a060020a033381166000908152600260209081526040808320938616835292905290812054610846908363ffffffff610c1c16565b600160a060020a0333811660008181526002602090815260408083209489168084529490915290819020849055919290917f8c5be1e5ebec7d5bd14f71427d1e84f3dd0314c0f7b2291e5b200ac8c7c3b92591905190815260200160405180910390a350600192915050565b600160a060020a03918216600090815260026020908152604080832093909416825291909152205490565b60035433600160a060020a039081169116146108f857600080fd5b600160a060020a038116151561090d57600080fd5b600354600160a060020a0380831691167f8be0079c531659141344cd1fd0a4f28419497f9722a3daafe3b4186f6b6457e060405160405180910390a36003805473ffffffffffffffffffffffffffffffffffffffff1916600160a060020a0392909216919091179055565b6000600160a060020a038316151561098f57600080fd5b600160a060020a0384166000908152602081905260409020548211156109b457600080fd5b600160a060020a03808516600090815260026020908152604080832033909416835292905220548211156109e757600080fd5b600160a060020a038416600090815260208190526040902054610a10908363ffffffff610af816565b600160a060020a038086166000908152602081905260408082209390935590851681522054610a45908363ffffffff610c1c16565b600160a060020a0380851660009081526020818152604080832094909455878316825260028152838220339093168252919091522054610a8b908363ffffffff610af816565b600160a060020a03808616600081815260026020908152604080832033861684529091529081902093909355908516917fddf252ad1be2c89b69c2b068fc378daa952ba7f163c4a11628f55a4df523b3ef9085905190815260200160405180910390a35060019392505050565b600082821115610b0457fe5b50900390565b6000600160a060020a0383161515610b2157600080fd5b600160a060020a033316600090815260208190526040902054821115610b4657600080fd5b600160a060020a033316600090815260208190526040902054610b6f908363ffffffff610af816565b600160a060020a033381166000908152602081905260408082209390935590851681522054610ba4908363ffffffff610c1c16565b60008085600160a060020a0316600160a060020a031681526020019081526020016000208190555082600160a060020a031633600160a060020a03167fddf252ad1be2c89b69c2b068fc378daa952ba7f163c4a11628f55a4df523b3ef8460405190815260200160405180910390a350600192915050565b600082820183811015610c2b57fe5b93925050505600a165627a7a72305820e01514403d2f36d7479f4128b0dbf178daf9650f1c5296a5144d29713c4a4b160029",
  "source": "pragma solidity ^0.4.21;\n\nimport '../Pausable.sol';\nimport './StandardToken.sol';\n\n/**\n * @title Pausable token\n * @dev StandardToken modified with pausable transfers.\n **/\ncontract PausableToken is StandardToken, Pausable {\n\n    mapping (address => bool) public grantedToSetUnpausedWallet;\n\n    function transfer(address _to, uint256 _value) public whenNotPaused(_to) returns (bool) {\n        return super.transfer(_to, _value);\n    }\n\n    function transferFrom(address _from, address _to, uint256 _value) public whenNotPaused(_to) returns (bool) {\n        return super.transferFrom(_from, _to, _value);\n    }\n\n    function grantToSetUnpausedWallet(address _to, bool permission) public {\n        require(owner == msg.sender || msg.sender == Crowdsale(owner).wallets(uint8(Crowdsale.Roles.manager)));\n        grantedToSetUnpausedWallet[_to] = permission;\n    }\n\n    // Add a wallet ignoring the \"Exchange pause\". Available to the owner of the contract.\n    function setUnpausedWallet(address _wallet, bool mode) public {\n        require(owner == msg.sender || grantedToSetUnpausedWallet[msg.sender] || msg.sender == Crowdsale(owner).wallets(uint8(Crowdsale.Roles.manager)));\n        unpausedWallet[_wallet] = mode;\n    }\n}\n",
  "sourcePath": "/Users/nickolay/workspace/rsk/app/contracts/token-sale-contracts/TokenSale/Token/PausableToken.sol",
  "compiler": {
    "name": "solc",
    "version": "0.4.21+commit.dfe3193c.Emscripten.clang"
  },
  "schemaVersion": "2.0.0",
  "updatedAt": "2018-05-29T10:33:34.918Z"
}