{
  "contractName": "RefundVault",
  "abi": [
    {
      "constant": true,
      "inputs": [
        {
          "name": "",
          "type": "uint8"
        },
        {
          "name": "",
          "type": "address"
        }
      ],
      "name": "deposited",
      "outputs": [
        {
          "name": "",
          "type": "uint256"
        }
      ],
      "payable": false,
      "stateMutability": "view",
      "type": "function"
    },
    {
      "constant": true,
      "inputs": [],
      "name": "owner",
      "outputs": [
        {
          "name": "",
          "type": "address"
        }
      ],
      "payable": false,
      "stateMutability": "view",
      "type": "function"
    },
    {
      "constant": true,
      "inputs": [],
      "name": "state",
      "outputs": [
        {
          "name": "",
          "type": "uint8"
        }
      ],
      "payable": false,
      "stateMutability": "view",
      "type": "function"
    },
    {
      "constant": false,
      "inputs": [
        {
          "name": "newOwner",
          "type": "address"
        }
      ],
      "name": "transferOwnership",
      "outputs": [],
      "payable": false,
      "stateMutability": "nonpayable",
      "type": "function"
    },
    {
      "inputs": [],
      "payable": false,
      "stateMutability": "nonpayable",
      "type": "constructor"
    },
    {
      "anonymous": false,
      "inputs": [],
      "name": "Closed",
      "type": "event"
    },
    {
      "anonymous": false,
      "inputs": [],
      "name": "RefundsEnabled",
      "type": "event"
    },
    {
      "anonymous": false,
      "inputs": [
        {
          "indexed": true,
          "name": "beneficiary",
          "type": "address"
        },
        {
          "indexed": false,
          "name": "weiAmount",
          "type": "uint256"
        }
      ],
      "name": "Refunded",
      "type": "event"
    },
    {
      "anonymous": false,
      "inputs": [
        {
          "indexed": true,
          "name": "beneficiary",
          "type": "address"
        },
        {
          "indexed": false,
          "name": "weiAmount",
          "type": "uint256"
        }
      ],
      "name": "Deposited",
      "type": "event"
    },
    {
      "anonymous": false,
      "inputs": [
        {
          "indexed": true,
          "name": "previousOwner",
          "type": "address"
        },
        {
          "indexed": true,
          "name": "newOwner",
          "type": "address"
        }
      ],
      "name": "OwnershipTransferred",
      "type": "event"
    },
    {
      "constant": false,
      "inputs": [
        {
          "name": "investor",
          "type": "address"
        }
      ],
      "name": "deposit",
      "outputs": [],
      "payable": true,
      "stateMutability": "payable",
      "type": "function"
    },
    {
      "constant": false,
      "inputs": [
        {
          "name": "_wallet1",
          "type": "address"
        },
        {
          "name": "_wallet2",
          "type": "address"
        },
        {
          "name": "_feesValue",
          "type": "uint256"
        }
      ],
      "name": "close",
      "outputs": [],
      "payable": false,
      "stateMutability": "nonpayable",
      "type": "function"
    },
    {
      "constant": false,
      "inputs": [],
      "name": "enableRefunds",
      "outputs": [],
      "payable": false,
      "stateMutability": "nonpayable",
      "type": "function"
    },
    {
      "constant": false,
      "inputs": [
        {
          "name": "investor",
          "type": "address"
        }
      ],
      "name": "refund",
      "outputs": [],
      "payable": false,
      "stateMutability": "nonpayable",
      "type": "function"
    },
    {
      "constant": false,
      "inputs": [],
      "name": "restart",
      "outputs": [],
      "payable": false,
      "stateMutability": "nonpayable",
      "type": "function"
    },
    {
      "constant": false,
      "inputs": [
        {
          "name": "_wallet",
          "type": "address"
        }
      ],
      "name": "del",
      "outputs": [],
      "payable": false,
      "stateMutability": "nonpayable",
      "type": "function"
    }
  ],
  "bytecode": "0x6060604052341561000f57600080fd5b60008054600160a060020a03191633600160a060020a03161781556002805460ff191690556106fe90819061004490396000f3006060604052600436106100a35763ffffffff7c01000000000000000000000000000000000000000000000000000000006000350416631ef3755d81146100a857806347fa061e146100bd5780638c52dc41146100f45780638da5cb5b14610107578063b9caebf414610136578063c19d93fb14610155578063f2fde38b1461018c578063f340fa01146101ab578063f5bf7413146101bf578063fa89401a146101e7575b600080fd5b34156100b357600080fd5b6100bb610206565b005b34156100c857600080fd5b6100e260ff60043516600160a060020a036024351661027d565b60405190815260200160405180910390f35b34156100ff57600080fd5b6100bb61029a565b341561011257600080fd5b61011a61030d565b604051600160a060020a03909116815260200160405180910390f35b341561014157600080fd5b6100bb600160a060020a036004351661031c565b341561016057600080fd5b610168610343565b6040518082600281111561017857fe5b60ff16815260200191505060405180910390f35b341561019757600080fd5b6100bb600160a060020a036004351661034c565b6100bb600160a060020a03600435166103e7565b34156101ca57600080fd5b6100bb600160a060020a03600435811690602435166044356104c0565b34156101f257600080fd5b6100bb600160a060020a03600435166105c7565b60005433600160a060020a0390811691161461022157600080fd5b6002805460ff168181111561023257fe5b1461023c57600080fd5b6000805474ff000000000000000000000000000000000000000019811660a060020a9182900460ff908116600101169091021790556002805460ff19169055565b600160209081526000928352604080842090915290825290205481565b60005433600160a060020a039081169116146102b557600080fd5b60006002805460ff16908111156102c857fe5b146102d257600080fd5b6002805460ff191660011790557f599d8e5a83cffb867d051598c4d70e805d59802d8081c1c7d6dffc5b6aca2b8960405160405180910390a1565b600054600160a060020a031681565b60005433600160a060020a0390811691161461033757600080fd5b80600160a060020a0316ff5b60025460ff1681565b60005433600160a060020a0390811691161461036757600080fd5b600160a060020a038116151561037c57600080fd5b600054600160a060020a0380831691167f8be0079c531659141344cd1fd0a4f28419497f9722a3daafe3b4186f6b6457e060405160405180910390a36000805473ffffffffffffffffffffffffffffffffffffffff1916600160a060020a0392909216919091179055565b60005433600160a060020a0390811691161461040257600080fd5b60006002805460ff169081111561041557fe5b1461041f57600080fd5b6000805460a060020a900460ff168152600160209081526040808320600160a060020a038516845290915290205461045790346106bc565b6000805460a060020a900460ff168152600160209081526040808320600160a060020a038616808552925291829020929092557f2da466a7b24304f47e87fa2e1e5a81b9831ce54fec19055ce277ca2f39ba42c49034905190815260200160405180910390a250565b60005433600160a060020a039081169116146104db57600080fd5b60006002805460ff16908111156104ee57fe5b146104f857600080fd5b600160a060020a038316151561050d57600080fd5b6002805460ff1916811790557f1cdde67b72a90f19919ac732a437ac2f7a10fc128d28c2a6e525d89ce5cd9d3a60405160405180910390a1600160a060020a0382161561058557600160a060020a03821681156108fc0282604051600060405180830381858888f19350505050151561058557600080fd5b82600160a060020a03166108fc30600160a060020a0316319081150290604051600060405180830381858888f1935050505015156105c257600080fd5b505050565b600060016002805460ff16908111156105dc57fe5b146105e657600080fd5b506000805460a060020a900460ff168152600160209081526040808320600160a060020a038516845290915281205490811161062157600080fd5b6000805460a060020a900460ff168152600160209081526040808320600160a060020a038616808552925280832092909255906108fc83150290839051600060405180830381858888f19350505050151561067b57600080fd5b81600160a060020a03167fd7dee2702d63ad89917b6a4da9981c90c4d24f8c2bdfd64c604ecae57d8d06518260405190815260200160405180910390a25050565b6000828201838110156106cb57fe5b93925050505600a165627a7a7230582052969d4537f3573a52af16151bc7f7095915368abb0ad4d538a08dab02c861b80029",
  "source": "pragma solidity ^0.4.21;\n\nimport '../Ownable.sol';\nimport '../SafeMath.sol';\n\n// (A3)\n// Contract for freezing of investors' funds. Hence, investors will be able to withdraw money if the\n// round does not attain the softcap. From here the wallet of the beneficiary will receive all the\n// money (namely, the beneficiary, not the manager's wallet).\ncontract RefundVault is Ownable {\n    using SafeMath for uint256;\n\n    enum State { Active, Refunding, Closed }\n\n    uint8 round;\n\n    mapping (uint8 => mapping (address => uint256)) public deposited;\n\n    State public state;\n\n    event Closed();\n    event RefundsEnabled();\n    event Refunded(address indexed beneficiary, uint256 weiAmount);\n    event Deposited(address indexed beneficiary, uint256 weiAmount);\n\n    function RefundVault() public {\n        state = State.Active;\n    }\n\n    // Depositing funds on behalf of an TokenSale investor. Available to the owner of the contract (Crowdsale Contract).\n    function deposit(address investor) onlyOwner public payable {\n        require(state == State.Active);\n        deposited[round][investor] = deposited[round][investor].add(msg.value);\n        emit Deposited(investor,msg.value);\n    }\n\n    // Move the collected funds to a specified address. Available to the owner of the contract.\n    function close(address _wallet1, address _wallet2, uint256 _feesValue) onlyOwner public {\n        require(state == State.Active);\n        require(_wallet1 != 0x0);\n        state = State.Closed;\n        emit Closed();\n        if(_wallet2 != 0x0)\n        _wallet2.transfer(_feesValue);\n        _wallet1.transfer(address(this).balance);\n    }\n\n    // Allow refund to investors. Available to the owner of the contract.\n    function enableRefunds() onlyOwner public {\n        require(state == State.Active);\n        state = State.Refunding;\n        emit RefundsEnabled();\n    }\n\n    // Return the funds to a specified investor. In case of failure of the round, the investor\n    // should call this method of this contract (RefundVault) or call the method claimRefund of Crowdsale\n    // contract. This function should be called either by the investor himself, or the company\n    // (or anyone) can call this function in the loop to return funds to all investors en masse.\n    function refund(address investor) public {\n        require(state == State.Refunding);\n        uint256 depositedValue = deposited[round][investor];\n        require(depositedValue > 0);\n        deposited[round][investor] = 0;\n        investor.transfer(depositedValue);\n        emit Refunded(investor, depositedValue);\n    }\n\n    function restart() external onlyOwner {\n        require(state == State.Closed);\n        round++;\n        state = State.Active;\n\n    }\n\n    // Destruction of the contract with return of funds to the specified address. Available to\n    // the owner of the contract.\n    function del(address _wallet) external onlyOwner {\n        selfdestruct(_wallet);\n    }\n}\n",
  "sourcePath": "/home/gitlab-runner/builds/eb462ed4/0/axioma/proof-of-toss/contracts/token-sale-contracts/TokenSale/Crowdsale/RefundVault.sol",
  "compiler": {
    "name": "solc",
    "version": "0.4.21+commit.dfe3193c.Emscripten.clang"
  },
  "schemaVersion": "2.0.0",
  "updatedAt": "2018-05-28T16:03:35.929Z"
}