{
  "contractName": "TestEventBase",
  "abi": [
    {
      "constant": true,
      "inputs": [],
      "name": "creator",
      "outputs": [
        {
          "name": "",
          "type": "address"
        }
      ],
      "payable": false,
      "stateMutability": "view",
      "type": "function"
    },
    {
      "constant": true,
      "inputs": [
        {
          "name": "",
          "type": "uint256"
        }
      ],
      "name": "possibleResults",
      "outputs": [
        {
          "name": "customCoefficient",
          "type": "uint64"
        },
        {
          "name": "betCount",
          "type": "uint32"
        },
        {
          "name": "betSum",
          "type": "uint256"
        }
      ],
      "payable": false,
      "stateMutability": "view",
      "type": "function"
    },
    {
      "constant": true,
      "inputs": [],
      "name": "startDate",
      "outputs": [
        {
          "name": "",
          "type": "uint64"
        }
      ],
      "payable": false,
      "stateMutability": "view",
      "type": "function"
    },
    {
      "constant": false,
      "inputs": [
        {
          "name": "customCoefficient",
          "type": "uint64"
        }
      ],
      "name": "addResult",
      "outputs": [],
      "payable": false,
      "stateMutability": "nonpayable",
      "type": "function"
    },
    {
      "constant": true,
      "inputs": [],
      "name": "getState",
      "outputs": [
        {
          "name": "",
          "type": "uint8"
        }
      ],
      "payable": false,
      "stateMutability": "view",
      "type": "function"
    },
    {
      "constant": true,
      "inputs": [
        {
          "name": "",
          "type": "address"
        }
      ],
      "name": "rewardWithdraws",
      "outputs": [
        {
          "name": "",
          "type": "uint256"
        }
      ],
      "payable": false,
      "stateMutability": "view",
      "type": "function"
    },
    {
      "constant": true,
      "inputs": [],
      "name": "betsCount",
      "outputs": [
        {
          "name": "",
          "type": "uint256"
        }
      ],
      "payable": false,
      "stateMutability": "view",
      "type": "function"
    },
    {
      "constant": true,
      "inputs": [],
      "name": "resultsCount",
      "outputs": [
        {
          "name": "",
          "type": "uint8"
        }
      ],
      "payable": false,
      "stateMutability": "view",
      "type": "function"
    },
    {
      "constant": true,
      "inputs": [
        {
          "name": "",
          "type": "uint256"
        }
      ],
      "name": "bets",
      "outputs": [
        {
          "name": "timestamp",
          "type": "uint256"
        },
        {
          "name": "bettor",
          "type": "address"
        },
        {
          "name": "result",
          "type": "uint8"
        },
        {
          "name": "amount",
          "type": "uint256"
        }
      ],
      "payable": false,
      "stateMutability": "view",
      "type": "function"
    },
    {
      "constant": true,
      "inputs": [
        {
          "name": "_user",
          "type": "address"
        }
      ],
      "name": "getUserBets",
      "outputs": [
        {
          "name": "",
          "type": "uint256[]"
        }
      ],
      "payable": false,
      "stateMutability": "view",
      "type": "function"
    },
    {
      "constant": true,
      "inputs": [],
      "name": "getEventCreatorReward",
      "outputs": [
        {
          "name": "",
          "type": "uint256"
        }
      ],
      "payable": false,
      "stateMutability": "view",
      "type": "function"
    },
    {
      "constant": false,
      "inputs": [],
      "name": "withdraw",
      "outputs": [],
      "payable": false,
      "stateMutability": "nonpayable",
      "type": "function"
    },
    {
      "constant": false,
      "inputs": [
        {
          "name": "_contract",
          "type": "address"
        },
        {
          "name": "_data",
          "type": "bytes"
        }
      ],
      "name": "updated",
      "outputs": [],
      "payable": false,
      "stateMutability": "nonpayable",
      "type": "function"
    },
    {
      "constant": true,
      "inputs": [
        {
          "name": "",
          "type": "address"
        }
      ],
      "name": "withdraws",
      "outputs": [
        {
          "name": "",
          "type": "uint256"
        }
      ],
      "payable": false,
      "stateMutability": "view",
      "type": "function"
    },
    {
      "constant": true,
      "inputs": [
        {
          "name": "user",
          "type": "address"
        }
      ],
      "name": "getShare",
      "outputs": [
        {
          "name": "",
          "type": "uint256"
        }
      ],
      "payable": false,
      "stateMutability": "view",
      "type": "function"
    },
    {
      "constant": true,
      "inputs": [],
      "name": "calculateBetsSums",
      "outputs": [
        {
          "name": "",
          "type": "uint256"
        },
        {
          "name": "",
          "type": "uint256"
        },
        {
          "name": "",
          "type": "uint256"
        }
      ],
      "payable": false,
      "stateMutability": "view",
      "type": "function"
    },
    {
      "constant": false,
      "inputs": [
        {
          "name": "_token",
          "type": "address"
        },
        {
          "name": "_whitelist",
          "type": "address"
        },
        {
          "name": "_creator",
          "type": "address"
        },
        {
          "name": "_deposit",
          "type": "uint256"
        },
        {
          "name": "_startDate",
          "type": "uint64"
        },
        {
          "name": "_endDate",
          "type": "uint64"
        },
        {
          "name": "_resultsCount",
          "type": "uint8"
        }
      ],
      "name": "init",
      "outputs": [],
      "payable": false,
      "stateMutability": "nonpayable",
      "type": "function"
    },
    {
      "constant": true,
      "inputs": [],
      "name": "resolvedResult",
      "outputs": [
        {
          "name": "",
          "type": "uint8"
        }
      ],
      "payable": false,
      "stateMutability": "view",
      "type": "function"
    },
    {
      "constant": true,
      "inputs": [
        {
          "name": "",
          "type": "address"
        },
        {
          "name": "",
          "type": "uint256"
        }
      ],
      "name": "betWithdraws",
      "outputs": [
        {
          "name": "",
          "type": "uint256"
        }
      ],
      "payable": false,
      "stateMutability": "view",
      "type": "function"
    },
    {
      "constant": true,
      "inputs": [],
      "name": "isPlayer",
      "outputs": [
        {
          "name": "",
          "type": "bool"
        }
      ],
      "payable": false,
      "stateMutability": "view",
      "type": "function"
    },
    {
      "constant": true,
      "inputs": [
        {
          "name": "_user",
          "type": "address"
        }
      ],
      "name": "userBetsCount",
      "outputs": [
        {
          "name": "",
          "type": "uint256"
        }
      ],
      "payable": false,
      "stateMutability": "view",
      "type": "function"
    },
    {
      "constant": true,
      "inputs": [],
      "name": "owner",
      "outputs": [
        {
          "name": "",
          "type": "address"
        }
      ],
      "payable": false,
      "stateMutability": "view",
      "type": "function"
    },
    {
      "constant": true,
      "inputs": [],
      "name": "whitelist",
      "outputs": [
        {
          "name": "",
          "type": "address"
        }
      ],
      "payable": false,
      "stateMutability": "view",
      "type": "function"
    },
    {
      "constant": false,
      "inputs": [
        {
          "name": "result",
          "type": "uint8"
        }
      ],
      "name": "resolve",
      "outputs": [],
      "payable": false,
      "stateMutability": "nonpayable",
      "type": "function"
    },
    {
      "constant": true,
      "inputs": [
        {
          "name": "_userBet",
          "type": "uint256"
        }
      ],
      "name": "getPrize",
      "outputs": [
        {
          "name": "",
          "type": "uint256"
        }
      ],
      "payable": false,
      "stateMutability": "view",
      "type": "function"
    },
    {
      "constant": true,
      "inputs": [],
      "name": "getEventCreatorRefund",
      "outputs": [
        {
          "name": "",
          "type": "uint256"
        }
      ],
      "payable": false,
      "stateMutability": "view",
      "type": "function"
    },
    {
      "constant": true,
      "inputs": [],
      "name": "lastWithdraw",
      "outputs": [
        {
          "name": "",
          "type": "uint256"
        }
      ],
      "payable": false,
      "stateMutability": "view",
      "type": "function"
    },
    {
      "constant": true,
      "inputs": [],
      "name": "operatorId",
      "outputs": [
        {
          "name": "",
          "type": "address"
        }
      ],
      "payable": false,
      "stateMutability": "view",
      "type": "function"
    },
    {
      "constant": false,
      "inputs": [
        {
          "name": "_from",
          "type": "address"
        },
        {
          "name": "_value",
          "type": "uint256"
        },
        {
          "name": "_data",
          "type": "bytes"
        }
      ],
      "name": "tokenFallback",
      "outputs": [],
      "payable": false,
      "stateMutability": "nonpayable",
      "type": "function"
    },
    {
      "constant": true,
      "inputs": [],
      "name": "state",
      "outputs": [
        {
          "name": "",
          "type": "uint8"
        }
      ],
      "payable": false,
      "stateMutability": "view",
      "type": "function"
    },
    {
      "constant": false,
      "inputs": [
        {
          "name": "bet",
          "type": "uint256"
        }
      ],
      "name": "withdrawPrize",
      "outputs": [],
      "payable": false,
      "stateMutability": "nonpayable",
      "type": "function"
    },
    {
      "constant": true,
      "inputs": [],
      "name": "endDate",
      "outputs": [
        {
          "name": "",
          "type": "uint64"
        }
      ],
      "payable": false,
      "stateMutability": "view",
      "type": "function"
    },
    {
      "constant": false,
      "inputs": [],
      "name": "withdrawReward",
      "outputs": [],
      "payable": false,
      "stateMutability": "nonpayable",
      "type": "function"
    },
    {
      "constant": true,
      "inputs": [],
      "name": "deposit",
      "outputs": [
        {
          "name": "",
          "type": "uint256"
        }
      ],
      "payable": false,
      "stateMutability": "view",
      "type": "function"
    },
    {
      "constant": true,
      "inputs": [
        {
          "name": "_userBet",
          "type": "uint256"
        }
      ],
      "name": "getRefund",
      "outputs": [
        {
          "name": "",
          "type": "uint256"
        }
      ],
      "payable": false,
      "stateMutability": "view",
      "type": "function"
    },
    {
      "constant": true,
      "inputs": [
        {
          "name": "",
          "type": "address"
        },
        {
          "name": "",
          "type": "uint256"
        }
      ],
      "name": "usersBets",
      "outputs": [
        {
          "name": "",
          "type": "uint256"
        }
      ],
      "payable": false,
      "stateMutability": "view",
      "type": "function"
    },
    {
      "constant": true,
      "inputs": [],
      "name": "isOperatorEvent",
      "outputs": [
        {
          "name": "",
          "type": "bool"
        }
      ],
      "payable": false,
      "stateMutability": "view",
      "type": "function"
    },
    {
      "constant": true,
      "inputs": [],
      "name": "bidType",
      "outputs": [
        {
          "name": "",
          "type": "bytes32"
        }
      ],
      "payable": false,
      "stateMutability": "view",
      "type": "function"
    },
    {
      "constant": true,
      "inputs": [],
      "name": "meta_version",
      "outputs": [
        {
          "name": "",
          "type": "uint256"
        }
      ],
      "payable": false,
      "stateMutability": "view",
      "type": "function"
    },
    {
      "constant": true,
      "inputs": [],
      "name": "token",
      "outputs": [
        {
          "name": "",
          "type": "address"
        }
      ],
      "payable": false,
      "stateMutability": "view",
      "type": "function"
    },
    {
      "inputs": [
        {
          "name": "_token",
          "type": "address"
        }
      ],
      "payable": false,
      "stateMutability": "nonpayable",
      "type": "constructor"
    },
    {
      "anonymous": false,
      "inputs": [
        {
          "indexed": false,
          "name": "_contract",
          "type": "address"
        },
        {
          "indexed": false,
          "name": "_data",
          "type": "bytes"
        }
      ],
      "name": "Updated",
      "type": "event"
    },
    {
      "constant": false,
      "inputs": [
        {
          "name": "_startDate",
          "type": "uint64"
        }
      ],
      "name": "setStartDate",
      "outputs": [],
      "payable": false,
      "stateMutability": "nonpayable",
      "type": "function"
    },
    {
      "constant": false,
      "inputs": [
        {
          "name": "_endDate",
          "type": "uint64"
        }
      ],
      "name": "setEndDate",
      "outputs": [],
      "payable": false,
      "stateMutability": "nonpayable",
      "type": "function"
    }
  ],
  "bytecode": "0x606060405260058054600160a060020a03191660011790556000600f55341561002757600080fd5b60405160208061226d8339810160405280805160018054600160a060020a03338116600160a060020a0319928316179092556002805492909316911617905550506121f6806100776000396000f3006060604052600436106101ea5763ffffffff60e060020a60003504166302d05d3f81146101ef57806304ef0a3d1461021e5780630b97bc8614610268578063112292b6146102985780631865c57d146102ba5780631a1e0927146102f15780631a8ba72f14610322578063209b5bc21461033557806322af00fa1461035e5780632d56657d146103ab5780633b887c961461041d5780633ccfd60b1461043057806346a4e92f1461044357806348179ee5146104a25780634b3ab9c5146104c1578063626a5b41146104e057806365f90fee146105175780636a50965c1461055e5780637420b9d41461057157806376740de0146105935780637b2386bb146105ba5780638da5cb5b146105d957806393e59dc1146105ec5780639548fd7d146105ff578063a0270dbc1461061f578063a1099bf214610638578063aa74dc751461064e578063b52eea7414610661578063bf68b81614610674578063c0ee0b8a14610687578063c19d93fb146106ec578063c20eec7b146106ff578063c24a0f8b14610715578063c6a8e72614610728578063c885bc5814610748578063d0e30db01461075b578063d2f0be991461076e578063e7519f2f14610784578063e7cdc27b146107a6578063eca41b89146107b9578063f1c23a76146107cc578063fc0c546a146107df575b600080fd5b34156101fa57600080fd5b6102026107f2565b604051600160a060020a03909116815260200160405180910390f35b341561022957600080fd5b610234600435610801565b60405167ffffffffffffffff909316835263ffffffff90911660208301526040808301919091526060909101905180910390f35b341561027357600080fd5b61027b61084b565b60405167ffffffffffffffff909116815260200160405180910390f35b34156102a357600080fd5b6102b867ffffffffffffffff6004351661085b565b005b34156102c557600080fd5b6102cd610963565b604051808260068111156102dd57fe5b60ff16815260200191505060405180910390f35b34156102fc57600080fd5b610310600160a060020a0360043516610a5c565b60405190815260200160405180910390f35b341561032d57600080fd5b610310610a6e565b341561034057600080fd5b610348610a74565b60405160ff909116815260200160405180910390f35b341561036957600080fd5b610374600435610a7d565b604051938452600160a060020a03909216602084015260ff1660408084019190915260608301919091526080909101905180910390f35b34156103b657600080fd5b6103ca600160a060020a0360043516610ad5565b60405160208082528190810183818151815260200191508051906020019060200280838360005b838110156104095780820151838201526020016103f1565b505050509050019250505060405180910390f35b341561042857600080fd5b610310610b59565b341561043b57600080fd5b6102b8610c03565b341561044e57600080fd5b6102b860048035600160a060020a03169060446024803590810190830135806020601f82018190048102016040519081016040528181529291906020840183838082843750949650610dae95505050505050565b34156104ad57600080fd5b610310600160a060020a0360043516610e8a565b34156104cc57600080fd5b610310600160a060020a0360043516610e9c565b34156104eb57600080fd5b6104f3610f1d565b60405180848152602001838152602001828152602001935050505060405180910390f35b341561052257600080fd5b6102b8600160a060020a036004358116906024358116906044351660643567ffffffffffffffff60843581169060a4351660ff60c43516611004565b341561056957600080fd5b6103486110ff565b341561057c57600080fd5b610310600160a060020a0360043516602435611108565b341561059e57600080fd5b6105a6611125565b604051901515815260200160405180910390f35b34156105c557600080fd5b610310600160a060020a0360043516611142565b34156105e457600080fd5b61020261115d565b34156105f757600080fd5b61020261116c565b341561060a57600080fd5b6102b867ffffffffffffffff6004351661117b565b341561062a57600080fd5b6102b860ff6004351661119f565b341561064357600080fd5b610310600435611320565b341561065957600080fd5b6103106114e7565b341561066c57600080fd5b610310611565565b341561067f57600080fd5b61020261156b565b341561069257600080fd5b6102b860048035600160a060020a03169060248035919060649060443590810190830135806020601f8201819004810201604051908101604052818152929190602084018383808284375094965061157a95505050505050565b34156106f757600080fd5b6102cd611608565b341561070a57600080fd5b6102b8600435611616565b341561072057600080fd5b61027b6117e6565b341561073357600080fd5b6102b867ffffffffffffffff60043516611802565b341561075357600080fd5b6102b861183a565b341561076657600080fd5b610310611934565b341561077957600080fd5b61031060043561193a565b341561078f57600080fd5b610310600160a060020a03600435166024356119ec565b34156107b157600080fd5b6105a6611a1a565b34156107c457600080fd5b610310611a1f565b34156107d757600080fd5b610310611a25565b34156107ea57600080fd5b610202611a2a565b600454600160a060020a031681565b600a80548290811061080f57fe5b60009182526020909120600290910201805460019091015467ffffffffffffffff821692506801000000000000000090910463ffffffff169083565b60075467ffffffffffffffff1681565b60015433600160a060020a0390811691161461087657600080fd5b6000600954610100900460ff16600681111561088e57fe5b1461089857600080fd5b600a8054600181016108aa83826120ad565b916000526020600020906002020160006060604051908101604090815267ffffffffffffffff86168252600060208301819052908201529190508151815467ffffffffffffffff191667ffffffffffffffff919091161781556020820151815463ffffffff9190911668010000000000000000026bffffffff00000000000000001990911617815560408201516001909101555050600954600a5460ff9091161415610960576009805461ff0019166101001790555b50565b60075460009067ffffffffffffffff1642101561099657600b54600090111561098e57506002610a59565b506001610a59565b600b5460009011156109e05760075468010000000000000000900467ffffffffffffffff164210156109ca57506003610a59565b600d5460ff90811614156109e057506004610a59565b600254600160a060020a03166370a082313060405160e060020a63ffffffff8416028152600160a060020a039091166004820152602401602060405180830381600087803b1515610a3057600080fd5b5af11515610a3d57600080fd5b505050604051805115159050610a5557506006610a59565b5060055b90565b60116020526000908152604090205481565b600b5490565b60095460ff1681565b600b805482908110610a8b57fe5b6000918252602090912060039091020180546001820154600290920154909250600160a060020a0382169174010000000000000000000000000000000000000000900460ff169084565b610add6120de565b600c600083600160a060020a0316600160a060020a03168152602001908152602001600020805480602002602001604051908101604052809291908181526020018280548015610b4c57602002820191906000526020600020905b815481526020019060010190808311610b38575b505050505090505b919050565b6004546000908190819032600160a060020a03908116911614610b7f5760009250610bfe565b6005600954610100900460ff166006811115610b9757fe5b14610ba55760009250610bfe565b610bad611a39565b9150610bc082606463ffffffff611a9516565b9050600654811015610be757600654610be090829063ffffffff611ab116565b9250610bfe565b600654610bfb90600263ffffffff611ac716565b92505b505090565b6000610c0d6120de565b600160a060020a0333166000908152600e602052604090205415610c3057600080fd5b610c3933610e9c565b915060008211610c4857600080fd5b42600f81905533600160a060020a038181166000908152600e60205260409081902093909355600254169163a9059cbb919085905160e060020a63ffffffff8516028152600160a060020a0390921660048301526024820152604401602060405180830381600087803b1515610cbd57600080fd5b5af11515610cca57600080fd5b50505060405180515050600054600160a060020a03166346a4e92f30836040518363ffffffff1660e060020a0281526004018083600160a060020a0316600160a060020a0316815260200180602001828103825283818151815260200191508051906020019080838360005b83811015610d4e578082015183820152602001610d36565b50505050905090810190601f168015610d7b5780820380516001836020036101000a031916815260200191505b509350505050600060405180830381600087803b1515610d9a57600080fd5b5af11515610da757600080fd5b5050505050565b813b600081118015610dd1575082600160a060020a031633600160a060020a0316145b1515610ddc57600080fd5b7fcbbecdace00991a8a26d8fc6085c610d5474f351252a818795d55a375a84bfa18383604051600160a060020a038316815260406020820181815290820183818151815260200191508051906020019080838360005b83811015610e4a578082015183820152602001610e32565b50505050905090810190601f168015610e775780820380516001836020036101000a031916815260200191505b50935050505060405180910390a1505050565b600e6020526000908152604090205481565b6000808080610eb9610eac610b59565b849063ffffffff611ab116565b9250610ec6610eac6114e7565b600160a060020a0332166000908152600c602052604081205491945090925090505b81811015610f1457610efc610eac82611320565b9250610f0a610eac8261193a565b9250600101610ee8565b50909392505050565b600d54600a805460009283928392839283928392839260ff16908110610f3f57fe5b9060005260206000209060020201600101549150600090505b60095460ff9081169082161015610ff857610f9f600a8260ff16815481101515610f7e57fe5b90600052602060002090600202016001015485611ab190919063ffffffff16565b600d5490945060ff82811691161415610fb757610ff0565b610fed600a8260ff16815481101515610fcc57fe5b90600052602060002090600202016001015484611ab190919063ffffffff16565b92505b600101610f58565b50919591945092509050565b60015433600160a060020a0390811691161461101f57600080fd5b60dc60ff82161061102f57600080fd5b67ffffffffffffffff808316908416111561104957600080fd5b6002805473ffffffffffffffffffffffffffffffffffffffff19908116600160a060020a03998a1617909155600380548216978916979097179096556004805490961694909616939093179093556006556007805467ffffffffffffffff191667ffffffffffffffff938416176fffffffffffffffff000000000000000019166801000000000000000093909216929092021790556009805460ff1990811660ff93841617909155600d80549091169091179055565b600d5460ff1681565b601060209081526000928352604080842090915290825290205481565b600160a060020a0332166000908152600c60205260408120541190565b600160a060020a03166000908152600c602052604090205490565b600154600160a060020a031681565b600354600160a060020a031681565b6007805467ffffffffffffffff191667ffffffffffffffff92909216919091179055565b6111a76120de565b6111af610963565b6009805461ff0019166101008360068111156111c757fe5b0217905550600354600160a060020a0316639b19251a3360405160e060020a63ffffffff8416028152600160a060020a039091166004820152602401602060405180830381600087803b151561121c57600080fd5b5af1151561122957600080fd5b50505060405180511515600114905061124157600080fd5b6004600954610100900460ff16600681111561125957fe5b1461126357600080fd5b60095460ff908116908316108061127e575060dc8260ff1610155b151561128957600080fd5b600d805460ff191660ff84161790556009805461ff001916610500179055600054600160a060020a03166346a4e92f30836040518363ffffffff1660e060020a0281526004018083600160a060020a0316600160a060020a03168152602001806020018281038252838181518152602001915080519060200190808383600083811015610d4e578082015183820152602001610d36565b60008080808080806005600954610100900460ff16600681111561134057fe5b1461134e57600096506114dc565b600160a060020a0332166000908152600c6020526040902054881061137257600080fd5b600160a060020a0332166000908152600c602052604090208054600b91908a90811061139a57fe5b600091825260209091200154815481106113b057fe5b60009182526020909120600d54600390920201600181015490975060ff918216740100000000000000000000000000000000000000009091049190911614156114d7576113fb611a1a565b1561144957600d54600a80546114429260ff1690811061141757fe5b6000918252602090912060029182020154908801549067ffffffffffffffff1663ffffffff611ac716565b96506114dc565b611451610f1d565b60028901549297509550935061146d908463ffffffff611a9516565b91506114cd6114a483611498606461148c89606363ffffffff611ac716565b9063ffffffff611a9516565b9063ffffffff611ac716565b6114c1606461148c60638b60020154611ac790919063ffffffff16565b9063ffffffff611ab116565b90508096506114dc565b600096505b505050505050919050565b600454600090819032600160a060020a0390811691161461150b5760009150611561565b6005600954610100900460ff16600681111561152357fe5b1415806115335750611533611af2565b156115415760009150611561565b611549611a39565b905080151561155b5760009150611561565b60065491505b5090565b600f5481565b600554600160a060020a031681565b60008060008351915081151561158f57611600565b6115998285611b00565b92506000199091019060ff831615156115b157611600565b8260ff16600114156115de576115c78285611b00565b90506001820391506115d98186611b0d565b611600565b8260ff16600214156115ef57600080fd5b8260ff16600314156101ea57600080fd5b505050505050565b600954610100900460ff1681565b60006116206120de565b600160a060020a03331660009081526010602090815260408083208684529091529020541561164e57600080fd5b61166361165a8461193a565b6114c185611320565b91506000821161167257600080fd5b42600f81905533600160a060020a038181166000908152600e60209081526040808320869055601082528083208984529091529081902093909355600254169163a9059cbb919085905160e060020a63ffffffff8516028152600160a060020a0390921660048301526024820152604401602060405180830381600087803b15156116fc57600080fd5b5af1151561170957600080fd5b50505060405180515050600054600160a060020a03166346a4e92f30836040518363ffffffff1660e060020a0281526004018083600160a060020a0316600160a060020a0316815260200180602001828103825283818151815260200191508051906020019080838360005b8381101561178d578082015183820152602001611775565b50505050905090810190601f1680156117ba5780820380516001836020036101000a031916815260200191505b509350505050600060405180830381600087803b15156117d957600080fd5b5af1151561160057600080fd5b60075468010000000000000000900467ffffffffffffffff1681565b6007805467ffffffffffffffff90921668010000000000000000026fffffffffffffffff000000000000000019909216919091179055565b60006118446120de565b60045432600160a060020a0390811691161461185f57600080fd5b600160a060020a0333166000908152601160205260409020541561188257600080fd5b61188a611af2565b61189b576118966114e7565b6118a3565b6118a3610b59565b9150600082116118b257600080fd5b42600f81905533600160a060020a038181166000908152600e6020908152604080832086905560119091529081902093909355600254169163a9059cbb919085905160e060020a63ffffffff8516028152600160a060020a0390921660048301526024820152604401602060405180830381600087803b1515610cbd57600080fd5b60065481565b60006005600954610100900460ff16600681111561195457fe5b1415806119645750611964611af2565b1561197157506000610b54565b600160a060020a0332166000908152600c6020526040902054821061199557600080fd5b600160a060020a0332166000908152600c602052604090208054600b9190849081106119bd57fe5b600091825260209091200154815481106119d357fe5b9060005260206000209060030201600201549050919050565b600c60205281600052604060002081815481101515611a0757fe5b6000918252602090912001549150829050565b600090565b60085481565b600181565b600254600160a060020a031681565b600080805b60095460ff9081169082161015611a8f57611a85600a8260ff16815481101515611a6457fe5b90600052602060002090600202016001015483611ab190919063ffffffff16565b9150600101611a3e565b50919050565b6000808284811515611aa357fe5b0490508091505b5092915050565b600082820183811015611ac057fe5b9392505050565b600080831515611ada5760009150611aaa565b50828202828482811515611aea57fe5b0414611ac057fe5b600d5460dc60ff9091161090565b6000828201519392505050565b611b156120de565b611b1d610963565b6009805461ff001916610100836006811115611b3557fe5b02179055506001600954610100900460ff166006811115611b5257fe5b1480611b7357506002600954610100900460ff166006811115611b7157fe5b145b1515611b7e57600080fd5b60008360ff1610158015611b9a575060095460ff908116908416105b1515611ba557600080fd5b6007546102571967ffffffffffffffff91821601164210611bc557600080fd5b600b805460018101611bd783826120f0565b9160005260206000209060030201600060806040519081016040908152428252600160a060020a033216602083015260ff8816908201526060810186905291905081518155602082015160018201805473ffffffffffffffffffffffffffffffffffffffff1916600160a060020a039290921691909117905560408201518160010160146101000a81548160ff021916908360ff16021790555060608201518160020155505050611cc26001600a8560ff16815481101515611c9557fe5b600091825260209091206002909102015463ffffffff6801000000000000000090910481169190611ab116565b600a805460ff8616908110611cd357fe5b906000526020600020906002020160000160086101000a81548163ffffffff021916908363ffffffff160217905550611d3882600a8560ff16815481101515611d1857fe5b906000526020600020906002020160010154611ab190919063ffffffff16565b600a805460ff8616908110611d4957fe5b600091825260208083206001600290930201820193909355600160a060020a0332168252600c90925260409020805490918101611d86838261211c565b5060009182526020909120600b54600019019101556009805461ff001916610200179055611db5610100611e69565b604051805910611dc25750595b818152601f19601f830116810160200160405290509050611df0611de7610100611e69565b600b5483611e7a565b600054600160a060020a03166346a4e92f30836040518363ffffffff1660e060020a0281526004018083600160a060020a0316600160a060020a0316815260200180602001828103825283818151815260200191508051906020019080838360008381101561178d578082015183820152602001611775565b6000611e7482611e80565b92915050565b90910152565b60008160088114611f8d5760108114611f965760188114611f9f5760208114611fa85760288114611fb15760308114611fba5760388114611fc35760408114611fcc5760488114611fd55760508114611fde5760588114611fe75760608114611ff05760688114611ff95760708114612002576078811461200b5760808114612014576088811461201d5760908114612026576098811461202f5760a081146120385760a881146120415760b0811461204a5760b881146120535760c0811461205c5760c881146120655760d0811461206e5760d881146120775760e081146120805760e881146120895760f081146120925760f8811461209b5761010081146120a45760209150611a8f565b60019150611a8f565b60029150611a8f565b60039150611a8f565b60049150611a8f565b60059150611a8f565b60069150611a8f565b60079150611a8f565b60089150611a8f565b60099150611a8f565b600a9150611a8f565b600b9150611a8f565b600c9150611a8f565b600d9150611a8f565b600e9150611a8f565b600f9150611a8f565b60109150611a8f565b60119150611a8f565b60129150611a8f565b60139150611a8f565b60149150611a8f565b60159150611a8f565b60169150611a8f565b60179150611a8f565b60189150611a8f565b60199150611a8f565b601a9150611a8f565b601b9150611a8f565b601c9150611a8f565b601d9150611a8f565b601e9150611a8f565b601f9150611a8f565b50602092915050565b8154818355818115116120d9576002028160020283600052602060002091820191016120d99190612140565b505050565b60206040519081016040526000815290565b8154818355818115116120d9576003028160030283600052602060002091820191016120d99190612170565b8154818355818115116120d9576000838152602090206120d99181019083016121b0565b610a5991905b808211156115615780546bffffffffffffffffffffffff1916815560006001820155600201612146565b610a5991905b8082111561156157600080825560018201805474ffffffffffffffffffffffffffffffffffffffffff191690556002820155600301612176565b610a5991905b8082111561156157600081556001016121b65600a165627a7a72305820eccd03e111dbfd84be4b273070940f82a83116b695dbdcfb9c9e47c3a9ad0cc00029",
  "source": "pragma solidity ^0.4.2;\n\nimport \"../EventBase.sol\";\n\ncontract TestEventBase is EventBase {\n    function TestEventBase(address _token) EventBase(_token) {}\n\n    function setStartDate(uint64 _startDate) public {\n        startDate = _startDate;\n    }\n\n    function setEndDate(uint64 _endDate) public {\n        endDate = _endDate;\n    }\n\n    event Updated(address _contract, bytes _data);\n}\n",
  "sourcePath": "/home/dmitrya2e/Work/Projects/ProofOfToss/Code/proof-of-toss/contracts/test/TestEventBase.sol",
  "compiler": {
    "name": "solc",
    "version": "0.4.21+commit.dfe3193c.Emscripten.clang"
  },
  "schemaVersion": "2.0.0",
  "updatedAt": "2018-05-28T10:22:19.614Z"
}