{
  "contractName": "TestSafeMathToken",
  "abi": [
    {
      "constant": true,
      "inputs": [],
      "name": "name",
      "outputs": [
        {
          "name": "",
          "type": "string"
        }
      ],
      "payable": false,
      "stateMutability": "view",
      "type": "function"
    },
    {
      "constant": true,
      "inputs": [],
      "name": "decimals",
      "outputs": [
        {
          "name": "",
          "type": "uint8"
        }
      ],
      "payable": false,
      "stateMutability": "view",
      "type": "function"
    },
    {
      "constant": true,
      "inputs": [],
      "name": "standard",
      "outputs": [
        {
          "name": "",
          "type": "string"
        }
      ],
      "payable": false,
      "stateMutability": "view",
      "type": "function"
    },
    {
      "constant": true,
      "inputs": [
        {
          "name": "",
          "type": "address"
        }
      ],
      "name": "balanceOf",
      "outputs": [
        {
          "name": "",
          "type": "uint256"
        }
      ],
      "payable": false,
      "stateMutability": "view",
      "type": "function"
    },
    {
      "constant": true,
      "inputs": [],
      "name": "symbol",
      "outputs": [
        {
          "name": "",
          "type": "string"
        }
      ],
      "payable": false,
      "stateMutability": "view",
      "type": "function"
    },
    {
      "constant": false,
      "inputs": [
        {
          "name": "_user",
          "type": "address"
        },
        {
          "name": "_value",
          "type": "uint256"
        }
      ],
      "name": "generateTokens",
      "outputs": [],
      "payable": false,
      "stateMutability": "nonpayable",
      "type": "function"
    },
    {
      "constant": false,
      "inputs": [
        {
          "name": "to",
          "type": "address"
        },
        {
          "name": "value",
          "type": "uint256"
        }
      ],
      "name": "transfer",
      "outputs": [],
      "payable": false,
      "stateMutability": "nonpayable",
      "type": "function"
    }
  ],
  "bytecode": "0x606060405260408051908101604052600981527f546f6b656e20302e3100000000000000000000000000000000000000000000006020820152600090805161004b9291602001906100f9565b5060408051908101604052600481527f544f535300000000000000000000000000000000000000000000000000000000602082015260019080516100939291602001906100f9565b5060408051908101604052600481527f544f535300000000000000000000000000000000000000000000000000000000602082015260029080516100db9291602001906100f9565b506003805460ff1916600417905534156100f457600080fd5b610194565b828054600181600116156101000203166002900490600052602060002090601f016020900481019282601f1061013a57805160ff1916838001178555610167565b82800160010185558215610167579182015b8281111561016757825182559160200191906001019061014c565b50610173929150610177565b5090565b61019191905b80821115610173576000815560010161017d565b90565b61045a806101a36000396000f3006060604052600436106100825763ffffffff7c010000000000000000000000000000000000000000000000000000000060003504166306fdde038114610087578063313ce567146101115780635a3b7e421461013a57806370a082311461014d578063827f32c01461017e57806395d89b41146101a2578063a9059cbb146101b5575b600080fd5b341561009257600080fd5b61009a6101d7565b60405160208082528190810183818151815260200191508051906020019080838360005b838110156100d65780820151838201526020016100be565b50505050905090810190601f1680156101035780820380516001836020036101000a031916815260200191505b509250505060405180910390f35b341561011c57600080fd5b610124610275565b60405160ff909116815260200160405180910390f35b341561014557600080fd5b61009a61027e565b341561015857600080fd5b61016c600160a060020a03600435166102e9565b60405190815260200160405180910390f35b341561018957600080fd5b6101a0600160a060020a03600435166024356102fb565b005b34156101ad57600080fd5b61009a61031d565b34156101c057600080fd5b6101a0600160a060020a0360043516602435610388565b60018054600181600116156101000203166002900480601f01602080910402602001604051908101604052809291908181526020018280546001816001161561010002031660029004801561026d5780601f106102425761010080835404028352916020019161026d565b820191906000526020600020905b81548152906001019060200180831161025057829003601f168201915b505050505081565b60035460ff1681565b60008054600181600116156101000203166002900480601f01602080910402602001604051908101604052809291908181526020018280546001816001161561010002031660029004801561026d5780601f106102425761010080835404028352916020019161026d565b60046020526000908152604090205481565b600160a060020a03909116600090815260046020526040902080549091019055565b60028054600181600116156101000203166002900480601f01602080910402602001604051908101604052809291908181526020018280546001816001161561010002031660029004801561026d5780601f106102425761010080835404028352916020019161026d565b600160a060020a0333166000908152600460205260409020546103b1908263ffffffff61040616565b600160a060020a0333811660009081526004602052604080822093909355908416815220546103e6908263ffffffff61041816565b600160a060020a0390921660009081526004602052604090209190915550565b60008282111561041257fe5b50900390565b60008282018381101561042757fe5b93925050505600a165627a7a72305820363b62ced7856410d3566e4e1a54de1aafe7f3daedd0016cf53ad891d667b19d0029",
  "source": "pragma solidity ^0.4.2;\n\nimport \"../../installed_contracts/SafeMath.sol\";\n\ncontract TestSafeMathToken {\n\n    using SafeMath for uint;\n\n    string public standard = 'Token 0.1';\n    string public name = 'TOSS';\n    string public symbol = 'TOSS';\n    uint8 public decimals = 4;\n\n    mapping (address => uint256) public balanceOf;\n\n    function generateTokens(address _user, uint256 _value) public {\n        balanceOf[_user] += _value;\n    }\n\n    function transfer(address to, uint value) {\n        balanceOf[msg.sender] = balanceOf[msg.sender].sub(value);\n        balanceOf[to] = balanceOf[to].add(value);\n    }\n}\n",
  "sourcePath": "/home/dmitrya2e/Work/Projects/ProofOfToss/Code/proof-of-toss/contracts/test/TestSafeMath/TestSafeMathToken.sol",
  "compiler": {
    "name": "solc",
    "version": "0.4.21+commit.dfe3193c.Emscripten.clang"
  },
  "schemaVersion": "2.0.0",
  "updatedAt": "2018-05-28T10:18:58.977Z"
}