{
  "contractName": "TestSafeMath",
  "abi": [
    {
      "constant": true,
      "inputs": [
        {
          "name": "",
          "type": "uint256"
        }
      ],
      "name": "possibleResults",
      "outputs": [
        {
          "name": "customCoefficient",
          "type": "uint64"
        },
        {
          "name": "betCount",
          "type": "uint32"
        },
        {
          "name": "betSum",
          "type": "uint64"
        },
        {
          "name": "voteSum",
          "type": "uint64"
        }
      ],
      "payable": false,
      "stateMutability": "view",
      "type": "function"
    },
    {
      "constant": true,
      "inputs": [
        {
          "name": "",
          "type": "uint256"
        }
      ],
      "name": "bets",
      "outputs": [
        {
          "name": "timestamp",
          "type": "uint256"
        },
        {
          "name": "bettor",
          "type": "address"
        },
        {
          "name": "result",
          "type": "uint8"
        },
        {
          "name": "amount",
          "type": "uint64"
        }
      ],
      "payable": false,
      "stateMutability": "view",
      "type": "function"
    },
    {
      "constant": true,
      "inputs": [],
      "name": "resolvedResult",
      "outputs": [
        {
          "name": "",
          "type": "uint8"
        }
      ],
      "payable": false,
      "stateMutability": "view",
      "type": "function"
    },
    {
      "constant": true,
      "inputs": [],
      "name": "owner",
      "outputs": [
        {
          "name": "",
          "type": "address"
        }
      ],
      "payable": false,
      "stateMutability": "view",
      "type": "function"
    },
    {
      "constant": true,
      "inputs": [],
      "name": "deposit",
      "outputs": [
        {
          "name": "",
          "type": "uint64"
        }
      ],
      "payable": false,
      "stateMutability": "view",
      "type": "function"
    },
    {
      "constant": true,
      "inputs": [
        {
          "name": "",
          "type": "address"
        }
      ],
      "name": "votes",
      "outputs": [
        {
          "name": "voter",
          "type": "address"
        },
        {
          "name": "result",
          "type": "uint8"
        },
        {
          "name": "deposit",
          "type": "uint64"
        }
      ],
      "payable": false,
      "stateMutability": "view",
      "type": "function"
    },
    {
      "constant": true,
      "inputs": [
        {
          "name": "",
          "type": "address"
        },
        {
          "name": "",
          "type": "uint256"
        }
      ],
      "name": "usersBets",
      "outputs": [
        {
          "name": "",
          "type": "uint256"
        }
      ],
      "payable": false,
      "stateMutability": "view",
      "type": "function"
    },
    {
      "constant": true,
      "inputs": [],
      "name": "token",
      "outputs": [
        {
          "name": "",
          "type": "address"
        }
      ],
      "payable": false,
      "stateMutability": "view",
      "type": "function"
    },
    {
      "inputs": [],
      "payable": false,
      "stateMutability": "nonpayable",
      "type": "constructor"
    },
    {
      "constant": false,
      "inputs": [
        {
          "name": "customCoefficient",
          "type": "uint64"
        }
      ],
      "name": "addResult",
      "outputs": [],
      "payable": false,
      "stateMutability": "nonpayable",
      "type": "function"
    },
    {
      "constant": false,
      "inputs": [],
      "name": "generateTokens",
      "outputs": [],
      "payable": true,
      "stateMutability": "payable",
      "type": "function"
    },
    {
      "constant": true,
      "inputs": [],
      "name": "getEventBalance",
      "outputs": [
        {
          "name": "",
          "type": "uint256"
        }
      ],
      "payable": false,
      "stateMutability": "view",
      "type": "function"
    },
    {
      "constant": true,
      "inputs": [
        {
          "name": "user",
          "type": "address"
        }
      ],
      "name": "getBalance",
      "outputs": [
        {
          "name": "",
          "type": "uint256"
        }
      ],
      "payable": false,
      "stateMutability": "view",
      "type": "function"
    },
    {
      "constant": false,
      "inputs": [],
      "name": "withdrawEventCreator",
      "outputs": [
        {
          "name": "",
          "type": "bool"
        }
      ],
      "payable": false,
      "stateMutability": "nonpayable",
      "type": "function"
    },
    {
      "constant": true,
      "inputs": [],
      "name": "calculateHalfPercentBetsSum",
      "outputs": [
        {
          "name": "",
          "type": "uint256"
        }
      ],
      "payable": false,
      "stateMutability": "view",
      "type": "function"
    },
    {
      "constant": false,
      "inputs": [],
      "name": "withdrawBettorA",
      "outputs": [
        {
          "name": "",
          "type": "uint256"
        }
      ],
      "payable": false,
      "stateMutability": "nonpayable",
      "type": "function"
    },
    {
      "constant": false,
      "inputs": [],
      "name": "withdrawBettorB",
      "outputs": [
        {
          "name": "",
          "type": "uint256"
        }
      ],
      "payable": false,
      "stateMutability": "nonpayable",
      "type": "function"
    },
    {
      "constant": true,
      "inputs": [],
      "name": "withdrawVoter0",
      "outputs": [
        {
          "name": "",
          "type": "uint256"
        }
      ],
      "payable": false,
      "stateMutability": "view",
      "type": "function"
    },
    {
      "constant": true,
      "inputs": [],
      "name": "withdrawVoter26",
      "outputs": [
        {
          "name": "",
          "type": "uint256"
        }
      ],
      "payable": false,
      "stateMutability": "view",
      "type": "function"
    },
    {
      "constant": true,
      "inputs": [],
      "name": "withdrawVoter46",
      "outputs": [
        {
          "name": "",
          "type": "uint256"
        }
      ],
      "payable": false,
      "stateMutability": "view",
      "type": "function"
    },
    {
      "constant": true,
      "inputs": [],
      "name": "calculateIncorrectVotesSum",
      "outputs": [
        {
          "name": "",
          "type": "uint64"
        }
      ],
      "payable": false,
      "stateMutability": "view",
      "type": "function"
    }
  ],
  "bytecode": "0x606060405234156200001057600080fd5b6200001a62000b7e565b604051809103906000f08015156200003157600080fd5b60008054600160a060020a0319908116600160a060020a039384161790915560018054909116339092169190911760a060020a60e060020a031916760f424000000000000000000000000000000000000000001760e060020a60ff0219169055620000ab601e640100000000620007728102620004561704565b620000c56046640100000000620004566200077282021704565b620000f87314723a09acff6d2a60dcdf7aa4aff308fddc160c6000620f424064010000000062000eaa6200088382021704565b6200012b734b0897b0513fdc7c541b6d9d7e929c4e5364d2db6001621e848064010000000062000eaa6200088382021704565b6200015e73583031d1113ad414f02576bd6afabfb30214022560016207a12064010000000062000eaa6200088382021704565b6200017d600060016103e86401000000006200108962000a4b82021704565b6200019c600060026103e86401000000006200108962000a4b82021704565b620001bb600060036103e86401000000006200108962000a4b82021704565b620001da600060046103e86401000000006200108962000a4b82021704565b620001f9600060056103e86401000000006200108962000a4b82021704565b62000218600060066103e86401000000006200108962000a4b82021704565b62000237600060076103e86401000000006200108962000a4b82021704565b62000256600060086103e86401000000006200108962000a4b82021704565b62000275600060096103e86401000000006200108962000a4b82021704565b62000294600060106103e86401000000006200108962000a4b82021704565b620002b3600060116103e86401000000006200108962000a4b82021704565b620002d2600060126103e86401000000006200108962000a4b82021704565b620002f1600060136103e86401000000006200108962000a4b82021704565b62000310600060146103e86401000000006200108962000a4b82021704565b6200032f600060156103e86401000000006200108962000a4b82021704565b6200034e600060166103e86401000000006200108962000a4b82021704565b6200036d600060176103e86401000000006200108962000a4b82021704565b6200038c600060186103e86401000000006200108962000a4b82021704565b620003ab600060196103e86401000000006200108962000a4b82021704565b620003ca600060206103e86401000000006200108962000a4b82021704565b620003e9600060216103e86401000000006200108962000a4b82021704565b62000408600060226103e86401000000006200108962000a4b82021704565b62000427600060236103e86401000000006200108962000a4b82021704565b62000446600060246103e86401000000006200108962000a4b82021704565b62000465600060256103e86401000000006200108962000a4b82021704565b62000484600060266107d06401000000006200108962000a4b82021704565b620004a3600060276107d06401000000006200108962000a4b82021704565b620004c2600060286107d06401000000006200108962000a4b82021704565b620004e1600060296107d06401000000006200108962000a4b82021704565b62000500600060306107d06401000000006200108962000a4b82021704565b6200051f600060316107d06401000000006200108962000a4b82021704565b6200053e600060326107d06401000000006200108962000a4b82021704565b6200055d600060336107d06401000000006200108962000a4b82021704565b6200057c600060346107d06401000000006200108962000a4b82021704565b6200059b600060356107d06401000000006200108962000a4b82021704565b620005ba600060366107d06401000000006200108962000a4b82021704565b620005d9600060376107d06401000000006200108962000a4b82021704565b620005f8600060386107d06401000000006200108962000a4b82021704565b62000617600060396107d06401000000006200108962000a4b82021704565b62000636600060406107d06401000000006200108962000a4b82021704565b62000655600060416107d06401000000006200108962000a4b82021704565b62000674600060426107d06401000000006200108962000a4b82021704565b62000693600060436107d06401000000006200108962000a4b82021704565b620006b2600060446107d06401000000006200108962000a4b82021704565b620006d1600060456107d06401000000006200108962000a4b82021704565b620006f0600160466107d06401000000006200108962000a4b82021704565b6200070f600160476107d06401000000006200108962000a4b82021704565b6200072e600160486107d06401000000006200108962000a4b82021704565b6200074d600160496107d06401000000006200108962000a4b82021704565b6200076c600160506107d06401000000006200108962000a4b82021704565b62000cbb565b600280546001810162000786838262000b8f565b91600052602060002090016000608060405190810160409081526001604060020a038616825260006020830181905290820181905260608201529190508151815467ffffffffffffffff19166001604060020a03919091161781556020820151815463ffffffff919091166801000000000000000002604060020a63ffffffff0219909116178155604082015181546001604060020a03919091166c0100000000000000000000000002606060020a60a060020a0319909116178155606082015181546001604060020a0391909116740100000000000000000000000000000000000000000260a060020a60e060020a0319909116179055505050565b600380546001810162000897838262000bbb565b9160005260206000209060020201600060806040519081016040908152428252600160a060020a038816602083015260ff8716908201526001604060020a0385166060820152919050815181556020820151600182018054600160a060020a031916600160a060020a039290921691909117905560408201518160010160146101000a81548160ff021916908360ff16021790555060608201518160010160156101000a8154816001604060020a0302191690836001604060020a03160217905550505050600160028360ff168154811015156200097157fe5b6000918252602090912001805463ffffffff68010000000000000000808304821690940116909202604060020a63ffffffff02199092169190911790556002805482919060ff8516908110620009c357fe5b6000918252602080832090910180546001604060020a036c01000000000000000000000000808304821690960116909402606060020a60a060020a031990941693909317909255600160a060020a038516815260049091526040902080546001810162000a31838262000bea565b506000918252602090912060035460001901910155505050565b60606040519081016040908152600160a060020a03841680835260ff86166020808501919091526001604060020a038516838501526000918252600590522081518154600160a060020a031916600160a060020a03919091161781556020820151815460ff91909116740100000000000000000000000000000000000000000260a060020a60ff0219909116178155604082015181546001604060020a039190911675010000000000000000000000000000000000000000000260a860020a60e860020a0319909116179055506002805482919060ff861690811062000b2d57fe5b600091825260209091200180546001604060020a037401000000000000000000000000000000000000000080830482169094011690920260a060020a60e060020a0319909216919091179055505050565b6040516105fd8062001f7183390190565b81548183558181151162000bb65760008381526020902062000bb691810190830162000c11565b505050565b81548183558181151162000bb65760020281600202836000526020600020918201910162000bb6919062000c57565b81548183558181151162000bb65760008381526020902062000bb691810190830162000c9e565b62000c5491905b8082111562000c505780547fffffffff0000000000000000000000000000000000000000000000000000000016815560010162000c18565b5090565b90565b62000c5491905b8082111562000c5057600081556001810180547fffffff000000000000000000000000000000000000000000000000000000000016905560020162000c5e565b62000c5491905b8082111562000c50576000815560010162000ca5565b6112a68062000ccb6000396000f3006060604052600436106100f85763ffffffff60e060020a60003504166304ef0a3d81146100fd5780630ca83fce1461014f578063112292b6146101745780632150b3b91461019657806322af00fa146101a957806351e37f64146101ff57806369410cad146102265780636a50965c146102395780638da5cb5b14610262578063a5e3304814610291578063ae13f5be14610299578063c738e017146102ac578063cdf72dc3146102bf578063d0e30db0146102ef578063d81c3bcb14610302578063d8bff5a514610315578063e7519f2f1461036e578063efff8e8114610390578063f8b2cb4f146103a3578063fc0c546a146103c2575b600080fd5b341561010857600080fd5b6101136004356103d5565b60405167ffffffffffffffff948516815263ffffffff909316602084015290831660408084019190915292166060820152608001905180910390f35b341561015a57600080fd5b61016261042f565b60405190815260200160405180910390f35b341561017f57600080fd5b61019467ffffffffffffffff60043516610456565b005b34156101a157600080fd5b610162610576565b34156101b457600080fd5b6101bf600435610582565b604051938452600160a060020a03909216602084015260ff1660408084019190915267ffffffffffffffff90911660608301526080909101905180910390f35b341561020a57600080fd5b6102126105d5565b604051901515815260200160405180910390f35b341561023157600080fd5b6101626106d8565b341561024457600080fd5b61024c6106e4565b60405160ff909116815260200160405180910390f35b341561026d57600080fd5b6102756106f4565b604051600160a060020a03909116815260200160405180910390f35b610194610703565b34156102a457600080fd5b61016261076e565b34156102b757600080fd5b6101626107da565b34156102ca57600080fd5b6102d26107e6565b60405167ffffffffffffffff909116815260200160405180910390f35b34156102fa57600080fd5b6102d2610859565b341561030d57600080fd5b610162610870565b341561032057600080fd5b610334600160a060020a03600435166108ed565b604051600160a060020a03909316835260ff909116602083015267ffffffffffffffff166040808301919091526060909101905180910390f35b341561037957600080fd5b610162600160a060020a0360043516602435610926565b341561039b57600080fd5b610162610954565b34156103ae57600080fd5b610162600160a060020a0360043516610975565b34156103cd57600080fd5b6102756109e2565b60028054829081106103e357fe5b60009182526020909120015467ffffffffffffffff808216925063ffffffff68010000000000000000830416916c01000000000000000000000000810482169160a060020a9091041684565b60006104506001734b0897b0513fdc7c541b6d9d7e929c4e5364d2db6109f1565b90505b90565b60028054600181016104688382610e4f565b916000526020600020900160006080604051908101604090815267ffffffffffffffff8616825260006020830181905290820181905260608201529190508151815467ffffffffffffffff191667ffffffffffffffff919091161781556020820151815463ffffffff9190911668010000000000000000026bffffffff0000000000000000199091161781556040820151815467ffffffffffffffff919091166c010000000000000000000000000273ffffffffffffffff000000000000000000000000199091161781556060820151815467ffffffffffffffff9190911660a060020a027bffffffffffffffff000000000000000000000000000000000000000019909116179055505050565b60006104506001610bdb565b600380548290811061059057fe5b600091825260209091206002909102018054600190910154909150600160a060020a0381169060a060020a810460ff169060a860020a900467ffffffffffffffff1684565b60015460009060a060020a900467ffffffffffffffff166105f4610d4e565b016000548190600160a060020a03166370a082313060405160e060020a63ffffffff8416028152600160a060020a039091166004820152602401602060405180830381600087803b151561064757600080fd5b5af1151561065457600080fd5b5050506040518051905011151561066757fe5b600054600154600160a060020a039182169163a9059cbb91168360405160e060020a63ffffffff8516028152600160a060020a0390921660048301526024820152604401600060405180830381600087803b15156106c457600080fd5b5af115156106d157600080fd5b5050505090565b60006104506026610bdb565b60015460e060020a900460ff1681565b600154600160a060020a031681565b600054600160a060020a031663827f32c0306245cf1860405160e060020a63ffffffff8516028152600160a060020a0390921660048301526024820152604401600060405180830381600087803b151561075c57600080fd5b5af1151561076957600080fd5b505050565b60008054600160a060020a03166370a082313060405160e060020a63ffffffff8416028152600160a060020a039091166004820152602401602060405180830381600087803b15156107bf57600080fd5b5af115156107cc57600080fd5b505050604051805191505090565b60006104506046610bdb565b60025460009081805b828160ff1610156108525760015460ff82811660e060020a9092041614156108165761084a565b6002805460ff831690811061082757fe5b60009182526020909120015460a060020a900467ffffffffffffffff1691909101905b6001016107ef565b5092915050565b60015460a060020a900467ffffffffffffffff1681565b60025460009081805b828110156108c257600280548290811061088f57fe5b6000918252602090912001546c01000000000000000000000000900467ffffffffffffffff169190910190600101610879565b6108e56103e86108d984600563ffffffff610d9a16565b9063ffffffff610dcc16565b935050505090565b600560205260009081526040902054600160a060020a0381169060a060020a810460ff169060a860020a900467ffffffffffffffff1683565b60046020528160005260406000208181548110151561094157fe5b6000918252602090912001549150829050565b600061045060007314723a09acff6d2a60dcdf7aa4aff308fddc160c6109f1565b60008054600160a060020a03166370a082318360405160e060020a63ffffffff8416028152600160a060020a039091166004820152602401602060405180830381600087803b15156109c657600080fd5b5af115156109d357600080fd5b50505060405180519392505050565b600054600160a060020a031681565b600080600080600080600388815481101515610a0957fe5b600091825260209091206002909102016001810154909550600160a060020a03888116911614610a3557fe5b600180549086015460a060020a900460ff90811660e060020a9092041614610a5957fe5b610a61610de3565b600154600280549296509160e060020a90910460ff16908110610a8057fe5b600091825260209091200154600186015463ffffffff680100000000000000009092048216945067ffffffffffffffff60a860020a9091041692508390610ad3906064906108d9908890606390610d9a16565b811515610adc57fe5b04610af360646108d985606363ffffffff610d9a16565b600054910191508190600160a060020a03166370a082313060405160e060020a63ffffffff8416028152600160a060020a039091166004820152602401602060405180830381600087803b1515610b4957600080fd5b5af11515610b5657600080fd5b50505060405180519050111515610b6957fe5b600054600160a060020a031663a9059cbb888360405160e060020a63ffffffff8516028152600160a060020a0390921660048301526024820152604401600060405180830381600087803b1515610bbf57600080fd5b5af11515610bcc57600080fd5b50919998505050505050505050565b600160a060020a038116600090815260056020526040812060015481548391829182918291829160e060020a900460ff90811660a060020a9092041614610c1e57fe5b610c26610870565b9450610c306107e6565b8654600280549296509160a060020a90910460ff16908110610c4e57fe5b6000918252602090912001805460015491945067ffffffffffffffff60a060020a918290048116945086811688019350910416851115610ca05760015460a060020a900467ffffffffffffffff168503015b600160a060020a03881660009081526005602052604090205467ffffffffffffffff60a860020a90910481169190910290821681811515610cdd57fe5b87546000549290910460a860020a90910467ffffffffffffffff16019150600160a060020a031663a9059cbb898360405160e060020a63ffffffff8516028152600160a060020a0390921660048301526024820152604401600060405180830381600087803b1515610bbf57600080fd5b600080610d59610870565b60015490915060a060020a900467ffffffffffffffff16811015610d7f57809150610d96565b60015460a060020a900467ffffffffffffffff1691505b5090565b600080831515610dad5760009150610852565b50828202828482811515610dbd57fe5b0414610dc557fe5b9392505050565b6000808284811515610dda57fe5b04949350505050565b60025460009081805b828110156108525760015460e060020a900460ff16811415610e0d57610e47565b6002805482908110610e1b57fe5b6000918252602090912001546c01000000000000000000000000900467ffffffffffffffff1691909101905b600101610dec565b8154818355818115116107695760008381526020902061076991810190830161045391905b80821115610d965780547fffffffff00000000000000000000000000000000000000000000000000000000168155600101610e74565b6003805460018101610ebc83826111cc565b9160005260206000209060020201600060806040519081016040908152428252600160a060020a038816602083015260ff87169082015267ffffffffffffffff8516606082015291905081518155602082015160018201805473ffffffffffffffffffffffffffffffffffffffff1916600160a060020a039290921691909117905560408201518160010160146101000a81548160ff021916908360ff16021790555060608201518160010160156101000a81548167ffffffffffffffff021916908367ffffffffffffffff160217905550505050600160028360ff16815481101515610fa557fe5b6000918252602090912001805463ffffffff680100000000000000008083048216909401169092026bffffffff0000000000000000199092169190911790556002805482919060ff8516908110610ff857fe5b60009182526020808320909101805467ffffffffffffffff6c0100000000000000000000000080830482169096011690940273ffffffffffffffff0000000000000000000000001990941693909317909255600160a060020a038516815260049091526040902080546001810161106f83826111f8565b506000918252602090912060035460001901910155505050565b60606040519081016040908152600160a060020a03841680835260ff861660208085019190915267ffffffffffffffff851683850152600091825260059052208151815473ffffffffffffffffffffffffffffffffffffffff1916600160a060020a03919091161781556020820151815460ff9190911660a060020a0274ff0000000000000000000000000000000000000000199091161781556040820151815467ffffffffffffffff9190911660a860020a027fffffff0000000000000000ffffffffffffffffffffffffffffffffffffffffff909116179055506002805482919060ff861690811061117957fe5b6000918252602090912001805467ffffffffffffffff60a060020a8083048216909401169092027bffffffffffffffff000000000000000000000000000000000000000019909216919091179055505050565b81548183558181151161076957600202816002028360005260206000209182019101610769919061121c565b81548183558181151161076957600083815260209020610769918101908301611260565b61045391905b80821115610d9657600081556001810180547fffffff0000000000000000000000000000000000000000000000000000000000169055600201611222565b61045391905b80821115610d9657600081556001016112665600a165627a7a7230582096552760eda105097384a45095d17ae1be557bb135fba5d694a2640d0367a13a0029606060405260408051908101604052600981527f546f6b656e20302e3100000000000000000000000000000000000000000000006020820152600090805161004b9291602001906100f9565b5060408051908101604052600481527f544f535300000000000000000000000000000000000000000000000000000000602082015260019080516100939291602001906100f9565b5060408051908101604052600481527f544f535300000000000000000000000000000000000000000000000000000000602082015260029080516100db9291602001906100f9565b506003805460ff1916600417905534156100f457600080fd5b610194565b828054600181600116156101000203166002900490600052602060002090601f016020900481019282601f1061013a57805160ff1916838001178555610167565b82800160010185558215610167579182015b8281111561016757825182559160200191906001019061014c565b50610173929150610177565b5090565b61019191905b80821115610173576000815560010161017d565b90565b61045a806101a36000396000f3006060604052600436106100825763ffffffff7c010000000000000000000000000000000000000000000000000000000060003504166306fdde038114610087578063313ce567146101115780635a3b7e421461013a57806370a082311461014d578063827f32c01461017e57806395d89b41146101a2578063a9059cbb146101b5575b600080fd5b341561009257600080fd5b61009a6101d7565b60405160208082528190810183818151815260200191508051906020019080838360005b838110156100d65780820151838201526020016100be565b50505050905090810190601f1680156101035780820380516001836020036101000a031916815260200191505b509250505060405180910390f35b341561011c57600080fd5b610124610275565b60405160ff909116815260200160405180910390f35b341561014557600080fd5b61009a61027e565b341561015857600080fd5b61016c600160a060020a03600435166102e9565b60405190815260200160405180910390f35b341561018957600080fd5b6101a0600160a060020a03600435166024356102fb565b005b34156101ad57600080fd5b61009a61031d565b34156101c057600080fd5b6101a0600160a060020a0360043516602435610388565b60018054600181600116156101000203166002900480601f01602080910402602001604051908101604052809291908181526020018280546001816001161561010002031660029004801561026d5780601f106102425761010080835404028352916020019161026d565b820191906000526020600020905b81548152906001019060200180831161025057829003601f168201915b505050505081565b60035460ff1681565b60008054600181600116156101000203166002900480601f01602080910402602001604051908101604052809291908181526020018280546001816001161561010002031660029004801561026d5780601f106102425761010080835404028352916020019161026d565b60046020526000908152604090205481565b600160a060020a03909116600090815260046020526040902080549091019055565b60028054600181600116156101000203166002900480601f01602080910402602001604051908101604052809291908181526020018280546001816001161561010002031660029004801561026d5780601f106102425761010080835404028352916020019161026d565b600160a060020a0333166000908152600460205260409020546103b1908263ffffffff61040616565b600160a060020a0333811660009081526004602052604080822093909355908416815220546103e6908263ffffffff61041816565b600160a060020a0390921660009081526004602052604090209190915550565b60008282111561041257fe5b50900390565b60008282018381101561042757fe5b93925050505600a165627a7a72305820cde3cbb27a870b2d29854a3e6fdd1a04685d6690bdf52656b26ad2451d73bfe40029",
  "source": "pragma solidity ^0.4.2;\n\nimport \"./TestSafeMathToken.sol\";\nimport \"../../installed_contracts/SafeMath.sol\";\n\ncontract TestSafeMath {\n\n    using SafeMath for uint256;\n\n    TestSafeMathToken public token;\n    address public owner;\n    uint64 public deposit;\n    uint8 public resolvedResult;\n\n    struct Result {\n        uint64 customCoefficient;\n        uint32 betCount;\n        uint64 betSum;\n        uint64 voteSum;\n    }\n\n    struct Bet {\n        uint timestamp;\n        address bettor;\n        uint8 result;\n        uint64 amount;\n    }\n\n    struct Vote {\n        address voter;\n        uint8 result;\n        uint64 deposit;\n    }\n\n    Result[] public possibleResults;\n    Bet[] public bets;\n    mapping (address => uint[]) public usersBets;\n    mapping (address => Vote) public votes;\n\n    function TestSafeMath() public {\n        token = new TestSafeMathToken();\n\n        owner = msg.sender;\n        deposit = 1000000;\n        resolvedResult = 0;\n\n        addResult(30);\n        addResult(70);\n\n        addBet(0x14723a09acff6d2a60dcdf7aa4aff308fddc160c, 0, 1000000);\n        addBet(0x4b0897b0513fdc7c541b6d9d7e929c4e5364d2db, 1, 2000000);\n        addBet(0x583031d1113ad414f02576bd6afabfb302140225, 1, 500000);\n\n        //Correct voice with 0.1 deposit\n        addVote(0, 0x1, 1000);\n        addVote(0, 0x2, 1000);\n        addVote(0, 0x3, 1000);\n        addVote(0, 0x4, 1000);\n        addVote(0, 0x5, 1000);\n        addVote(0, 0x6, 1000);\n        addVote(0, 0x7, 1000);\n        addVote(0, 0x8, 1000);\n        addVote(0, 0x9, 1000);\n        addVote(0, 0x10, 1000);\n        addVote(0, 0x11, 1000);\n        addVote(0, 0x12, 1000);\n        addVote(0, 0x13, 1000);\n        addVote(0, 0x14, 1000);\n        addVote(0, 0x15, 1000);\n        addVote(0, 0x16, 1000);\n        addVote(0, 0x17, 1000);\n        addVote(0, 0x18, 1000);\n        addVote(0, 0x19, 1000);\n        addVote(0, 0x20, 1000);\n        addVote(0, 0x21, 1000);\n        addVote(0, 0x22, 1000);\n        addVote(0, 0x23, 1000);\n        addVote(0, 0x24, 1000);\n        addVote(0, 0x25, 1000);\n\n        //Correct voice with 0.2 deposit\n        addVote(0, 0x26, 2000);\n        addVote(0, 0x27, 2000);\n        addVote(0, 0x28, 2000);\n        addVote(0, 0x29, 2000);\n        addVote(0, 0x30, 2000);\n        addVote(0, 0x31, 2000);\n        addVote(0, 0x32, 2000);\n        addVote(0, 0x33, 2000);\n        addVote(0, 0x34, 2000);\n        addVote(0, 0x35, 2000);\n        addVote(0, 0x36, 2000);\n        addVote(0, 0x37, 2000);\n        addVote(0, 0x38, 2000);\n        addVote(0, 0x39, 2000);\n        addVote(0, 0x40, 2000);\n        addVote(0, 0x41, 2000);\n        addVote(0, 0x42, 2000);\n        addVote(0, 0x43, 2000);\n        addVote(0, 0x44, 2000);\n        addVote(0, 0x45, 2000);\n\n        //Inorrect voice with 0.2 deposit\n        addVote(1, 0x46, 2000);\n        addVote(1, 0x47, 2000);\n        addVote(1, 0x48, 2000);\n        addVote(1, 0x49, 2000);\n        addVote(1, 0x50, 2000);\n    }\n\n    function addResult(uint64 customCoefficient) public {\n        possibleResults.push(Result(customCoefficient, 0, 0, 0));\n    }\n\n    function addBet(address sender, uint8 result, uint64 amount) private {\n        bets.push(Bet(now, sender, result, amount));\n\n        possibleResults[result].betCount += 1;\n        possibleResults[result].betSum += amount;\n\n        usersBets[sender].push(bets.length - 1);\n    }\n\n    /**\n     * Voting function\n     */\n    function addVote(uint8 result, address user, uint64 deposit) private {\n        // Vote vote = Vote(user, result, deposit);\n        votes[user] = Vote(user, result, deposit);\n        possibleResults[result].voteSum += deposit;\n    }\n\n    /*-----------------------Helper functions----------------------*/\n\n    function generateTokens() payable public {\n        token.generateTokens(address(this), 4575000);\n    }\n\n    function getEventBalance() public view returns (uint256) {\n        return token.balanceOf(address(this));\n    }\n\n    function getBalance(address user) public view returns (uint256) {\n        return token.balanceOf(user);\n    }\n\n    /*-----------------------Withdraw event creator----------------------*/\n\n    /**\n     * Withdraw event creator tokens\n     */\n    function withdrawEventCreator() public returns (bool) {\n        uint256 withdrawSum = 0;\n        if(owner == owner) {\n            withdrawSum += deposit;\n            withdrawSum += getEventCreatorReward();\n        }\n\n        assert(token.balanceOf(address(this)) > withdrawSum);\n\n        token.transfer(owner, withdrawSum);\n    }\n\n    function calculateHalfPercentBetsSum() public view returns (uint256) {\n        uint256 resultCount = possibleResults.length;\n        uint256 betsSum = 0;\n        for(uint256 i = 0; i < resultCount; i++ ) {\n            betsSum += possibleResults[i].betSum;\n        }\n\n        return betsSum.mul(5).div(1000);\n    }\n\n    /**\n     * Return event creator reward\n     */\n    function getEventCreatorReward() private view returns (uint256) {\n        uint256 eventCreatorPercent = calculateHalfPercentBetsSum();\n\n        if(eventCreatorPercent < deposit) {\n            return eventCreatorPercent;\n        }\n\n        return deposit;\n    }\n\n    /*-----------------------Withdraw bettor----------------------*/\n\n    /**\n     * Main function for withdraw bettor tokens.\n     * Should be public in real contract\n     */\n    function withdrawBettor(uint256 betIndex, address user) private returns (uint256) {\n        Bet bet = bets[betIndex];\n\n        assert(bet.bettor == user);\n        assert(bet.result == resolvedResult);\n\n        uint256 loosersBetSum = calculateLosersBetSum();\n        uint256 winnerCount = possibleResults[resolvedResult].betCount;\n\n        uint256 userBetAmount = bet.amount;\n\n        uint256 prize = (userBetAmount.mul(99).div(100)) + (loosersBetSum.mul(99).div(100) / winnerCount);\n\n        assert(token.balanceOf(address(this)) > prize);\n\n        token.transfer(user, prize);\n\n        return prize;\n    }\n\n    /**\n     * Test function\n     * Return bettorA tokens\n     */\n    function withdrawBettorA() public returns (uint256) {\n        return withdrawBettor(0, 0x14723a09acff6d2a60dcdf7aa4aff308fddc160c);\n    }\n\n    /**\n     * Test function\n     * Throw exception because of result 1 is not winning\n     */\n    function withdrawBettorB() public returns (uint256) {\n        return withdrawBettor(1, 0x4b0897b0513fdc7c541b6d9d7e929c4e5364d2db);\n    }\n\n    /**\n     * Return losers bet sum\n     */\n    function calculateLosersBetSum() private view returns (uint256) {\n        uint256 resultCount = possibleResults.length;\n        uint256 loosersBetSum = 0;\n        for(uint256 i = 0; i < resultCount; i++ ) {\n            if(i == resolvedResult) {\n                continue;\n            }\n\n            loosersBetSum += possibleResults[i].betSum;\n        }\n\n        return loosersBetSum;\n    }\n\n    /*-----------------------Withdraw judge----------------------*/\n\n    function withdrawVoter(address user) private returns (uint256) {\n        Vote vote = votes[user];\n\n        assert(vote.result == resolvedResult);\n\n        uint256 eventCreatorPercent = calculateHalfPercentBetsSum();\n        uint64 incorrectVotesSum = calculateIncorrectVotesSum();\n        Result result = possibleResults[vote.result];\n\n        uint64 votersCorrectSum = result.voteSum;\n        uint256 voterReward = 0;\n\n        voterReward += eventCreatorPercent;\n        voterReward += incorrectVotesSum;\n\n        if(eventCreatorPercent > deposit) {\n            voterReward += eventCreatorPercent - deposit;\n        }\n\n        voterReward = voterReward * votes[user].deposit;\n        voterReward = voterReward / votersCorrectSum;\n\n        voterReward += vote.deposit;\n\n        token.transfer(user, voterReward);\n\n        //Return for test\n        return voterReward;\n    }\n\n    /**\n     * Return 423 tokens\n     */\n    function withdrawVoter0() public view returns (uint256) {\n        return withdrawVoter(0x1);\n    }\n\n    /**\n     * Return 846 tokens\n     */\n    function withdrawVoter26() public view returns (uint256) {\n        return withdrawVoter(0x26);\n    }\n\n    /**\n    * Throw exception\n    */\n    function withdrawVoter46() public view returns (uint256) {\n        return withdrawVoter(0x46);\n    }\n\n    /**\n     *\n     */\n    function calculateIncorrectVotesSum() public view returns (uint64) {\n        uint256 resultCount = possibleResults.length;\n        uint64 incorrectVotesSum = 0;\n\n        for(uint8 i = 0; i < resultCount; i++ ) {\n            if(i == resolvedResult) {\n                continue;\n            }\n\n            incorrectVotesSum += possibleResults[i].voteSum;\n        }\n\n        return incorrectVotesSum;\n    }\n}",
  "sourcePath": "/home/gitlab-runner/builds/eb462ed4/0/axioma/proof-of-toss/contracts/test/TestSafeMath/TestSafeMath.sol",
  "compiler": {
    "name": "solc",
    "version": "0.4.21+commit.dfe3193c.Emscripten.clang"
  },
  "schemaVersion": "2.0.0",
  "updatedAt": "2018-05-28T16:03:35.852Z"
}