{
  "contractName": "Token",
  "abi": [
    {
      "constant": true,
      "inputs": [],
      "name": "name",
      "outputs": [
        {
          "name": "",
          "type": "string"
        }
      ],
      "payable": false,
      "stateMutability": "view",
      "type": "function"
    },
    {
      "constant": false,
      "inputs": [
        {
          "name": "_spender",
          "type": "address"
        },
        {
          "name": "_value",
          "type": "uint256"
        }
      ],
      "name": "approve",
      "outputs": [
        {
          "name": "",
          "type": "bool"
        }
      ],
      "payable": false,
      "stateMutability": "nonpayable",
      "type": "function"
    },
    {
      "constant": true,
      "inputs": [
        {
          "name": "_beneficiary",
          "type": "address"
        }
      ],
      "name": "freezedTokenOf",
      "outputs": [
        {
          "name": "amount",
          "type": "uint256"
        }
      ],
      "payable": false,
      "stateMutability": "view",
      "type": "function"
    },
    {
      "constant": true,
      "inputs": [
        {
          "name": "",
          "type": "address"
        }
      ],
      "name": "grantedToSetUnpausedWallet",
      "outputs": [
        {
          "name": "",
          "type": "bool"
        }
      ],
      "payable": false,
      "stateMutability": "view",
      "type": "function"
    },
    {
      "constant": true,
      "inputs": [],
      "name": "totalSupply",
      "outputs": [
        {
          "name": "",
          "type": "uint256"
        }
      ],
      "payable": false,
      "stateMutability": "view",
      "type": "function"
    },
    {
      "constant": true,
      "inputs": [
        {
          "name": "",
          "type": "address"
        },
        {
          "name": "",
          "type": "address"
        }
      ],
      "name": "allowedToBlocking",
      "outputs": [
        {
          "name": "",
          "type": "bool"
        }
      ],
      "payable": false,
      "stateMutability": "view",
      "type": "function"
    },
    {
      "constant": true,
      "inputs": [
        {
          "name": "",
          "type": "address"
        },
        {
          "name": "",
          "type": "address"
        }
      ],
      "name": "blocked",
      "outputs": [
        {
          "name": "",
          "type": "uint256"
        }
      ],
      "payable": false,
      "stateMutability": "view",
      "type": "function"
    },
    {
      "constant": false,
      "inputs": [
        {
          "name": "_to",
          "type": "address"
        },
        {
          "name": "permission",
          "type": "bool"
        }
      ],
      "name": "grantToSetUnpausedWallet",
      "outputs": [],
      "payable": false,
      "stateMutability": "nonpayable",
      "type": "function"
    },
    {
      "constant": false,
      "inputs": [
        {
          "name": "_from",
          "type": "address"
        },
        {
          "name": "_to",
          "type": "address"
        },
        {
          "name": "_value",
          "type": "uint256"
        }
      ],
      "name": "transferFrom",
      "outputs": [
        {
          "name": "",
          "type": "bool"
        }
      ],
      "payable": false,
      "stateMutability": "nonpayable",
      "type": "function"
    },
    {
      "constant": false,
      "inputs": [
        {
          "name": "_beneficiary",
          "type": "address[]"
        },
        {
          "name": "_amount",
          "type": "uint256[]"
        },
        {
          "name": "_when",
          "type": "uint256[]"
        }
      ],
      "name": "masFreezedTokens",
      "outputs": [],
      "payable": false,
      "stateMutability": "nonpayable",
      "type": "function"
    },
    {
      "constant": true,
      "inputs": [],
      "name": "decimals",
      "outputs": [
        {
          "name": "",
          "type": "uint8"
        }
      ],
      "payable": false,
      "stateMutability": "view",
      "type": "function"
    },
    {
      "constant": false,
      "inputs": [
        {
          "name": "_to",
          "type": "address"
        },
        {
          "name": "_amount",
          "type": "uint256"
        }
      ],
      "name": "mint",
      "outputs": [
        {
          "name": "",
          "type": "bool"
        }
      ],
      "payable": false,
      "stateMutability": "nonpayable",
      "type": "function"
    },
    {
      "constant": true,
      "inputs": [
        {
          "name": "_beneficiary",
          "type": "address"
        }
      ],
      "name": "defrostDate",
      "outputs": [
        {
          "name": "Date",
          "type": "uint256"
        }
      ],
      "payable": false,
      "stateMutability": "view",
      "type": "function"
    },
    {
      "constant": true,
      "inputs": [],
      "name": "paused",
      "outputs": [
        {
          "name": "",
          "type": "bool"
        }
      ],
      "payable": false,
      "stateMutability": "view",
      "type": "function"
    },
    {
      "constant": true,
      "inputs": [
        {
          "name": "",
          "type": "address"
        },
        {
          "name": "",
          "type": "address"
        }
      ],
      "name": "grantedToAllowBlocking",
      "outputs": [
        {
          "name": "",
          "type": "bool"
        }
      ],
      "payable": false,
      "stateMutability": "view",
      "type": "function"
    },
    {
      "constant": false,
      "inputs": [
        {
          "name": "_spender",
          "type": "address"
        },
        {
          "name": "_subtractedValue",
          "type": "uint256"
        }
      ],
      "name": "decreaseApproval",
      "outputs": [
        {
          "name": "",
          "type": "bool"
        }
      ],
      "payable": false,
      "stateMutability": "nonpayable",
      "type": "function"
    },
    {
      "constant": false,
      "inputs": [
        {
          "name": "_holders",
          "type": "address[]"
        }
      ],
      "name": "migrateAll",
      "outputs": [],
      "payable": false,
      "stateMutability": "nonpayable",
      "type": "function"
    },
    {
      "constant": true,
      "inputs": [
        {
          "name": "_owner",
          "type": "address"
        }
      ],
      "name": "balanceOf",
      "outputs": [
        {
          "name": "balance",
          "type": "uint256"
        }
      ],
      "payable": false,
      "stateMutability": "view",
      "type": "function"
    },
    {
      "constant": false,
      "inputs": [
        {
          "name": "_migrationAgent",
          "type": "address"
        }
      ],
      "name": "setMigrationAgent",
      "outputs": [],
      "payable": false,
      "stateMutability": "nonpayable",
      "type": "function"
    },
    {
      "constant": true,
      "inputs": [],
      "name": "migrationAgent",
      "outputs": [
        {
          "name": "",
          "type": "address"
        }
      ],
      "payable": false,
      "stateMutability": "view",
      "type": "function"
    },
    {
      "constant": false,
      "inputs": [
        {
          "name": "_to",
          "type": "address"
        },
        {
          "name": "_value",
          "type": "uint256"
        },
        {
          "name": "_when",
          "type": "uint256"
        }
      ],
      "name": "transferAndFreeze",
      "outputs": [],
      "payable": false,
      "stateMutability": "nonpayable",
      "type": "function"
    },
    {
      "constant": true,
      "inputs": [],
      "name": "owner",
      "outputs": [
        {
          "name": "",
          "type": "address"
        }
      ],
      "payable": false,
      "stateMutability": "view",
      "type": "function"
    },
    {
      "constant": false,
      "inputs": [],
      "name": "migrate",
      "outputs": [],
      "payable": false,
      "stateMutability": "nonpayable",
      "type": "function"
    },
    {
      "constant": true,
      "inputs": [],
      "name": "totalMigrated",
      "outputs": [
        {
          "name": "",
          "type": "uint256"
        }
      ],
      "payable": false,
      "stateMutability": "view",
      "type": "function"
    },
    {
      "constant": true,
      "inputs": [],
      "name": "symbol",
      "outputs": [
        {
          "name": "",
          "type": "string"
        }
      ],
      "payable": false,
      "stateMutability": "view",
      "type": "function"
    },
    {
      "constant": false,
      "inputs": [
        {
          "name": "_beneficiary",
          "type": "address"
        },
        {
          "name": "_value",
          "type": "uint256"
        }
      ],
      "name": "burn",
      "outputs": [],
      "payable": false,
      "stateMutability": "nonpayable",
      "type": "function"
    },
    {
      "constant": false,
      "inputs": [
        {
          "name": "_to",
          "type": "address"
        },
        {
          "name": "_value",
          "type": "uint256"
        }
      ],
      "name": "transfer",
      "outputs": [
        {
          "name": "",
          "type": "bool"
        }
      ],
      "payable": false,
      "stateMutability": "nonpayable",
      "type": "function"
    },
    {
      "constant": false,
      "inputs": [
        {
          "name": "_wallet",
          "type": "address"
        },
        {
          "name": "mode",
          "type": "bool"
        }
      ],
      "name": "setUnpausedWallet",
      "outputs": [],
      "payable": false,
      "stateMutability": "nonpayable",
      "type": "function"
    },
    {
      "constant": true,
      "inputs": [
        {
          "name": "",
          "type": "address"
        }
      ],
      "name": "unpausedWallet",
      "outputs": [
        {
          "name": "",
          "type": "bool"
        }
      ],
      "payable": false,
      "stateMutability": "view",
      "type": "function"
    },
    {
      "constant": false,
      "inputs": [
        {
          "name": "mode",
          "type": "bool"
        }
      ],
      "name": "setPause",
      "outputs": [],
      "payable": false,
      "stateMutability": "nonpayable",
      "type": "function"
    },
    {
      "constant": false,
      "inputs": [
        {
          "name": "_spender",
          "type": "address"
        },
        {
          "name": "_addedValue",
          "type": "uint256"
        }
      ],
      "name": "increaseApproval",
      "outputs": [
        {
          "name": "",
          "type": "bool"
        }
      ],
      "payable": false,
      "stateMutability": "nonpayable",
      "type": "function"
    },
    {
      "constant": true,
      "inputs": [
        {
          "name": "_owner",
          "type": "address"
        },
        {
          "name": "_spender",
          "type": "address"
        }
      ],
      "name": "allowance",
      "outputs": [
        {
          "name": "",
          "type": "uint256"
        }
      ],
      "payable": false,
      "stateMutability": "view",
      "type": "function"
    },
    {
      "constant": false,
      "inputs": [
        {
          "name": "newOwner",
          "type": "address"
        }
      ],
      "name": "transferOwnership",
      "outputs": [],
      "payable": false,
      "stateMutability": "nonpayable",
      "type": "function"
    },
    {
      "constant": false,
      "inputs": [
        {
          "name": "_beneficiary",
          "type": "address"
        },
        {
          "name": "_amount",
          "type": "uint256"
        },
        {
          "name": "_when",
          "type": "uint256"
        }
      ],
      "name": "freezeTokens",
      "outputs": [],
      "payable": false,
      "stateMutability": "nonpayable",
      "type": "function"
    },
    {
      "anonymous": false,
      "inputs": [
        {
          "indexed": false,
          "name": "operation",
          "type": "string"
        },
        {
          "indexed": true,
          "name": "from",
          "type": "address"
        },
        {
          "indexed": true,
          "name": "to",
          "type": "address"
        },
        {
          "indexed": false,
          "name": "value",
          "type": "uint256"
        },
        {
          "indexed": true,
          "name": "_contract",
          "type": "address"
        }
      ],
      "name": "TokenOperationEvent",
      "type": "event"
    },
    {
      "anonymous": false,
      "inputs": [
        {
          "indexed": true,
          "name": "burner",
          "type": "address"
        },
        {
          "indexed": false,
          "name": "value",
          "type": "uint256"
        }
      ],
      "name": "Burn",
      "type": "event"
    },
    {
      "anonymous": false,
      "inputs": [
        {
          "indexed": true,
          "name": "_from",
          "type": "address"
        },
        {
          "indexed": true,
          "name": "_to",
          "type": "address"
        },
        {
          "indexed": false,
          "name": "_value",
          "type": "uint256"
        }
      ],
      "name": "Migrate",
      "type": "event"
    },
    {
      "anonymous": false,
      "inputs": [
        {
          "indexed": true,
          "name": "to",
          "type": "address"
        },
        {
          "indexed": false,
          "name": "amount",
          "type": "uint256"
        }
      ],
      "name": "Mint",
      "type": "event"
    },
    {
      "anonymous": false,
      "inputs": [],
      "name": "MintFinished",
      "type": "event"
    },
    {
      "anonymous": false,
      "inputs": [],
      "name": "Pause",
      "type": "event"
    },
    {
      "anonymous": false,
      "inputs": [],
      "name": "Unpause",
      "type": "event"
    },
    {
      "anonymous": false,
      "inputs": [
        {
          "indexed": true,
          "name": "previousOwner",
          "type": "address"
        },
        {
          "indexed": true,
          "name": "newOwner",
          "type": "address"
        }
      ],
      "name": "OwnershipTransferred",
      "type": "event"
    },
    {
      "anonymous": false,
      "inputs": [
        {
          "indexed": true,
          "name": "owner",
          "type": "address"
        },
        {
          "indexed": true,
          "name": "spender",
          "type": "address"
        },
        {
          "indexed": false,
          "name": "value",
          "type": "uint256"
        }
      ],
      "name": "Approval",
      "type": "event"
    },
    {
      "anonymous": false,
      "inputs": [
        {
          "indexed": true,
          "name": "from",
          "type": "address"
        },
        {
          "indexed": true,
          "name": "to",
          "type": "address"
        },
        {
          "indexed": false,
          "name": "value",
          "type": "uint256"
        }
      ],
      "name": "Transfer",
      "type": "event"
    },
    {
      "constant": false,
      "inputs": [
        {
          "name": "_to",
          "type": "address"
        },
        {
          "name": "_value",
          "type": "uint256"
        },
        {
          "name": "_data",
          "type": "bytes"
        }
      ],
      "name": "transferToContract",
      "outputs": [
        {
          "name": "",
          "type": "bool"
        }
      ],
      "payable": false,
      "stateMutability": "nonpayable",
      "type": "function"
    },
    {
      "constant": false,
      "inputs": [
        {
          "name": "_contract",
          "type": "address"
        },
        {
          "name": "permission",
          "type": "bool"
        }
      ],
      "name": "grantToAllowBlocking",
      "outputs": [],
      "payable": false,
      "stateMutability": "nonpayable",
      "type": "function"
    },
    {
      "constant": false,
      "inputs": [
        {
          "name": "_owner",
          "type": "address"
        },
        {
          "name": "_contract",
          "type": "address"
        }
      ],
      "name": "allowBlocking",
      "outputs": [],
      "payable": false,
      "stateMutability": "nonpayable",
      "type": "function"
    },
    {
      "constant": false,
      "inputs": [
        {
          "name": "_blocking",
          "type": "address"
        },
        {
          "name": "_value",
          "type": "uint256"
        }
      ],
      "name": "blockTokens",
      "outputs": [],
      "payable": false,
      "stateMutability": "nonpayable",
      "type": "function"
    },
    {
      "constant": false,
      "inputs": [
        {
          "name": "_blocking",
          "type": "address"
        },
        {
          "name": "_unblockTo",
          "type": "address"
        },
        {
          "name": "_value",
          "type": "uint256"
        }
      ],
      "name": "unblockTokens",
      "outputs": [],
      "payable": false,
      "stateMutability": "nonpayable",
      "type": "function"
    }
  ],
  "bytecode": "0x60606040526005805460ff1916600117905560038054600160a060020a033316600160a060020a031990911617905561212b8061003d6000396000f3006060604052600436106101c95763ffffffff60e060020a60003504166306fdde0381146101ce578063095ea7b31461025857806311cfb19d1461028e57806317221e2c146102bf57806318160ddd146102de5780631b0a7774146102f15780631d67ef251461031657806320ceb5361461033b57806323b872dd1461036157806324db1f5014610389578063313ce567146104585780633c1a88d7146104815780633f35d033146104a357806340c10f191461050857806347b27b8b1461052a57806350bb117a146105525780635c975abb146105715780636093e22a1461058457806366188463146105a9578063680b3bdf146105cb57806370a082311461061a57806375e2ff65146106395780638328dbcd14610658578063852e9f46146106875780638da5cb5b146106ac5780638fd3ab80146106bf57806395a0f5eb146106d257806395d89b41146106e55780639dc29fac146106f8578063a9059cbb1461071a578063b3e1f5231461073c578063b58e521614610760578063b8b3db4f14610785578063ba8ad39e146107a4578063bedb86fb146107c8578063d73dd623146107e0578063dd62ed3e14610802578063f2fde38b14610827578063f831ebab14610846575b600080fd5b34156101d957600080fd5b6101e161086b565b60405160208082528190810183818151815260200191508051906020019080838360005b8381101561021d578082015183820152602001610205565b50505050905090810190601f16801561024a5780820380516001836020036101000a031916815260200191505b509250505060405180910390f35b341561026357600080fd5b61027a600160a060020a03600435166024356108a2565b604051901515815260200160405180910390f35b341561029957600080fd5b6102ad600160a060020a036004351661090e565b60405190815260200160405180910390f35b34156102ca57600080fd5b61027a600160a060020a0360043516610947565b34156102e957600080fd5b6102ad61095c565b34156102fc57600080fd5b61027a600160a060020a0360043581169060243516610962565b341561032157600080fd5b6102ad600160a060020a0360043581169060243516610982565b341561034657600080fd5b61035f600160a060020a0360043516602435151561099f565b005b341561036c57600080fd5b61027a600160a060020a0360043581169060243516604435610a64565b341561039457600080fd5b61035f60046024813581810190830135806020818102016040519081016040528093929190818152602001838360200280828437820191505050505050919080359060200190820180359060200190808060200260200160405190810160405280939291908181526020018383602002808284378201915050505050509190803590602001908201803590602001908080602002602001604051908101604052809392919081815260200183836020028082843750949650610aa695505050505050565b341561046357600080fd5b61046b610c04565b60405160ff909116815260200160405180910390f35b341561048c57600080fd5b61035f600160a060020a0360043516602435610c09565b34156104ae57600080fd5b61027a60048035600160a060020a03169060248035919060649060443590810190830135806020601f82018190048102016040519081016040528181529291906020840183838082843750949650610df295505050505050565b341561051357600080fd5b61027a600160a060020a0360043516602435610efb565b341561053557600080fd5b61035f600160a060020a0360043581169060243516604435610fe0565b341561055d57600080fd5b6102ad600160a060020a0360043516611235565b341561057c57600080fd5b61027a61126d565b341561058f57600080fd5b61027a600160a060020a0360043581169060243516611276565b34156105b457600080fd5b61027a600160a060020a0360043516602435611296565b34156105d657600080fd5b61035f600460248135818101908301358060208181020160405190810160405280939291908181526020018383602002808284375094965061139095505050505050565b341561062557600080fd5b6102ad600160a060020a03600435166113e5565b341561064457600080fd5b61035f600160a060020a0360043516611400565b341561066357600080fd5b61066b611460565b604051600160a060020a03909116815260200160405180910390f35b341561069257600080fd5b61035f600160a060020a036004351660243560443561146f565b34156106b757600080fd5b61066b6114f4565b34156106ca57600080fd5b61035f611503565b34156106dd57600080fd5b6102ad611531565b34156106f057600080fd5b6101e1611537565b341561070357600080fd5b61035f600160a060020a036004351660243561156e565b341561072557600080fd5b61027a600160a060020a0360043516602435611674565b341561074757600080fd5b61035f600160a060020a036004351660243515156116a8565b341561076b57600080fd5b61035f600160a060020a0360043581169060243516611790565b341561079057600080fd5b61027a600160a060020a03600435166118a6565b34156107af57600080fd5b61035f600160a060020a036004351660243515156118bb565b34156107d357600080fd5b61035f6004351515611963565b34156107eb57600080fd5b61027a600160a060020a0360043516602435611a1c565b341561080d57600080fd5b6102ad600160a060020a0360043581169060243516611ac0565b341561083257600080fd5b61035f600160a060020a0360043516611aeb565b341561085157600080fd5b61035f600160a060020a0360043516602435604435611b86565b60408051908101604052600481527f544f535300000000000000000000000000000000000000000000000000000000602082015281565b600160a060020a03338116600081815260026020908152604080832094871680845294909152808220859055909291907f8c5be1e5ebec7d5bd14f71427d1e84f3dd0314c0f7b2291e5b200ac8c7c3b9259085905190815260200160405180910390a350600192915050565b600160a060020a038116600090815260076020526040812060018101544290101561093c5760009150610941565b805491505b50919050565b60066020526000908152604090205460ff1681565b60015490565b600b60209081526000928352604080842090915290825290205460ff1681565b600c60209081526000928352604080842090915290825290205481565b60035433600160a060020a0390811691161480610a2e5750600354600160a060020a0316637ad71f72600260405160e060020a63ffffffff841602815260ff9091166004820152602401602060405180830381600087803b1515610a0257600080fd5b5af11515610a0f57600080fd5b50505060405180519050600160a060020a031633600160a060020a0316145b1515610a3957600080fd5b600160a060020a03919091166000908152600660205260409020805460ff1916911515919091179055565b6000610a7f82610a738661090e565b9063ffffffff611c4616565b610a88856113e5565b1015610a9357600080fd5b610a9e848484611c55565b949350505050565b600354600090819033600160a060020a0390811691161480610b3a5750600354600160a060020a0316637ad71f72600260405160e060020a63ffffffff841602815260ff9091166004820152602401602060405180830381600087803b1515610b0e57600080fd5b5af11515610b1b57600080fd5b50505060405180519050600160a060020a031633600160a060020a0316145b1515610b4557600080fd5b83518551148015610b57575082518551145b1515610b6257600080fd5b600091505b84518261ffff161015610bfd5760076000868461ffff1681518110610b8857fe5b90602001906020020151600160a060020a0316600160a060020a031681526020019081526020016000209050838261ffff1681518110610bc457fe5b9060200190602002015181558261ffff831681518110610be057fe5b906020019060200201516001808301919091559190910190610b67565b5050505050565b601281565b600554829060ff161580610c355750600160a060020a03331660009081526004602052604090205460ff165b80610c585750600160a060020a03811660009081526004602052604090205460ff165b1515610c6357600080fd5b600160a060020a038084166000908152600b60209081526040808320339094168352929052205460ff161515610c9857600080fd5b610ca582610a738561090e565b610cae846113e5565b10158015610cbc5750600082115b1515610cc757600080fd5b600160a060020a038316600090815260208190526040902054610cf0908363ffffffff611cc616565b600160a060020a0380851660009081526020818152604080832094909455600c8152838220339093168252919091522054610d31908363ffffffff611c4616565b600160a060020a038085166000818152600c6020908152604080832033909516835293905282812093909355906000805160206120e08339815191529085905190815260200160405180910390a333600160a060020a0316600084600160a060020a03166000805160206120c083398151915285604051602081019190915260408082526005818301527f626c6f636b00000000000000000000000000000000000000000000000000000060608301526080909101905180910390a4505050565b60008084803b828111610e0457600080fd5b610e0e8787611674565b5086925082600160a060020a031663c0ee0b8a3388886040518463ffffffff1660e060020a0281526004018084600160a060020a0316600160a060020a0316815260200183815260200180602001828103825283818151815260200191508051906020019080838360005b83811015610e91578082015183820152602001610e79565b50505050905090810190601f168015610ebe5780820380516001836020036101000a031916815260200191505b50945050505050600060405180830381600087803b1515610ede57600080fd5b5af11515610eeb57600080fd5b5060019998505050505050505050565b60035460009033600160a060020a03908116911614610f1957600080fd5b600154610f2c908363ffffffff611c4616565b600155600160a060020a038316600090815260208190526040902054610f58908363ffffffff611c4616565b600160a060020a0384166000818152602081905260409081902092909255907f0f6798a560793a54c3bcfe86a93cde1e73087d944c0ea20544137d41213968859084905190815260200160405180910390a2600160a060020a03831660006000805160206120e08339815191528460405190815260200160405180910390a350600192915050565b600554829060ff16158061100c5750600160a060020a03331660009081526004602052604090205460ff165b8061102f5750600160a060020a03811660009081526004602052604090205460ff165b151561103a57600080fd5b600160a060020a038085166000908152600b60209081526040808320339094168352929052205460ff16151561106f57600080fd5b600160a060020a038085166000908152600c6020908152604080832033909416835292905220548290108015906110a65750600082115b15156110b157600080fd5b600160a060020a038085166000908152600c6020908152604080832033909416835292905220546110e8908363ffffffff611cc616565b600160a060020a038086166000908152600c602090815260408083203385168452825280832094909455918616815290819052205461112d908363ffffffff611c4616565b600160a060020a0380851660009081526020819052604080822093909355908616916000805160206120e08339815191529085905190815260200160405180910390a3600160a060020a03848116908416146111b95782600160a060020a031684600160a060020a03166000805160206120e08339815191528460405190815260200160405180910390a35b33600160a060020a031683600160a060020a031685600160a060020a03166000805160206120c083398151915285604051602081019190915260408082526007818301527f756e626c6f636b0000000000000000000000000000000000000000000000000060608301526080909101905180910390a450505050565b600160a060020a03811660009081526007602052604081206001810154429010156112635760009150610941565b6001015492915050565b60055460ff1681565b600a60209081526000928352604080842090915290825290205460ff1681565b600160a060020a033381166000908152600260209081526040808320938616835292905290812054808311156112f357600160a060020a03338116600090815260026020908152604080832093881683529290529081205561132a565b611303818463ffffffff611cc616565b600160a060020a033381166000908152600260209081526040808320938916835292905220555b600160a060020a0333811660008181526002602090815260408083209489168084529490915290819020547f8c5be1e5ebec7d5bd14f71427d1e84f3dd0314c0f7b2291e5b200ac8c7c3b925915190815260200160405180910390a35060019392505050565b60035460009033600160a060020a039081169116146113ae57600080fd5b5060005b81518110156113e1576113d98282815181106113ca57fe5b90602001906020020151611cd8565b6001016113b2565b5050565b600160a060020a031660009081526020819052604090205490565b60035433600160a060020a0390811691161461141b57600080fd5b600954600160a060020a03161561143157600080fd5b6009805473ffffffffffffffffffffffffffffffffffffffff1916600160a060020a0392909216919091179055565b600954600160a060020a031681565b600160a060020a03331660009081526004602052604081205460ff16151561149657600080fd5b60008211156114ea5750600160a060020a038316600090815260076020526040902080546114ca908463ffffffff611c4616565b815560018101548290116114de57816114e4565b80600101545b60018201555b610bfd8484611674565b600354600160a060020a031681565b600160a060020a0333166000908152602081905260408120541161152657600080fd5b61152f33611cd8565b565b60085481565b60408051908101604052600d81527f50524f4f46204f4620544f535300000000000000000000000000000000000000602082015281565b60035433600160a060020a0390811691161461158957600080fd5b600160a060020a0382166000908152602081905260409020548111156115ae57600080fd5b600160a060020a0382166000908152602081905260409020546115d7908263ffffffff611cc616565b600160a060020a038316600090815260208190526040902055600154611603908263ffffffff611cc616565b600155600160a060020a0382167fcc16f5dbb4873280815c1ee09dbd06736cffcc184412cf7a71a0fdb75d397ca58260405190815260200160405180910390a26000600160a060020a0383166000805160206120e08339815191528360405190815260200160405180910390a35050565b600061168382610a733361090e565b61168c336113e5565b101561169757600080fd5b6116a18383611dea565b9392505050565b60035433600160a060020a03908116911614806116dd5750600160a060020a03331660009081526006602052604090205460ff165b8061175a5750600354600160a060020a0316637ad71f72600260405160e060020a63ffffffff841602815260ff9091166004820152602401602060405180830381600087803b151561172e57600080fd5b5af1151561173b57600080fd5b50505060405180519050600160a060020a031633600160a060020a0316145b151561176557600080fd5b600160a060020a03919091166000908152600460205260409020805460ff1916911515919091179055565b80803b600081116117a057600080fd5b33600160a060020a031683600160a060020a0316141580156117d05750600354600160a060020a03848116911614155b15156117db57600080fd5b600160a060020a038085166000908152600a60209081526040808320339094168352929052205460ff16151561181057600080fd5b600160a060020a038085166000818152600b602090815260408083208886168085529252808320805460ff1916600117905533909416939092916000805160206120c0833981519152915160208101919091526040808252600e818301527f616c6c6f775f626c6f636b696e6700000000000000000000000000000000000060608301526080909101905180910390a450505050565b60046020526000908152604090205460ff1681565b81803b600081116118cb57600080fd5b33600160a060020a039081166000818152600a6020908152604080832094891680845294909152808220805460ff1916881515179055909291906000805160206120c083398151915290849051602081019190915260408082526014818301527f6772616e745f616c6c6f775f626c6f636b696e6700000000000000000000000060608301526080909101905180910390a450505050565b60035433600160a060020a0390811691161461197e57600080fd5b60055460ff1615801561198e5750805b156119cd576005805460ff191660011790557f6985a02210a168e66602d3235cb6db0e70f92b3ba4d376a33c0f3d9434bff62560405160405180910390a15b60055460ff1680156119dd575080155b15611a19576005805460ff191690557f7805862f689e2f13df9f062ff482ad3ad112aca9e0847911ed832e158c525b3360405160405180910390a15b50565b600160a060020a033381166000908152600260209081526040808320938616835292905290812054611a54908363ffffffff611c4616565b600160a060020a0333811660008181526002602090815260408083209489168084529490915290819020849055919290917f8c5be1e5ebec7d5bd14f71427d1e84f3dd0314c0f7b2291e5b200ac8c7c3b92591905190815260200160405180910390a350600192915050565b600160a060020a03918216600090815260026020908152604080832093909416825291909152205490565b60035433600160a060020a03908116911614611b0657600080fd5b600160a060020a0381161515611b1b57600080fd5b600354600160a060020a0380831691167f8be0079c531659141344cd1fd0a4f28419497f9722a3daafe3b4186f6b6457e060405160405180910390a36003805473ffffffffffffffffffffffffffffffffffffffff1916600160a060020a0392909216919091179055565b60035460009033600160a060020a0390811691161480611c185750600354600160a060020a0316637ad71f72600260405160e060020a63ffffffff841602815260ff9091166004820152602401602060405180830381600087803b1515611bec57600080fd5b5af11515611bf957600080fd5b50505060405180519050600160a060020a031633600160a060020a0316145b1515611c2357600080fd5b50600160a060020a03909216600090815260076020526040902090815560010155565b6000828201838110156116a157fe5b600554600090839060ff161580611c845750600160a060020a03331660009081526004602052604090205460ff165b80611ca75750600160a060020a03811660009081526004602052604090205460ff165b1515611cb257600080fd5b611cbd858585611e51565b95945050505050565b600082821115611cd257fe5b50900390565b600954600090600160a060020a03161515611cf257600080fd5b50600160a060020a03811660009081526020819052604081208054919055600154611d23908263ffffffff611cc616565b600155600854611d39908263ffffffff611c4616565b600855600954600160a060020a0316637a3130e3838360405160e060020a63ffffffff8516028152600160a060020a0390921660048301526024820152604401600060405180830381600087803b1515611d9257600080fd5b5af11515611d9f57600080fd5b5050600954600160a060020a03908116915083167f18df02dcc52b9c494f391df09661519c0069bd8540141946280399408205ca1a8360405190815260200160405180910390a35050565b600554600090839060ff161580611e195750600160a060020a03331660009081526004602052604090205460ff165b80611e3c5750600160a060020a03811660009081526004602052604090205460ff165b1515611e4757600080fd5b610a9e8484611fbf565b6000600160a060020a0383161515611e6857600080fd5b600160a060020a038416600090815260208190526040902054821115611e8d57600080fd5b600160a060020a0380851660009081526002602090815260408083203390941683529290522054821115611ec057600080fd5b600160a060020a038416600090815260208190526040902054611ee9908363ffffffff611cc616565b600160a060020a038086166000908152602081905260408082209390935590851681522054611f1e908363ffffffff611c4616565b600160a060020a0380851660009081526020818152604080832094909455878316825260028152838220339093168252919091522054611f64908363ffffffff611cc616565b600160a060020a03808616600081815260026020908152604080832033861684529091529081902093909355908516916000805160206120e08339815191529085905190815260200160405180910390a35060019392505050565b6000600160a060020a0383161515611fd657600080fd5b600160a060020a033316600090815260208190526040902054821115611ffb57600080fd5b600160a060020a033316600090815260208190526040902054612024908363ffffffff611cc616565b600160a060020a033381166000908152602081905260408082209390935590851681522054612059908363ffffffff611c4616565b60008085600160a060020a0316600160a060020a031681526020019081526020016000208190555082600160a060020a031633600160a060020a03166000805160206120e08339815191528460405190815260200160405180910390a35060019291505056009b56fa31e6a762f0fbec5f6102fd26a9d0c578481150835eed4ad0c037eb7e95ddf252ad1be2c89b69c2b068fc378daa952ba7f163c4a11628f55a4df523b3efa165627a7a72305820163bf0172b3a9bda0f09fbf5da2cd725d2f0206291122d0a3522e4ad01034d280029",
  "source": "pragma solidity ^0.4.21;\n\nimport './FreezingToken.sol';\nimport './MintableToken.sol';\nimport './MigratableToken.sol';\nimport './BurnableToken.sol';\nimport '../Pausable.sol';\nimport \"../ERC223ReceivingContract.sol\";\n\n// (A2)\n// Contract token\ncontract Token is FreezingToken, MintableToken, MigratableToken, BurnableToken {\n    string public constant name = \"TOSS\";\n\n    string public constant symbol = \"PROOF OF TOSS\";\n\n    uint8 public constant decimals = 18;\n\n    mapping (address => mapping (address => bool)) public grantedToAllowBlocking; // Address of smart contract that can allow other contracts to block tokens\n    mapping (address => mapping (address => bool)) public allowedToBlocking; // Address of smart contract that can block tokens\n    mapping (address => mapping (address => uint256)) public blocked; // Blocked tokens per blocker\n\n    event TokenOperationEvent(string operation, address indexed from, address indexed to, uint256 value, address indexed _contract);\n\n\n    modifier contractOnly(address _to) {\n        uint256 codeLength;\n\n        assembly {\n        // Retrieve the size of the code on target address, this needs assembly .\n        codeLength := extcodesize(_to)\n        }\n\n        require(codeLength > 0);\n\n        _;\n    }\n\n    /**\n    * @dev Transfer the specified amount of tokens to the specified address.\n    * Invokes the `tokenFallback` function if the recipient is a contract.\n    * The token transfer fails if the recipient is a contract\n    * but does not implement the `tokenFallback` function\n    * or the fallback function to receive funds.\n    *\n    * @param _to Receiver address.\n    * @param _value Amount of tokens that will be transferred.\n    * @param _data Transaction metadata.\n    */\n\n    function transferToContract(address _to, uint256 _value, bytes _data) public contractOnly(_to) returns (bool) {\n        // Standard function transfer similar to ERC20 transfer with no _data .\n        // Added due to backwards compatibility reasons .\n\n\n        super.transfer(_to, _value);\n\n        ERC223ReceivingContract receiver = ERC223ReceivingContract(_to);\n        receiver.tokenFallback(msg.sender, _value, _data);\n\n        return true;\n    }\n\n    // @brief Allow another contract to allow another contract to block tokens. Can be revoked\n    // @param _spender another contract address\n    // @param _value amount of approved tokens\n    function grantToAllowBlocking(address _contract, bool permission) contractOnly(_contract) public {\n\n\n        grantedToAllowBlocking[msg.sender][_contract] = permission;\n\n        emit TokenOperationEvent('grant_allow_blocking', msg.sender, _contract, 0, 0);\n    }\n\n    // @brief Allow another contract to block tokens. Can't be revoked\n    // @param _owner tokens owner\n    // @param _contract another contract address\n    function allowBlocking(address _owner, address _contract) contractOnly(_contract) public {\n\n\n        require(_contract != msg.sender && _contract != owner);\n\n        require(grantedToAllowBlocking[_owner][msg.sender]);\n\n        allowedToBlocking[_owner][_contract] = true;\n\n        emit TokenOperationEvent('allow_blocking', _owner, _contract, 0, msg.sender);\n    }\n\n    // @brief Blocks tokens\n    // @param _blocking The address of tokens which are being blocked\n    // @param _value The blocked token count\n    function blockTokens(address _blocking, uint256 _value) whenNotPaused(_blocking) public {\n        require(allowedToBlocking[_blocking][msg.sender]);\n\n        require(balanceOf(_blocking) >= freezedTokenOf(_blocking).add(_value) && _value > 0);\n\n        balances[_blocking] = balances[_blocking].sub(_value);\n        blocked[_blocking][msg.sender] = blocked[_blocking][msg.sender].add(_value);\n\n        emit Transfer(_blocking, address(0), _value);\n        emit TokenOperationEvent('block', _blocking, 0, _value, msg.sender);\n    }\n\n    // @brief Unblocks tokens and sends them to the given address (to _unblockTo)\n    // @param _blocking The address of tokens which are blocked\n    // @param _unblockTo The address to send to the blocked tokens after unblocking\n    // @param _value The blocked token count to unblock\n    function unblockTokens(address _blocking, address _unblockTo, uint256 _value) whenNotPaused(_unblockTo) public {\n        require(allowedToBlocking[_blocking][msg.sender]);\n        require(blocked[_blocking][msg.sender] >= _value && _value > 0);\n\n        blocked[_blocking][msg.sender] = blocked[_blocking][msg.sender].sub(_value);\n        balances[_unblockTo] = balances[_unblockTo].add(_value);\n\n        emit Transfer(address(0), _blocking, _value);\n\n        if (_blocking != _unblockTo) {\n            emit Transfer(_blocking, _unblockTo, _value);\n        }\n\n        emit TokenOperationEvent('unblock', _blocking, _unblockTo, _value, msg.sender);\n    }\n}\n",
  "sourcePath": "/home/gitlab-runner/builds/eb462ed4/0/axioma/proof-of-toss/contracts/token-sale-contracts/TokenSale/Token/Token.sol",
  "compiler": {
    "name": "solc",
    "version": "0.4.21+commit.dfe3193c.Emscripten.clang"
  },
  "schemaVersion": "2.0.0",
  "updatedAt": "2018-05-28T16:08:45.370Z"
}