{
  "contractName": "AllocationTOSS",
  "abi": [
    {
      "constant": true,
      "inputs": [],
      "name": "totalShare",
      "outputs": [
        {
          "name": "",
          "type": "uint256"
        }
      ],
      "payable": false,
      "stateMutability": "view",
      "type": "function"
    },
    {
      "constant": true,
      "inputs": [],
      "name": "owner",
      "outputs": [
        {
          "name": "",
          "type": "address"
        }
      ],
      "payable": false,
      "stateMutability": "view",
      "type": "function"
    },
    {
      "constant": true,
      "inputs": [],
      "name": "unlockPart1",
      "outputs": [
        {
          "name": "",
          "type": "uint256"
        }
      ],
      "payable": false,
      "stateMutability": "view",
      "type": "function"
    },
    {
      "constant": true,
      "inputs": [
        {
          "name": "",
          "type": "address"
        }
      ],
      "name": "shares",
      "outputs": [
        {
          "name": "proportion",
          "type": "uint256"
        },
        {
          "name": "forPart",
          "type": "uint256"
        }
      ],
      "payable": false,
      "stateMutability": "view",
      "type": "function"
    },
    {
      "constant": true,
      "inputs": [],
      "name": "unlockPart2",
      "outputs": [
        {
          "name": "",
          "type": "uint256"
        }
      ],
      "payable": false,
      "stateMutability": "view",
      "type": "function"
    },
    {
      "constant": false,
      "inputs": [
        {
          "name": "newOwner",
          "type": "address"
        }
      ],
      "name": "transferOwnership",
      "outputs": [],
      "payable": false,
      "stateMutability": "nonpayable",
      "type": "function"
    },
    {
      "constant": true,
      "inputs": [],
      "name": "token",
      "outputs": [
        {
          "name": "",
          "type": "address"
        }
      ],
      "payable": false,
      "stateMutability": "view",
      "type": "function"
    },
    {
      "inputs": [
        {
          "name": "_token",
          "type": "address"
        },
        {
          "name": "_unlockPart1",
          "type": "uint256"
        },
        {
          "name": "_unlockPart2",
          "type": "uint256"
        }
      ],
      "payable": false,
      "stateMutability": "nonpayable",
      "type": "constructor"
    },
    {
      "anonymous": false,
      "inputs": [
        {
          "indexed": true,
          "name": "previousOwner",
          "type": "address"
        },
        {
          "indexed": true,
          "name": "newOwner",
          "type": "address"
        }
      ],
      "name": "OwnershipTransferred",
      "type": "event"
    },
    {
      "constant": false,
      "inputs": [
        {
          "name": "_beneficiary",
          "type": "address"
        },
        {
          "name": "_proportion",
          "type": "uint256"
        },
        {
          "name": "_percenForFirstPart",
          "type": "uint256"
        }
      ],
      "name": "addShare",
      "outputs": [],
      "payable": false,
      "stateMutability": "nonpayable",
      "type": "function"
    },
    {
      "constant": false,
      "inputs": [
        {
          "name": "_owner",
          "type": "address"
        }
      ],
      "name": "unlockFor",
      "outputs": [],
      "payable": false,
      "stateMutability": "nonpayable",
      "type": "function"
    }
  ],
  "bytecode": "0x608060405234801561001057600080fd5b506040516060806106a983398101604090815281516020830151919092015160008054600160a060020a0319908116331790915560019290925560025560058054600160a060020a0390931692909116919091179055610634806100756000396000f3006080604052600436106100985763ffffffff7c0100000000000000000000000000000000000000000000000000000000600035041663026c4207811461009d5780638da5cb5b146100c4578063ae7d0cac146100f5578063c631ca0a1461011e578063ce7c2ac214610133578063dde499791461016d578063ed28de811461018e578063f2fde38b146101a3578063fc0c546a146101c4575b600080fd5b3480156100a957600080fd5b506100b26101d9565b60408051918252519081900360200190f35b3480156100d057600080fd5b506100d96101df565b60408051600160a060020a039092168252519081900360200190f35b34801561010157600080fd5b5061011c600160a060020a03600435166024356044356101ee565b005b34801561012a57600080fd5b506100b2610282565b34801561013f57600080fd5b50610154600160a060020a0360043516610288565b6040805192835260208301919091528051918290030190f35b34801561017957600080fd5b5061011c600160a060020a03600435166102a1565b34801561019a57600080fd5b506100b26104f1565b3480156101af57600080fd5b5061011c600160a060020a03600435166104f7565b3480156101d057600080fd5b506100d961058b565b60035481565b600654600160a060020a031681565b600054600160a060020a0316331461020557600080fd5b604080518082018252600160a060020a0385166000908152600460205291909120548190610239908563ffffffff61059a16565b81526020908101839052600160a060020a038516600090815260048252604090208251815591015160019091015560035461027a908363ffffffff61059a16565b600355505050565b60015481565b6004602052600090815260409020805460019091015482565b60008060015442101515156102b557600080fd5b600160a060020a03831660009081526004602052604090205460025490925042101561033457600160a060020a03831660009081526004602052604090206001015460649061030b90849063ffffffff6105b416565b81151561031457fe5b600160a060020a0385166000908152600460205260408120600101550491505b60008211156104ec57600354600554604080517f70a0823100000000000000000000000000000000000000000000000000000000815230600482015290516103f593926103e9928792600160a060020a03909216916370a08231916024808201926020929091908290030181600087803b1580156103b157600080fd5b505af11580156103c5573d6000803e3d6000fd5b505050506040513d60208110156103db57600080fd5b50519063ffffffff6105b416565b9063ffffffff6105df16565b600160a060020a038416600090815260046020526040902054909150610421908363ffffffff6105f616565b600160a060020a03841660009081526004602052604090205560035461044d908363ffffffff6105f616565b600355600554604080517fa9059cbb000000000000000000000000000000000000000000000000000000008152600160a060020a038681166004830152602482018590529151919092169163a9059cbb9160448083019260209291908290030181600087803b1580156104bf57600080fd5b505af11580156104d3573d6000803e3d6000fd5b505050506040513d60208110156104e957600080fd5b50505b505050565b60025481565b600054600160a060020a0316331461050e57600080fd5b600160a060020a038116151561052357600080fd5b60008054604051600160a060020a03808516939216917f8be0079c531659141344cd1fd0a4f28419497f9722a3daafe3b4186f6b6457e091a36000805473ffffffffffffffffffffffffffffffffffffffff1916600160a060020a0392909216919091179055565b600554600160a060020a031681565b6000828201838110156105a957fe5b8091505b5092915050565b6000808315156105c757600091506105ad565b508282028284828115156105d757fe5b04146105a957fe5b60008082848115156105ed57fe5b04949350505050565b60008282111561060257fe5b509003905600a165627a7a72305820e23632eaecbf0d6890f0d4ebda58e7e32223a2a85b4dbd9f18b85f78fb38eafd0029",
  "source": "pragma solidity ^0.4.21;\n\nimport '../Ownable.sol';\nimport '../SafeMath.sol';\nimport '../Token/ERC20Basic.sol';\n\n// (B)\n// The contract for freezing tokens for the team..\ncontract AllocationTOSS is Ownable {\n    using SafeMath for uint256;\n\n    struct Share {\n    uint256 proportion;\n    uint256 forPart;\n    }\n\n    // How many days to freeze from the moment of finalizing ICO\n    uint256 public unlockPart1;\n    uint256 public unlockPart2;\n    uint256 public totalShare;\n\n    mapping(address => Share) public shares;\n\n    ERC20Basic public token;\n\n    address public owner;\n\n    // The contract takes the ERC20 coin address from which this contract will work and from the\n    // owner (Team wallet) who owns the funds.\n    function AllocationTOSS(ERC20Basic _token, uint256 _unlockPart1, uint256 _unlockPart2) public{\n        unlockPart1 = _unlockPart1;\n        unlockPart2 = _unlockPart2;\n        token = _token;\n    }\n\n    function addShare(address _beneficiary, uint256 _proportion, uint256 _percenForFirstPart) onlyOwner external {\n        shares[_beneficiary] = Share(shares[_beneficiary].proportion.add(_proportion),_percenForFirstPart);\n        totalShare = totalShare.add(_proportion);\n    }\n\n    // If the time of freezing expired will return the funds to the owner.\n    function unlockFor(address _owner) public {\n        require(now >= unlockPart1);\n        uint256 share = shares[_owner].proportion;\n        if (now < unlockPart2) {\n            share = share.mul(shares[_owner].forPart)/100;\n            shares[_owner].forPart = 0;\n        }\n        if (share > 0) {\n            uint256 unlockedToken = token.balanceOf(this).mul(share).div(totalShare);\n            shares[_owner].proportion = shares[_owner].proportion.sub(share);\n            totalShare = totalShare.sub(share);\n            token.transfer(_owner,unlockedToken);\n        }\n    }\n}\n",
  "sourcePath": "/Users/nickolay/workspace/rsk/app/contracts/token-sale-contracts/TokenSale/Crowdsale/AllocationToss.sol",
  "compiler": {
    "name": "solc",
    "version": "0.4.24+commit.e67f0147.Emscripten.clang"
  },
  "schemaVersion": "2.0.0",
  "updatedAt": "2018-06-26T21:38:39.870Z"
}