{
  "contractName": "BlockingGranter",
  "abi": [
    {
      "inputs": [
        {
          "name": "_token",
          "type": "address"
        }
      ],
      "payable": false,
      "stateMutability": "nonpayable",
      "type": "constructor"
    },
    {
      "constant": true,
      "inputs": [],
      "name": "getToken",
      "outputs": [
        {
          "name": "",
          "type": "address"
        }
      ],
      "payable": false,
      "stateMutability": "view",
      "type": "function"
    },
    {
      "constant": false,
      "inputs": [
        {
          "name": "_owner",
          "type": "address"
        },
        {
          "name": "_contract",
          "type": "address"
        }
      ],
      "name": "grant",
      "outputs": [],
      "payable": false,
      "stateMutability": "nonpayable",
      "type": "function"
    }
  ],
  "bytecode": "0x6060604052341561000f57600080fd5b6040516020806101fb8339810160405280805160008054600160a060020a03909216600160a060020a031990921691909117905550506101a7806100546000396000f30060606040526004361061004b5763ffffffff7c010000000000000000000000000000000000000000000000000000000060003504166321df0da78114610050578063f2403dcd1461008c575b600080fd5b341561005b57600080fd5b6100636100c0565b60405173ffffffffffffffffffffffffffffffffffffffff909116815260200160405180910390f35b341561009757600080fd5b6100be73ffffffffffffffffffffffffffffffffffffffff600435811690602435166100dc565b005b60005473ffffffffffffffffffffffffffffffffffffffff1690565b60005473ffffffffffffffffffffffffffffffffffffffff1663b58e521683836040517c010000000000000000000000000000000000000000000000000000000063ffffffff851602815273ffffffffffffffffffffffffffffffffffffffff928316600482015291166024820152604401600060405180830381600087803b151561016757600080fd5b5af1151561017457600080fd5b50505050505600a165627a7a7230582098009e82fb9e1ca1ea31fbba764e9d795a0127f6f74bac547e20acd451a2f8190029",
  "source": "pragma solidity ^0.4.2;\n\nimport \"../token-sale-contracts/TokenSale/Token/Token.sol\";\n\ncontract BlockingGranter {\n    Token token;\n\n    function BlockingGranter(address _token) {\n        token = Token(_token);\n    }\n\n    function getToken() constant returns (address) {\n        return address(token);\n    }\n\n    function grant(address _owner, address _contract) {\n        token.allowBlocking(_owner, _contract);\n    }\n}\n",
  "sourcePath": "/Users/nickolay/workspace/rsk/app/contracts/test/BlockingGranter.sol",
  "compiler": {
    "name": "solc",
    "version": "0.4.21+commit.dfe3193c.Emscripten.clang"
  },
  "schemaVersion": "2.0.0",
  "updatedAt": "2018-05-29T10:37:55.327Z"
}