{
  "contractName": "BlockingGranter",
  "abi": [
    {
      "inputs": [
        {
          "name": "_token",
          "type": "address"
        }
      ],
      "payable": false,
      "stateMutability": "nonpayable",
      "type": "constructor"
    },
    {
      "constant": true,
      "inputs": [],
      "name": "getToken",
      "outputs": [
        {
          "name": "",
          "type": "address"
        }
      ],
      "payable": false,
      "stateMutability": "view",
      "type": "function"
    },
    {
      "constant": false,
      "inputs": [
        {
          "name": "_owner",
          "type": "address"
        },
        {
          "name": "_contract",
          "type": "address"
        }
      ],
      "name": "grant",
      "outputs": [],
      "payable": false,
      "stateMutability": "nonpayable",
      "type": "function"
    }
  ],
  "bytecode": "0x608060405234801561001057600080fd5b506040516020806101f3833981016040525160008054600160a060020a03909216600160a060020a03199092169190911790556101a1806100526000396000f30060806040526004361061004b5763ffffffff7c010000000000000000000000000000000000000000000000000000000060003504166321df0da78114610050578063f2403dcd1461008e575b600080fd5b34801561005c57600080fd5b506100656100c4565b6040805173ffffffffffffffffffffffffffffffffffffffff9092168252519081900360200190f35b34801561009a57600080fd5b506100c273ffffffffffffffffffffffffffffffffffffffff600435811690602435166100e0565b005b60005473ffffffffffffffffffffffffffffffffffffffff1690565b60008054604080517fb58e521600000000000000000000000000000000000000000000000000000000815273ffffffffffffffffffffffffffffffffffffffff868116600483015285811660248301529151919092169263b58e5216926044808201939182900301818387803b15801561015957600080fd5b505af115801561016d573d6000803e3d6000fd5b5050505050505600a165627a7a72305820f48ac0b834c58eb109f9eed520329bd487ae80c446330855c877dd7d84c428fd0029",
  "source": "pragma solidity ^0.4.2;\n\nimport \"../token-sale-contracts/TokenSale/Token/Token.sol\";\n\ncontract BlockingGranter {\n    Token token;\n\n    constructor(address _token) public {\n        token = Token(_token);\n    }\n\n    function getToken() public constant returns (address) {\n        return address(token);\n    }\n\n    function grant(address _owner, address _contract) public {\n        token.allowBlocking(_owner, _contract);\n    }\n}\n",
  "sourcePath": "/Users/nickolay/workspace/rsk/app/contracts/test/BlockingGranter.sol",
  "compiler": {
    "name": "solc",
    "version": "0.4.24+commit.e67f0147.Emscripten.clang"
  },
  "schemaVersion": "2.0.0",
  "updatedAt": "2018-06-12T11:40:14.119Z"
}