{
  "contractName": "BurnableToken",
  "abi": [
    {
      "constant": true,
      "inputs": [],
      "name": "totalSupply",
      "outputs": [
        {
          "name": "",
          "type": "uint256"
        }
      ],
      "payable": false,
      "stateMutability": "view",
      "type": "function"
    },
    {
      "constant": true,
      "inputs": [
        {
          "name": "_owner",
          "type": "address"
        }
      ],
      "name": "balanceOf",
      "outputs": [
        {
          "name": "balance",
          "type": "uint256"
        }
      ],
      "payable": false,
      "stateMutability": "view",
      "type": "function"
    },
    {
      "constant": true,
      "inputs": [],
      "name": "owner",
      "outputs": [
        {
          "name": "",
          "type": "address"
        }
      ],
      "payable": false,
      "stateMutability": "view",
      "type": "function"
    },
    {
      "constant": false,
      "inputs": [
        {
          "name": "_to",
          "type": "address"
        },
        {
          "name": "_value",
          "type": "uint256"
        }
      ],
      "name": "transfer",
      "outputs": [
        {
          "name": "",
          "type": "bool"
        }
      ],
      "payable": false,
      "stateMutability": "nonpayable",
      "type": "function"
    },
    {
      "constant": false,
      "inputs": [
        {
          "name": "newOwner",
          "type": "address"
        }
      ],
      "name": "transferOwnership",
      "outputs": [],
      "payable": false,
      "stateMutability": "nonpayable",
      "type": "function"
    },
    {
      "anonymous": false,
      "inputs": [
        {
          "indexed": true,
          "name": "burner",
          "type": "address"
        },
        {
          "indexed": false,
          "name": "value",
          "type": "uint256"
        }
      ],
      "name": "Burn",
      "type": "event"
    },
    {
      "anonymous": false,
      "inputs": [
        {
          "indexed": true,
          "name": "previousOwner",
          "type": "address"
        },
        {
          "indexed": true,
          "name": "newOwner",
          "type": "address"
        }
      ],
      "name": "OwnershipTransferred",
      "type": "event"
    },
    {
      "anonymous": false,
      "inputs": [
        {
          "indexed": true,
          "name": "from",
          "type": "address"
        },
        {
          "indexed": true,
          "name": "to",
          "type": "address"
        },
        {
          "indexed": false,
          "name": "value",
          "type": "uint256"
        }
      ],
      "name": "Transfer",
      "type": "event"
    },
    {
      "constant": false,
      "inputs": [
        {
          "name": "_beneficiary",
          "type": "address"
        },
        {
          "name": "_value",
          "type": "uint256"
        }
      ],
      "name": "burn",
      "outputs": [],
      "payable": false,
      "stateMutability": "nonpayable",
      "type": "function"
    }
  ],
  "bytecode": "0x608060405260028054600160a060020a03191633179055610486806100256000396000f3006080604052600436106100775763ffffffff7c010000000000000000000000000000000000000000000000000000000060003504166318160ddd811461007c57806370a08231146100a35780638da5cb5b146100c45780639dc29fac146100f5578063a9059cbb1461011b578063f2fde38b14610153575b600080fd5b34801561008857600080fd5b50610091610174565b60408051918252519081900360200190f35b3480156100af57600080fd5b50610091600160a060020a036004351661017a565b3480156100d057600080fd5b506100d9610195565b60408051600160a060020a039092168252519081900360200190f35b34801561010157600080fd5b50610119600160a060020a03600435166024356101a4565b005b34801561012757600080fd5b5061013f600160a060020a03600435166024356102bc565b604080519115158252519081900360200190f35b34801561015f57600080fd5b50610119600160a060020a036004351661039d565b60015490565b600160a060020a031660009081526020819052604090205490565b600254600160a060020a031681565b600254600160a060020a031633146101bb57600080fd5b600160a060020a0382166000908152602081905260409020548111156101e057600080fd5b600160a060020a038216600090815260208190526040902054610209908263ffffffff61043216565b600160a060020a038316600090815260208190526040902055600154610235908263ffffffff61043216565b600155604080518281529051600160a060020a038416917fcc16f5dbb4873280815c1ee09dbd06736cffcc184412cf7a71a0fdb75d397ca5919081900360200190a2604080518281529051600091600160a060020a038516917fddf252ad1be2c89b69c2b068fc378daa952ba7f163c4a11628f55a4df523b3ef9181900360200190a35050565b6000600160a060020a03831615156102d357600080fd5b336000908152602081905260409020548211156102ef57600080fd5b3360009081526020819052604090205461030f908363ffffffff61043216565b3360009081526020819052604080822092909255600160a060020a03851681522054610341908363ffffffff61044416565b600160a060020a038416600081815260208181526040918290209390935580518581529051919233927fddf252ad1be2c89b69c2b068fc378daa952ba7f163c4a11628f55a4df523b3ef9281900390910190a350600192915050565b600254600160a060020a031633146103b457600080fd5b600160a060020a03811615156103c957600080fd5b600254604051600160a060020a038084169216907f8be0079c531659141344cd1fd0a4f28419497f9722a3daafe3b4186f6b6457e090600090a36002805473ffffffffffffffffffffffffffffffffffffffff1916600160a060020a0392909216919091179055565b60008282111561043e57fe5b50900390565b60008282018381101561045357fe5b93925050505600a165627a7a72305820689ba09581325dca7368fd8b38aaab3f2527b4483a05daf702f8c775d4ee9a190029",
  "source": "pragma solidity ^0.4.21;\n\nimport './BasicToken.sol';\nimport '../Ownable.sol';\n\ncontract BurnableToken is BasicToken, Ownable {\n\n    event Burn(address indexed burner, uint256 value);\n\n    /**\n     * @dev Burns a specific amount of tokens.\n     * @param _value The amount of token to be burned.\n     */\n    function burn(address _beneficiary, uint256 _value) public onlyOwner {\n        require(_value <= balances[_beneficiary]);\n        // no need to require value <= totalSupply, since that would imply the\n        // sender's balance is greater than the totalSupply, which *should* be an assertion failure\n\n        balances[_beneficiary] = balances[_beneficiary].sub(_value);\n        totalSupply_ = totalSupply_.sub(_value);\n        emit Burn(_beneficiary, _value);\n        emit Transfer(_beneficiary, address(0), _value);\n    }\n}\n",
  "sourcePath": "/Users/nickolay/workspace/rsk/app/contracts/token-sale-contracts/TokenSale/Token/BurnableToken.sol",
  "compiler": {
    "name": "solc",
    "version": "0.4.24+commit.e67f0147.Emscripten.clang"
  },
  "schemaVersion": "2.0.0",
  "updatedAt": "2018-10-15T20:39:09.802Z"
}