{
  "contractName": "Creator",
  "abi": [
    {
      "constant": true,
      "inputs": [],
      "name": "refund",
      "outputs": [
        {
          "name": "",
          "type": "address"
        }
      ],
      "payable": false,
      "stateMutability": "view",
      "type": "function"
    },
    {
      "constant": true,
      "inputs": [],
      "name": "token",
      "outputs": [
        {
          "name": "",
          "type": "address"
        }
      ],
      "payable": false,
      "stateMutability": "view",
      "type": "function"
    },
    {
      "constant": false,
      "inputs": [],
      "name": "createToken",
      "outputs": [
        {
          "name": "",
          "type": "address"
        }
      ],
      "payable": false,
      "stateMutability": "nonpayable",
      "type": "function"
    },
    {
      "constant": false,
      "inputs": [
        {
          "name": "_token",
          "type": "address"
        },
        {
          "name": "_unlockPart1",
          "type": "uint256"
        },
        {
          "name": "_unlockPart2",
          "type": "uint256"
        }
      ],
      "name": "createAllocation",
      "outputs": [
        {
          "name": "",
          "type": "address"
        }
      ],
      "payable": false,
      "stateMutability": "nonpayable",
      "type": "function"
    },
    {
      "constant": false,
      "inputs": [],
      "name": "createRefund",
      "outputs": [
        {
          "name": "",
          "type": "address"
        }
      ],
      "payable": false,
      "stateMutability": "nonpayable",
      "type": "function"
    }
  ],
  "bytecode": "0x608060405261000c6100a0565b604051809103906000f080158015610028573d6000803e3d6000fd5b5060008054600160a060020a031916600160a060020a03929092169190911790556100516100b0565b604051809103906000f08015801561006d573d6000803e3d6000fd5b5060018054600160a060020a031916600160a060020a039290921691909117905534801561009a57600080fd5b506100c0565b60405161211180610ac583390190565b60405161073280612bd683390190565b6109f6806100cf6000396000f30060806040526004361061006c5763ffffffff7c01000000000000000000000000000000000000000000000000000000006000350416633b8b4a618114610071578063590e1ae3146100a257806379dcbd3d146100b75780639cbf9e36146100de578063fc0c546a146100f3575b600080fd5b34801561007d57600080fd5b50610086610108565b60408051600160a060020a039092168252519081900360200190f35b3480156100ae57600080fd5b50610086610195565b3480156100c357600080fd5b50610086600160a060020a03600435166024356044356101a4565b3480156100ea57600080fd5b50610086610274565b3480156100ff57600080fd5b50610086610302565b600154604080517ff2fde38b0000000000000000000000000000000000000000000000000000000081523360048201529051600092600160a060020a03169163f2fde38b916024808301928692919082900301818387803b15801561016c57600080fd5b505af1158015610180573d6000803e3d6000fd5b5050600154600160a060020a03169250505090565b600154600160a060020a031681565b6000808484846101b2610311565b600160a060020a03909316835260208301919091526040808301919091525190819003606001906000f0801580156101ee573d6000803e3d6000fd5b50604080517ff2fde38b0000000000000000000000000000000000000000000000000000000081523360048201529051919250600160a060020a0383169163f2fde38b9160248082019260009290919082900301818387803b15801561025357600080fd5b505af1158015610267573d6000803e3d6000fd5b5092979650505050505050565b60008054604080517ff2fde38b0000000000000000000000000000000000000000000000000000000081523360048201529051600160a060020a039092169163f2fde38b91602480820192869290919082900301818387803b1580156102d957600080fd5b505af11580156102ed573d6000803e3d6000fd5b5050600054600160a060020a03169250505090565b600054600160a060020a031681565b6040516106a980610322833901905600608060405234801561001057600080fd5b506040516060806106a983398101604090815281516020830151919092015160008054600160a060020a0319908116331790915560019290925560025560058054600160a060020a0390931692909116919091179055610634806100756000396000f3006080604052600436106100985763ffffffff7c0100000000000000000000000000000000000000000000000000000000600035041663026c4207811461009d5780638da5cb5b146100c4578063ae7d0cac146100f5578063c631ca0a1461011e578063ce7c2ac214610133578063dde499791461016d578063ed28de811461018e578063f2fde38b146101a3578063fc0c546a146101c4575b600080fd5b3480156100a957600080fd5b506100b26101d9565b60408051918252519081900360200190f35b3480156100d057600080fd5b506100d96101df565b60408051600160a060020a039092168252519081900360200190f35b34801561010157600080fd5b5061011c600160a060020a03600435166024356044356101ee565b005b34801561012a57600080fd5b506100b2610282565b34801561013f57600080fd5b50610154600160a060020a0360043516610288565b6040805192835260208301919091528051918290030190f35b34801561017957600080fd5b5061011c600160a060020a03600435166102a1565b34801561019a57600080fd5b506100b26104f1565b3480156101af57600080fd5b5061011c600160a060020a03600435166104f7565b3480156101d057600080fd5b506100d961058b565b60035481565b600654600160a060020a031681565b600054600160a060020a0316331461020557600080fd5b604080518082018252600160a060020a0385166000908152600460205291909120548190610239908563ffffffff61059a16565b81526020908101839052600160a060020a038516600090815260048252604090208251815591015160019091015560035461027a908363ffffffff61059a16565b600355505050565b60015481565b6004602052600090815260409020805460019091015482565b60008060015442101515156102b557600080fd5b600160a060020a03831660009081526004602052604090205460025490925042101561033457600160a060020a03831660009081526004602052604090206001015460649061030b90849063ffffffff6105b416565b81151561031457fe5b600160a060020a0385166000908152600460205260408120600101550491505b60008211156104ec57600354600554604080517f70a0823100000000000000000000000000000000000000000000000000000000815230600482015290516103f593926103e9928792600160a060020a03909216916370a08231916024808201926020929091908290030181600087803b1580156103b157600080fd5b505af11580156103c5573d6000803e3d6000fd5b505050506040513d60208110156103db57600080fd5b50519063ffffffff6105b416565b9063ffffffff6105df16565b600160a060020a038416600090815260046020526040902054909150610421908363ffffffff6105f616565b600160a060020a03841660009081526004602052604090205560035461044d908363ffffffff6105f616565b600355600554604080517fa9059cbb000000000000000000000000000000000000000000000000000000008152600160a060020a038681166004830152602482018590529151919092169163a9059cbb9160448083019260209291908290030181600087803b1580156104bf57600080fd5b505af11580156104d3573d6000803e3d6000fd5b505050506040513d60208110156104e957600080fd5b50505b505050565b60025481565b600054600160a060020a0316331461050e57600080fd5b600160a060020a038116151561052357600080fd5b60008054604051600160a060020a03808516939216917f8be0079c531659141344cd1fd0a4f28419497f9722a3daafe3b4186f6b6457e091a36000805473ffffffffffffffffffffffffffffffffffffffff1916600160a060020a0392909216919091179055565b600554600160a060020a031681565b6000828201838110156105a957fe5b8091505b5092915050565b6000808315156105c757600091506105ad565b508282028284828115156105d757fe5b04146105a957fe5b60008082848115156105ed57fe5b04949350505050565b60008282111561060257fe5b509003905600a165627a7a72305820e23632eaecbf0d6890f0d4ebda58e7e32223a2a85b4dbd9f18b85f78fb38eafd0029a165627a7a72305820d861d5d9591149d1bf95a82a89e37284837eda891c61029e0332e2a4cdc7fe8c002960806040526005805460ff1916600117905560038054600160a060020a031916331790556120df806100326000396000f3006080604052600436106101c95763ffffffff60e060020a60003504166306fdde0381146101ce578063095ea7b31461025857806311cfb19d1461029057806317221e2c146102c357806318160ddd146102e45780631b0a7774146102f95780631d67ef251461032057806320ceb5361461034757806323b872dd1461036f57806324db1f5014610399578063313ce567146104605780633c1a88d71461048b5780633f35d033146104af57806340c10f191461051857806347b27b8b1461053c57806350bb117a146105665780635c975abb146105875780636093e22a1461059c57806366188463146105c3578063680b3bdf146105e757806370a082311461063c57806375e2ff651461065d5780638328dbcd1461067e578063852e9f46146106af5780638da5cb5b146106d65780638fd3ab80146106eb57806395a0f5eb1461070057806395d89b41146107155780639dc29fac1461072a578063a9059cbb1461074e578063b3e1f52314610772578063b58e521614610798578063b8b3db4f146107bf578063ba8ad39e146107e0578063bedb86fb14610806578063d73dd62314610820578063dd62ed3e14610844578063f2fde38b1461086b578063f831ebab1461088c575b600080fd5b3480156101da57600080fd5b506101e36108b3565b6040805160208082528351818301528351919283929083019185019080838360005b8381101561021d578181015183820152602001610205565b50505050905090810190601f16801561024a5780820380516001836020036101000a031916815260200191505b509250505060405180910390f35b34801561026457600080fd5b5061027c600160a060020a03600435166024356108ea565b604080519115158252519081900360200190f35b34801561029c57600080fd5b506102b1600160a060020a0360043516610950565b60408051918252519081900360200190f35b3480156102cf57600080fd5b5061027c600160a060020a0360043516610988565b3480156102f057600080fd5b506102b161099d565b34801561030557600080fd5b5061027c600160a060020a03600435811690602435166109a3565b34801561032c57600080fd5b506102b1600160a060020a03600435811690602435166109c3565b34801561035357600080fd5b5061036d600160a060020a036004351660243515156109e0565b005b34801561037b57600080fd5b5061027c600160a060020a0360043581169060243516604435610ab1565b3480156103a557600080fd5b506040805160206004803580820135838102808601850190965280855261036d95369593946024949385019291829185019084908082843750506040805187358901803560208181028481018201909552818452989b9a998901989297509082019550935083925085019084908082843750506040805187358901803560208181028481018201909552818452989b9a998901989297509082019550935083925085019084908082843750949750610af39650505050505050565b34801561046c57600080fd5b50610475610c65565b6040805160ff9092168252519081900360200190f35b34801561049757600080fd5b5061036d600160a060020a0360043516602435610c6a565b3480156104bb57600080fd5b50604080516020600460443581810135601f810184900484028501840190955284845261027c948235600160a060020a0316946024803595369594606494920191908190840183828082843750949750610e339650505050505050565b34801561052457600080fd5b5061027c600160a060020a0360043516602435610f45565b34801561054857600080fd5b5061036d600160a060020a0360043581169060243516604435611026565b34801561057257600080fd5b506102b1600160a060020a036004351661125b565b34801561059357600080fd5b5061027c611292565b3480156105a857600080fd5b5061027c600160a060020a036004358116906024351661129b565b3480156105cf57600080fd5b5061027c600160a060020a03600435166024356112bb565b3480156105f357600080fd5b506040805160206004803580820135838102808601850190965280855261036d953695939460249493850192918291850190849080828437509497506113ab9650505050505050565b34801561064857600080fd5b506102b1600160a060020a03600435166113fe565b34801561066957600080fd5b5061036d600160a060020a0360043516611419565b34801561068a57600080fd5b50610693611475565b60408051600160a060020a039092168252519081900360200190f35b3480156106bb57600080fd5b5061036d600160a060020a0360043516602435604435611484565b3480156106e257600080fd5b506106936114ff565b3480156106f757600080fd5b5061036d61150e565b34801561070c57600080fd5b506102b1611533565b34801561072157600080fd5b506101e3611539565b34801561073657600080fd5b5061036d600160a060020a0360043516602435611570565b34801561075a57600080fd5b5061027c600160a060020a0360043516602435611676565b34801561077e57600080fd5b5061036d600160a060020a036004351660243515156116aa565b3480156107a457600080fd5b5061036d600160a060020a0360043581169060243516611795565b3480156107cb57600080fd5b5061027c600160a060020a0360043516611899565b3480156107ec57600080fd5b5061036d600160a060020a036004351660243515156118ae565b34801561081257600080fd5b5061036d600435151561194f565b34801561082c57600080fd5b5061027c600160a060020a03600435166024356119fe565b34801561085057600080fd5b506102b1600160a060020a0360043581169060243516611a97565b34801561087757600080fd5b5061036d600160a060020a0360043516611ac2565b34801561089857600080fd5b5061036d600160a060020a0360043516602435604435611b57565b60408051808201909152600481527f544f535300000000000000000000000000000000000000000000000000000000602082015281565b336000818152600260209081526040808320600160a060020a038716808552908352818420869055815186815291519394909390927f8c5be1e5ebec7d5bd14f71427d1e84f3dd0314c0f7b2291e5b200ac8c7c3b925928290030190a350600192915050565b600160a060020a0381166000908152600760205260408120600181015442111561097d5760009150610982565b805491505b50919050565b60066020526000908152604090205460ff1681565b60015490565b600b60209081526000928352604080842090915290825290205460ff1681565b600c60209081526000928352604080842090915290825290205481565b600354600160a060020a0316331480610a7b5750600354600160a060020a0316637ad71f7260026040518263ffffffff1660e060020a028152600401808260ff168152602001915050602060405180830381600087803b158015610a4357600080fd5b505af1158015610a57573d6000803e3d6000fd5b505050506040513d6020811015610a6d57600080fd5b5051600160a060020a031633145b1515610a8657600080fd5b600160a060020a03919091166000908152600660205260409020805460ff1916911515919091179055565b6000610acc82610ac086610950565b9063ffffffff611c2316565b610ad5856113fe565b1015610ae057600080fd5b610aeb848484611c32565b949350505050565b6003546000908190600160a060020a0316331480610b935750600354600160a060020a0316637ad71f7260026040518263ffffffff1660e060020a028152600401808260ff168152602001915050602060405180830381600087803b158015610b5b57600080fd5b505af1158015610b6f573d6000803e3d6000fd5b505050506040513d6020811015610b8557600080fd5b5051600160a060020a031633145b1515610b9e57600080fd5b83518551148015610bb0575082518551145b1515610bbb57600080fd5b600091505b84518261ffff161015610c5e5760076000868461ffff16815181101515610be357fe5b90602001906020020151600160a060020a0316600160a060020a031681526020019081526020016000209050838261ffff16815181101515610c2157fe5b6020908102909101015181558251839061ffff8416908110610c3f57fe5b9060200190602002015181600101819055508180600101925050610bc0565b5050505050565b601281565b600554829060ff161580610c8d57503360009081526004602052604090205460ff165b80610cb05750600160a060020a03811660009081526004602052604090205460ff165b1515610cbb57600080fd5b600160a060020a0383166000908152600b6020908152604080832033845290915290205460ff161515610ced57600080fd5b610cfa82610ac085610950565b610d03846113fe565b10158015610d115750600082115b1515610d1c57600080fd5b600160a060020a038316600090815260208190526040902054610d45908363ffffffff611c9a16565b600160a060020a03841660009081526020818152604080832093909355600c815282822033835290522054610d80908363ffffffff611c2316565b600160a060020a0384166000818152600c60209081526040808320338452825280832094909455835186815293519193600080516020612094833981519152929081900390910190a360408051602081018490528181526005818301527f626c6f636b000000000000000000000000000000000000000000000000000000606082015290513391600091600160a060020a03871691600080516020612074833981519152919081900360800190a4505050565b60008084803b828111610e4557600080fd5b610e4f8787611676565b5086925082600160a060020a031663c0ee0b8a3388886040518463ffffffff1660e060020a0281526004018084600160a060020a0316600160a060020a0316815260200183815260200180602001828103825283818151815260200191508051906020019080838360005b83811015610ed2578181015183820152602001610eba565b50505050905090810190601f168015610eff5780820380516001836020036101000a031916815260200191505b50945050505050600060405180830381600087803b158015610f2057600080fd5b505af1158015610f34573d6000803e3d6000fd5b5060019a9950505050505050505050565b600354600090600160a060020a03163314610f5f57600080fd5b600154610f72908363ffffffff611c2316565b600155600160a060020a038316600090815260208190526040902054610f9e908363ffffffff611c2316565b600160a060020a03841660008181526020818152604091829020939093558051858152905191927f0f6798a560793a54c3bcfe86a93cde1e73087d944c0ea20544137d412139688592918290030190a2604080518381529051600160a060020a038516916000916000805160206120948339815191529181900360200190a350600192915050565b600554829060ff16158061104957503360009081526004602052604090205460ff165b8061106c5750600160a060020a03811660009081526004602052604090205460ff165b151561107757600080fd5b600160a060020a0384166000908152600b6020908152604080832033845290915290205460ff1615156110a957600080fd5b600160a060020a0384166000908152600c6020908152604080832033845290915290205482118015906110dc5750600082115b15156110e757600080fd5b600160a060020a0384166000908152600c6020908152604080832033845290915290205461111b908363ffffffff611c9a16565b600160a060020a038086166000908152600c60209081526040808320338452825280832094909455918616815290819052205461115e908363ffffffff611c2316565b600160a060020a0380851660009081526020818152604080832094909455835186815293519288169391926000805160206120948339815191529281900390910190a3600160a060020a03848116908416146111ee5782600160a060020a031684600160a060020a0316600080516020612094833981519152846040518082815260200191505060405180910390a35b60408051602081018490528181526007818301527f756e626c6f636b00000000000000000000000000000000000000000000000000606082015290513391600160a060020a038681169290881691600080516020612074833981519152919081900360800190a450505050565b600160a060020a038116600090815260076020526040812060018101544211156112885760009150610982565b6001015492915050565b60055460ff1681565b600a60209081526000928352604080842090915290825290205460ff1681565b336000908152600260209081526040808320600160a060020a03861684529091528120548083111561131057336000908152600260209081526040808320600160a060020a0388168452909152812055611345565b611320818463ffffffff611c9a16565b336000908152600260209081526040808320600160a060020a03891684529091529020555b336000818152600260209081526040808320600160a060020a0389168085529083529281902054815190815290519293927f8c5be1e5ebec7d5bd14f71427d1e84f3dd0314c0f7b2291e5b200ac8c7c3b925929181900390910190a35060019392505050565b600354600090600160a060020a031633146113c557600080fd5b5060005b81518110156113fa576113f282828151811015156113e357fe5b90602001906020020151611cac565b6001016113c9565b5050565b600160a060020a031660009081526020819052604090205490565b600354600160a060020a0316331461143057600080fd5b600954600160a060020a03161561144657600080fd5b6009805473ffffffffffffffffffffffffffffffffffffffff1916600160a060020a0392909216919091179055565b600954600160a060020a031681565b3360009081526004602052604081205460ff1615156114a257600080fd5b60008211156114f55750600160a060020a038316600090815260076020526040902080546114d6908463ffffffff611c2316565b8155600181015482106114e957816114ef565b80600101545b60018201555b610c5e8484611676565b600354600160a060020a031681565b336000908152602081905260408120541161152857600080fd5b61153133611cac565b565b60085481565b60408051808201909152600d81527f50524f4f46204f4620544f535300000000000000000000000000000000000000602082015281565b600354600160a060020a0316331461158757600080fd5b600160a060020a0382166000908152602081905260409020548111156115ac57600080fd5b600160a060020a0382166000908152602081905260409020546115d5908263ffffffff611c9a16565b600160a060020a038316600090815260208190526040902055600154611601908263ffffffff611c9a16565b600155604080518281529051600160a060020a038416917fcc16f5dbb4873280815c1ee09dbd06736cffcc184412cf7a71a0fdb75d397ca5919081900360200190a2604080518281529051600091600160a060020a038516916000805160206120948339815191529181900360200190a35050565b600061168582610ac033610950565b61168e336113fe565b101561169957600080fd5b6116a38383611de1565b9392505050565b600354600160a060020a03163314806116d257503360009081526006602052604090205460ff165b8061175f5750600354600160a060020a0316637ad71f7260026040518263ffffffff1660e060020a028152600401808260ff168152602001915050602060405180830381600087803b15801561172757600080fd5b505af115801561173b573d6000803e3d6000fd5b505050506040513d602081101561175157600080fd5b5051600160a060020a031633145b151561176a57600080fd5b600160a060020a03919091166000908152600460205260409020805460ff1916911515919091179055565b80803b600081116117a557600080fd5b600160a060020a03831633148015906117cc5750600354600160a060020a03848116911614155b15156117d757600080fd5b600160a060020a0384166000908152600a6020908152604080832033845290915290205460ff16151561180957600080fd5b600160a060020a038085166000818152600b60209081526040808320948816808452948252808320805460ff19166001179055805191820192909252818152600e818301527f616c6c6f775f626c6f636b696e670000000000000000000000000000000000006060820152905133939291600080516020612074833981519152919081900360800190a450505050565b60046020526000908152604090205460ff1681565b81803b600081116118be57600080fd5b336000818152600a60209081526040808320600160a060020a038916808552908352818420805489151560ff1990911617905581519283018490528183526014838301527f6772616e745f616c6c6f775f626c6f636b696e6700000000000000000000000060608401529051929390929091600080516020612074833981519152919081900360800190a450505050565b600354600160a060020a0316331461196657600080fd5b60055460ff161580156119765750805b156119b2576005805460ff191660011790556040517f6985a02210a168e66602d3235cb6db0e70f92b3ba4d376a33c0f3d9434bff62590600090a15b60055460ff1680156119c2575080155b156119fb576005805460ff191690556040517f7805862f689e2f13df9f062ff482ad3ad112aca9e0847911ed832e158c525b3390600090a15b50565b336000908152600260209081526040808320600160a060020a0386168452909152812054611a32908363ffffffff611c2316565b336000818152600260209081526040808320600160a060020a0389168085529083529281902085905580519485525191937f8c5be1e5ebec7d5bd14f71427d1e84f3dd0314c0f7b2291e5b200ac8c7c3b925929081900390910190a350600192915050565b600160a060020a03918216600090815260026020908152604080832093909416825291909152205490565b600354600160a060020a03163314611ad957600080fd5b600160a060020a0381161515611aee57600080fd5b600354604051600160a060020a038084169216907f8be0079c531659141344cd1fd0a4f28419497f9722a3daafe3b4186f6b6457e090600090a36003805473ffffffffffffffffffffffffffffffffffffffff1916600160a060020a0392909216919091179055565b600354600090600160a060020a0316331480611bf55750600354600160a060020a0316637ad71f7260026040518263ffffffff1660e060020a028152600401808260ff168152602001915050602060405180830381600087803b158015611bbd57600080fd5b505af1158015611bd1573d6000803e3d6000fd5b505050506040513d6020811015611be757600080fd5b5051600160a060020a031633145b1515611c0057600080fd5b50600160a060020a03909216600090815260076020526040902090815560010155565b6000828201838110156116a357fe5b600554600090839060ff161580611c5857503360009081526004602052604090205460ff165b80611c7b5750600160a060020a03811660009081526004602052604090205460ff165b1515611c8657600080fd5b611c91858585611e3f565b95945050505050565b600082821115611ca657fe5b50900390565b600954600090600160a060020a03161515611cc657600080fd5b50600160a060020a03811660009081526020819052604081208054919055600154611cf7908263ffffffff611c9a16565b600155600854611d0d908263ffffffff611c2316565b600855600954604080517f7a3130e3000000000000000000000000000000000000000000000000000000008152600160a060020a0385811660048301526024820185905291519190921691637a3130e391604480830192600092919082900301818387803b158015611d7e57600080fd5b505af1158015611d92573d6000803e3d6000fd5b5050600954604080518581529051600160a060020a03928316945091861692507f18df02dcc52b9c494f391df09661519c0069bd8540141946280399408205ca1a919081900360200190a35050565b600554600090839060ff161580611e0757503360009081526004602052604090205460ff165b80611e2a5750600160a060020a03811660009081526004602052604090205460ff165b1515611e3557600080fd5b610aeb8484611fa4565b6000600160a060020a0383161515611e5657600080fd5b600160a060020a038416600090815260208190526040902054821115611e7b57600080fd5b600160a060020a0384166000908152600260209081526040808320338452909152902054821115611eab57600080fd5b600160a060020a038416600090815260208190526040902054611ed4908363ffffffff611c9a16565b600160a060020a038086166000908152602081905260408082209390935590851681522054611f09908363ffffffff611c2316565b600160a060020a03808516600090815260208181526040808320949094559187168152600282528281203382529091522054611f4b908363ffffffff611c9a16565b600160a060020a0380861660008181526002602090815260408083203384528252918290209490945580518681529051928716939192600080516020612094833981519152929181900390910190a35060019392505050565b6000600160a060020a0383161515611fbb57600080fd5b33600090815260208190526040902054821115611fd757600080fd5b33600090815260208190526040902054611ff7908363ffffffff611c9a16565b3360009081526020819052604080822092909255600160a060020a03851681522054612029908363ffffffff611c2316565b600160a060020a038416600081815260208181526040918290209390935580518581529051919233926000805160206120948339815191529281900390910190a35060019291505056009b56fa31e6a762f0fbec5f6102fd26a9d0c578481150835eed4ad0c037eb7e95ddf252ad1be2c89b69c2b068fc378daa952ba7f163c4a11628f55a4df523b3efa165627a7a72305820769e7c3279a75029bc799a2e4a244df1b3ddc86a722f2e81f8b0d9f6b09c6bbf0029608060405234801561001057600080fd5b5060008054600160a060020a031916331781556002805460ff191690556106f590819061003d90396000f3006080604052600436106100a35763ffffffff7c01000000000000000000000000000000000000000000000000000000006000350416631ef3755d81146100a857806347fa061e146100bf5780638c52dc41146100f85780638da5cb5b1461010d578063b9caebf41461013e578063c19d93fb1461015f578063f2fde38b14610198578063f340fa01146101b9578063f5bf7413146101cd578063fa89401a146101f7575b600080fd5b3480156100b457600080fd5b506100bd610218565b005b3480156100cb57600080fd5b506100e660ff60043516600160a060020a036024351661028b565b60408051918252519081900360200190f35b34801561010457600080fd5b506100bd6102a8565b34801561011957600080fd5b50610122610314565b60408051600160a060020a039092168252519081900360200190f35b34801561014a57600080fd5b506100bd600160a060020a0360043516610323565b34801561016b57600080fd5b50610174610346565b6040518082600281111561018457fe5b60ff16815260200191505060405180910390f35b3480156101a457600080fd5b506100bd600160a060020a036004351661034f565b6100bd600160a060020a03600435166103e3565b3480156101d957600080fd5b506100bd600160a060020a03600435811690602435166044356104ba565b34801561020357600080fd5b506100bd600160a060020a03600435166105bb565b600054600160a060020a0316331461022f57600080fd5b6002805460ff168181111561024057fe5b1461024a57600080fd5b6000805474ff000000000000000000000000000000000000000019811660a060020a9182900460ff908116600101169091021790556002805460ff19169055565b600160209081526000928352604080842090915290825290205481565b600054600160a060020a031633146102bf57600080fd5b60006002805460ff16908111156102d257fe5b146102dc57600080fd5b6002805460ff191660011790556040517f599d8e5a83cffb867d051598c4d70e805d59802d8081c1c7d6dffc5b6aca2b8990600090a1565b600054600160a060020a031681565b600054600160a060020a0316331461033a57600080fd5b80600160a060020a0316ff5b60025460ff1681565b600054600160a060020a0316331461036657600080fd5b600160a060020a038116151561037b57600080fd5b60008054604051600160a060020a03808516939216917f8be0079c531659141344cd1fd0a4f28419497f9722a3daafe3b4186f6b6457e091a36000805473ffffffffffffffffffffffffffffffffffffffff1916600160a060020a0392909216919091179055565b600054600160a060020a031633146103fa57600080fd5b60006002805460ff169081111561040d57fe5b1461041757600080fd5b6000805460a060020a900460ff168152600160209081526040808320600160a060020a038516845290915290205461044f90346106b3565b6000805460a060020a900460ff168152600160209081526040808320600160a060020a03861680855290835292819020939093558251348152925191927f2da466a7b24304f47e87fa2e1e5a81b9831ce54fec19055ce277ca2f39ba42c4929081900390910190a250565b600054600160a060020a031633146104d157600080fd5b60006002805460ff16908111156104e457fe5b146104ee57600080fd5b600160a060020a038316151561050357600080fd5b6002805460ff1916811790556040517f1cdde67b72a90f19919ac732a437ac2f7a10fc128d28c2a6e525d89ce5cd9d3a90600090a1600160a060020a0382161561057f57604051600160a060020a0383169082156108fc029083906000818181858888f1935050505015801561057d573d6000803e3d6000fd5b505b604051600160a060020a03841690303180156108fc02916000818181858888f193505050501580156105b5573d6000803e3d6000fd5b50505050565b600060016002805460ff16908111156105d057fe5b146105da57600080fd5b506000805460a060020a900460ff168152600160209081526040808320600160a060020a038516845290915281205490811161061557600080fd5b6000805460a060020a900460ff168152600160209081526040808320600160a060020a03861680855292528083208390555190916108fc841502918491818181858888f1935050505015801561066f573d6000803e3d6000fd5b50604080518281529051600160a060020a038416917fd7dee2702d63ad89917b6a4da9981c90c4d24f8c2bdfd64c604ecae57d8d0651919081900360200190a25050565b6000828201838110156106c257fe5b93925050505600a165627a7a72305820e8175a2b52eadcb63eeda6755fe307ba2b4ecca42577765f488b42cc70b818790029",
  "source": "pragma solidity ^0.4.21;\n\nimport './RefundVault.sol';\nimport './AllocationToss.sol';\nimport '../Token/Token.sol';\n\ncontract Creator{\n    Token public token = new Token();\n    RefundVault public refund = new RefundVault();\n\n    function createToken() external returns (Token) {\n        token.transferOwnership(msg.sender);\n        return token;\n    }\n\n    function createAllocation(Token _token, uint256 _unlockPart1, uint256 _unlockPart2) external returns (AllocationTOSS) {\n        AllocationTOSS allocation = new AllocationTOSS(_token,_unlockPart1,_unlockPart2);\n        allocation.transferOwnership(msg.sender);\n        return allocation;\n    }\n\n    function createRefund() external returns (RefundVault) {\n        refund.transferOwnership(msg.sender);\n        return refund;\n    }\n\n}\n",
  "sourcePath": "/Users/nickolay/workspace/rsk/app/contracts/token-sale-contracts/TokenSale/Crowdsale/Creator.sol",
  "compiler": {
    "name": "solc",
    "version": "0.4.24+commit.e67f0147.Emscripten.clang"
  },
  "schemaVersion": "2.0.0",
  "updatedAt": "2018-10-15T20:39:09.734Z"
}