{
  "contractName": "Crowdsale",
  "abi": [
    {
      "constant": true,
      "inputs": [],
      "name": "creator",
      "outputs": [
        {
          "name": "",
          "type": "address"
        }
      ],
      "payable": false,
      "stateMutability": "view",
      "type": "function"
    },
    {
      "constant": true,
      "inputs": [],
      "name": "weiRound1",
      "outputs": [
        {
          "name": "",
          "type": "uint256"
        }
      ],
      "payable": false,
      "stateMutability": "view",
      "type": "function"
    },
    {
      "constant": true,
      "inputs": [],
      "name": "rate",
      "outputs": [
        {
          "name": "",
          "type": "uint256"
        }
      ],
      "payable": false,
      "stateMutability": "view",
      "type": "function"
    },
    {
      "constant": true,
      "inputs": [
        {
          "name": "",
          "type": "uint256"
        }
      ],
      "name": "profits",
      "outputs": [
        {
          "name": "percent",
          "type": "uint256"
        },
        {
          "name": "duration",
          "type": "uint256"
        }
      ],
      "payable": false,
      "stateMutability": "view",
      "type": "function"
    },
    {
      "constant": true,
      "inputs": [],
      "name": "TokenSale",
      "outputs": [
        {
          "name": "",
          "type": "uint8"
        }
      ],
      "payable": false,
      "stateMutability": "view",
      "type": "function"
    },
    {
      "constant": true,
      "inputs": [],
      "name": "endTime",
      "outputs": [
        {
          "name": "",
          "type": "uint256"
        }
      ],
      "payable": false,
      "stateMutability": "view",
      "type": "function"
    },
    {
      "constant": true,
      "inputs": [],
      "name": "isInitialized",
      "outputs": [
        {
          "name": "",
          "type": "bool"
        }
      ],
      "payable": false,
      "stateMutability": "view",
      "type": "function"
    },
    {
      "constant": true,
      "inputs": [],
      "name": "maxAllProfit",
      "outputs": [
        {
          "name": "",
          "type": "uint256"
        }
      ],
      "payable": false,
      "stateMutability": "view",
      "type": "function"
    },
    {
      "constant": true,
      "inputs": [],
      "name": "ethWeiRaised",
      "outputs": [
        {
          "name": "",
          "type": "uint256"
        }
      ],
      "payable": false,
      "stateMutability": "view",
      "type": "function"
    },
    {
      "constant": true,
      "inputs": [],
      "name": "renewal",
      "outputs": [
        {
          "name": "",
          "type": "uint256"
        }
      ],
      "payable": false,
      "stateMutability": "view",
      "type": "function"
    },
    {
      "constant": true,
      "inputs": [],
      "name": "totalSaledToken",
      "outputs": [
        {
          "name": "",
          "type": "uint256"
        }
      ],
      "payable": false,
      "stateMutability": "view",
      "type": "function"
    },
    {
      "constant": true,
      "inputs": [],
      "name": "startTime",
      "outputs": [
        {
          "name": "",
          "type": "uint256"
        }
      ],
      "payable": false,
      "stateMutability": "view",
      "type": "function"
    },
    {
      "constant": true,
      "inputs": [
        {
          "name": "",
          "type": "uint256"
        }
      ],
      "name": "wallets",
      "outputs": [
        {
          "name": "",
          "type": "address"
        }
      ],
      "payable": false,
      "stateMutability": "view",
      "type": "function"
    },
    {
      "constant": true,
      "inputs": [],
      "name": "minPay",
      "outputs": [
        {
          "name": "",
          "type": "uint256"
        }
      ],
      "payable": false,
      "stateMutability": "view",
      "type": "function"
    },
    {
      "constant": true,
      "inputs": [],
      "name": "allocation",
      "outputs": [
        {
          "name": "",
          "type": "address"
        }
      ],
      "payable": false,
      "stateMutability": "view",
      "type": "function"
    },
    {
      "constant": true,
      "inputs": [],
      "name": "isFinalized",
      "outputs": [
        {
          "name": "",
          "type": "bool"
        }
      ],
      "payable": false,
      "stateMutability": "view",
      "type": "function"
    },
    {
      "constant": true,
      "inputs": [],
      "name": "softCap",
      "outputs": [
        {
          "name": "",
          "type": "uint256"
        }
      ],
      "payable": false,
      "stateMutability": "view",
      "type": "function"
    },
    {
      "constant": true,
      "inputs": [
        {
          "name": "",
          "type": "uint256"
        }
      ],
      "name": "bonuses",
      "outputs": [
        {
          "name": "value",
          "type": "uint256"
        },
        {
          "name": "procent",
          "type": "uint256"
        },
        {
          "name": "freezeTime",
          "type": "uint256"
        }
      ],
      "payable": false,
      "stateMutability": "view",
      "type": "function"
    },
    {
      "constant": true,
      "inputs": [],
      "name": "canFirstMint",
      "outputs": [
        {
          "name": "",
          "type": "bool"
        }
      ],
      "payable": false,
      "stateMutability": "view",
      "type": "function"
    },
    {
      "constant": true,
      "inputs": [],
      "name": "nonEthWeiRaised",
      "outputs": [
        {
          "name": "",
          "type": "uint256"
        }
      ],
      "payable": false,
      "stateMutability": "view",
      "type": "function"
    },
    {
      "constant": true,
      "inputs": [],
      "name": "chargeBonuses",
      "outputs": [
        {
          "name": "",
          "type": "bool"
        }
      ],
      "payable": false,
      "stateMutability": "view",
      "type": "function"
    },
    {
      "constant": true,
      "inputs": [],
      "name": "isPausedCrowdsale",
      "outputs": [
        {
          "name": "",
          "type": "bool"
        }
      ],
      "payable": false,
      "stateMutability": "view",
      "type": "function"
    },
    {
      "constant": true,
      "inputs": [],
      "name": "exchange",
      "outputs": [
        {
          "name": "",
          "type": "uint256"
        }
      ],
      "payable": false,
      "stateMutability": "view",
      "type": "function"
    },
    {
      "constant": true,
      "inputs": [],
      "name": "overLimit",
      "outputs": [
        {
          "name": "",
          "type": "uint256"
        }
      ],
      "payable": false,
      "stateMutability": "view",
      "type": "function"
    },
    {
      "constant": true,
      "inputs": [],
      "name": "tokenReserved",
      "outputs": [
        {
          "name": "",
          "type": "uint256"
        }
      ],
      "payable": false,
      "stateMutability": "view",
      "type": "function"
    },
    {
      "constant": true,
      "inputs": [],
      "name": "hardCap",
      "outputs": [
        {
          "name": "",
          "type": "uint256"
        }
      ],
      "payable": false,
      "stateMutability": "view",
      "type": "function"
    },
    {
      "constant": true,
      "inputs": [],
      "name": "vault",
      "outputs": [
        {
          "name": "",
          "type": "address"
        }
      ],
      "payable": false,
      "stateMutability": "view",
      "type": "function"
    },
    {
      "constant": true,
      "inputs": [],
      "name": "token",
      "outputs": [
        {
          "name": "",
          "type": "address"
        }
      ],
      "payable": false,
      "stateMutability": "view",
      "type": "function"
    },
    {
      "inputs": [
        {
          "name": "_creator",
          "type": "address"
        }
      ],
      "payable": false,
      "stateMutability": "nonpayable",
      "type": "constructor"
    },
    {
      "payable": true,
      "stateMutability": "payable",
      "type": "fallback"
    },
    {
      "anonymous": false,
      "inputs": [
        {
          "indexed": true,
          "name": "purchaser",
          "type": "address"
        },
        {
          "indexed": true,
          "name": "beneficiary",
          "type": "address"
        },
        {
          "indexed": false,
          "name": "value",
          "type": "uint256"
        },
        {
          "indexed": false,
          "name": "amount",
          "type": "uint256"
        }
      ],
      "name": "TokenPurchase",
      "type": "event"
    },
    {
      "anonymous": false,
      "inputs": [],
      "name": "Finalized",
      "type": "event"
    },
    {
      "anonymous": false,
      "inputs": [],
      "name": "Initialized",
      "type": "event"
    },
    {
      "constant": false,
      "inputs": [
        {
          "name": "_amount",
          "type": "uint256"
        }
      ],
      "name": "firstMintRound0",
      "outputs": [],
      "payable": false,
      "stateMutability": "nonpayable",
      "type": "function"
    },
    {
      "constant": true,
      "inputs": [],
      "name": "totalSupply",
      "outputs": [
        {
          "name": "",
          "type": "uint256"
        }
      ],
      "payable": false,
      "stateMutability": "view",
      "type": "function"
    },
    {
      "constant": true,
      "inputs": [],
      "name": "getTokenSaleType",
      "outputs": [
        {
          "name": "",
          "type": "string"
        }
      ],
      "payable": false,
      "stateMutability": "view",
      "type": "function"
    },
    {
      "constant": true,
      "inputs": [],
      "name": "hasEnded",
      "outputs": [
        {
          "name": "",
          "type": "bool"
        }
      ],
      "payable": false,
      "stateMutability": "view",
      "type": "function"
    },
    {
      "constant": false,
      "inputs": [],
      "name": "finalize",
      "outputs": [],
      "payable": false,
      "stateMutability": "nonpayable",
      "type": "function"
    },
    {
      "constant": false,
      "inputs": [],
      "name": "finalize2",
      "outputs": [],
      "payable": false,
      "stateMutability": "nonpayable",
      "type": "function"
    },
    {
      "constant": false,
      "inputs": [],
      "name": "initialize",
      "outputs": [],
      "payable": false,
      "stateMutability": "nonpayable",
      "type": "function"
    },
    {
      "constant": false,
      "inputs": [],
      "name": "claimRefund",
      "outputs": [],
      "payable": false,
      "stateMutability": "nonpayable",
      "type": "function"
    },
    {
      "constant": true,
      "inputs": [],
      "name": "goalReached",
      "outputs": [
        {
          "name": "",
          "type": "bool"
        }
      ],
      "payable": false,
      "stateMutability": "view",
      "type": "function"
    },
    {
      "constant": false,
      "inputs": [
        {
          "name": "_startTime",
          "type": "uint256"
        },
        {
          "name": "_endTime",
          "type": "uint256"
        },
        {
          "name": "_softCap",
          "type": "uint256"
        },
        {
          "name": "_hardCap",
          "type": "uint256"
        },
        {
          "name": "_rate",
          "type": "uint256"
        },
        {
          "name": "_exchange",
          "type": "uint256"
        },
        {
          "name": "_maxAllProfit",
          "type": "uint256"
        },
        {
          "name": "_overLimit",
          "type": "uint256"
        },
        {
          "name": "_minPay",
          "type": "uint256"
        },
        {
          "name": "_durationTB",
          "type": "uint256[]"
        },
        {
          "name": "_percentTB",
          "type": "uint256[]"
        },
        {
          "name": "_valueVB",
          "type": "uint256[]"
        },
        {
          "name": "_percentVB",
          "type": "uint256[]"
        },
        {
          "name": "_freezeTimeVB",
          "type": "uint256[]"
        }
      ],
      "name": "setup",
      "outputs": [],
      "payable": false,
      "stateMutability": "nonpayable",
      "type": "function"
    },
    {
      "constant": true,
      "inputs": [],
      "name": "weiRaised",
      "outputs": [
        {
          "name": "",
          "type": "uint256"
        }
      ],
      "payable": false,
      "stateMutability": "view",
      "type": "function"
    },
    {
      "constant": true,
      "inputs": [],
      "name": "weiTotalRaised",
      "outputs": [
        {
          "name": "",
          "type": "uint256"
        }
      ],
      "payable": false,
      "stateMutability": "view",
      "type": "function"
    },
    {
      "constant": true,
      "inputs": [],
      "name": "getProfitPercent",
      "outputs": [
        {
          "name": "",
          "type": "uint256"
        }
      ],
      "payable": false,
      "stateMutability": "view",
      "type": "function"
    },
    {
      "constant": true,
      "inputs": [
        {
          "name": "_timeNow",
          "type": "uint256"
        }
      ],
      "name": "getProfitPercentForData",
      "outputs": [
        {
          "name": "",
          "type": "uint256"
        }
      ],
      "payable": false,
      "stateMutability": "view",
      "type": "function"
    },
    {
      "constant": true,
      "inputs": [
        {
          "name": "_value",
          "type": "uint256"
        }
      ],
      "name": "getBonuses",
      "outputs": [
        {
          "name": "",
          "type": "uint256"
        },
        {
          "name": "",
          "type": "uint256"
        },
        {
          "name": "",
          "type": "uint256"
        }
      ],
      "payable": false,
      "stateMutability": "view",
      "type": "function"
    },
    {
      "constant": false,
      "inputs": [],
      "name": "tokenUnpause",
      "outputs": [],
      "payable": false,
      "stateMutability": "nonpayable",
      "type": "function"
    },
    {
      "constant": false,
      "inputs": [],
      "name": "tokenPause",
      "outputs": [],
      "payable": false,
      "stateMutability": "nonpayable",
      "type": "function"
    },
    {
      "constant": false,
      "inputs": [
        {
          "name": "mode",
          "type": "bool"
        }
      ],
      "name": "setCrowdsalePause",
      "outputs": [],
      "payable": false,
      "stateMutability": "nonpayable",
      "type": "function"
    },
    {
      "constant": false,
      "inputs": [
        {
          "name": "_migrationAgent",
          "type": "address"
        }
      ],
      "name": "moveTokens",
      "outputs": [],
      "payable": false,
      "stateMutability": "nonpayable",
      "type": "function"
    },
    {
      "constant": false,
      "inputs": [
        {
          "name": "_holders",
          "type": "address[]"
        }
      ],
      "name": "migrateAll",
      "outputs": [],
      "payable": false,
      "stateMutability": "nonpayable",
      "type": "function"
    },
    {
      "constant": false,
      "inputs": [
        {
          "name": "_role",
          "type": "uint8"
        },
        {
          "name": "_wallet",
          "type": "address"
        }
      ],
      "name": "changeWallet",
      "outputs": [],
      "payable": false,
      "stateMutability": "nonpayable",
      "type": "function"
    },
    {
      "constant": false,
      "inputs": [],
      "name": "resetAllWallets",
      "outputs": [],
      "payable": false,
      "stateMutability": "nonpayable",
      "type": "function"
    },
    {
      "constant": false,
      "inputs": [
        {
          "name": "_beneficiary",
          "type": "address[]"
        },
        {
          "name": "_value",
          "type": "uint256[]"
        }
      ],
      "name": "massBurnTokens",
      "outputs": [],
      "payable": false,
      "stateMutability": "nonpayable",
      "type": "function"
    },
    {
      "constant": false,
      "inputs": [
        {
          "name": "_duration",
          "type": "uint256"
        }
      ],
      "name": "prolong",
      "outputs": [],
      "payable": false,
      "stateMutability": "nonpayable",
      "type": "function"
    },
    {
      "constant": false,
      "inputs": [],
      "name": "distructVault",
      "outputs": [],
      "payable": false,
      "stateMutability": "nonpayable",
      "type": "function"
    },
    {
      "constant": false,
      "inputs": [
        {
          "name": "_token",
          "type": "uint256"
        },
        {
          "name": "_value",
          "type": "uint256"
        }
      ],
      "name": "paymentsInOtherCurrency",
      "outputs": [],
      "payable": false,
      "stateMutability": "nonpayable",
      "type": "function"
    },
    {
      "constant": false,
      "inputs": [
        {
          "name": "beneficiary",
          "type": "address"
        }
      ],
      "name": "buyTokens",
      "outputs": [],
      "payable": true,
      "stateMutability": "payable",
      "type": "function"
    }
  ],
  "bytecode": "0x60008054600160ff199091161760b060020a60ff02191690556003805460c060020a60ff02191678010000000000000000000000000000000000000000000000001790556101c060405233608081815260a082905260c0829052738a91ac199440da0b45b2e278f3fe616b1bccc49460e0526101008290526101208290526101408290526101608290526101808290526101a091909152620000a690600490600a6200017c565b50635adef210601055635b2f5d5460115569021e19e0c9bab24000006013556825f273933db57000006014556901ccc9324511e4500000601555690f2405d408c3adb000006016556801158e460913d0000060175566fc3e1fb30d8000601855601e6019553480156200011857600080fd5b50604051602080620034ef833981016040525160008054600160a060020a039092166101000261010060a860020a031960a860020a60ff02199093167501000000000000000000000000000000000000000000179290921691909117905562000203565b82600a8101928215620001c7579160200282015b82811115620001c75782518254600160a060020a031916600160a060020a0390911617825560209092019160019091019062000190565b50620001d5929150620001d9565b5090565b6200020091905b80821115620001d5578054600160a060020a0319168155600101620001e0565b90565b6132dc80620002136000396000f3006080604052600436106102795763ffffffff60e060020a60003504166302093ee2811461028457806302d05d3f146102995780630580d5c7146102ca5780630abd2ba8146102f65780631391697d1461030b57806318160ddd146103325780631a63aa4d146103475780631b302a161461035f5780632c4e722e146103745780632cde15d1146103895780632e5f6d4c1461039e57806331380c89146103cf5780633197cbb614610408578063333dbda81461041d578063392e53cd146104385780634042b66f14610461578063426f5531146104765780634bb278f31461048b5780634bca4626146104a05780635241b39d146104b5578063549df19f146104ca578063566fc6de146104df57806360a22932146104f457806363689b4a14610509578063680b3bdf1461052a57806378e979251461057f5780637ad71f72146105945780637d3d6522146105ac5780637ebdab54146105c15780638129fc1c1461072257806382d186501461073757806388a17bde1461074c5780638a0c47cd146107615780638d4e408314610788578063906a26e01461079d57806391816981146107b257806399554fb7146107ca578063ab375641146107df578063ac60c96914610815578063b0e657a71461082a578063b16d153814610842578063b5545a3c14610857578063bc7411b21461086c578063c8b43c1014610881578063caa035d614610896578063d2f7265a14610920578063e06e0e4314610935578063e195d0961461094a578063e59c9ada1461095f578063e9bec83314610977578063ec8ac4d814610991578063ecb70fb7146109a5578063fb86a404146109ba578063fbfa77cf146109cf578063fc0c546a146109e4575b610282336109f9565b005b34801561029057600080fd5b50610282610b6c565b3480156102a557600080fd5b506102ae6110dc565b60408051600160a060020a039092168252519081900360200190f35b3480156102d657600080fd5b5061028260246004803582810192908201359181359182019101356110f0565b34801561030257600080fd5b50610282611210565b34801561031757600080fd5b506103206112b1565b60408051918252519081900360200190f35b34801561033e57600080fd5b506103206112b7565b34801561035357600080fd5b50610282600435611348565b34801561036b57600080fd5b506102826113be565b34801561038057600080fd5b506103206114a2565b34801561039557600080fd5b506103206114a8565b3480156103aa57600080fd5b506103b66004356114c9565b6040805192835260208301919091528051918290030190f35b3480156103db57600080fd5b506103e46114f5565b604051808260018111156103f457fe5b60ff16815260200191505060405180910390f35b34801561041457600080fd5b506103206114fe565b34801561042957600080fd5b50610282600435602435611504565b34801561044457600080fd5b5061044d61159c565b604080519115158252519081900360200190f35b34801561046d57600080fd5b506103206115ac565b34801561048257600080fd5b506103206115c5565b34801561049757600080fd5b506102826115cb565b3480156104ac57600080fd5b506103206116c2565b3480156104c157600080fd5b506103206116c8565b3480156104d657600080fd5b506102826116ce565b3480156104eb57600080fd5b506103206117d4565b34801561050057600080fd5b506103206117df565b34801561051557600080fd5b50610282600160a060020a03600435166117e5565b34801561053657600080fd5b50604080516020600480358082013583810280860185019096528085526102829536959394602494938501929182918501908490808284375094975061186a9650505050505050565b34801561058b57600080fd5b50610320611913565b3480156105a057600080fd5b506102ae600435611919565b3480156105b857600080fd5b5061044d611936565b3480156105cd57600080fd5b5060408051602060046101243581810135838102808601850190965280855261028295833595602480359660443596606435966084359660a4359660c4359660e43596610104359636969561014495939492019291829185019084908082843750506040805187358901803560208181028481018201909552818452989b9a998901989297509082019550935083925085019084908082843750506040805187358901803560208181028481018201909552818452989b9a998901989297509082019550935083925085019084908082843750506040805187358901803560208181028481018201909552818452989b9a998901989297509082019550935083925085019084908082843750506040805187358901803560208181028481018201909552818452989b9a99890198929750908201955093508392508501908490808284375094975061194a9650505050505050565b34801561072e57600080fd5b50610282611b61565b34801561074357600080fd5b50610320611c14565b34801561075857600080fd5b506102ae611c1a565b34801561076d57600080fd5b5061028260ff60043516600160a060020a0360243516611c29565b34801561079457600080fd5b5061044d611d1a565b3480156107a957600080fd5b50610320611d2a565b3480156107be57600080fd5b50610320600435611d30565b3480156107d657600080fd5b50610282611dd3565b3480156107eb57600080fd5b506107f7600435611f32565b60408051938452602084019290925282820152519081900360600190f35b34801561082157600080fd5b5061044d611f63565b34801561083657600080fd5b50610282600435611f88565b34801561084e57600080fd5b50610320612068565b34801561086357600080fd5b5061028261206e565b34801561087857600080fd5b5061044d6120ea565b34801561088d57600080fd5b5061044d61210e565b3480156108a257600080fd5b506108ab61211e565b6040805160208082528351818301528351919283929083019185019080838360005b838110156108e55781810151838201526020016108cd565b50505050905090810190601f1680156109125780820380516001836020036101000a031916815260200191505b509250505060405180910390f35b34801561092c57600080fd5b506103206121a8565b34801561094157600080fd5b506103206121ae565b34801561095657600080fd5b506103206121b4565b34801561096b57600080fd5b506107f76004356121ba565b34801561098357600080fd5b5061028260043515156122da565b610282600160a060020a03600435166109f9565b3480156109b157600080fd5b5061044d612315565b3480156109c657600080fd5b50610320612369565b3480156109db57600080fd5b506102ae61236f565b3480156109f057600080fd5b506102ae61237e565b6000806000806000610a096131eb565b60008080600160a060020a038a161515610a2257600080fd5b610a2a61238d565b1515610a3557600080fd5b349850610a406117d4565b9750610a4b896121ba565b604080516060810182528481526020810184905290810182905292995090975095509350859250828810610a7f5787610a81565b825b91506019548211610a925781610a96565b6019545b9150610ae568056bc75e2d63100000610ad9610ab985606463ffffffff61242c16565b601354610acd908e9063ffffffff61244616565b9063ffffffff61244616565b9063ffffffff61247116565b601a54909150610afb908a63ffffffff61242c16565b601a81905550610b108a828660400151612488565b604080518a8152602081018390528151600160a060020a038d169233927f623b3804fa71d67900d064613da8f94b9617215ee90799290593e1745087ad18929081900390910190a3610b60612724565b50505050505050505050565b610b766000612800565b60035477010000000000000000000000000000000000000000000000900460ff161515610ba257600080fd5b6003805477ff00000000000000000000000000000000000000000000001916905560008054600154604080517f79dcbd3d000000000000000000000000000000000000000000000000000000008152600160a060020a039283166004820152426301e13380810160248301526303c267000160448201529051610100909304909116926379dcbd3d926064808401936020939083900390910190829087803b158015610c4d57600080fd5b505af1158015610c61573d6000803e3d6000fd5b505050506040513d6020811015610c7757600080fd5b50516003805473ffffffffffffffffffffffffffffffffffffffff1916600160a060020a039283161790819055600180546040805160e060020a63b3e1f52302815293851660048501526024840192909252905192169163b3e1f5239160448082019260009290919082900301818387803b158015610cf557600080fd5b505af1158015610d09573d6000803e3d6000fd5b5050600354600a54604080517fae7d0cac000000000000000000000000000000000000000000000000000000008152600160a060020a0392831660048201526006602482015260326044820152905191909216935063ae7d0cac9250606480830192600092919082900301818387803b158015610d8557600080fd5b505af1158015610d99573d6000803e3d6000fd5b5050600354600b54604080517fae7d0cac000000000000000000000000000000000000000000000000000000008152600160a060020a039283166004820152600a602482015260326044820152905191909216935063ae7d0cac9250606480830192600092919082900301818387803b158015610e1557600080fd5b505af1158015610e29573d6000803e3d6000fd5b5050600354600c54604080517fae7d0cac000000000000000000000000000000000000000000000000000000008152600160a060020a03928316600482015260066024820152606460448201819052915192909316945063ae7d0cac935080830192600092919082900301818387803b158015610ea557600080fd5b505af1158015610eb9573d6000803e3d6000fd5b5050600154600354601e54600160a060020a0392831694506340c10f199350911690610ef390604690610ad990601663ffffffff61244616565b6040518363ffffffff1660e060020a0281526004018083600160a060020a0316600160a060020a0316815260200182815260200192505050602060405180830381600087803b158015610f4557600080fd5b505af1158015610f59573d6000803e3d6000fd5b505050506040513d6020811015610f6f57600080fd5b5050600154600854601e54600160a060020a03928316926340c10f19921690610fa090604690610ad9906007612446565b6040518363ffffffff1660e060020a0281526004018083600160a060020a0316600160a060020a0316815260200182815260200192505050602060405180830381600087803b158015610ff257600080fd5b505af1158015611006573d6000803e3d6000fd5b505050506040513d602081101561101c57600080fd5b5050600154600160a060020a03166340c10f19600460050154601e54600160a060020a039091169061105c90604690610ad990600163ffffffff61244616565b6040518363ffffffff1660e060020a0281526004018083600160a060020a0316600160a060020a0316815260200182815260200192505050602060405180830381600087803b1580156110ae57600080fd5b505af11580156110c2573d6000803e3d6000fd5b505050506040513d60208110156110d857600080fd5b5050565b6000546101009004600160a060020a031681565b60006110fc6000612800565b426111276276a70061111b60125460115461242c90919063ffffffff16565b9063ffffffff61242c16565b1161113157600080fd5b83821461113d57600080fd5b61ffff811684111561120957600154600160a060020a0316639dc29fac868661ffff851681811061116a57fe5b90506020020135600160a060020a031685858561ffff16818110151561118c57fe5b905060200201356040518363ffffffff1660e060020a0281526004018083600160a060020a0316600160a060020a0316815260200182815260200192505050600060405180830381600087803b1580156111e557600080fd5b505af11580156111f9573d6000803e3d6000fd5b50506001909201915061113d9050565b5050505050565b61121a6000612800565b60035460a060020a900460ff161561123157600080fd5b60018054604080517fbedb86fb000000000000000000000000000000000000000000000000000000008152600481019390935251600160a060020a039091169163bedb86fb91602480830192600092919082900301818387803b15801561129757600080fd5b505af11580156112ab573d6000803e3d6000fd5b50505050565b601c5481565b600154604080517f18160ddd0000000000000000000000000000000000000000000000000000000081529051600092600160a060020a0316916318160ddd91600480830192602092919082900301818787803b15801561131657600080fd5b505af115801561132a573d6000803e3d6000fd5b505050506040513d602081101561134057600080fd5b505190505b90565b6113526000612800565b6010544211801561137657506012546011546113739163ffffffff61242c16565b42105b801561138b575060035460a860020a900460ff165b151561139657600080fd5b6012546113a9908263ffffffff61242c16565b6012819055600010156113bb57600080fd5b50565b600654600160a060020a031633148061143257506113f0624f1a0061111b60125460115461242c90919063ffffffff16565b4211801561140e5750600160005460ff16600181111561140c57fe5b145b8015611423575060035460a060020a900460ff165b80156114325750611432611936565b151561143d57600080fd5b600154604080517fbedb86fb0000000000000000000000000000000000000000000000000000000081526000600482018190529151600160a060020a039093169263bedb86fb9260248084019391929182900301818387803b15801561129757600080fd5b60135481565b60006114c46114b56115ac565b601c549063ffffffff61242c16565b905090565b600f8054829081106114d757fe5b60009182526020909120600290910201805460019091015490915082565b60005460ff1681565b60115481565b6000806115116001612800565b601054421015801561153757506012546011546115339163ffffffff61242c16565b4211155b915061155060175460165461242c90919063ffffffff16565b601a5461156490859063ffffffff61242c16565b111590508180156115725750805b8015611587575060035460a860020a900460ff165b151561159257600080fd5b5050601b55601d55565b60035460a860020a900460ff1681565b60006114c4601b54601a5461242c90919063ffffffff16565b60195481565b600654600160a060020a03163314806115ee5750600454600160a060020a031633145b806115fe57506115fc611936565b155b151561160957600080fd5b60035460a060020a900460ff161561162057600080fd5b611628612315565b806116605750600654600160a060020a03163314806116515750600454600160a060020a031633145b80156116605750611660611936565b151561166b57600080fd5b6003805474ff0000000000000000000000000000000000000000191660a060020a179055611697612850565b6040517f6823b073d48d6e3a7d385eeb601452d680e74bb46afe3255a7d778f3a9b1768190600090a1565b601a5481565b60125481565b600454600160a060020a031660003382146116e857600080fd5b5060005b600a8160ff16101561175d57600960ff8216148061170d5750600660ff8216145b1561171757611755565b81600460ff8316600a811061172857fe5b01805473ffffffffffffffffffffffffffffffffffffffff1916600160a060020a03929092169190911790555b6001016116ec565b600180546040805160e060020a63b3e1f523028152600160a060020a03868116600483015260248201949094529051929091169163b3e1f5239160448082019260009290919082900301818387803b1580156117b857600080fd5b505af11580156117cc573d6000803e3d6000fd5b505050505050565b60006114c442611d30565b601e5481565b6117ef6000612800565b600154604080517f75e2ff65000000000000000000000000000000000000000000000000000000008152600160a060020a038481166004830152915191909216916375e2ff6591602480830192600092919082900301818387803b15801561185657600080fd5b505af1158015611209573d6000803e3d6000fd5b6118746000612800565b6001546040517f680b3bdf000000000000000000000000000000000000000000000000000000008152602060048201818152845160248401528451600160a060020a039094169363680b3bdf9386938392604490920191818601910280838360005b838110156118ee5781810151838201526020016118d6565b5050505090500192505050600060405180830381600087803b15801561185657600080fd5b60105481565b600481600a811061192657fe5b0154600160a060020a0316905081565b60006015546119436115ac565b1015905090565b60006119566000612800565b60035460a860020a900460ff161561196d57600080fd5b611975612b53565b428f101561198257600080fd5b8d8f1061198e57600080fd5b60108f905560118e90558b8d11156119a557600080fd5b60158d905560168c905560008b116119bc57600080fd5b60138b90556017889055601887905560148a90556019899055825184511480156119e7575081518451145b15156119f257600080fd5b83516119ff600e8261320d565b50600090505b8351811015611ab1576060604051908101604052808583815181101515611a2857fe5b9060200190602002015181526020018483815181101515611a4557fe5b9060200190602002015181526020018383815181101515611a6257fe5b602090810290910101519052600e805483908110611a7c57fe5b600091825260209182902083516003909202019081559082015160018083019190915560409092015160029091015501611a05565b8551855114611abf57600080fd5b8451611acc600f82613239565b50600090505b8451811015611b505760408051908101604052808683815181101515611af457fe5b9060200190602002015181526020018783815181101515611b1157fe5b602090810290910101519052600f805483908110611b2b57fe5b6000918252602091829020835160029092020190815591015160019182015501611ad2565b505050505050505050505050505050565b611b6b6000612800565b60035460a860020a900460ff1615611b8257600080fd5b611b8a612b53565b601054421115611b9957600080fd5b611ba16130d3565b6040517f5daa87a0e9463431830481fd4b6e3403442dfb9a12b9c07597e9f61d50b633c890600090a160038054600060125578ff0000000000000000000000000000000000000000000000001975ff0000000000000000000000000000000000000000001990911660a860020a17169055565b60185481565b600354600160a060020a031681565b6004826009811115611c3757fe5b60ff16600a8110611c4457fe5b0154600160a060020a031633148015611c6957506003826009811115611c6657fe5b14155b80611cc35750600460020154600160a060020a031633148015611cab575060035460a860020a900460ff161580611cab57506003826009811115611ca957fe5b145b8015611cc357506009826009811115611cc057fe5b14155b1515611cce57600080fd5b806004836009811115611cdd57fe5b60ff16600a8110611cea57fe5b01805473ffffffffffffffffffffffffffffffffffffffff1916600160a060020a03929092169190911790555050565b60035460a060020a900460ff1681565b60155481565b600080805b600f5460ff82161015611dc757611d78600f8260ff16815481101515611d5757fe5b9060005260206000209060020201600101548361242c90919063ffffffff16565b601054909250611d8e908363ffffffff61242c16565b841015611dbf57600f805460ff8316908110611da657fe5b9060005260206000209060020201600001549250611dcc565b600101611d35565b600092505b5050919050565b600254600160a060020a03161515611dea57600080fd5b600454600160a060020a031633148015611e195750601054611e169063020f580063ffffffff61242c16565b42115b15611e9257600254600160a060020a031663b9caebf46004600001546040805160e060020a63ffffffff8516028152600160a060020a03909216600483015251602480830192600092919082900301818387803b158015611e7957600080fd5b505af1158015611e8d573d6000803e3d6000fd5b505050505b600654600160a060020a031633148015611ec15750601054611ebe90630317040063ffffffff61242c16565b42115b15611f3057600254600654604080517fb9caebf4000000000000000000000000000000000000000000000000000000008152600160a060020a0392831660048201529051919092169163b9caebf491602480830192600092919082900301818387803b15801561129757600080fd5b565b600e805482908110611f4057fe5b600091825260209091206003909102018054600182015460029092015490925083565b6003547801000000000000000000000000000000000000000000000000900460ff1681565b611f926000612800565b6003547801000000000000000000000000000000000000000000000000900460ff161515611fbf57600080fd5b611fc7612b53565b600154600554604080517f40c10f19000000000000000000000000000000000000000000000000000000008152600160a060020a03928316600482015260248101859052905191909216916340c10f199160448083019260209291908290030181600087803b15801561203957600080fd5b505af115801561204d573d6000803e3d6000fd5b505050506040513d602081101561206357600080fd5b505050565b601b5481565b600254600160a060020a0316151561208557600080fd5b600254604080517ffa89401a0000000000000000000000000000000000000000000000000000000081523360048201529051600160a060020a039092169163fa89401a9160248082019260009290919082900301818387803b15801561129757600080fd5b60035477010000000000000000000000000000000000000000000000900460ff1681565b60035460b060020a900460ff1681565b60606000805460ff16600181111561213257fe5b146121705760408051808201909152600681527f726f756e6432000000000000000000000000000000000000000000000000000060208201526114c4565b5060408051808201909152600681527f726f756e64310000000000000000000000000000000000000000000000000000602082015290565b60145481565b60175481565b601d5481565b600080600080600e80549050600014806121f4575084600e60008154811015156121e057fe5b906000526020600020906003020160000154115b1561220857600093508392508291506122d2565b5060015b600e5461ffff821610156122535784600e8261ffff1681548110151561222e57fe5b906000526020600020906003020160000154111561224b57612253565b60010161220c565b600e805461ffff60001984011690811061226957fe5b906000526020600020906003020160000154600e6001830361ffff1681548110151561229157fe5b906000526020600020906003020160010154600e6001840361ffff168154811015156122b957fe5b9060005260206000209060030201600201549350935093505b509193909250565b6122e46000612800565b6003805491151560b060020a0276ff0000000000000000000000000000000000000000000019909216919091179055565b600080600061233160125460115461242c90919063ffffffff16565b421191506016546123406115ac565b10159050818061234d5750805b8015612362575060035460a860020a900460ff165b9250505090565b60165481565b600254600160a060020a031681565b600154600160a060020a031681565b600080600080601054421180156123b757506012546011546123b49163ffffffff61242c16565b42105b925060185434101591506123e160175461111b6123d26115ac565b6016549063ffffffff6131d916565b34111590508280156123f05750815b80156123f95750805b801561240e575060035460a860020a900460ff165b8015612424575060035460b060020a900460ff16155b935050505090565b60008282018381101561243b57fe5b8091505b5092915050565b600080831515612459576000915061243f565b5082820282848281151561246957fe5b041461243b57fe5b600080828481151561247f57fe5b04949350505050565b60008060008084111561268157600154604080517f11cfb19d000000000000000000000000000000000000000000000000000000008152600160a060020a038981166004830152915161253893899316916311cfb19d9160248083019260209291908290030181600087803b15801561250057600080fd5b505af1158015612514573d6000803e3d6000fd5b505050506040513d602081101561252a57600080fd5b50519063ffffffff61242c16565b600154604080517f50bb117a000000000000000000000000000000000000000000000000000000008152600160a060020a038a8116600483015291519396509116916350bb117a916024808201926020929091908290030181600087803b1580156125a257600080fd5b505af11580156125b6573d6000803e3d6000fd5b505050506040513d60208110156125cc57600080fd5b505191506125e0844263ffffffff61242c16565b90508082116125ef57806125f1565b815b600154604080517ff831ebab000000000000000000000000000000000000000000000000000000008152600160a060020a038a811660048301526024820188905260448201859052915193945091169163f831ebab9160648082019260009290919082900301818387803b15801561266857600080fd5b505af115801561267c573d6000803e3d6000fd5b505050505b600154604080517f40c10f19000000000000000000000000000000000000000000000000000000008152600160a060020a03898116600483015260248201899052915191909216916340c10f199160448083019260209291908290030181600087803b1580156126f057600080fd5b505af1158015612704573d6000803e3d6000fd5b505050506040513d602081101561271a57600080fd5b5050505050505050565b600254600160a060020a0316156127b957600254604080517ff340fa010000000000000000000000000000000000000000000000000000000081523360048201529051600160a060020a039092169163f340fa01913491602480830192600092919082900301818588803b15801561279b57600080fd5b505af11580156127af573d6000803e3d6000fd5b5050505050611f30565b600030311115611f3057600460000154604051600160a060020a0390911690303180156108fc02916000818181858888f193505050501580156113bb573d6000803e3d6000fd5b600654600160a060020a03163314806128235750600454600160a060020a031633145b80612845575060018115151480156128455750600754600160a060020a031633145b15156113bb57600080fd5b612858611936565b15612aef57600254600160a060020a03161561290f57600254600454600d54601a54600160a060020a039384169363f5bf74139381169216906128a390606490610ad9906007612446565b6040805160e060020a63ffffffff8716028152600160a060020a03948516600482015292909316602483015260448201529051606480830192600092919082900301818387803b1580156128f657600080fd5b505af115801561290a573d6000803e3d6000fd5b505050505b6000601d5411156129c157600154600554601d54604080517f40c10f19000000000000000000000000000000000000000000000000000000008152600160a060020a03938416600482015260248101929092525191909216916340c10f199160448083019260209291908290030181600087803b15801561298f57600080fd5b505af11580156129a3573d6000803e3d6000fd5b505050506040513d60208110156129b957600080fd5b50506000601d555b6000805460ff1660018111156129d357fe5b1415612a1f576003805475ffff0000000000000000000000000000000000000000191690556000805460ff19166001179055612a0d6115ac565b601c556000601a819055601b55612aea565b6003805477ff0000000000000000000000000000000000000000000000191677010000000000000000000000000000000000000000000000179055600154604080517f18160ddd0000000000000000000000000000000000000000000000000000000081529051600160a060020a03909216916318160ddd916004808201926020929091908290030181600087803b158015612aba57600080fd5b505af1158015612ace573d6000803e3d6000fd5b505050506040513d6020811015612ae457600080fd5b5051601e555b611f30565b600254600160a060020a031615611f3057600260009054906101000a9004600160a060020a0316600160a060020a0316638c52dc416040518163ffffffff1660e060020a028152600401600060405180830381600087803b15801561129757600080fd5b60005460b060020a900460ff1615612b6a57611f30565b6000805460b060020a76ff000000000000000000000000000000000000000000001990911617808255604080517f9cbf9e360000000000000000000000000000000000000000000000000000000081529051610100909204600160a060020a031692639cbf9e36926004808401936020939083900390910190829087803b158015612bf457600080fd5b505af1158015612c08573d6000803e3d6000fd5b505050506040513d6020811015612c1e57600080fd5b50516001805473ffffffffffffffffffffffffffffffffffffffff1916600160a060020a0390921691909117905560005460a860020a900460ff1615612d0a57600060019054906101000a9004600160a060020a0316600160a060020a0316633b8b4a616040518163ffffffff1660e060020a028152600401602060405180830381600087803b158015612cb157600080fd5b505af1158015612cc5573d6000803e3d6000fd5b505050506040513d6020811015612cdb57600080fd5b50516002805473ffffffffffffffffffffffffffffffffffffffff1916600160a060020a039092169190911790555b600180546005546040805160e060020a63b3e1f523028152600160a060020a03928316600482015260248101949094525191169163b3e1f52391604480830192600092919082900301818387803b158015612d6457600080fd5b505af1158015612d78573d6000803e3d6000fd5b5050600180546006546040805160e060020a63b3e1f523028152600160a060020a0392831660048201526024810194909452519116935063b3e1f5239250604480830192600092919082900301818387803b158015612dd657600080fd5b505af1158015612dea573d6000803e3d6000fd5b5050600180546008546040805160e060020a63b3e1f523028152600160a060020a0392831660048201526024810194909452519116935063b3e1f5239250604480830192600092919082900301818387803b158015612e4857600080fd5b505af1158015612e5c573d6000803e3d6000fd5b5050600180546009546040805160e060020a63b3e1f523028152600160a060020a0392831660048201526024810194909452519116935063b3e1f5239250604480830192600092919082900301818387803b158015612eba57600080fd5b505af1158015612ece573d6000803e3d6000fd5b5050600180546007546040805160e060020a63b3e1f523028152600160a060020a0392831660048201526024810194909452519116935063b3e1f5239250604480830192600092919082900301818387803b158015612f2c57600080fd5b505af1158015612f40573d6000803e3d6000fd5b5050604080516060810182526803d952abd36cbc00008152601e602080830191825262c5c100838501908152600e805460018082018355600092835295517fbb7b4a454dc3493923482f07822329ed19e8244eff582cc204f8554c3620c3fd60039092029182015593517fbb7b4a454dc3493923482f07822329ed19e8244eff582cc204f8554c3620c3fe85015590517fbb7b4a454dc3493923482f07822329ed19e8244eff582cc204f8554c3620c3ff9093019290925583518085018552600f808252620151808284019081528154808701835582865292517f8d1108e10bcb7c27dddfc02ed9d693a074039d026cf4ea4240b40f7d581ac80260029485028181019290925591517f8d1108e10bcb7c27dddfc02ed9d693a074039d026cf4ea4240b40f7d581ac8039182015587518089018952600a81526202a3008187019081528454808a0186558589529151918602808501929092555190820155875180890190985260058852620546009488019485528254968701835591909452945193029182019290925590519101555050565b600254600160a060020a0316158015906131815750600254604080517fc19d93fb0000000000000000000000000000000000000000000000000000000081529051600092600160a060020a03169163c19d93fb91600480830192602092919082900301818787803b15801561314757600080fd5b505af115801561315b573d6000803e3d6000fd5b505050506040513d602081101561317157600080fd5b5051600281111561317e57fe5b14155b15611f3057600260009054906101000a9004600160a060020a0316600160a060020a0316631ef3755d6040518163ffffffff1660e060020a028152600401600060405180830381600087803b15801561129757600080fd5b6000828211156131e557fe5b50900390565b6060604051908101604052806000815260200160008152602001600081525090565b815481835581811115612063576003028160030283600052602060002091820191016120639190613265565b815481835581811115612063576002028160020283600052602060002091820191016120639190613290565b61134591905b8082111561328c57600080825560018201819055600282015560030161326b565b5090565b61134591905b8082111561328c57600080825560018201556002016132965600a165627a7a72305820195030be728382fb4433bb9f9b21cd244a50a3b5240e8c40b814f80aa60214fd0029",
  "source": "pragma solidity ^0.4.21;\n\nimport '../SafeMath.sol';\nimport '../Token/Token.sol';\nimport './RefundVault.sol';\nimport './AllocationToss.sol';\nimport './Creator.sol';\n\n// (A1)\n// The main contract for the sale and management of rounds.\n// 0000000000000000000000000000000000000000000000000000000000000000\ncontract Crowdsale{\n\n    uint256 constant USER_UNPAUSE_TOKEN_TIMEOUT =  60 days;\n    uint256 constant FORCED_REFUND_TIMEOUT1     = 400 days;\n    uint256 constant FORCED_REFUND_TIMEOUT2     = 600 days;\n    uint256 constant ROUND_PROLONGATE           =   0 days;\n    uint256 constant BURN_TOKENS_TIME           =  90 days;\n\n    using SafeMath for uint256;\n\n    enum TokenSaleType {round1, round2}\n    TokenSaleType public TokenSale = TokenSaleType.round2;\n\n    //              0             1         2        3        4        5      6       7        8     9\n    enum Roles {beneficiary, accountant, manager, observer, bounty, company, team, founders, fund, fees}\n\n    Creator public creator;\n    bool creator2;\n    bool isBegin=false;\n    Token public token;\n    RefundVault public vault;\n    AllocationTOSS public allocation;\n\n    bool public isFinalized;\n    bool public isInitialized;\n    bool public isPausedCrowdsale;\n    bool public chargeBonuses;\n    bool public canFirstMint=true;\n\n    // Initially, all next 7+ roles/wallets are given to the Manager. The Manager is an employee of the company\n    // with knowledge of IT, who publishes the contract and sets it up. However, money and tokens require\n    // a Beneficiary and other roles (Accountant, Team, etc.). The Manager will not have the right\n    // to receive them. To enable this, the Manager must either enter specific wallets here, or perform\n    // this via method changeWallet. In the finalization methods it is written which wallet and\n    // what percentage of tokens are received.\n    address[10] public wallets = [\n\n    // Beneficiary\n    // Receives all the money (when finalizing Round1 & Round2)\n    msg.sender,\n\n    // Accountant\n    // Receives all the tokens for non-ETH investors (when finalizing Round1 & Round2)\n    msg.sender,\n\n    // Manager\n    // All rights except the rights to receive tokens or money. Has the right to change any other\n    // wallets (Beneficiary, Accountant, ...), but only if the round has not started. Once the\n    // round is initialized, the Manager has lost all rights to change the wallets.\n    // If the TokenSale is conducted by one person, then nothing needs to be changed. Permit all 7 roles\n    // point to a single wallet.\n    msg.sender,\n\n    // Observer\n    // Has only the right to call paymentsInOtherCurrency (please read the document)\n    0x8a91aC199440Da0B45B2E278f3fE616b1bCcC494,\n\n    // Bounty - 7% tokens\n    msg.sender,\n\n    // Company, White list 1%\n    msg.sender,\n\n    // Team, 6%, freeze 1+1 year\n    msg.sender,\n\n    // Founders, 10% freeze 1+1 year\n    msg.sender,\n\n    // Fund, 6%\n    msg.sender,\n\n    // Fees, 7% money\n    msg.sender\n\n    ];\n\n\n\n    struct Bonus {\n    uint256 value;\n    uint256 procent;\n    uint256 freezeTime;\n    }\n\n    struct Profit {\n    uint256 percent;\n    uint256 duration;\n    }\n\n    struct Freezed {\n    uint256 value;\n    uint256 dateTo;\n    }\n\n    Bonus[] public bonuses;\n    Profit[] public profits;\n\n\n    uint256 public startTime= 1524560400;\n    uint256 public endTime  = 1529830740;\n    uint256 public renewal;\n\n    // How many tokens (excluding the bonus) are transferred to the investor in exchange for 1 ETH\n    // **QUINTILLIONS** 10^18 for human, *10**18 for Solidity, 1e18 for MyEtherWallet (MEW).\n    // Example: if 1ETH = 40.5 Token ==> use 40500 finney\n    uint256 public rate = 10000 ether;\n\n    // ETH/USD rate in US$\n    // **QUINTILLIONS** 10^18 / *10**18 / 1e18. Example: ETH/USD=$1000 ==> use 1000*10**18 (Solidity) or 1000 ether or 1000e18 (MEW)\n    uint256 public exchange  = 700 ether; // not in use\n\n    // If the round does not attain this value before the closing date, the round is recognized as a\n    // failure and investors take the money back (the founders will not interfere in any way).\n    // **QUINTILLIONS** 10^18 / *10**18 / 1e18. Example: softcap=15ETH ==> use 15*10**18 (Solidity) or 15e18 (MEW)\n    uint256 public softCap = 8500 ether;\n\n    // The maximum possible amount of income\n    // **QUINTILLIONS** 10^18 / *10**18 / 1e18. Example: hardcap=123.45ETH ==> use 123450*10**15 (Solidity) or 12345e15 (MEW)\n    uint256 public hardCap = 71500 ether;\n\n    // If the last payment is slightly higher than the hardcap, then the usual contracts do\n    // not accept it, because it goes beyond the hardcap. However it is more reasonable to accept the\n    // last payment, very slightly raising the hardcap. The value indicates by how many ETH the\n    // last payment can exceed the hardcap to allow it to be paid. Immediately after this payment, the\n    // round closes. The funders should write here a small number, not more than 1% of the CAP.\n    // Can be equal to zero, to cancel.\n    // **QUINTILLIONS** 10^18 / *10**18 / 1e18\n    uint256 public overLimit = 20 ether;\n\n    // The minimum possible payment from an investor in ETH. Payments below this value will be rejected.\n    // **QUINTILLIONS** 10^18 / *10**18 / 1e18. Example: minPay=0.1ETH ==> use 100*10**15 (Solidity) or 100e15 (MEW)\n    uint256 public minPay = 71 finney;\n\n    uint256 public maxAllProfit = 30;\n\n    uint256 public ethWeiRaised;\n    uint256 public nonEthWeiRaised;\n    uint256 public weiRound1;\n    uint256 public tokenReserved;\n\n    uint256 public totalSaledToken;\n\n    event TokenPurchase(address indexed purchaser, address indexed beneficiary, uint256 value, uint256 amount);\n\n    event Finalized();\n    event Initialized();\n\n    function Crowdsale(Creator _creator) public\n    {\n        creator2=true;\n        creator=_creator;\n    }\n\n    function onlyAdmin(bool forObserver) internal view {\n        require(wallets[uint8(Roles.manager)] == msg.sender || wallets[uint8(Roles.beneficiary)] == msg.sender ||\n        forObserver==true && wallets[uint8(Roles.observer)] == msg.sender);\n    }\n\n    // Setting of basic parameters, analog of class constructor\n    // @ Do I have to use the function      see your scenario\n    // @ When it is possible to call        before Round 1/2\n    // @ When it is launched automatically  -\n    // @ Who can call the function          admins\n    function begin() internal\n    {\n        if (isBegin) return;\n        isBegin=true;\n\n        token = creator.createToken();\n        if (creator2) {\n            vault = creator.createRefund();\n        }\n\n        token.setUnpausedWallet(wallets[uint8(Roles.accountant)], true);\n        token.setUnpausedWallet(wallets[uint8(Roles.manager)], true);\n        token.setUnpausedWallet(wallets[uint8(Roles.bounty)], true);\n        token.setUnpausedWallet(wallets[uint8(Roles.company)], true);\n        token.setUnpausedWallet(wallets[uint8(Roles.observer)], true);\n\n        bonuses.push(Bonus(71 ether, 30, 30*5 days));\n\n        profits.push(Profit(15,1 days));\n        profits.push(Profit(10,2 days));\n        profits.push(Profit(5,4 days));\n\n    }\n\n\n\n    // Issue of tokens for the zero round, it is usually called: private pre-sale (Round 0)\n    // @ Do I have to use the function      may be\n    // @ When it is possible to call        before Round 1/2\n    // @ When it is launched automatically  -\n    // @ Who can call the function          admins\n    function firstMintRound0(uint256 _amount) public {\n        onlyAdmin(false);\n        require(canFirstMint);\n        begin();\n        token.mint(wallets[uint8(Roles.accountant)],_amount);\n    }\n\n    // info\n    function totalSupply() external view returns (uint256){\n        return token.totalSupply();\n    }\n\n    // Returns the name of the current round in plain text. Constant.\n    function getTokenSaleType() external view returns(string){\n        return (TokenSale == TokenSaleType.round1)?'round1':'round2';\n    }\n\n    // Transfers the funds of the investor to the contract of return of funds. Internal.\n    function forwardFunds() internal {\n        if(address(vault) != 0x0){\n            vault.deposit.value(msg.value)(msg.sender);\n        }else {\n            if(address(this).balance > 0){\n                wallets[uint8(Roles.beneficiary)].transfer(address(this).balance);\n            }\n        }\n\n    }\n\n    // Check for the possibility of buying tokens. Inside. Constant.\n    function validPurchase() internal view returns (bool) {\n\n        // The round started and did not end\n        bool withinPeriod = (now > startTime && now < endTime.add(renewal));\n\n        // Rate is greater than or equal to the minimum\n        bool nonZeroPurchase = msg.value >= minPay;\n\n        // hardCap is not reached, and in the event of a transaction, it will not be exceeded by more than OverLimit\n        bool withinCap = msg.value <= hardCap.sub(weiRaised()).add(overLimit);\n\n        // round is initialized and no \"Pause of trading\" is set\n        return withinPeriod && nonZeroPurchase && withinCap && isInitialized && !isPausedCrowdsale;\n    }\n\n    // Check for the ability to finalize the round. Constant.\n    function hasEnded() public view returns (bool) {\n\n        bool timeReached = now > endTime.add(renewal);\n\n        bool capReached = weiRaised() >= hardCap;\n\n        return (timeReached || capReached) && isInitialized;\n    }\n\n    // Finalize. Only available to the Manager and the Beneficiary. If the round failed, then\n    // anyone can call the finalization to unlock the return of funds to investors\n    // You must call a function to finalize each round (after the Round1 & after the Round2)\n    // @ Do I have to use the function      yes\n    // @ When it is possible to call        after end of Round1 & Round2\n    // @ When it is launched automatically  no\n    // @ Who can call the function          admins or anybody (if round is failed)\n    function finalize() public {\n\n        require(wallets[uint8(Roles.manager)] == msg.sender || wallets[uint8(Roles.beneficiary)] == msg.sender || !goalReached());\n        require(!isFinalized);\n        require(hasEnded() || ((wallets[uint8(Roles.manager)] == msg.sender || wallets[uint8(Roles.beneficiary)] == msg.sender) && goalReached()));\n\n        isFinalized = true;\n        finalization();\n        emit Finalized();\n    }\n\n    // The logic of finalization. Internal\n    // @ Do I have to use the function      no\n    // @ When it is possible to call        -\n    // @ When it is launched automatically  after end of round\n    // @ Who can call the function          -\n    function finalization() internal {\n\n        //uint256 feesValue;\n        // If the goal of the achievement\n        if (goalReached()) {\n\n            if(address(vault) != 0x0){\n                // Send ether to Beneficiary\n                vault.close(wallets[uint8(Roles.beneficiary)], wallets[uint8(Roles.fees)], ethWeiRaised.mul(7).div(100)); //7% for fees\n            }\n\n            // if there is anything to give\n            if (tokenReserved > 0) {\n\n                token.mint(wallets[uint8(Roles.accountant)],tokenReserved);\n\n                // Reset the counter\n                tokenReserved = 0;\n            }\n\n            // If the finalization is Round 1\n            if (TokenSale == TokenSaleType.round1) {\n\n                // Reset settings\n                isInitialized = false;\n                isFinalized = false;\n\n                // Switch to the second round (to Round2)\n                TokenSale = TokenSaleType.round2;\n\n                // Reset the collection counter\n                weiRound1 = weiRaised();\n                ethWeiRaised = 0;\n                nonEthWeiRaised = 0;\n\n\n\n            }\n            else // If the second round is finalized\n            {\n\n                // Permission to collect tokens to those who can pick them up\n                chargeBonuses = true;\n\n                totalSaledToken = token.totalSupply();\n\n            }\n\n        }\n        else if (address(vault) != 0x0) // If they failed round\n        {\n            // Allow investors to withdraw their funds\n\n            vault.enableRefunds();\n        }\n    }\n\n    // The Manager freezes the tokens for the Team.\n    // You must call a function to finalize Round 2 (only after the Round2)\n    // @ Do I have to use the function      yes\n    // @ When it is possible to call        Round2\n    // @ When it is launched automatically  -\n    // @ Who can call the function          admins\n    function finalize2() public {\n\n        onlyAdmin(false);\n        require(chargeBonuses);\n        chargeBonuses = false;\n\n        allocation = creator.createAllocation(token, now + 1 years /* stage N1 */, now + 2 years /* stage N2 */);\n        token.setUnpausedWallet(allocation, true);\n\n        // Team = 6%, Founders = 10%, Fund = 6%    TOTAL = 22%\n        allocation.addShare(wallets[uint8(Roles.team)],       6,  50); // only 50% - first year, stage N1  (and +50 for stage N2)\n        allocation.addShare(wallets[uint8(Roles.founders)],  10,  50); // only 50% - first year, stage N1  (and +50 for stage N2)\n        allocation.addShare(wallets[uint8(Roles.fund)],       6, 100); // 100% - first year\n\n        // 22% - tokens to freeze contract (Team+Founders+Fund)\n        token.mint(allocation, totalSaledToken.mul(22).div(70));\n\n        // 7% - tokens to Bounty wallet\n        token.mint(wallets[uint8(Roles.bounty)], totalSaledToken.mul(7).div(70));\n\n        // 1% - tokens to Company (White List) wallet\n        token.mint(wallets[uint8(Roles.company)], totalSaledToken.mul(1).div(70));\n\n    }\n\n\n\n    // Initializing the round. Available to the manager. After calling the function,\n    // the Manager loses all rights: Manager can not change the settings (setup), change\n    // wallets, prevent the beginning of the round, etc. You must call a function after setup\n    // for the initial round (before the Round1 and before the Round2)\n    // @ Do I have to use the function      yes\n    // @ When it is possible to call        before each round\n    // @ When it is launched automatically  -\n    // @ Who can call the function          admins\n    function initialize() public {\n\n        onlyAdmin(false);\n        // If not yet initialized\n        require(!isInitialized);\n        begin();\n\n\n        // And the specified start time has not yet come\n        // If initialization return an error, check the start date!\n        require(now <= startTime);\n\n        initialization();\n\n        emit Initialized();\n\n        isInitialized = true;\n        renewal = 0;\n        canFirstMint = false;\n    }\n\n    function initialization() internal {\n        if (address(vault) != 0x0 && vault.state() != RefundVault.State.Active){\n            vault.restart();\n        }\n    }\n\n    // At the request of the investor, we raise the funds (if the round has failed because of the hardcap)\n    // @ Do I have to use the function      no\n    // @ When it is possible to call        if round is failed (softcap not reached)\n    // @ When it is launched automatically  -\n    // @ Who can call the function          all investors\n    function claimRefund() external {\n        require(address(vault) != 0x0);\n        vault.refund(msg.sender);\n    }\n\n    // We check whether we collected the necessary minimum funds. Constant.\n    function goalReached() public view returns (bool) {\n        return weiRaised() >= softCap;\n    }\n\n\n    // Customize. The arguments are described in the constructor above.\n    // @ Do I have to use the function      yes\n    // @ When it is possible to call        before each rond\n    // @ When it is launched automatically  -\n    // @ Who can call the function          admins\n    function setup(uint256 _startTime, uint256 _endTime, uint256 _softCap, uint256 _hardCap,\n    uint256 _rate, uint256 _exchange,\n    uint256 _maxAllProfit, uint256 _overLimit, uint256 _minPay,\n    uint256[] _durationTB , uint256[] _percentTB, uint256[] _valueVB, uint256[] _percentVB, uint256[] _freezeTimeVB) public\n    {\n\n        onlyAdmin(false);\n        require(!isInitialized);\n\n        begin();\n\n        // Date and time are correct\n        require(now <= _startTime);\n        require(_startTime < _endTime);\n        startTime = _startTime;\n        endTime = _endTime;\n\n        // The parameters are correct\n        require(_softCap <= _hardCap);\n        softCap = _softCap;\n        hardCap = _hardCap;\n\n        require(_rate > 0);\n        rate = _rate;\n\n        overLimit = _overLimit;\n        minPay = _minPay;\n        exchange = _exchange;\n        maxAllProfit = _maxAllProfit;\n\n        require(_valueVB.length == _percentVB.length && _valueVB.length == _freezeTimeVB.length);\n        bonuses.length = _valueVB.length;\n        for(uint256 i = 0; i < _valueVB.length; i++){\n            bonuses[i] = Bonus(_valueVB[i],_percentVB[i],_freezeTimeVB[i]);\n        }\n\n        require(_percentTB.length == _durationTB.length);\n        profits.length = _percentTB.length;\n        for( i = 0; i < _percentTB.length; i++){\n            profits[i] = Profit(_percentTB[i],_durationTB[i]);\n        }\n\n    }\n\n    // Collected funds for the current round. Constant.\n    function weiRaised() public constant returns(uint256){\n        return ethWeiRaised.add(nonEthWeiRaised);\n    }\n\n    // Returns the amount of fees for both phases. Constant.\n    function weiTotalRaised() external constant returns(uint256){\n        return weiRound1.add(weiRaised());\n    }\n\n    // Returns the percentage of the bonus on the current date. Constant.\n    function getProfitPercent() public constant returns (uint256){\n        return getProfitPercentForData(now);\n    }\n\n    // Returns the percentage of the bonus on the given date. Constant.\n    function getProfitPercentForData(uint256 _timeNow) public constant returns (uint256){\n        uint256 allDuration;\n        for(uint8 i = 0; i < profits.length; i++){\n            allDuration = allDuration.add(profits[i].duration);\n            if(_timeNow < startTime.add(allDuration)){\n                return profits[i].percent;\n            }\n        }\n        return 0;\n    }\n\n    function getBonuses(uint256 _value) public constant returns (uint256,uint256,uint256){\n        if(bonuses.length == 0 || bonuses[0].value > _value){\n            return (0,0,0);\n        }\n        uint16 i = 1;\n        for(i; i < bonuses.length; i++){\n            if(bonuses[i].value > _value){\n                break;\n            }\n        }\n        return (bonuses[i-1].value,bonuses[i-1].procent,bonuses[i-1].freezeTime);\n    }\n\n    // Remove the \"Pause of exchange\". Available to the manager at any time. If the\n    // manager refuses to remove the pause, then 30-120 days after the successful\n    // completion of the TokenSale, anyone can remove a pause and allow the exchange to continue.\n    // The manager does not interfere and will not be able to delay the term.\n    // He can only cancel the pause before the appointed time.\n    // ***CHECK***SCENARIO***\n    // @ Do I have to use the function      YES YES YES\n    // @ When it is possible to call        after end of Token Sale  (or any time - not necessary)\n    // @ When it is launched automatically  -\n    // @ Who can call the function          admins or anybody\n    function tokenUnpause() external {\n\n        require(wallets[uint8(Roles.manager)] == msg.sender\n        || (now > endTime.add(renewal).add(USER_UNPAUSE_TOKEN_TIMEOUT) && TokenSale == TokenSaleType.round2 && isFinalized && goalReached()));\n        token.setPause(false);\n    }\n\n    // Enable the \"Pause of exchange\". Available to the manager until the TokenSale is completed.\n    // The manager cannot turn on the pause, for example, 3 years after the end of the TokenSale.\n    // ***CHECK***SCENARIO***\n    // @ Do I have to use the function      no\n    // @ When it is possible to call        while Round2 not ended\n    // @ When it is launched automatically  Round0\n    // @ Who can call the function          admins\n    function tokenPause() public {\n        onlyAdmin(false);\n        require(!isFinalized);\n        token.setPause(true);\n    }\n\n    // Pause of sale. Available to the manager.\n    // @ Do I have to use the function      no\n    // @ When it is possible to call        during active rounds\n    // @ When it is launched automatically  -\n    // @ Who can call the function          admins\n    function setCrowdsalePause(bool mode) public {\n        onlyAdmin(false);\n        isPausedCrowdsale = mode;\n    }\n\n    // For example - After 5 years of the project's existence, all of us suddenly decided collectively\n    // (company + investors) that it would be more profitable for everyone to switch to another smart\n    // contract responsible for tokens. The company then prepares a new token, investors\n    // disassemble, study, discuss, etc. After a general agreement, the manager allows any investor:\n    //      - to burn the tokens of the previous contract\n    //      - generate new tokens for a new contract\n    // It is understood that after a general solution through this function all investors\n    // will collectively (and voluntarily) move to a new token.\n    // @ Do I have to use the function      no\n    // @ When it is possible to call        only after Token Sale!\n    // @ When it is launched automatically  -\n    // @ Who can call the function          admins\n    function moveTokens(address _migrationAgent) public {\n        onlyAdmin(false);\n        token.setMigrationAgent(_migrationAgent);\n    }\n\n    // @ Do I have to use the function      no\n    // @ When it is possible to call        only after Token Sale!\n    // @ When it is launched automatically  -\n    // @ Who can call the function          admins\n    function migrateAll(address[] _holders) public {\n        onlyAdmin(false);\n        token.migrateAll(_holders);\n    }\n\n    // Change the address for the specified role.\n    // Available to any wallet owner except the observer.\n    // Available to the manager until the round is initialized.\n    // The Observer's wallet or his own manager can change at any time.\n    // @ Do I have to use the function      no\n    // @ When it is possible to call        depend...\n    // @ When it is launched automatically  -\n    // @ Who can call the function          staff (all 7+ roles)\n    function changeWallet(Roles _role, address _wallet) external\n    {\n        require(\n        (msg.sender == wallets[uint8(_role)] && _role != Roles.observer)\n        ||\n        (msg.sender == wallets[uint8(Roles.manager)] && (!isInitialized || _role == Roles.observer) && _role != Roles.fees )\n        );\n\n        wallets[uint8(_role)] = _wallet;\n    }\n\n\n    // The beneficiary at any time can take rights in all roles and prescribe his wallet in all the\n    // rollers. Thus, he will become the recipient of tokens for the role of Accountant,\n    // Team, etc. Works at any time.\n    // @ Do I have to use the function      no\n    // @ When it is possible to call        any time\n    // @ When it is launched automatically  -\n    // @ Who can call the function          only Beneficiary\n    function resetAllWallets() external{\n        address _beneficiary = wallets[uint8(Roles.beneficiary)];\n        require(msg.sender == _beneficiary);\n        for(uint8 i = 0; i < wallets.length; i++){\n            if(uint8(Roles.fees) == i || uint8(Roles.team) == i)\n                continue;\n\n            wallets[i] = _beneficiary;\n        }\n        token.setUnpausedWallet(_beneficiary, true);\n    }\n\n\n    // Burn the investor tokens, if provided by the Token Sale scenario. Limited time available - BURN_TOKENS_TIME\n    // ***CHECK***SCENARIO***\n    // @ Do I have to use the function      no\n    // @ When it is possible to call        any time\n    // @ When it is launched automatically  -\n    // @ Who can call the function          admin\n    function massBurnTokens(address[] _beneficiary, uint256[] _value) external {\n        onlyAdmin(false);\n        require(endTime.add(renewal).add(BURN_TOKENS_TIME) > now);\n        require(_beneficiary.length == _value.length);\n        for(uint16 i; i<_beneficiary.length; i++) {\n            token.burn(_beneficiary[i],_value[i]);\n        }\n    }\n\n    // Extend the round time, if provided by the script. Extend the round only for\n    // a limited number of days - ROUND_PROLONGATE\n    // ***CHECK***SCENARIO***\n    // @ Do I have to use the function      no\n    // @ When it is possible to call        during active round\n    // @ When it is launched automatically  -\n    // @ Who can call the function          admins\n    function prolong(uint256 _duration) external {\n        onlyAdmin(false);\n        require(now > startTime && now < endTime.add(renewal) && isInitialized);//\n        renewal = renewal.add(_duration);\n        require(renewal <= ROUND_PROLONGATE);\n\n    }\n    // If a little more than a year has elapsed (Round2 start date + 400 days), a smart contract\n    // will allow you to send all the money to the Beneficiary, if any money is present. This is\n    // possible if you mistakenly launch the Round2 for 30 years (not 30 days), investors will transfer\n    // money there and you will not be able to pick them up within a reasonable time. It is also\n    // possible that in our checked script someone will make unforeseen mistakes, spoiling the\n    // finalization. Without finalization, money cannot be returned. This is a rescue option to\n    // get around this problem, but available only after a year (400 days).\n\n    // Another reason - the TokenSale was a failure, but not all ETH investors took their money during the year after.\n    // Some investors may have lost a wallet key, for example.\n\n    // The method works equally with the Round1 and Round2. When the Round1 starts, the time for unlocking\n    // the distructVault begins. If the TokenSale is then started, then the term starts anew from the first day of the TokenSale.\n\n    // Next, act independently, in accordance with obligations to investors.\n\n    // Within 400 days (FORCED_REFUND_TIMEOUT1) of the start of the Round, if it fails only investors can take money. After\n    // the deadline this can also include the company as well as investors, depending on who is the first to use the method.\n    // @ Do I have to use the function      no\n    // @ When it is possible to call        -\n    // @ When it is launched automatically  -\n    // @ Who can call the function          beneficiary & manager\n    function distructVault() public {\n        require(address(vault) != 0x0);\n        if (wallets[uint8(Roles.beneficiary)] == msg.sender && (now > startTime.add(FORCED_REFUND_TIMEOUT1))) {\n            vault.del(wallets[uint8(Roles.beneficiary)]);\n        }\n        if (wallets[uint8(Roles.manager)] == msg.sender && (now > startTime.add(FORCED_REFUND_TIMEOUT2))) {\n            vault.del(wallets[uint8(Roles.manager)]);\n        }\n    }\n\n\n    // We accept payments other than Ethereum (ETH) and other currencies, for example, Bitcoin (BTC).\n    // Perhaps other types of cryptocurrency - see the original terms in the white paper and on the TokenSale website.\n\n    // We release tokens on Ethereum. During the Round1 and Round2 with a smart contract, you directly transfer\n    // the tokens there and immediately, with the same transaction, receive tokens in your wallet.\n\n    // When paying in any other currency, for example in BTC, we accept your money via one common wallet.\n    // Our manager fixes the amount received for the bitcoin wallet and calls the method of the smart\n    // contract paymentsInOtherCurrency to inform him how much foreign currency has been received - on a daily basis.\n    // The smart contract pins the number of accepted ETH directly and the number of BTC. Smart contract\n    // monitors softcap and hardcap, so as not to go beyond this framework.\n\n    // In theory, it is possible that when approaching hardcap, we will receive a transfer (one or several\n    // transfers) to the wallet of BTC, that together with previously received money will exceed the hardcap in total.\n    // In this case, we will refund all the amounts above, in order not to exceed the hardcap.\n\n    // Collection of money in BTC will be carried out via one common wallet. The wallet's address will be published\n    // everywhere (in a white paper, on the TokenSale website, on Telegram, on Bitcointalk, in this code, etc.)\n    // Anyone interested can check that the administrator of the smart contract writes down exactly the amount\n    // in ETH (in equivalent for BTC) there. In theory, the ability to bypass a smart contract to accept money in\n    // BTC and not register them in ETH creates a possibility for manipulation by the company. Thanks to\n    // paymentsInOtherCurrency however, this threat is leveled.\n\n    // Any user can check the amounts in BTC and the variable of the smart contract that accounts for this\n    // (paymentsInOtherCurrency method). Any user can easily check the incoming transactions in a smart contract\n    // on a daily basis. Any hypothetical tricks on the part of the company can be exposed and panic during the TokenSale,\n    // simply pointing out the incompatibility of paymentsInOtherCurrency (ie, the amount of ETH + BTC collection)\n    // and the actual transactions in BTC. The company strictly adheres to the described principles of openness.\n\n    // The company administrator is required to synchronize paymentsInOtherCurrency every working day (but you\n    // cannot synchronize if there are no new BTC payments). In the case of unforeseen problems, such as\n    // brakes on the Ethereum network, this operation may be difficult. You should only worry if the\n    // administrator does not synchronize the amount for more than 96 hours in a row, and the BTC wallet\n    // receives significant amounts.\n\n    // This scenario ensures that for the sum of all fees in all currencies this value does not exceed hardcap.\n\n    // ** QUINTILLIONS ** 10^18 / 1**18 / 1e18\n\n    // @ Do I have to use the function      no\n    // @ When it is possible to call        during active rounds\n    // @ When it is launched automatically  every day from cryptob2b token software\n    // @ Who can call the function          admins + observer\n    function paymentsInOtherCurrency(uint256 _token, uint256 _value) public {\n        //require(wallets[uint8(Roles.observer)] == msg.sender || wallets[uint8(Roles.manager)] == msg.sender);\n        onlyAdmin(true);\n        bool withinPeriod = (now >= startTime && now <= endTime.add(renewal));\n\n        bool withinCap = _value.add(ethWeiRaised) <= hardCap.add(overLimit);\n        require(withinPeriod && withinCap && isInitialized);\n\n        nonEthWeiRaised = _value;\n        tokenReserved = _token;\n\n    }\n\n    function lokedMint(address _beneficiary, uint256 _value, uint256 _freezeTime) internal {\n        if(_freezeTime > 0){\n\n            uint256 totalBloked = token.freezedTokenOf(_beneficiary).add(_value);\n            uint256 pastDateUnfreeze = token.defrostDate(_beneficiary);\n            uint256 newDateUnfreeze = _freezeTime.add(now);\n            newDateUnfreeze = (pastDateUnfreeze > newDateUnfreeze ) ? pastDateUnfreeze : newDateUnfreeze;\n\n            token.freezeTokens(_beneficiary,totalBloked,newDateUnfreeze);\n        }\n        token.mint(_beneficiary,_value);\n    }\n\n\n    // The function for obtaining smart contract funds in ETH. If all the checks are true, the token is\n    // transferred to the buyer, taking into account the current bonus.\n    function buyTokens(address beneficiary) public payable {\n        require(beneficiary != 0x0);\n        require(validPurchase());\n\n        uint256 weiAmount = msg.value;\n\n        uint256 ProfitProcent = getProfitPercent();\n\n        uint256 value;\n        uint256 percent;\n        uint256 freezeTime;\n\n        (value,\n        percent,\n        freezeTime) = getBonuses(weiAmount);\n\n        Bonus memory curBonus = Bonus(value,percent,freezeTime);\n\n        uint256 bonus = curBonus.procent;\n\n        // --------------------------------------------------------------------------------------------\n        // *** Scenario 1 - select max from all bonuses + check maxAllProfit\n        uint256 totalProfit = (ProfitProcent < bonus) ? bonus : ProfitProcent;\n\n        // --------------------------------------------------------------------------------------------\n        totalProfit = (totalProfit > maxAllProfit) ? maxAllProfit : totalProfit;\n\n        // calculate token amount to be created\n        uint256 tokens = weiAmount.mul(rate).mul(totalProfit.add(100)).div(100 ether);\n\n        // update state\n        ethWeiRaised = ethWeiRaised.add(weiAmount);\n\n        lokedMint(beneficiary, tokens, curBonus.freezeTime);\n\n        emit TokenPurchase(msg.sender, beneficiary, weiAmount, tokens);\n\n        forwardFunds();\n    }\n\n    // buyTokens alias\n    function () public payable {\n        buyTokens(msg.sender);\n    }\n\n\n\n}\n",
  "sourcePath": "/home/dmitrya2e/Work/Projects/ProofOfToss/Code/proof-of-toss/contracts/token-sale-contracts/TokenSale/Crowdsale/Crowdsale.sol",
  "compiler": {
    "name": "solc",
    "version": "0.4.24+commit.e67f0147.Emscripten.clang"
  },
  "schemaVersion": "2.0.0",
  "updatedAt": "2018-06-08T15:45:57.140Z"
}