{
  "contractName": "EventBase",
  "abi": [
    {
      "constant": true,
      "inputs": [],
      "name": "creator",
      "outputs": [
        {
          "name": "",
          "type": "address"
        }
      ],
      "payable": false,
      "stateMutability": "view",
      "type": "function"
    },
    {
      "constant": true,
      "inputs": [
        {
          "name": "",
          "type": "uint256"
        }
      ],
      "name": "possibleResults",
      "outputs": [
        {
          "name": "customCoefficient",
          "type": "uint64"
        },
        {
          "name": "betCount",
          "type": "uint32"
        },
        {
          "name": "betSum",
          "type": "uint256"
        }
      ],
      "payable": false,
      "stateMutability": "view",
      "type": "function"
    },
    {
      "constant": true,
      "inputs": [],
      "name": "startDate",
      "outputs": [
        {
          "name": "",
          "type": "uint64"
        }
      ],
      "payable": false,
      "stateMutability": "view",
      "type": "function"
    },
    {
      "constant": true,
      "inputs": [
        {
          "name": "",
          "type": "address"
        }
      ],
      "name": "rewardWithdraws",
      "outputs": [
        {
          "name": "",
          "type": "uint256"
        }
      ],
      "payable": false,
      "stateMutability": "view",
      "type": "function"
    },
    {
      "constant": true,
      "inputs": [],
      "name": "resultsCount",
      "outputs": [
        {
          "name": "",
          "type": "uint8"
        }
      ],
      "payable": false,
      "stateMutability": "view",
      "type": "function"
    },
    {
      "constant": true,
      "inputs": [
        {
          "name": "",
          "type": "uint256"
        }
      ],
      "name": "bets",
      "outputs": [
        {
          "name": "timestamp",
          "type": "uint256"
        },
        {
          "name": "bettor",
          "type": "address"
        },
        {
          "name": "result",
          "type": "uint8"
        },
        {
          "name": "amount",
          "type": "uint256"
        }
      ],
      "payable": false,
      "stateMutability": "view",
      "type": "function"
    },
    {
      "constant": true,
      "inputs": [
        {
          "name": "",
          "type": "address"
        }
      ],
      "name": "withdraws",
      "outputs": [
        {
          "name": "",
          "type": "uint256"
        }
      ],
      "payable": false,
      "stateMutability": "view",
      "type": "function"
    },
    {
      "constant": true,
      "inputs": [],
      "name": "resolvedResult",
      "outputs": [
        {
          "name": "",
          "type": "uint8"
        }
      ],
      "payable": false,
      "stateMutability": "view",
      "type": "function"
    },
    {
      "constant": true,
      "inputs": [
        {
          "name": "",
          "type": "address"
        },
        {
          "name": "",
          "type": "uint256"
        }
      ],
      "name": "betWithdraws",
      "outputs": [
        {
          "name": "",
          "type": "uint256"
        }
      ],
      "payable": false,
      "stateMutability": "view",
      "type": "function"
    },
    {
      "constant": true,
      "inputs": [],
      "name": "owner",
      "outputs": [
        {
          "name": "",
          "type": "address"
        }
      ],
      "payable": false,
      "stateMutability": "view",
      "type": "function"
    },
    {
      "constant": true,
      "inputs": [],
      "name": "whitelist",
      "outputs": [
        {
          "name": "",
          "type": "address"
        }
      ],
      "payable": false,
      "stateMutability": "view",
      "type": "function"
    },
    {
      "constant": true,
      "inputs": [],
      "name": "lastWithdraw",
      "outputs": [
        {
          "name": "",
          "type": "uint256"
        }
      ],
      "payable": false,
      "stateMutability": "view",
      "type": "function"
    },
    {
      "constant": true,
      "inputs": [],
      "name": "operatorId",
      "outputs": [
        {
          "name": "",
          "type": "address"
        }
      ],
      "payable": false,
      "stateMutability": "view",
      "type": "function"
    },
    {
      "constant": true,
      "inputs": [],
      "name": "state",
      "outputs": [
        {
          "name": "",
          "type": "uint8"
        }
      ],
      "payable": false,
      "stateMutability": "view",
      "type": "function"
    },
    {
      "constant": true,
      "inputs": [],
      "name": "endDate",
      "outputs": [
        {
          "name": "",
          "type": "uint64"
        }
      ],
      "payable": false,
      "stateMutability": "view",
      "type": "function"
    },
    {
      "constant": true,
      "inputs": [],
      "name": "deposit",
      "outputs": [
        {
          "name": "",
          "type": "uint256"
        }
      ],
      "payable": false,
      "stateMutability": "view",
      "type": "function"
    },
    {
      "constant": true,
      "inputs": [
        {
          "name": "",
          "type": "address"
        },
        {
          "name": "",
          "type": "uint256"
        }
      ],
      "name": "usersBets",
      "outputs": [
        {
          "name": "",
          "type": "uint256"
        }
      ],
      "payable": false,
      "stateMutability": "view",
      "type": "function"
    },
    {
      "constant": true,
      "inputs": [],
      "name": "bidType",
      "outputs": [
        {
          "name": "",
          "type": "bytes32"
        }
      ],
      "payable": false,
      "stateMutability": "view",
      "type": "function"
    },
    {
      "constant": true,
      "inputs": [],
      "name": "meta_version",
      "outputs": [
        {
          "name": "",
          "type": "uint256"
        }
      ],
      "payable": false,
      "stateMutability": "view",
      "type": "function"
    },
    {
      "constant": true,
      "inputs": [],
      "name": "token",
      "outputs": [
        {
          "name": "",
          "type": "address"
        }
      ],
      "payable": false,
      "stateMutability": "view",
      "type": "function"
    },
    {
      "inputs": [
        {
          "name": "_token",
          "type": "address"
        }
      ],
      "payable": false,
      "stateMutability": "nonpayable",
      "type": "constructor"
    },
    {
      "anonymous": false,
      "inputs": [
        {
          "indexed": false,
          "name": "_contract",
          "type": "address"
        },
        {
          "indexed": false,
          "name": "_data",
          "type": "bytes"
        }
      ],
      "name": "Updated",
      "type": "event"
    },
    {
      "constant": false,
      "inputs": [
        {
          "name": "_contract",
          "type": "address"
        },
        {
          "name": "_data",
          "type": "bytes"
        }
      ],
      "name": "updated",
      "outputs": [],
      "payable": false,
      "stateMutability": "nonpayable",
      "type": "function"
    },
    {
      "constant": true,
      "inputs": [],
      "name": "betsCount",
      "outputs": [
        {
          "name": "",
          "type": "uint256"
        }
      ],
      "payable": false,
      "stateMutability": "view",
      "type": "function"
    },
    {
      "constant": true,
      "inputs": [
        {
          "name": "_user",
          "type": "address"
        }
      ],
      "name": "userBetsCount",
      "outputs": [
        {
          "name": "",
          "type": "uint256"
        }
      ],
      "payable": false,
      "stateMutability": "view",
      "type": "function"
    },
    {
      "constant": false,
      "inputs": [
        {
          "name": "_token",
          "type": "address"
        },
        {
          "name": "_whitelist",
          "type": "address"
        },
        {
          "name": "_creator",
          "type": "address"
        },
        {
          "name": "_deposit",
          "type": "uint256"
        },
        {
          "name": "buffer",
          "type": "bytes"
        }
      ],
      "name": "init",
      "outputs": [],
      "payable": false,
      "stateMutability": "nonpayable",
      "type": "function"
    },
    {
      "constant": false,
      "inputs": [
        {
          "name": "customCoefficient",
          "type": "uint64"
        }
      ],
      "name": "addResult",
      "outputs": [],
      "payable": false,
      "stateMutability": "nonpayable",
      "type": "function"
    },
    {
      "constant": false,
      "inputs": [
        {
          "name": "_from",
          "type": "address"
        },
        {
          "name": "_value",
          "type": "uint256"
        },
        {
          "name": "_data",
          "type": "bytes"
        }
      ],
      "name": "tokenFallback",
      "outputs": [],
      "payable": false,
      "stateMutability": "nonpayable",
      "type": "function"
    },
    {
      "constant": true,
      "inputs": [],
      "name": "getState",
      "outputs": [
        {
          "name": "",
          "type": "uint8"
        }
      ],
      "payable": false,
      "stateMutability": "view",
      "type": "function"
    },
    {
      "constant": false,
      "inputs": [
        {
          "name": "result",
          "type": "uint8"
        }
      ],
      "name": "resolve",
      "outputs": [],
      "payable": false,
      "stateMutability": "nonpayable",
      "type": "function"
    },
    {
      "constant": true,
      "inputs": [
        {
          "name": "_user",
          "type": "address"
        }
      ],
      "name": "getUserBets",
      "outputs": [
        {
          "name": "",
          "type": "uint256[]"
        }
      ],
      "payable": false,
      "stateMutability": "view",
      "type": "function"
    },
    {
      "constant": true,
      "inputs": [],
      "name": "calculateBetsSums",
      "outputs": [
        {
          "name": "",
          "type": "uint256"
        },
        {
          "name": "",
          "type": "uint256"
        },
        {
          "name": "",
          "type": "uint256"
        }
      ],
      "payable": false,
      "stateMutability": "view",
      "type": "function"
    },
    {
      "constant": true,
      "inputs": [
        {
          "name": "_userBet",
          "type": "uint256"
        }
      ],
      "name": "getPrize",
      "outputs": [
        {
          "name": "",
          "type": "uint256"
        }
      ],
      "payable": false,
      "stateMutability": "view",
      "type": "function"
    },
    {
      "constant": true,
      "inputs": [
        {
          "name": "_userBet",
          "type": "uint256"
        }
      ],
      "name": "getRefund",
      "outputs": [
        {
          "name": "",
          "type": "uint256"
        }
      ],
      "payable": false,
      "stateMutability": "view",
      "type": "function"
    },
    {
      "constant": true,
      "inputs": [],
      "name": "getEventCreatorReward",
      "outputs": [
        {
          "name": "",
          "type": "uint256"
        }
      ],
      "payable": false,
      "stateMutability": "view",
      "type": "function"
    },
    {
      "constant": true,
      "inputs": [],
      "name": "getEventCreatorRefund",
      "outputs": [
        {
          "name": "",
          "type": "uint256"
        }
      ],
      "payable": false,
      "stateMutability": "view",
      "type": "function"
    },
    {
      "constant": true,
      "inputs": [
        {
          "name": "user",
          "type": "address"
        }
      ],
      "name": "getShare",
      "outputs": [
        {
          "name": "",
          "type": "uint256"
        }
      ],
      "payable": false,
      "stateMutability": "view",
      "type": "function"
    },
    {
      "constant": false,
      "inputs": [],
      "name": "withdraw",
      "outputs": [],
      "payable": false,
      "stateMutability": "nonpayable",
      "type": "function"
    },
    {
      "constant": false,
      "inputs": [
        {
          "name": "bet",
          "type": "uint256"
        }
      ],
      "name": "withdrawPrize",
      "outputs": [],
      "payable": false,
      "stateMutability": "nonpayable",
      "type": "function"
    },
    {
      "constant": false,
      "inputs": [],
      "name": "withdrawReward",
      "outputs": [],
      "payable": false,
      "stateMutability": "nonpayable",
      "type": "function"
    }
  ],
  "bytecode": "0x608060405260058054600160a060020a03191660011790556000600f5534801561002857600080fd5b5060405160208061233383398101604052516001805433600160a060020a03199182161790915560028054909116600160a060020a039092169190911790556122bd806100766000396000f3006080604052600436106101d75763ffffffff7c010000000000000000000000000000000000000000000000000000000060003504166302d05d3f81146101dc57806304ef0a3d1461020d5780630b97bc8614610253578063112292b6146102855780631865c57d146102a95780631a1e0927146102e25780631a8ba72f14610315578063209b5bc21461032a57806322af00fa146103555780632d56657d1461039d5780633b887c961461040e5780633ccfd60b1461042357806346a4e92f1461043857806348179ee51461049f5780634b3ab9c5146104c05780635632cae1146104e1578063626a5b411461055c5780636a50965c1461058f5780637420b9d4146105a45780637b2386bb146105c85780638da5cb5b146105e957806393e59dc1146105fe578063a0270dbc14610613578063a1099bf21461062e578063aa74dc7514610646578063b52eea741461065b578063bf68b81614610670578063c0ee0b8a14610685578063c19d93fb146106ee578063c20eec7b14610703578063c24a0f8b1461071b578063c885bc5814610730578063d0e30db014610745578063d2f0be991461075a578063e7519f2f14610772578063eca41b8914610796578063f1c23a76146107ab578063fc0c546a146107c0575b600080fd5b3480156101e857600080fd5b506101f16107d5565b60408051600160a060020a039092168252519081900360200190f35b34801561021957600080fd5b506102256004356107e4565b6040805167ffffffffffffffff909416845263ffffffff909216602084015282820152519081900360600190f35b34801561025f57600080fd5b5061026861082e565b6040805167ffffffffffffffff9092168252519081900360200190f35b34801561029157600080fd5b506102a767ffffffffffffffff6004351661083e565b005b3480156102b557600080fd5b506102be610965565b604051808260068111156102ce57fe5b60ff16815260200191505060405180910390f35b3480156102ee57600080fd5b50610303600160a060020a0360043516610a87565b60408051918252519081900360200190f35b34801561032157600080fd5b50610303610a99565b34801561033657600080fd5b5061033f610a9f565b6040805160ff9092168252519081900360200190f35b34801561036157600080fd5b5061036d600435610aa8565b60408051948552600160a060020a03909316602085015260ff909116838301526060830152519081900360800190f35b3480156103a957600080fd5b506103be600160a060020a0360043516610b00565b60408051602080825283518183015283519192839290830191858101910280838360005b838110156103fa5781810151838201526020016103e2565b505050509050019250505060405180910390f35b34801561041a57600080fd5b50610303610b6d565b34801561042f57600080fd5b506102a7610c10565b34801561044457600080fd5b5060408051602060046024803582810135601f81018590048502860185019096528585526102a7958335600160a060020a0316953695604494919390910191908190840183828082843750949750610e929650505050505050565b3480156104ab57600080fd5b50610303600160a060020a0360043516610f6f565b3480156104cc57600080fd5b50610303600160a060020a0360043516610f81565b3480156104ed57600080fd5b50604080516020601f6084356004818101359283018490048402850184019095528184526102a794600160a060020a03813581169560248035831696604435909316956064359536959460a494939190910191908190840183828082843750949750610ff99650505050505050565b34801561056857600080fd5b506105716111b1565b60408051938452602084019290925282820152519081900360600190f35b34801561059b57600080fd5b5061033f611298565b3480156105b057600080fd5b50610303600160a060020a03600435166024356112a1565b3480156105d457600080fd5b50610303600160a060020a03600435166112be565b3480156105f557600080fd5b506101f16112d9565b34801561060a57600080fd5b506101f16112e8565b34801561061f57600080fd5b506102a760ff600435166112f7565b34801561063a57600080fd5b50610303600435611493565b34801561065257600080fd5b50610303611680565b34801561066757600080fd5b506103036116f7565b34801561067c57600080fd5b506101f16116fd565b34801561069157600080fd5b50604080516020600460443581810135601f81018490048402850184019095528484526102a7948235600160a060020a031694602480359536959460649492019190819084018382808284375094975061170c9650505050505050565b3480156106fa57600080fd5b506102be61178f565b34801561070f57600080fd5b506102a760043561179d565b34801561072757600080fd5b50610268611985565b34801561073c57600080fd5b506102a76119a1565b34801561075157600080fd5b50610303611a96565b34801561076657600080fd5b50610303600435611a9c565b34801561077e57600080fd5b50610303600160a060020a0360043516602435611b3d565b3480156107a257600080fd5b50610303611b6d565b3480156107b757600080fd5b50610303611b73565b3480156107cc57600080fd5b506101f1611b78565b600454600160a060020a031681565b600a8054829081106107f257fe5b60009182526020909120600290910201805460019091015467ffffffffffffffff821692506801000000000000000090910463ffffffff169083565b60075467ffffffffffffffff1681565b600154600160a060020a0316331461085557600080fd5b6000600954610100900460ff16600681111561086d57fe5b1461087757600080fd5b6040805160608101825267ffffffffffffffff8084168252600060208301818152938301818152600a805460018101825592819052935160029092027fc65a7bb8d6351c1cf70c95a316cc6a92839c986682d98bc35f958f4883f9d2a881018054965163ffffffff1668010000000000000000026bffffffff0000000000000000199490951667ffffffffffffffff19909716969096179290921692909217909355517fc65a7bb8d6351c1cf70c95a316cc6a92839c986682d98bc35f958f4883f9d2a990920191909155600954905460ff9091161415610962576009805461ff0019166101001790555b50565b60075460009067ffffffffffffffff1642101561099757600b546000101561098f57506002610a84565b506001610a84565b600b54600010156109e05760075468010000000000000000900467ffffffffffffffff164210156109ca57506003610a84565b600d5460ff90811614156109e057506004610a84565b600254604080517f70a082310000000000000000000000000000000000000000000000000000000081523060048201529051600160a060020a03909216916370a08231916024808201926020929091908290030181600087803b158015610a4657600080fd5b505af1158015610a5a573d6000803e3d6000fd5b505050506040513d6020811015610a7057600080fd5b50511515610a8057506006610a84565b5060055b90565b60116020526000908152604090205481565b600b5490565b60095460ff1681565b600b805482908110610ab657fe5b6000918252602090912060039091020180546001820154600290920154909250600160a060020a0382169174010000000000000000000000000000000000000000900460ff169084565b600160a060020a0381166000908152600c6020908152604091829020805483518184028101840190945280845260609392830182828015610b6057602002820191906000526020600020905b815481526020019060010190808311610b4c575b505050505090505b919050565b60045460009081908190600160a060020a03163214610b8f5760009250610c0b565b6005610b99610965565b6006811115610ba457fe5b14610bb25760009250610c0b565b610bba611b87565b9150610bcd82606463ffffffff611be316565b9050600654811015610bf457600654610bed90829063ffffffff611bff16565b9250610c0b565b600654610c0890600263ffffffff611c1516565b92505b505090565b336000908152600e602052604081205460609015610c8f57604080517f08c379a000000000000000000000000000000000000000000000000000000000815260206004820152601560248201527f576974686472617720616c726561647920646f6e650000000000000000000000604482015290519081900360640190fd5b610c9833610f81565b915060008211610d0957604080517f08c379a000000000000000000000000000000000000000000000000000000000815260206004820152601360248201527f53686172652073686f756c64206265203e203000000000000000000000000000604482015290519081900360640190fd5b42600f819055336000818152600e602090815260408083209490945560025484517fa9059cbb0000000000000000000000000000000000000000000000000000000081526004810194909452602484018790529351600160a060020a039094169363a9059cbb93604480820194918390030190829087803b158015610d8d57600080fd5b505af1158015610da1573d6000803e3d6000fd5b505050506040513d6020811015610db757600080fd5b5050600080546040805160e060020a6346a4e92f028152306004820181815260248301938452865160448401528651600160a060020a03909516956346a4e92f959294889492939092606401916020860191908190849084905b83811015610e29578181015183820152602001610e11565b50505050905090810190601f168015610e565780820380516001836020036101000a031916815260200191505b509350505050600060405180830381600087803b158015610e7657600080fd5b505af1158015610e8a573d6000803e3d6000fd5b505050505050565b813b600081118015610eac575033600160a060020a038416145b1515610eb757600080fd5b7fcbbecdace00991a8a26d8fc6085c610d5474f351252a818795d55a375a84bfa183836040518083600160a060020a0316600160a060020a0316815260200180602001828103825283818151815260200191508051906020019080838360005b83811015610f2f578181015183820152602001610f17565b50505050905090810190601f168015610f5c5780820380516001836020036101000a031916815260200191505b50935050505060405180910390a1505050565b600e6020526000908152604090205481565b6000808080610f9e610f91610b6d565b849063ffffffff611bff16565b9250610fab610f91611680565b326000908152600c602052604081205491945090925090505b81811015610ff057610fd8610f9182611493565b9250610fe6610f9182611a9c565b9250600101610fc4565b50909392505050565b60015460009081908190819081908190600160a060020a0316331461101d57600080fd5b60028054600160a060020a03808e1673ffffffffffffffffffffffffffffffffffffffff199283161790925560038054928d1692909116919091179055865191506110688288611c40565b9550600719909101906104b0420167ffffffffffffffff87161161108b57600080fd5b6110958288611c40565b94506007199091019067ffffffffffffffff80861690871611156110b857600080fd5b6110c28288611c40565b93506000199091019060dc60ff8516106110db57600080fd5b5060048054600160a060020a038a1673ffffffffffffffffffffffffffffffffffffffff1990911617905560068790556007805467ffffffffffffffff86811668010000000000000000026fffffffffffffffff00000000000000001991891667ffffffffffffffff1990931692909217161790556009805460ff80861660ff1992831617909255600d805490911690911790556000190160005b8360ff168110156111a45761118b8288611c40565b925060088203915061119c8361083e565b600101611176565b5050505050505050505050565b600d54600a805460009283928392839283928392839260ff169081106111d357fe5b9060005260206000209060020201600101549150600090505b60095460ff908116908216101561128c57611233600a8260ff1681548110151561121257fe5b90600052602060002090600202016001015485611bff90919063ffffffff16565b600d5490945060ff8281169116141561124b57611284565b611281600a8260ff1681548110151561126057fe5b90600052602060002090600202016001015484611bff90919063ffffffff16565b92505b6001016111ec565b50919591945092509050565b600d5460ff1681565b601060209081526000928352604080842090915290825290205481565b600160a060020a03166000908152600c602052604090205490565b600154600160a060020a031681565b600354600160a060020a031681565b6060611301610965565b6009805461ff00191661010083600681111561131957fe5b0217905550600354604080517f9b19251a0000000000000000000000000000000000000000000000000000000081523360048201529051600160a060020a0390921691639b19251a916024808201926020929091908290030181600087803b15801561138457600080fd5b505af1158015611398573d6000803e3d6000fd5b505050506040513d60208110156113ae57600080fd5b505115156001146113be57600080fd5b6004600954610100900460ff1660068111156113d657fe5b146113e057600080fd5b60095460ff90811690831610806113fb575060dc8260ff1610155b151561140657600080fd5b600d805460ff191660ff84161790556009805461ff001916610500179055600080546040805160e060020a6346a4e92f028152306004820181815260248301938452865160448401528651600160a060020a03909516956346a4e92f9592948894929390926064019160208601919081908490849083811015610e29578181015183820152602001610e11565b600061149d61226a565b6000808080806005600954610100900460ff1660068111156114bb57fe5b146114c95760009650611675565b326000908152600c602052604090205488106114e457600080fd5b326000908152600c602052604090208054600b91908a90811061150357fe5b906000526020600020015481548110151561151a57fe5b6000918252602091829020604080516080810182526003909302909101805483526001810154600160a060020a0381169484019490945260ff740100000000000000000000000000000000000000009094048416918301829052600201546060830152600d549198509116141561167057611593611c45565b156115e257600d54600a80546115db9260ff169081106115af57fe5b600091825260209091206002909102015460608801519067ffffffffffffffff1663ffffffff611c1516565b9650611675565b6115ea6111b1565b606089015192975095509350611606908463ffffffff611be316565b915061166661163d83611631606461162589606363ffffffff611c1516565b9063ffffffff611be316565b9063ffffffff611c1516565b61165a606461162560638b60600151611c1590919063ffffffff16565b9063ffffffff611bff16565b9050809650611675565b600096505b505050505050919050565b6004546000908190600160a060020a031632146116a057600091506116f3565b60056116aa610965565b60068111156116b557fe5b1415806116c557506116c5611c4a565b156116d357600091506116f3565b6116db611b87565b90508015156116ed57600091506116f3565b60065491505b5090565b600f5481565b600554600160a060020a031681565b80516000908181151561171e57610e8a565b6117288285611c40565b92506000199091019060ff8316151561174057610e8a565b8260ff166001141561176d576117568285611c40565b90506001820391506117688186611c58565b610e8a565b8260ff166002141561177e57600080fd5b8260ff16600314156101d757600080fd5b600954610100900460ff1681565b336000908152601060209081526040808320848452909152812054606090156117c557600080fd5b6117da6117d184611a9c565b61165a85611493565b9150600082116117e957600080fd5b42600f819055336000818152600e602090815260408083208590556010825280832088845282528083209490945560025484517fa9059cbb0000000000000000000000000000000000000000000000000000000081526004810194909452602484018790529351600160a060020a039094169363a9059cbb93604480820194918390030190829087803b15801561187f57600080fd5b505af1158015611893573d6000803e3d6000fd5b505050506040513d60208110156118a957600080fd5b5050600080546040805160e060020a6346a4e92f028152306004820181815260248301938452865160448401528651600160a060020a03909516956346a4e92f959294889492939092606401916020860191908190849084905b8381101561191b578181015183820152602001611903565b50505050905090810190601f1680156119485780820380516001836020036101000a031916815260200191505b509350505050600060405180830381600087803b15801561196857600080fd5b505af115801561197c573d6000803e3d6000fd5b50505050505050565b60075468010000000000000000900467ffffffffffffffff1681565b600454600090606090600160a060020a031632146119be57600080fd5b33600090815260116020526040902054156119d857600080fd5b6119e0611c4a565b6119f1576119ec611680565b6119f9565b6119f9610b6d565b915060008211611a0857600080fd5b42600f819055336000818152600e60209081526040808320859055601182528083209490945560025484517fa9059cbb0000000000000000000000000000000000000000000000000000000081526004810194909452602484018790529351600160a060020a039094169363a9059cbb93604480820194918390030190829087803b158015610d8d57600080fd5b60065481565b60006005600954610100900460ff166006811115611ab657fe5b141580611ac65750611ac6611c4a565b15611ad357506000610b68565b326000908152600c60205260409020548210611aee57600080fd5b326000908152600c602052604090208054600b919084908110611b0d57fe5b9060005260206000200154815481101515611b2457fe5b9060005260206000209060030201600201549050919050565b600c60205281600052604060002081815481101515611b5857fe5b90600052602060002001600091509150505481565b60085481565b600181565b600254600160a060020a031681565b600080805b60095460ff9081169082161015611bdd57611bd3600a8260ff16815481101515611bb257fe5b90600052602060002090600202016001015483611bff90919063ffffffff16565b9150600101611b8c565b50919050565b6000808284811515611bf157fe5b0490508091505b5092915050565b600082820183811015611c0e57fe5b9392505050565b600080831515611c285760009150611bf8565b50828202828482811515611c3857fe5b0414611c0e57fe5b015190565b600090565b600d5460dc60ff9091161090565b6060611c62610965565b6009805461ff001916610100836006811115611c7a57fe5b02179055506001600954610100900460ff166006811115611c9757fe5b1480611cb857506002600954610100900460ff166006811115611cb657fe5b145b1515611cc357600080fd5b60008360ff1610158015611cdf575060095460ff908116908416105b1515611cea57600080fd5b6007546102571967ffffffffffffffff91821601164210611d0a57600080fd5b60408051608081018252428152326020820190815260ff80871693830184815260608401878152600b805460018181018355600092909252955160039096027f0175b7a638427703f0dbe7bb9bbf987a2551717b34e79f33b5b1008d1fa01db981019690965593517f0175b7a638427703f0dbe7bb9bbf987a2551717b34e79f33b5b1008d1fa01dba860180549351909416740100000000000000000000000000000000000000000274ff000000000000000000000000000000000000000019600160a060020a039290921673ffffffffffffffffffffffffffffffffffffffff19909416939093171691909117909155517f0175b7a638427703f0dbe7bb9bbf987a2551717b34e79f33b5b1008d1fa01dbb90920191909155600a8054611e6293908110611e3557fe5b600091825260209091206002909102015463ffffffff6801000000000000000090910481169190611bff16565b600a805460ff8616908110611e7357fe5b906000526020600020906002020160000160086101000a81548163ffffffff021916908363ffffffff160217905550611ed882600a8560ff16815481101515611eb857fe5b906000526020600020906002020160010154611bff90919063ffffffff16565b600a805460ff8616908110611ee957fe5b60009182526020808320600292909202909101600190810193909355328252600c815260408220600b548154948501825590835291206000199091019101556009805461ff001916610200179055611f42610100612026565b6002026040519080825280601f01601f191660200182016040528015611f72578160200160208202803883390190505b509050611f8c611f83610100612026565b600b5483612037565b611fb7611f9a610100612026565b326000908152600c60205260409020546002919091029083612037565b600080546040805160e060020a6346a4e92f028152306004820181815260248301938452865160448401528651600160a060020a03909516956346a4e92f959294889492939092606401916020860191908190849084908381101561191b578181015183820152602001611903565b60006120318261203d565b92915050565b90910152565b6000816008811461214a5760108114612153576018811461215c5760208114612165576028811461216e5760308114612177576038811461218057604081146121895760488114612192576050811461219b57605881146121a457606081146121ad57606881146121b657607081146121bf57607881146121c857608081146121d157608881146121da57609081146121e357609881146121ec5760a081146121f55760a881146121fe5760b081146122075760b881146122105760c081146122195760c881146122225760d0811461222b5760d881146122345760e0811461223d5760e881146122465760f0811461224f5760f881146122585761010081146122615760209150611bdd565b60019150611bdd565b60029150611bdd565b60039150611bdd565b60049150611bdd565b60059150611bdd565b60069150611bdd565b60079150611bdd565b60089150611bdd565b60099150611bdd565b600a9150611bdd565b600b9150611bdd565b600c9150611bdd565b600d9150611bdd565b600e9150611bdd565b600f9150611bdd565b60109150611bdd565b60119150611bdd565b60129150611bdd565b60139150611bdd565b60149150611bdd565b60159150611bdd565b60169150611bdd565b60179150611bdd565b60189150611bdd565b60199150611bdd565b601a9150611bdd565b601b9150611bdd565b601c9150611bdd565b601d9150611bdd565b601e9150611bdd565b601f9150611bdd565b50602092915050565b604080516080810182526000808252602082018190529181018290526060810191909152905600a165627a7a723058203c7331c4905fc452efb2e72d79ce011d0e31c653b6a9ed0950005c4f4ffb26d30029",
  "source": "pragma solidity ^0.4.2;\n\nimport \"./installed_contracts/Seriality/Seriality.sol\";\nimport \"./token-sale-contracts/TokenSale/Token/Token.sol\";\nimport \"./Whitelist.sol\";\nimport \"./token-sale-contracts/TokenSale/ERC223ReceivingContract.sol\";\n\ncontract EventBase is ERC223ReceivingContract, Seriality {\n    using SafeMath for uint256;\n    using SafeMath for uint32;\n\n    // Declare Event contract's fields because fields must match\n    EventBase base;\n    address public owner;\n\n    // enum States { Created, Published, Accepted, Started, Finished, Resolved, Dispute, Judging, Closed, Distributed } // Full\n    enum States { Created, Published, Accepted, Started, Finished, Closed, Distributed } // Simplified\n\n    struct Result {\n        uint64 customCoefficient;\n        uint32 betCount;\n        uint256 betSum;\n    }\n\n    struct Bet {\n        uint timestamp;\n        address bettor;\n        uint8 result;\n        uint256 amount;\n    }\n\n    Token public token;\n    Whitelist public whitelist;\n\n    address public creator;\n    address public operatorId = 1;\n    uint256 public deposit;\n    uint64 public startDate;\n    uint64 public endDate;\n    bytes32 public bidType;\n    uint8 public resultsCount;\n\n    States public state;\n    Result[] public possibleResults;\n    Bet[] public bets;\n    mapping (address => uint[]) public usersBets;\n\n    uint8 public resolvedResult; // 255 - not set; 254  different result; 253  undefined result; 232  event was canceled; etc ... todo\n\n    uint constant public meta_version = 1;\n\n    event Updated(address _contract, bytes _data);\n\n    constructor(address _token) public {\n        owner = msg.sender;\n        token = Token(_token);\n    }\n\n    function updated(address _contract, bytes _data) public {\n        uint codeLength;\n\n        assembly {\n            codeLength := extcodesize(_contract)\n        }\n\n        require(codeLength > 0 && msg.sender == _contract);\n\n        emit Updated(_contract, _data);\n    }\n\n    function betsCount() public constant returns(uint) {\n        return bets.length;\n    }\n\n    function userBetsCount(address _user) public constant returns(uint) {\n        return usersBets[_user].length;\n    }\n\n    // Mapping:\n    // ... | string tagName_2 | string tagName_1\n    // ... | string result_3Description | string result_2Description | string result_1Description\n    // string sourceUrl\n    // string description\n    // string bidType\n    // string name\n    // bytes32 category\n    // bytes2 locale\n    // ... | uint64 result_3Coefficient | uint64 result_2Coefficient | uint64 result_1Coefficient\n    // uint8 tagsCount | uint8 resultsCount | uint64 endDate | uint64 startDate\n    function init(address _token, address _whitelist, address _creator, uint256 _deposit, bytes memory buffer) public {\n        require(msg.sender == owner);\n\n        token = Token(_token);\n        whitelist = Whitelist(_whitelist);\n\n        uint64 _startDate;\n        uint64 _endDate;\n        uint8 _resultsCount;\n        uint64 _resultCoefficient;\n\n        uint offset = buffer.length;\n\n        _startDate = bytesToUint64(offset, buffer);\n        offset -= 8; // sizeOfUint(64);\n\n        require(_startDate > now + 20 minutes);\n\n        _endDate = bytesToUint64(offset, buffer);\n        offset -= 8; // sizeOfUint(64);\n\n        require(_startDate <= _endDate);\n\n        _resultsCount = bytesToUint8(offset, buffer);\n        offset -= 1; // sizeOfUint(8);\n\n        require(_resultsCount < 220); // 220 - 255 reserved for special results\n\n        // bypass tagsCount\n        offset -= 1; // sizeOfUint(8);\n\n        creator = _creator;\n        deposit = _deposit;\n        startDate = _startDate;\n        endDate = _endDate;\n        resultsCount = _resultsCount;\n        resolvedResult = 255;\n\n        for (uint i = 0; i < _resultsCount; i++) {\n            _resultCoefficient = bytesToUint64(offset, buffer);\n            offset -= 8; // sizeOfUint(64);\n\n            addResult(_resultCoefficient);\n        }\n    }\n\n    function addResult(uint64 customCoefficient) public {\n        require(msg.sender == owner);\n        require(state == States.Created);\n\n        possibleResults.push(Result(customCoefficient, 0, 0));\n\n        if (possibleResults.length == resultsCount) {\n            state = States.Published;\n        }\n    }\n\n    // Data mapping:\n    //                                uint8 action (0 - deposit/operator's pledge)\n    //                 uint8 result | uint8 action (1 - bet)\n    // TODO                         | uint8 action (2 - vote)\n    // TODO                         | uint8 action (3 - claim)\n    function tokenFallback(address _from, uint _value, bytes _data) public {\n        uint8 action;\n        uint offset = _data.length;\n\n        if (offset == 0) { // Empty data, same as action == 0\n            return;\n        }\n\n        action = bytesToUint8(offset, _data);\n        offset -= 1; // sizeOfUint(8);\n\n        if (action == 0) {\n            return;\n        } else if (action == 1) { // Bet\n            uint8 result;\n\n            result = bytesToUint8(offset, _data);\n            offset -= 1; // sizeOfUint(8);\n\n            newBet(result, _value);\n\n        } else if (action == 2) {\n            revert(); // Not implemented\n        } else if (action == 3) {\n            revert(); // Not implemented\n        } else {\n            revert(); // Invalid action\n        }\n    }\n\n    function getState() public constant returns (States) {\n        if(now < startDate) { // time.checkTime(startDate)\n            if(bets.length > 0) {\n                return States.Accepted;\n            } else {\n                return States.Published;\n            }\n        } else { // now >= startDate\n            if(bets.length > 0) {\n                if(now < endDate) { // time.checkTime(endDate)\n                    return States.Started;\n                }\n\n                if(resolvedResult == 255) {\n                    return States.Finished;\n                }\n            }\n\n            // Final check:\n            if(token.balanceOf(address(this)) == 0) {\n                return States.Distributed;\n            } else {\n                return States.Closed;\n            }\n        }\n    }\n\n    modifier stateTransitions() {\n        state = getState();\n        _;\n    }\n\n    function newBet(uint8 result, uint256 amount) stateTransitions internal {\n        require(state == States.Published || state == States.Accepted);\n        require(result >= 0 && result < resultsCount);\n        require(now < startDate - (10 minutes));\n\n        bets.push(Bet(now, tx.origin, result, amount));\n\n        possibleResults[result].betCount = uint32(possibleResults[result].betCount.add(1));\n        possibleResults[result].betSum = possibleResults[result].betSum.add(amount);\n\n        usersBets[tx.origin].push(bets.length - 1);\n        state = States.Accepted;\n\n        bytes memory buffer = new bytes(2 * sizeOfUint(256));\n        uintToBytes(sizeOfUint(256), bets.length, buffer);\n        uintToBytes(2 * sizeOfUint(256), usersBets[tx.origin].length, buffer);\n\n        base.updated(address(this), buffer);\n    }\n\n    function resolve(uint8 result) public stateTransitions {\n        require(whitelist.whitelist(msg.sender) == true);\n        require(state == States.Finished);\n        require(result < resultsCount || result >= 220);\n\n        resolvedResult = result;\n        state = States.Closed;\n\n        bytes memory empty;\n        base.updated(address(this), empty);\n    }\n\n    function getUserBets(address _user) public view returns (uint[]) {\n        return usersBets[_user];\n    }\n\n    function isOperatorEvent() private pure returns (bool) {\n        return false;\n    }\n\n    function hasDefinedResult() private constant returns (bool) {\n        return resolvedResult < 220;\n    }\n\n    function calculateLosersBetSum() private view returns (uint256) {\n        uint256 losersBetSum = 0;\n        for(uint8 i = 0; i < resultsCount; i++) {\n            if(i == resolvedResult) {\n                continue;\n            }\n\n            losersBetSum += possibleResults[i].betSum;\n        }\n\n        return losersBetSum;\n    }\n\n    function calculateBetsSum() private view returns (uint256) {\n        uint256 betsSum = 0;\n        for(uint8 i = 0; i < resultsCount; i++) {\n            betsSum = betsSum.add(possibleResults[i].betSum);\n        }\n\n        return betsSum;\n    }\n\n    function calculateBetsSums() public view returns (uint256, uint256, uint256) { // betSum, winnersBetSum, losersBetSum\n        uint256 betsSum = 0;\n        uint256 losersBetSum = 0;\n        uint256 winnersBetSum = possibleResults[resolvedResult].betSum;\n\n        for(uint8 i = 0; i < resultsCount; i++) {\n            betsSum = betsSum.add(possibleResults[i].betSum);\n\n            if(i == resolvedResult) {\n                continue;\n            }\n\n            losersBetSum = losersBetSum.add(possibleResults[i].betSum);\n        }\n\n        return (betsSum, winnersBetSum, losersBetSum);\n    }\n\n    function getPrize(uint _userBet) public view returns (uint256) {\n        if (state != States.Closed) {\n            return 0;\n        }\n\n        require(_userBet < usersBets[tx.origin].length);\n\n        Bet memory bet = bets[usersBets[tx.origin][_userBet]];\n\n        if (bet.result == resolvedResult) {\n            if (isOperatorEvent()) {\n                return bet.amount.mul(possibleResults[resolvedResult].customCoefficient);\n            } else {\n                uint256 betSum;\n                uint256 losersBetSum;\n                uint256 winnersBetSum;\n\n                (betSum, winnersBetSum, losersBetSum) = calculateBetsSums();\n\n                uint256 coefficient = bet.amount.div(winnersBetSum);\n                uint256 prize = bet.amount.mul(99).div(100).add(\n                    losersBetSum.mul(99).div(100).mul(coefficient)\n                );\n\n                return prize;\n            }\n        }\n\n        return 0;\n    }\n\n    function getRefund(uint _userBet) public view returns (uint256) {\n        if (state != States.Closed || hasDefinedResult()) {\n            return 0;\n        }\n\n        require(_userBet < usersBets[tx.origin].length);\n\n        return bets[usersBets[tx.origin][_userBet]].amount;\n    }\n\n    function getEventCreatorReward() public view returns (uint256) {\n        if (tx.origin != creator) {\n            return 0;\n        }\n\n        if (getState() != States.Closed) {\n            return 0;\n        }\n\n        uint256 betSum = calculateBetsSum();\n\n        // uint256 eventCreatorPercent = betsSum.mul(200); // TODO use this when judging implemented\n        uint256 eventCreatorPercent = betSum.div(100);\n\n        if(eventCreatorPercent < deposit) {\n            return eventCreatorPercent.add(deposit);\n        }\n\n        return deposit.mul(2);\n    }\n\n    function getEventCreatorRefund() public view returns (uint256) {\n        if (tx.origin != creator) {\n            return 0;\n        }\n\n        if (getState() != States.Closed || hasDefinedResult()) {\n            return 0;\n        }\n\n        uint256 betSum = calculateBetsSum();\n\n        if (betSum == 0) {\n            return 0;\n        }\n\n        return deposit;\n    }\n\n    function getShare(address user) public view returns (uint) {\n        uint share = 0;\n\n        share = share.add(getEventCreatorReward());\n        share = share.add(getEventCreatorRefund());\n\n        uint betsAmount = usersBets[tx.origin].length;\n\n        for(uint i = 0; i < betsAmount; i++) {\n            share = share.add(getPrize(i));\n            share = share.add(getRefund(i));\n        }\n\n        return share;\n    }\n\n    // --------------------------------\n\n    mapping(address => uint) public withdraws; // User address => withdrawal timestamp\n    uint public lastWithdraw = 0;\n\n    function withdraw() public {\n        require(withdraws[msg.sender] == 0, 'Withdraw already done');\n\n        uint256 share = getShare(msg.sender);\n\n        require(share > 0, 'Share should be > 0');\n\n        if (lastWithdraw == 0) {\n            // TODO transfer jackpot\n        }\n\n        lastWithdraw = now;\n        withdraws[msg.sender] = lastWithdraw;\n\n        token.transfer(msg.sender, share);\n\n        bytes memory empty;\n        base.updated(address(this), empty);\n    }\n\n    mapping(address => mapping(uint => uint)) public betWithdraws; // User address => userBet index => withdrawal timestamp\n\n    function withdrawPrize(uint bet) public {\n        require(betWithdraws[msg.sender][bet] == 0);\n\n        uint share = getPrize(bet).add(getRefund(bet));\n\n        require(share > 0);\n\n        lastWithdraw = now;\n        withdraws[msg.sender] = lastWithdraw;\n        betWithdraws[msg.sender][bet] = lastWithdraw;\n\n        token.transfer(msg.sender, share);\n\n        bytes memory empty;\n        base.updated(address(this), empty);\n    }\n\n    mapping(address => uint) public rewardWithdraws; // User address => withdrawal timestamp\n\n    function withdrawReward() public {\n        require(tx.origin == creator) ;\n        require(rewardWithdraws[msg.sender] == 0);\n\n        uint share = hasDefinedResult() ? getEventCreatorReward() : getEventCreatorRefund();\n\n        require(share > 0);\n\n        lastWithdraw = now;\n        withdraws[msg.sender] = lastWithdraw;\n        rewardWithdraws[msg.sender] = lastWithdraw;\n\n        token.transfer(msg.sender, share);\n\n        bytes memory empty;\n        base.updated(address(this), empty);\n    }\n}\n",
  "sourcePath": "/Users/nickolay/workspace/rsk/app/contracts/EventBase.sol",
  "compiler": {
    "name": "solc",
    "version": "0.4.24+commit.e67f0147.Emscripten.clang"
  },
  "schemaVersion": "2.0.0",
  "updatedAt": "2018-06-12T11:40:14.164Z"
}