{
  "contractName": "Event",
  "abi": [
    {
      "constant": true,
      "inputs": [],
      "name": "base",
      "outputs": [
        {
          "name": "",
          "type": "address"
        }
      ],
      "payable": false,
      "stateMutability": "view",
      "type": "function"
    },
    {
      "constant": true,
      "inputs": [],
      "name": "owner",
      "outputs": [
        {
          "name": "",
          "type": "address"
        }
      ],
      "payable": false,
      "stateMutability": "view",
      "type": "function"
    },
    {
      "inputs": [
        {
          "name": "_base",
          "type": "address"
        }
      ],
      "payable": false,
      "stateMutability": "nonpayable",
      "type": "constructor"
    },
    {
      "payable": false,
      "stateMutability": "nonpayable",
      "type": "fallback"
    }
  ],
  "bytecode": "0x608060405234801561001057600080fd5b50604051602080610196833981016040525160018054600160a060020a0319908116331790915560008054600160a060020a03909316929091169190911790556101378061005f6000396000f30060806040526004361061004b5763ffffffff7c01000000000000000000000000000000000000000000000000000000006000350416635001f3b581146100805780638da5cb5b146100be575b34801561005757600080fd5b506000543660008037600080366000845af43d806000803e81801561007b57816000f35b600080fd5b34801561008c57600080fd5b506100956100d3565b6040805173ffffffffffffffffffffffffffffffffffffffff9092168252519081900360200190f35b3480156100ca57600080fd5b506100956100ef565b60005473ffffffffffffffffffffffffffffffffffffffff1681565b60015473ffffffffffffffffffffffffffffffffffffffff16815600a165627a7a72305820ef4398c8003c2448f2a0452064d130554d091db04da3e2f5312fb64ec87c09f90029",
  "source": "pragma solidity ^0.4.2;\n\nimport \"./EventBase.sol\";\n\ncontract Event {\n    EventBase public base;\n    address public owner;\n\n    constructor(address _base) public {\n        owner = msg.sender;\n        base = EventBase(_base);\n    }\n\n    function() public {\n        assembly {\n            let _target := sload(0)\n            calldatacopy(0x0, 0x0, calldatasize)\n            let retval := delegatecall(gas, _target, 0x0, calldatasize, 0x0, 0)\n            let returnsize := returndatasize\n            returndatacopy(0x0, 0x0, returnsize)\n            switch retval case 0 {revert(0, 0)} default {return (0, returnsize)}\n        }\n    }\n}\n",
  "sourcePath": "/Users/nickolay/workspace/rsk/app/contracts/Event.sol",
  "compiler": {
    "name": "solc",
    "version": "0.4.24+commit.e67f0147.Emscripten.clang"
  },
  "schemaVersion": "2.0.0",
  "updatedAt": "2018-06-12T11:29:04.024Z"
}