{
  "contractName": "FreezingToken",
  "abi": [
    {
      "constant": false,
      "inputs": [
        {
          "name": "_spender",
          "type": "address"
        },
        {
          "name": "_value",
          "type": "uint256"
        }
      ],
      "name": "approve",
      "outputs": [
        {
          "name": "",
          "type": "bool"
        }
      ],
      "payable": false,
      "stateMutability": "nonpayable",
      "type": "function"
    },
    {
      "constant": true,
      "inputs": [
        {
          "name": "",
          "type": "address"
        }
      ],
      "name": "grantedToSetUnpausedWallet",
      "outputs": [
        {
          "name": "",
          "type": "bool"
        }
      ],
      "payable": false,
      "stateMutability": "view",
      "type": "function"
    },
    {
      "constant": true,
      "inputs": [],
      "name": "totalSupply",
      "outputs": [
        {
          "name": "",
          "type": "uint256"
        }
      ],
      "payable": false,
      "stateMutability": "view",
      "type": "function"
    },
    {
      "constant": false,
      "inputs": [
        {
          "name": "_to",
          "type": "address"
        },
        {
          "name": "permission",
          "type": "bool"
        }
      ],
      "name": "grantToSetUnpausedWallet",
      "outputs": [],
      "payable": false,
      "stateMutability": "nonpayable",
      "type": "function"
    },
    {
      "constant": true,
      "inputs": [],
      "name": "paused",
      "outputs": [
        {
          "name": "",
          "type": "bool"
        }
      ],
      "payable": false,
      "stateMutability": "view",
      "type": "function"
    },
    {
      "constant": false,
      "inputs": [
        {
          "name": "_spender",
          "type": "address"
        },
        {
          "name": "_subtractedValue",
          "type": "uint256"
        }
      ],
      "name": "decreaseApproval",
      "outputs": [
        {
          "name": "",
          "type": "bool"
        }
      ],
      "payable": false,
      "stateMutability": "nonpayable",
      "type": "function"
    },
    {
      "constant": true,
      "inputs": [
        {
          "name": "_owner",
          "type": "address"
        }
      ],
      "name": "balanceOf",
      "outputs": [
        {
          "name": "balance",
          "type": "uint256"
        }
      ],
      "payable": false,
      "stateMutability": "view",
      "type": "function"
    },
    {
      "constant": true,
      "inputs": [],
      "name": "owner",
      "outputs": [
        {
          "name": "",
          "type": "address"
        }
      ],
      "payable": false,
      "stateMutability": "view",
      "type": "function"
    },
    {
      "constant": false,
      "inputs": [
        {
          "name": "_wallet",
          "type": "address"
        },
        {
          "name": "mode",
          "type": "bool"
        }
      ],
      "name": "setUnpausedWallet",
      "outputs": [],
      "payable": false,
      "stateMutability": "nonpayable",
      "type": "function"
    },
    {
      "constant": true,
      "inputs": [
        {
          "name": "",
          "type": "address"
        }
      ],
      "name": "unpausedWallet",
      "outputs": [
        {
          "name": "",
          "type": "bool"
        }
      ],
      "payable": false,
      "stateMutability": "view",
      "type": "function"
    },
    {
      "constant": false,
      "inputs": [
        {
          "name": "mode",
          "type": "bool"
        }
      ],
      "name": "setPause",
      "outputs": [],
      "payable": false,
      "stateMutability": "nonpayable",
      "type": "function"
    },
    {
      "constant": false,
      "inputs": [
        {
          "name": "_spender",
          "type": "address"
        },
        {
          "name": "_addedValue",
          "type": "uint256"
        }
      ],
      "name": "increaseApproval",
      "outputs": [
        {
          "name": "",
          "type": "bool"
        }
      ],
      "payable": false,
      "stateMutability": "nonpayable",
      "type": "function"
    },
    {
      "constant": true,
      "inputs": [
        {
          "name": "_owner",
          "type": "address"
        },
        {
          "name": "_spender",
          "type": "address"
        }
      ],
      "name": "allowance",
      "outputs": [
        {
          "name": "",
          "type": "uint256"
        }
      ],
      "payable": false,
      "stateMutability": "view",
      "type": "function"
    },
    {
      "constant": false,
      "inputs": [
        {
          "name": "newOwner",
          "type": "address"
        }
      ],
      "name": "transferOwnership",
      "outputs": [],
      "payable": false,
      "stateMutability": "nonpayable",
      "type": "function"
    },
    {
      "anonymous": false,
      "inputs": [],
      "name": "Pause",
      "type": "event"
    },
    {
      "anonymous": false,
      "inputs": [],
      "name": "Unpause",
      "type": "event"
    },
    {
      "anonymous": false,
      "inputs": [
        {
          "indexed": true,
          "name": "previousOwner",
          "type": "address"
        },
        {
          "indexed": true,
          "name": "newOwner",
          "type": "address"
        }
      ],
      "name": "OwnershipTransferred",
      "type": "event"
    },
    {
      "anonymous": false,
      "inputs": [
        {
          "indexed": true,
          "name": "owner",
          "type": "address"
        },
        {
          "indexed": true,
          "name": "spender",
          "type": "address"
        },
        {
          "indexed": false,
          "name": "value",
          "type": "uint256"
        }
      ],
      "name": "Approval",
      "type": "event"
    },
    {
      "anonymous": false,
      "inputs": [
        {
          "indexed": true,
          "name": "from",
          "type": "address"
        },
        {
          "indexed": true,
          "name": "to",
          "type": "address"
        },
        {
          "indexed": false,
          "name": "value",
          "type": "uint256"
        }
      ],
      "name": "Transfer",
      "type": "event"
    },
    {
      "constant": true,
      "inputs": [
        {
          "name": "_beneficiary",
          "type": "address"
        }
      ],
      "name": "freezedTokenOf",
      "outputs": [
        {
          "name": "amount",
          "type": "uint256"
        }
      ],
      "payable": false,
      "stateMutability": "view",
      "type": "function"
    },
    {
      "constant": true,
      "inputs": [
        {
          "name": "_beneficiary",
          "type": "address"
        }
      ],
      "name": "defrostDate",
      "outputs": [
        {
          "name": "Date",
          "type": "uint256"
        }
      ],
      "payable": false,
      "stateMutability": "view",
      "type": "function"
    },
    {
      "constant": false,
      "inputs": [
        {
          "name": "_beneficiary",
          "type": "address"
        },
        {
          "name": "_amount",
          "type": "uint256"
        },
        {
          "name": "_when",
          "type": "uint256"
        }
      ],
      "name": "freezeTokens",
      "outputs": [],
      "payable": false,
      "stateMutability": "nonpayable",
      "type": "function"
    },
    {
      "constant": false,
      "inputs": [
        {
          "name": "_beneficiary",
          "type": "address[]"
        },
        {
          "name": "_amount",
          "type": "uint256[]"
        },
        {
          "name": "_when",
          "type": "uint256[]"
        }
      ],
      "name": "masFreezedTokens",
      "outputs": [],
      "payable": false,
      "stateMutability": "nonpayable",
      "type": "function"
    },
    {
      "constant": false,
      "inputs": [
        {
          "name": "_to",
          "type": "address"
        },
        {
          "name": "_value",
          "type": "uint256"
        },
        {
          "name": "_when",
          "type": "uint256"
        }
      ],
      "name": "transferAndFreeze",
      "outputs": [],
      "payable": false,
      "stateMutability": "nonpayable",
      "type": "function"
    },
    {
      "constant": false,
      "inputs": [
        {
          "name": "_to",
          "type": "address"
        },
        {
          "name": "_value",
          "type": "uint256"
        }
      ],
      "name": "transfer",
      "outputs": [
        {
          "name": "",
          "type": "bool"
        }
      ],
      "payable": false,
      "stateMutability": "nonpayable",
      "type": "function"
    },
    {
      "constant": false,
      "inputs": [
        {
          "name": "_from",
          "type": "address"
        },
        {
          "name": "_to",
          "type": "address"
        },
        {
          "name": "_value",
          "type": "uint256"
        }
      ],
      "name": "transferFrom",
      "outputs": [
        {
          "name": "",
          "type": "bool"
        }
      ],
      "payable": false,
      "stateMutability": "nonpayable",
      "type": "function"
    }
  ],
  "bytecode": "0x60806040526005805460ff1916600117905560038054600160a060020a03191633179055611133806100326000396000f3006080604052600436106101035763ffffffff60e060020a600035041663095ea7b3811461010857806311cfb19d1461014057806317221e2c1461017357806318160ddd1461019457806320ceb536146101a957806323b872dd146101d157806324db1f50146101fb57806350bb117a146102c25780635c975abb146102e357806366188463146102f857806370a082311461031c578063852e9f461461033d5780638da5cb5b14610364578063a9059cbb14610395578063b3e1f523146103b9578063b8b3db4f146103df578063bedb86fb14610400578063d73dd6231461041a578063dd62ed3e1461043e578063f2fde38b14610465578063f831ebab14610486575b600080fd5b34801561011457600080fd5b5061012c600160a060020a03600435166024356104ad565b604080519115158252519081900360200190f35b34801561014c57600080fd5b50610161600160a060020a0360043516610513565b60408051918252519081900360200190f35b34801561017f57600080fd5b5061012c600160a060020a036004351661054b565b3480156101a057600080fd5b50610161610560565b3480156101b557600080fd5b506101cf600160a060020a03600435166024351515610566565b005b3480156101dd57600080fd5b5061012c600160a060020a0360043581169060243516604435610637565b34801561020757600080fd5b50604080516020600480358082013583810280860185019096528085526101cf95369593946024949385019291829185019084908082843750506040805187358901803560208181028481018201909552818452989b9a998901989297509082019550935083925085019084908082843750506040805187358901803560208181028481018201909552818452989b9a9989019892975090820195509350839250850190849080828437509497506106799650505050505050565b3480156102ce57600080fd5b50610161600160a060020a03600435166107eb565b3480156102ef57600080fd5b5061012c610822565b34801561030457600080fd5b5061012c600160a060020a036004351660243561082b565b34801561032857600080fd5b50610161600160a060020a036004351661091b565b34801561034957600080fd5b506101cf600160a060020a0360043516602435604435610936565b34801561037057600080fd5b506103796109b1565b60408051600160a060020a039092168252519081900360200190f35b3480156103a157600080fd5b5061012c600160a060020a03600435166024356109c0565b3480156103c557600080fd5b506101cf600160a060020a036004351660243515156109f4565b3480156103eb57600080fd5b5061012c600160a060020a0360043516610adf565b34801561040c57600080fd5b506101cf6004351515610af4565b34801561042657600080fd5b5061012c600160a060020a0360043516602435610ba3565b34801561044a57600080fd5b50610161600160a060020a0360043581169060243516610c3c565b34801561047157600080fd5b506101cf600160a060020a0360043516610c67565b34801561049257600080fd5b506101cf600160a060020a0360043516602435604435610cfc565b336000818152600260209081526040808320600160a060020a038716808552908352818420869055815186815291519394909390927f8c5be1e5ebec7d5bd14f71427d1e84f3dd0314c0f7b2291e5b200ac8c7c3b925928290030190a350600192915050565b600160a060020a038116600090815260076020526040812060018101544211156105405760009150610545565b805491505b50919050565b60066020526000908152604090205460ff1681565b60015490565b600354600160a060020a03163314806106015750600354600160a060020a0316637ad71f7260026040518263ffffffff1660e060020a028152600401808260ff168152602001915050602060405180830381600087803b1580156105c957600080fd5b505af11580156105dd573d6000803e3d6000fd5b505050506040513d60208110156105f357600080fd5b5051600160a060020a031633145b151561060c57600080fd5b600160a060020a03919091166000908152600660205260409020805460ff1916911515919091179055565b60006106528261064686610513565b9063ffffffff610dc816565b61065b8561091b565b101561066657600080fd5b610671848484610dd7565b949350505050565b6003546000908190600160a060020a03163314806107195750600354600160a060020a0316637ad71f7260026040518263ffffffff1660e060020a028152600401808260ff168152602001915050602060405180830381600087803b1580156106e157600080fd5b505af11580156106f5573d6000803e3d6000fd5b505050506040513d602081101561070b57600080fd5b5051600160a060020a031633145b151561072457600080fd5b83518551148015610736575082518551145b151561074157600080fd5b600091505b84518261ffff1610156107e45760076000868461ffff1681518110151561076957fe5b90602001906020020151600160a060020a0316600160a060020a031681526020019081526020016000209050838261ffff168151811015156107a757fe5b6020908102909101015181558251839061ffff84169081106107c557fe5b9060200190602002015181600101819055508180600101925050610746565b5050505050565b600160a060020a038116600090815260076020526040812060018101544211156108185760009150610545565b6001015492915050565b60055460ff1681565b336000908152600260209081526040808320600160a060020a03861684529091528120548083111561088057336000908152600260209081526040808320600160a060020a03881684529091528120556108b5565b610890818463ffffffff610e3f16565b336000908152600260209081526040808320600160a060020a03891684529091529020555b336000818152600260209081526040808320600160a060020a0389168085529083529281902054815190815290519293927f8c5be1e5ebec7d5bd14f71427d1e84f3dd0314c0f7b2291e5b200ac8c7c3b925929181900390910190a35060019392505050565b600160a060020a031660009081526020819052604090205490565b3360009081526004602052604081205460ff16151561095457600080fd5b60008211156109a75750600160a060020a03831660009081526007602052604090208054610988908463ffffffff610dc816565b81556001810154821061099b57816109a1565b80600101545b60018201555b6107e484846109c0565b600354600160a060020a031681565b60006109cf8261064633610513565b6109d83361091b565b10156109e357600080fd5b6109ed8383610e51565b9392505050565b600354600160a060020a0316331480610a1c57503360009081526006602052604090205460ff165b80610aa95750600354600160a060020a0316637ad71f7260026040518263ffffffff1660e060020a028152600401808260ff168152602001915050602060405180830381600087803b158015610a7157600080fd5b505af1158015610a85573d6000803e3d6000fd5b505050506040513d6020811015610a9b57600080fd5b5051600160a060020a031633145b1515610ab457600080fd5b600160a060020a03919091166000908152600460205260409020805460ff1916911515919091179055565b60046020526000908152604090205460ff1681565b600354600160a060020a03163314610b0b57600080fd5b60055460ff16158015610b1b5750805b15610b57576005805460ff191660011790556040517f6985a02210a168e66602d3235cb6db0e70f92b3ba4d376a33c0f3d9434bff62590600090a15b60055460ff168015610b67575080155b15610ba0576005805460ff191690556040517f7805862f689e2f13df9f062ff482ad3ad112aca9e0847911ed832e158c525b3390600090a15b50565b336000908152600260209081526040808320600160a060020a0386168452909152812054610bd7908363ffffffff610dc816565b336000818152600260209081526040808320600160a060020a0389168085529083529281902085905580519485525191937f8c5be1e5ebec7d5bd14f71427d1e84f3dd0314c0f7b2291e5b200ac8c7c3b925929081900390910190a350600192915050565b600160a060020a03918216600090815260026020908152604080832093909416825291909152205490565b600354600160a060020a03163314610c7e57600080fd5b600160a060020a0381161515610c9357600080fd5b600354604051600160a060020a038084169216907f8be0079c531659141344cd1fd0a4f28419497f9722a3daafe3b4186f6b6457e090600090a36003805473ffffffffffffffffffffffffffffffffffffffff1916600160a060020a0392909216919091179055565b600354600090600160a060020a0316331480610d9a5750600354600160a060020a0316637ad71f7260026040518263ffffffff1660e060020a028152600401808260ff168152602001915050602060405180830381600087803b158015610d6257600080fd5b505af1158015610d76573d6000803e3d6000fd5b505050506040513d6020811015610d8c57600080fd5b5051600160a060020a031633145b1515610da557600080fd5b50600160a060020a03909216600090815260076020526040902090815560010155565b6000828201838110156109ed57fe5b600554600090839060ff161580610dfd57503360009081526004602052604090205460ff165b80610e205750600160a060020a03811660009081526004602052604090205460ff165b1515610e2b57600080fd5b610e36858585610eaf565b95945050505050565b600082821115610e4b57fe5b50900390565b600554600090839060ff161580610e7757503360009081526004602052604090205460ff165b80610e9a5750600160a060020a03811660009081526004602052604090205460ff165b1515610ea557600080fd5b6106718484611026565b6000600160a060020a0383161515610ec657600080fd5b600160a060020a038416600090815260208190526040902054821115610eeb57600080fd5b600160a060020a0384166000908152600260209081526040808320338452909152902054821115610f1b57600080fd5b600160a060020a038416600090815260208190526040902054610f44908363ffffffff610e3f16565b600160a060020a038086166000908152602081905260408082209390935590851681522054610f79908363ffffffff610dc816565b600160a060020a03808516600090815260208181526040808320949094559187168152600282528281203382529091522054610fbb908363ffffffff610e3f16565b600160a060020a03808616600081815260026020908152604080832033845282529182902094909455805186815290519287169391927fddf252ad1be2c89b69c2b068fc378daa952ba7f163c4a11628f55a4df523b3ef929181900390910190a35060019392505050565b6000600160a060020a038316151561103d57600080fd5b3360009081526020819052604090205482111561105957600080fd5b33600090815260208190526040902054611079908363ffffffff610e3f16565b3360009081526020819052604080822092909255600160a060020a038516815220546110ab908363ffffffff610dc816565b600160a060020a038416600081815260208181526040918290209390935580518581529051919233927fddf252ad1be2c89b69c2b068fc378daa952ba7f163c4a11628f55a4df523b3ef9281900390910190a3506001929150505600a165627a7a7230582050a246ae88302c099ff29d3045ae42c5b0d9503f683abe332c081c0d627e90f90029",
  "source": "pragma solidity ^0.4.21;\n\nimport './PausableToken.sol';\n\ncontract FreezingToken is PausableToken {\n    struct freeze {\n    uint256 amount;\n    uint256 when;\n    }\n\n\n    mapping (address => freeze) freezedTokens;\n\n\n    // @ Do I have to use the function      no\n    // @ When it is possible to call        any time\n    // @ When it is launched automatically  -\n    // @ Who can call the function          any\n    function freezedTokenOf(address _beneficiary) public view returns (uint256 amount){\n        freeze storage _freeze = freezedTokens[_beneficiary];\n        if(_freeze.when < now) return 0;\n        return _freeze.amount;\n    }\n\n    // @ Do I have to use the function      no\n    // @ When it is possible to call        any time\n    // @ When it is launched automatically  -\n    // @ Who can call the function          any\n    function defrostDate(address _beneficiary) public view returns (uint256 Date) {\n        freeze storage _freeze = freezedTokens[_beneficiary];\n        if(_freeze.when < now) return 0;\n        return _freeze.when;\n    }\n\n\n    // ***CHECK***SCENARIO***\n    function freezeTokens(address _beneficiary, uint256 _amount, uint256 _when) public {\n        require(owner == msg.sender || msg.sender == Crowdsale(owner).wallets(uint8(Crowdsale.Roles.manager)));\n        freeze storage _freeze = freezedTokens[_beneficiary];\n        _freeze.amount = _amount;\n        _freeze.when = _when;\n    }\n\n    // ***CHECK***SCENARIO***\n    function masFreezedTokens(address[] _beneficiary, uint256[] _amount, uint256[] _when) public {\n        require(owner == msg.sender || msg.sender == Crowdsale(owner).wallets(uint8(Crowdsale.Roles.manager)));\n        require(_beneficiary.length == _amount.length && _beneficiary.length == _when.length);\n        for(uint16 i = 0; i < _beneficiary.length; i++){\n            freeze storage _freeze = freezedTokens[_beneficiary[i]];\n            _freeze.amount = _amount[i];\n            _freeze.when = _when[i];\n        }\n    }\n\n\n    function transferAndFreeze(address _to, uint256 _value, uint256 _when) external {\n        require(unpausedWallet[msg.sender]);\n        if(_when > 0){\n            freeze storage _freeze = freezedTokens[_to];\n            _freeze.amount = _freeze.amount.add(_value);\n            _freeze.when = (_freeze.when > _when)? _freeze.when: _when;\n        }\n        transfer(_to,_value);\n    }\n\n    function transfer(address _to, uint256 _value) public returns (bool) {\n        require(balanceOf(msg.sender) >= freezedTokenOf(msg.sender).add(_value));\n        return super.transfer(_to,_value);\n    }\n\n    function transferFrom(address _from, address _to, uint256 _value) public returns (bool) {\n        require(balanceOf(_from) >= freezedTokenOf(_from).add(_value));\n        return super.transferFrom( _from,_to,_value);\n    }\n\n\n\n}\n",
  "sourcePath": "/home/dmitrya2e/Work/Projects/ProofOfToss/Code/proof-of-toss/contracts/token-sale-contracts/TokenSale/Token/FreezingToken.sol",
  "compiler": {
    "name": "solc",
    "version": "0.4.24+commit.e67f0147.Emscripten.clang"
  },
  "schemaVersion": "2.0.0",
  "updatedAt": "2018-06-08T15:45:57.085Z"
}