{
  "contractName": "PausableToken",
  "abi": [
    {
      "constant": false,
      "inputs": [
        {
          "name": "_spender",
          "type": "address"
        },
        {
          "name": "_value",
          "type": "uint256"
        }
      ],
      "name": "approve",
      "outputs": [
        {
          "name": "",
          "type": "bool"
        }
      ],
      "payable": false,
      "stateMutability": "nonpayable",
      "type": "function"
    },
    {
      "constant": true,
      "inputs": [
        {
          "name": "",
          "type": "address"
        }
      ],
      "name": "grantedToSetUnpausedWallet",
      "outputs": [
        {
          "name": "",
          "type": "bool"
        }
      ],
      "payable": false,
      "stateMutability": "view",
      "type": "function"
    },
    {
      "constant": true,
      "inputs": [],
      "name": "totalSupply",
      "outputs": [
        {
          "name": "",
          "type": "uint256"
        }
      ],
      "payable": false,
      "stateMutability": "view",
      "type": "function"
    },
    {
      "constant": true,
      "inputs": [],
      "name": "paused",
      "outputs": [
        {
          "name": "",
          "type": "bool"
        }
      ],
      "payable": false,
      "stateMutability": "view",
      "type": "function"
    },
    {
      "constant": false,
      "inputs": [
        {
          "name": "_spender",
          "type": "address"
        },
        {
          "name": "_subtractedValue",
          "type": "uint256"
        }
      ],
      "name": "decreaseApproval",
      "outputs": [
        {
          "name": "",
          "type": "bool"
        }
      ],
      "payable": false,
      "stateMutability": "nonpayable",
      "type": "function"
    },
    {
      "constant": true,
      "inputs": [
        {
          "name": "_owner",
          "type": "address"
        }
      ],
      "name": "balanceOf",
      "outputs": [
        {
          "name": "balance",
          "type": "uint256"
        }
      ],
      "payable": false,
      "stateMutability": "view",
      "type": "function"
    },
    {
      "constant": true,
      "inputs": [],
      "name": "owner",
      "outputs": [
        {
          "name": "",
          "type": "address"
        }
      ],
      "payable": false,
      "stateMutability": "view",
      "type": "function"
    },
    {
      "constant": true,
      "inputs": [
        {
          "name": "",
          "type": "address"
        }
      ],
      "name": "unpausedWallet",
      "outputs": [
        {
          "name": "",
          "type": "bool"
        }
      ],
      "payable": false,
      "stateMutability": "view",
      "type": "function"
    },
    {
      "constant": false,
      "inputs": [
        {
          "name": "mode",
          "type": "bool"
        }
      ],
      "name": "setPause",
      "outputs": [],
      "payable": false,
      "stateMutability": "nonpayable",
      "type": "function"
    },
    {
      "constant": false,
      "inputs": [
        {
          "name": "_spender",
          "type": "address"
        },
        {
          "name": "_addedValue",
          "type": "uint256"
        }
      ],
      "name": "increaseApproval",
      "outputs": [
        {
          "name": "",
          "type": "bool"
        }
      ],
      "payable": false,
      "stateMutability": "nonpayable",
      "type": "function"
    },
    {
      "constant": true,
      "inputs": [
        {
          "name": "_owner",
          "type": "address"
        },
        {
          "name": "_spender",
          "type": "address"
        }
      ],
      "name": "allowance",
      "outputs": [
        {
          "name": "",
          "type": "uint256"
        }
      ],
      "payable": false,
      "stateMutability": "view",
      "type": "function"
    },
    {
      "constant": false,
      "inputs": [
        {
          "name": "newOwner",
          "type": "address"
        }
      ],
      "name": "transferOwnership",
      "outputs": [],
      "payable": false,
      "stateMutability": "nonpayable",
      "type": "function"
    },
    {
      "anonymous": false,
      "inputs": [],
      "name": "Pause",
      "type": "event"
    },
    {
      "anonymous": false,
      "inputs": [],
      "name": "Unpause",
      "type": "event"
    },
    {
      "anonymous": false,
      "inputs": [
        {
          "indexed": true,
          "name": "previousOwner",
          "type": "address"
        },
        {
          "indexed": true,
          "name": "newOwner",
          "type": "address"
        }
      ],
      "name": "OwnershipTransferred",
      "type": "event"
    },
    {
      "anonymous": false,
      "inputs": [
        {
          "indexed": true,
          "name": "owner",
          "type": "address"
        },
        {
          "indexed": true,
          "name": "spender",
          "type": "address"
        },
        {
          "indexed": false,
          "name": "value",
          "type": "uint256"
        }
      ],
      "name": "Approval",
      "type": "event"
    },
    {
      "anonymous": false,
      "inputs": [
        {
          "indexed": true,
          "name": "from",
          "type": "address"
        },
        {
          "indexed": true,
          "name": "to",
          "type": "address"
        },
        {
          "indexed": false,
          "name": "value",
          "type": "uint256"
        }
      ],
      "name": "Transfer",
      "type": "event"
    },
    {
      "constant": false,
      "inputs": [
        {
          "name": "_to",
          "type": "address"
        },
        {
          "name": "_value",
          "type": "uint256"
        }
      ],
      "name": "transfer",
      "outputs": [
        {
          "name": "",
          "type": "bool"
        }
      ],
      "payable": false,
      "stateMutability": "nonpayable",
      "type": "function"
    },
    {
      "constant": false,
      "inputs": [
        {
          "name": "_from",
          "type": "address"
        },
        {
          "name": "_to",
          "type": "address"
        },
        {
          "name": "_value",
          "type": "uint256"
        }
      ],
      "name": "transferFrom",
      "outputs": [
        {
          "name": "",
          "type": "bool"
        }
      ],
      "payable": false,
      "stateMutability": "nonpayable",
      "type": "function"
    },
    {
      "constant": false,
      "inputs": [
        {
          "name": "_to",
          "type": "address"
        },
        {
          "name": "permission",
          "type": "bool"
        }
      ],
      "name": "grantToSetUnpausedWallet",
      "outputs": [],
      "payable": false,
      "stateMutability": "nonpayable",
      "type": "function"
    },
    {
      "constant": false,
      "inputs": [
        {
          "name": "_wallet",
          "type": "address"
        },
        {
          "name": "mode",
          "type": "bool"
        }
      ],
      "name": "setUnpausedWallet",
      "outputs": [],
      "payable": false,
      "stateMutability": "nonpayable",
      "type": "function"
    }
  ],
  "bytecode": "0x60806040526005805460ff1916600117905560038054600160a060020a03191633179055610c16806100326000396000f3006080604052600436106100cc5763ffffffff60e060020a600035041663095ea7b381146100d157806317221e2c1461010957806318160ddd1461012a57806320ceb5361461015157806323b872dd146101795780635c975abb146101a357806366188463146101b857806370a08231146101dc5780638da5cb5b146101fd578063a9059cbb1461022e578063b3e1f52314610252578063b8b3db4f14610278578063bedb86fb14610299578063d73dd623146102b3578063dd62ed3e146102d7578063f2fde38b146102fe575b600080fd5b3480156100dd57600080fd5b506100f5600160a060020a036004351660243561031f565b604080519115158252519081900360200190f35b34801561011557600080fd5b506100f5600160a060020a0360043516610385565b34801561013657600080fd5b5061013f61039a565b60408051918252519081900360200190f35b34801561015d57600080fd5b50610177600160a060020a036004351660243515156103a0565b005b34801561018557600080fd5b506100f5600160a060020a0360043581169060243516604435610471565b3480156101af57600080fd5b506100f56104d9565b3480156101c457600080fd5b506100f5600160a060020a03600435166024356104e2565b3480156101e857600080fd5b5061013f600160a060020a03600435166105d2565b34801561020957600080fd5b506102126105ed565b60408051600160a060020a039092168252519081900360200190f35b34801561023a57600080fd5b506100f5600160a060020a03600435166024356105fc565b34801561025e57600080fd5b50610177600160a060020a03600435166024351515610662565b34801561028457600080fd5b506100f5600160a060020a036004351661074d565b3480156102a557600080fd5b506101776004351515610762565b3480156102bf57600080fd5b506100f5600160a060020a0360043516602435610811565b3480156102e357600080fd5b5061013f600160a060020a03600435811690602435166108aa565b34801561030a57600080fd5b50610177600160a060020a03600435166108d5565b336000818152600260209081526040808320600160a060020a038716808552908352818420869055815186815291519394909390927f8c5be1e5ebec7d5bd14f71427d1e84f3dd0314c0f7b2291e5b200ac8c7c3b925928290030190a350600192915050565b60066020526000908152604090205460ff1681565b60015490565b600354600160a060020a031633148061043b5750600354600160a060020a0316637ad71f7260026040518263ffffffff1660e060020a028152600401808260ff168152602001915050602060405180830381600087803b15801561040357600080fd5b505af1158015610417573d6000803e3d6000fd5b505050506040513d602081101561042d57600080fd5b5051600160a060020a031633145b151561044657600080fd5b600160a060020a03919091166000908152600660205260409020805460ff1916911515919091179055565b600554600090839060ff16158061049757503360009081526004602052604090205460ff165b806104ba5750600160a060020a03811660009081526004602052604090205460ff165b15156104c557600080fd5b6104d085858561096a565b95945050505050565b60055460ff1681565b336000908152600260209081526040808320600160a060020a03861684529091528120548083111561053757336000908152600260209081526040808320600160a060020a038816845290915281205561056c565b610547818463ffffffff610ae116565b336000908152600260209081526040808320600160a060020a03891684529091529020555b336000818152600260209081526040808320600160a060020a0389168085529083529281902054815190815290519293927f8c5be1e5ebec7d5bd14f71427d1e84f3dd0314c0f7b2291e5b200ac8c7c3b925929181900390910190a35060019392505050565b600160a060020a031660009081526020819052604090205490565b600354600160a060020a031681565b600554600090839060ff16158061062257503360009081526004602052604090205460ff165b806106455750600160a060020a03811660009081526004602052604090205460ff165b151561065057600080fd5b61065a8484610af3565b949350505050565b600354600160a060020a031633148061068a57503360009081526006602052604090205460ff165b806107175750600354600160a060020a0316637ad71f7260026040518263ffffffff1660e060020a028152600401808260ff168152602001915050602060405180830381600087803b1580156106df57600080fd5b505af11580156106f3573d6000803e3d6000fd5b505050506040513d602081101561070957600080fd5b5051600160a060020a031633145b151561072257600080fd5b600160a060020a03919091166000908152600460205260409020805460ff1916911515919091179055565b60046020526000908152604090205460ff1681565b600354600160a060020a0316331461077957600080fd5b60055460ff161580156107895750805b156107c5576005805460ff191660011790556040517f6985a02210a168e66602d3235cb6db0e70f92b3ba4d376a33c0f3d9434bff62590600090a15b60055460ff1680156107d5575080155b1561080e576005805460ff191690556040517f7805862f689e2f13df9f062ff482ad3ad112aca9e0847911ed832e158c525b3390600090a15b50565b336000908152600260209081526040808320600160a060020a0386168452909152812054610845908363ffffffff610bd416565b336000818152600260209081526040808320600160a060020a0389168085529083529281902085905580519485525191937f8c5be1e5ebec7d5bd14f71427d1e84f3dd0314c0f7b2291e5b200ac8c7c3b925929081900390910190a350600192915050565b600160a060020a03918216600090815260026020908152604080832093909416825291909152205490565b600354600160a060020a031633146108ec57600080fd5b600160a060020a038116151561090157600080fd5b600354604051600160a060020a038084169216907f8be0079c531659141344cd1fd0a4f28419497f9722a3daafe3b4186f6b6457e090600090a36003805473ffffffffffffffffffffffffffffffffffffffff1916600160a060020a0392909216919091179055565b6000600160a060020a038316151561098157600080fd5b600160a060020a0384166000908152602081905260409020548211156109a657600080fd5b600160a060020a03841660009081526002602090815260408083203384529091529020548211156109d657600080fd5b600160a060020a0384166000908152602081905260409020546109ff908363ffffffff610ae116565b600160a060020a038086166000908152602081905260408082209390935590851681522054610a34908363ffffffff610bd416565b600160a060020a03808516600090815260208181526040808320949094559187168152600282528281203382529091522054610a76908363ffffffff610ae116565b600160a060020a03808616600081815260026020908152604080832033845282529182902094909455805186815290519287169391927fddf252ad1be2c89b69c2b068fc378daa952ba7f163c4a11628f55a4df523b3ef929181900390910190a35060019392505050565b600082821115610aed57fe5b50900390565b6000600160a060020a0383161515610b0a57600080fd5b33600090815260208190526040902054821115610b2657600080fd5b33600090815260208190526040902054610b46908363ffffffff610ae116565b3360009081526020819052604080822092909255600160a060020a03851681522054610b78908363ffffffff610bd416565b600160a060020a038416600081815260208181526040918290209390935580518581529051919233927fddf252ad1be2c89b69c2b068fc378daa952ba7f163c4a11628f55a4df523b3ef9281900390910190a350600192915050565b600082820183811015610be357fe5b93925050505600a165627a7a723058207e6a4d4a679d54ab1da8ab8f55084a661e84f1f3bc3134cd611251d516750afe0029",
  "source": "pragma solidity ^0.4.21;\n\nimport '../Pausable.sol';\nimport './StandardToken.sol';\n\n/**\n * @title Pausable token\n * @dev StandardToken modified with pausable transfers.\n **/\ncontract PausableToken is StandardToken, Pausable {\n\n    mapping (address => bool) public grantedToSetUnpausedWallet;\n\n    function transfer(address _to, uint256 _value) public whenNotPaused(_to) returns (bool) {\n        return super.transfer(_to, _value);\n    }\n\n    function transferFrom(address _from, address _to, uint256 _value) public whenNotPaused(_to) returns (bool) {\n        return super.transferFrom(_from, _to, _value);\n    }\n\n    function grantToSetUnpausedWallet(address _to, bool permission) public {\n        require(owner == msg.sender || msg.sender == Crowdsale(owner).wallets(uint8(Crowdsale.Roles.manager)));\n        grantedToSetUnpausedWallet[_to] = permission;\n    }\n\n    // Add a wallet ignoring the \"Exchange pause\". Available to the owner of the contract.\n    function setUnpausedWallet(address _wallet, bool mode) public {\n        require(owner == msg.sender || grantedToSetUnpausedWallet[msg.sender] || msg.sender == Crowdsale(owner).wallets(uint8(Crowdsale.Roles.manager)));\n        unpausedWallet[_wallet] = mode;\n    }\n}\n",
  "sourcePath": "/home/dmitrya2e/Work/Projects/ProofOfToss/Code/proof-of-toss/contracts/token-sale-contracts/TokenSale/Token/PausableToken.sol",
  "compiler": {
    "name": "solc",
    "version": "0.4.24+commit.e67f0147.Emscripten.clang"
  },
  "schemaVersion": "2.0.0",
  "updatedAt": "2018-06-11T07:17:21.974Z"
}