{
  "contractName": "SerialityTest",
  "abi": [
    {
      "anonymous": false,
      "inputs": [
        {
          "indexed": false,
          "name": "n1",
          "type": "int256"
        },
        {
          "indexed": false,
          "name": "n2",
          "type": "int8"
        },
        {
          "indexed": false,
          "name": "n3",
          "type": "uint24"
        },
        {
          "indexed": false,
          "name": "n4",
          "type": "string"
        },
        {
          "indexed": false,
          "name": "n5",
          "type": "string"
        }
      ],
      "name": "Sample1",
      "type": "event"
    },
    {
      "anonymous": false,
      "inputs": [
        {
          "indexed": false,
          "name": "buffer",
          "type": "bytes"
        }
      ],
      "name": "Sample1Serializing",
      "type": "event"
    },
    {
      "anonymous": false,
      "inputs": [
        {
          "indexed": false,
          "name": "n1",
          "type": "int8"
        },
        {
          "indexed": false,
          "name": "n2",
          "type": "int24"
        },
        {
          "indexed": false,
          "name": "n3",
          "type": "uint32"
        },
        {
          "indexed": false,
          "name": "n4",
          "type": "int128"
        },
        {
          "indexed": false,
          "name": "n5",
          "type": "address"
        },
        {
          "indexed": false,
          "name": "n6",
          "type": "address"
        }
      ],
      "name": "Sample2",
      "type": "event"
    },
    {
      "anonymous": false,
      "inputs": [
        {
          "indexed": false,
          "name": "n1",
          "type": "address"
        },
        {
          "indexed": false,
          "name": "buffer",
          "type": "bytes"
        }
      ],
      "name": "Sample3",
      "type": "event"
    },
    {
      "constant": false,
      "inputs": [],
      "name": "testSample1Serializing",
      "outputs": [
        {
          "name": "n1",
          "type": "int256"
        },
        {
          "name": "n2",
          "type": "int8"
        },
        {
          "name": "n3",
          "type": "uint24"
        },
        {
          "name": "n4",
          "type": "string"
        },
        {
          "name": "n5",
          "type": "string"
        }
      ],
      "payable": false,
      "stateMutability": "nonpayable",
      "type": "function"
    },
    {
      "constant": false,
      "inputs": [
        {
          "name": "buffer",
          "type": "bytes"
        }
      ],
      "name": "testSample1",
      "outputs": [
        {
          "name": "n1",
          "type": "int256"
        },
        {
          "name": "n2",
          "type": "int8"
        },
        {
          "name": "n3",
          "type": "uint24"
        },
        {
          "name": "n4",
          "type": "string"
        },
        {
          "name": "n5",
          "type": "string"
        }
      ],
      "payable": false,
      "stateMutability": "nonpayable",
      "type": "function"
    },
    {
      "constant": false,
      "inputs": [
        {
          "name": "buffer",
          "type": "bytes"
        }
      ],
      "name": "testSample2",
      "outputs": [
        {
          "name": "n1",
          "type": "int8"
        },
        {
          "name": "n2",
          "type": "int24"
        },
        {
          "name": "n3",
          "type": "uint32"
        },
        {
          "name": "n4",
          "type": "int128"
        },
        {
          "name": "n5",
          "type": "address"
        },
        {
          "name": "n6",
          "type": "address"
        }
      ],
      "payable": false,
      "stateMutability": "nonpayable",
      "type": "function"
    },
    {
      "constant": false,
      "inputs": [
        {
          "name": "buffer",
          "type": "bytes"
        }
      ],
      "name": "testSample3",
      "outputs": [
        {
          "name": "n1",
          "type": "address"
        }
      ],
      "payable": false,
      "stateMutability": "nonpayable",
      "type": "function"
    }
  ],
  "bytecode": "0x6060604052610d72806100136000396000f3006060604052600436106100615763ffffffff7c010000000000000000000000000000000000000000000000000000000060003504166340d8e2918114610066578063489a8b08146100e0578063d0363de11461019a578063dff00d3f146102ae575b600080fd5b341561007157600080fd5b6100b760046024813581810190830135806020601f820181900481020160405190810160405281815292919060208401838380828437509496506102ff95505050505050565b60405173ffffffffffffffffffffffffffffffffffffffff909116815260200160405180910390f35b34156100eb57600080fd5b61013160046024813581810190830135806020601f820181900481020160405190810160405281815292919060208401838380828437509496506103cb95505050505050565b604051600096870b90960b8652600294850b90940b602086015263ffffffff909216604080860191909152600f91820b90910b606085015273ffffffffffffffffffffffffffffffffffffffff9182166080850152911660a083015260c0909101905180910390f35b34156101a557600080fd5b6101ad6104f5565b604051858152600085810b900b602082015262ffffff8416604082015260a060608201818152906080830190830185818151815260200191508051906020019080838360005b8381101561020b5780820151838201526020016101f3565b50505050905090810190601f1680156102385780820380516001836020036101000a031916815260200191505b50838103825284818151815260200191508051906020019080838360005b8381101561026e578082015183820152602001610256565b50505050905090810190601f16801561029b5780820380516001836020036101000a031916815260200191505b5097505050505050505060405180910390f35b34156102b957600080fd5b6101ad60046024813581810190830135806020601f8201819004810201604051908101604052818152929190602084018383808284375094965061078a95505050505050565b6000601461030d8184610a09565b91507f58256327decb30771664915c935b96ba054ca618aa0bf2576269c07cea42c9e9828460405173ffffffffffffffffffffffffffffffffffffffff8316815260406020820181815290820183818151815260200191508051906020019080838360005b8381101561038a578082015183820152602001610372565b50505050905090810190601f1680156103b75780820380516001836020036101000a031916815260200191505b50935050505060405180910390a150919050565b6000808080808060406103de8189610a09565b96506103ea6008610a16565b90036103f68189610a09565b95506104026018610c45565b900361040e8189610a09565b60ff16945061041d6020610a16565b90036104298189610a09565b93506104356080610c45565b90036104418189610a09565b925061044b610c56565b60ff16900361045a8189610a09565b91507f86035fca558cadd5259425528bdf4c14269c1f0c0d8bad995e6562835b94d31d878787878787604051600096870b90960b8652600294850b90940b602086015263ffffffff909216604080860191909152600f91820b90910b606085015273ffffffffffffffffffffffffffffffffffffffff9182166080850152911660a083015260c0909101905180910390a15091939550919395565b6000806000610502610d34565b61050a610d34565b610512610d34565b61051a610d34565b610522610d34565b60008060008060c86040518059106105375750595b818152601f19601f830116810160200160405290509650602060405180591061055d5750595b818152601f19601f83011681016020016040529050955060206040518059106105835750595b818152601f19601f83011681016020016040529050945060206040518059106105a95750595b818152601f19601f83011681016020016040529050985060206040518059106105cf5750595b818152601f19601f83011681016020016040529050975063020d949d93506057925062012b0191506040805190810160405280600e81526020017f436f7079206b6f6e206c61736869000000000000000000000000000000000000815250955060408051908101604052601681527f42696120696e6a6120646168616e2073657276696365000000000000000000006020820152945060c8905061067881600085900b89610c5b565b6106826008610a16565b90036106948162ffffff841689610c5b565b61069e6018610c45565b90036106ab818689610c61565b6106b485610cb6565b90036106c1818789610c61565b6106ca86610cb6565b90036106d7818589610c5b565b6106e2610100610a16565b90037fdf79f13c845246e71cd84544641dfbd220b1545367755283016e622785ed193f8760405160208082528190810183818151815260200191508051906020019080838360005b8381101561074257808201518382015260200161072a565b50505050905090810190601f16801561076f5780820380516001836020036101000a031916815260200191505b509250505060405180910390a1505050505050509091929394565b6000806000610797610d34565b61079f610d34565b6107a7610d34565b6107af610d34565b600060206040518059106107c05750595b818152601f19601f83011681016020016040529050945060206040518059106107e65750595b818152601f19601f8301168101602001604052905093506040805190810160405280600e81526020017f436f7079206b6f6e206c61736869000000000000000000000000000000000000815250925060408051908101604052601681527f42696120696e6a6120646168616e2073657276696365000000000000000000006020820152915060c89050610879818a610a09565b96506108856008610a16565b9003610891818a610a09565b955061089d6018610c45565b90036108aa818a86610cea565b6108b382610cb6565b90036108c0818a87610cea565b6108c983610cb6565b90036108d5818a610a09565b97507f8f65143b697631467b1ed86b16f2f51b3c45375e2dca50f056669c0b72574e8e8888888888604051858152600085810b900b602082015262ffffff8416604082015260a060608201818152906080830190830185818151815260200191508051906020019080838360005b8381101561095b578082015183820152602001610943565b50505050905090810190601f1680156109885780820380516001836020036101000a031916815260200191505b50838103825284818151815260200191508051906020019080838360005b838110156109be5780820151838201526020016109a6565b50505050905090810190601f1680156109eb5780820380516001836020036101000a031916815260200191505b5097505050505050505060405180910390a150505091939590929450565b6000828201519392505050565b60008160088114610b235760108114610b2c5760188114610b355760208114610b3e5760288114610b475760308114610b505760388114610b595760408114610b625760488114610b6b5760508114610b745760588114610b7d5760608114610b865760688114610b8f5760708114610b985760788114610ba15760808114610baa5760888114610bb35760908114610bbc5760988114610bc55760a08114610bce5760a88114610bd75760b08114610be05760b88114610be95760c08114610bf25760c88114610bfb5760d08114610c045760d88114610c0d5760e08114610c165760e88114610c1f5760f08114610c285760f88114610c31576101008114610c3a5760209150610c3f565b60019150610c3f565b60029150610c3f565b60039150610c3f565b60049150610c3f565b60059150610c3f565b60069150610c3f565b60079150610c3f565b60089150610c3f565b60099150610c3f565b600a9150610c3f565b600b9150610c3f565b600c9150610c3f565b600d9150610c3f565b600e9150610c3f565b600f9150610c3f565b60109150610c3f565b60119150610c3f565b60129150610c3f565b60139150610c3f565b60149150610c3f565b60159150610c3f565b60169150610c3f565b60179150610c3f565b60189150610c3f565b60199150610c3f565b601a9150610c3f565b601b9150610c3f565b601c9150610c3f565b601d9150610c3f565b601e9150610c3f565b601f9150610c3f565b602091505b50919050565b6000610c5082610a16565b92915050565b601490565b90910152565b600060208351811515610c7057fe5b049050600060208451811515610c8257fe5b061115610c8d576001015b60010160005b6020810284015183860152601f1990940193600101818110610c93575050505050565b600060208251811515610cc557fe5b04905060208251811515610cd557fe5b0615610cdf576001015b600101602002919050565b602060008084860151925050602082046001016000601f84161115610d0d576001015b5b8585015160208302850152602086039550600182019150808210610d0e57505050505050565b602060405190810160405260008152905600a165627a7a72305820e70b15759165fedcdb0d68507867a1f298f84e879287a33f0848b30673f582780029",
  "source": "pragma solidity ^0.4.2;\n\nimport \"../installed_contracts/Seriality/Seriality.sol\";\n\ncontract SerialityTest is Seriality {\n    event Sample1(int n1, int8 n2, uint24 n3, string n4, string n5);\n    event Sample1Serializing(bytes buffer);\n\n    function testSample1Serializing() public returns(int n1, int8 n2, uint24 n3, string n4,string n5) {\n\n        bytes memory buffer = new  bytes(200);\n        string memory out4  = new string(32);\n        string memory out5  = new string(32);\n        n4 = new string(32);\n        n5 = new string(32);\n        int     out1 = 34444445;\n        int8    out2 = 87;\n        uint24  out3 = 76545;\n        out4 = \"Copy kon lashi\";\n        out5 = \"Bia inja dahan service\";\n\n        // Serializing\n        uint offset = 200;\n\n        intToBytes(offset, out2, buffer);\n        offset -= sizeOfInt(8);\n\n        uintToBytes(offset, out3, buffer);\n        offset -= sizeOfUint(24);\n\n        stringToBytes(offset, bytes(out5), buffer);\n        offset -= sizeOfString(out5);\n\n        stringToBytes(offset, bytes(out4), buffer);\n        offset -= sizeOfString(out4);\n\n        intToBytes(offset, out1, buffer);\n        offset -= sizeOfInt(256);\n\n        Sample1Serializing(buffer);\n    }\n\n    function testSample1(bytes memory buffer) public returns(int n1, int8 n2, uint24 n3, string n4,string n5) {\n\n        // bytes memory buffer = new  bytes(200);\n        // string memory out4  = new string(32);\n        // string memory out5  = new string(32);\n        n4 = new string(32);\n        n5 = new string(32);\n        // int     out1 = 34444445;\n        // int8    out2 = 87;\n        // uint24  out3 = 76545;\n        string memory out4 = \"Copy kon lashi\";\n        string memory out5 = \"Bia inja dahan service\";\n\n        // Deserializing\n        uint offset = 200;\n\n        n2 = bytesToInt8(offset, buffer);\n        offset -= sizeOfInt(8);\n\n        n3 = bytesToUint24(offset, buffer);\n        offset -= sizeOfUint(24);\n\n        bytesToString(offset, buffer, bytes(n5));\n        offset -= sizeOfString(out5);\n\n        bytesToString(offset, buffer, bytes(n4));\n        offset -= sizeOfString(out4);\n\n        n1 = bytesToInt256(offset, buffer);\n\n        Sample1(n1, n2, n3, n4, n5);\n    }\n\n    event Sample2(int8 n1, int24 n2, uint32 n3, int128 n4, address n5, address n6);\n\n    function testSample2(bytes memory buffer) public returns(int8 n1, int24 n2, uint32 n3, int128 n4, address n5, address n6) {\n\n        // bytes memory buffer = new bytes(64);\n        // int8    out1 = -12;\n        // int24   out2 = 838860;\n        // uint32  out3 = 333333333;\n        // int128  out4 = -44444444444;\n        // address out5 = 0x15B7926835A7C2FD6D297E3ADECC5B45F7309F59;\n        // address out6 = 0x1CB5CF010E407AFC6249627BFD769D82D8DBBF71;\n\n        // Deserializing\n        uint offset = 64;\n\n        n1 = bytesToInt8(offset, buffer);\n        offset -= sizeOfInt(8);\n\n        n2 = bytesToInt24(offset, buffer);\n        offset -= sizeOfUint(24);\n\n        n3 = bytesToUint8(offset, buffer);\n        offset -= sizeOfInt(32);\n\n        n4 = bytesToInt128(offset, buffer);\n        offset -= sizeOfUint(128);\n\n        n5 = bytesToAddress(offset, buffer);\n        offset -= sizeOfAddress();\n\n        n6 = bytesToAddress(offset, buffer);\n\n        Sample2(n1, n2, n3, n4, n5, n6);\n    }\n\n\n    event Sample3(address n1, bytes buffer);\n\n    function testSample3(bytes memory buffer) public returns(address n1) {\n        uint offset = 20;\n\n        n1 = bytesToAddress(offset, buffer);\n\n        Sample3(n1, buffer);\n    }\n}\n",
  "sourcePath": "/Users/nickolay/workspace/rsk/app/contracts/test/SerialityTest.sol",
  "compiler": {
    "name": "solc",
    "version": "0.4.21+commit.dfe3193c.Emscripten.clang"
  },
  "schemaVersion": "2.0.0",
  "updatedAt": "2018-05-29T10:37:55.341Z"
}