{
  "contractName": "SerialityTest",
  "abi": [
    {
      "anonymous": false,
      "inputs": [
        {
          "indexed": false,
          "name": "n1",
          "type": "int256"
        },
        {
          "indexed": false,
          "name": "n2",
          "type": "int8"
        },
        {
          "indexed": false,
          "name": "n3",
          "type": "uint24"
        },
        {
          "indexed": false,
          "name": "n4",
          "type": "string"
        },
        {
          "indexed": false,
          "name": "n5",
          "type": "string"
        }
      ],
      "name": "Sample1",
      "type": "event"
    },
    {
      "anonymous": false,
      "inputs": [
        {
          "indexed": false,
          "name": "buffer",
          "type": "bytes"
        }
      ],
      "name": "Sample1Serializing",
      "type": "event"
    },
    {
      "anonymous": false,
      "inputs": [
        {
          "indexed": false,
          "name": "n1",
          "type": "int8"
        },
        {
          "indexed": false,
          "name": "n2",
          "type": "int24"
        },
        {
          "indexed": false,
          "name": "n3",
          "type": "uint32"
        },
        {
          "indexed": false,
          "name": "n4",
          "type": "int128"
        },
        {
          "indexed": false,
          "name": "n5",
          "type": "address"
        },
        {
          "indexed": false,
          "name": "n6",
          "type": "address"
        }
      ],
      "name": "Sample2",
      "type": "event"
    },
    {
      "anonymous": false,
      "inputs": [
        {
          "indexed": false,
          "name": "n1",
          "type": "address"
        },
        {
          "indexed": false,
          "name": "buffer",
          "type": "bytes"
        }
      ],
      "name": "Sample3",
      "type": "event"
    },
    {
      "constant": false,
      "inputs": [],
      "name": "testSample1Serializing",
      "outputs": [
        {
          "name": "n1",
          "type": "int256"
        },
        {
          "name": "n2",
          "type": "int8"
        },
        {
          "name": "n3",
          "type": "uint24"
        },
        {
          "name": "n4",
          "type": "string"
        },
        {
          "name": "n5",
          "type": "string"
        }
      ],
      "payable": false,
      "stateMutability": "nonpayable",
      "type": "function"
    },
    {
      "constant": false,
      "inputs": [
        {
          "name": "buffer",
          "type": "bytes"
        }
      ],
      "name": "testSample1",
      "outputs": [
        {
          "name": "n1",
          "type": "int256"
        },
        {
          "name": "n2",
          "type": "int8"
        },
        {
          "name": "n3",
          "type": "uint24"
        },
        {
          "name": "n4",
          "type": "string"
        },
        {
          "name": "n5",
          "type": "string"
        }
      ],
      "payable": false,
      "stateMutability": "nonpayable",
      "type": "function"
    },
    {
      "constant": false,
      "inputs": [
        {
          "name": "buffer",
          "type": "bytes"
        }
      ],
      "name": "testSample2",
      "outputs": [
        {
          "name": "n1",
          "type": "int8"
        },
        {
          "name": "n2",
          "type": "int24"
        },
        {
          "name": "n3",
          "type": "uint32"
        },
        {
          "name": "n4",
          "type": "int128"
        },
        {
          "name": "n5",
          "type": "address"
        },
        {
          "name": "n6",
          "type": "address"
        }
      ],
      "payable": false,
      "stateMutability": "nonpayable",
      "type": "function"
    },
    {
      "constant": false,
      "inputs": [
        {
          "name": "buffer",
          "type": "bytes"
        }
      ],
      "name": "testSample3",
      "outputs": [
        {
          "name": "n1",
          "type": "address"
        }
      ],
      "payable": false,
      "stateMutability": "nonpayable",
      "type": "function"
    }
  ],
  "bytecode": "0x608060405234801561001057600080fd5b50610cff806100206000396000f3006080604052600436106100615763ffffffff7c010000000000000000000000000000000000000000000000000000000060003504166340d8e2918114610066578063489a8b08146100e8578063d0363de1146101a3578063dff00d3f146102bb575b600080fd5b34801561007257600080fd5b506040805160206004803580820135601f81018490048402850184019095528484526100bf9436949293602493928401919081908401838280828437509497506103149650505050505050565b6040805173ffffffffffffffffffffffffffffffffffffffff9092168252519081900360200190f35b3480156100f457600080fd5b506040805160206004803580820135601f81018490048402850184019095528484526101419436949293602493928401919081908401838280828437509497506103f79650505050505050565b60408051600097880b90970b8752600295860b90950b602087015263ffffffff90931685850152600f91820b90910b606085015273ffffffffffffffffffffffffffffffffffffffff90811660808501521660a0830152519081900360c00190f35b3480156101af57600080fd5b506101b8610514565b604051808681526020018560000b60000b81526020018462ffffff1662ffffff1681526020018060200180602001838103835285818151815260200191508051906020019080838360005b8381101561021b578181015183820152602001610203565b50505050905090810190601f1680156102485780820380516001836020036101000a031916815260200191505b50838103825284518152845160209182019186019080838360005b8381101561027b578181015183820152602001610263565b50505050905090810190601f1680156102a85780820380516001836020036101000a031916815260200191505b5097505050505050505060405180910390f35b3480156102c757600080fd5b506040805160206004803580820135601f81018490048402850184019095528484526101b89436949293602493928401919081908401838280828437509497506107819650505050505050565b6000601461032281846109e3565b91507f58256327decb30771664915c935b96ba054ca618aa0bf2576269c07cea42c9e98284604051808373ffffffffffffffffffffffffffffffffffffffff1673ffffffffffffffffffffffffffffffffffffffff16815260200180602001828103825283818151815260200191508051906020019080838360005b838110156103b657818101518382015260200161039e565b50505050905090810190601f1680156103e35780820380516001836020036101000a031916815260200191505b50935050505060405180910390a150919050565b60008080808080604061040a81896109e3565b965061041660086109e8565b900361042281896109e3565b955061042e6018610c17565b900361043a81896109e3565b60ff16945061044960206109e8565b900361045581896109e3565b93506104616080610c17565b900361046d81896109e3565b9250610477610c28565b60ff16900361048681896109e3565b6040805160008a810b900b8152600289810b900b602082015263ffffffff881681830152600f87810b900b606082015273ffffffffffffffffffffffffffffffffffffffff8087166080830152831660a082015290519193507f86035fca558cadd5259425528bdf4c14269c1f0c0d8bad995e6562835b94d31d919081900360c00190a15091939550919395565b6000806000606080606080606060008060008060c86040519080825280601f01601f191660200182016040528015610556578160200160208202803883390190505b5060408051602080825281830190925291985080820161040080388339505060408051602080825281830190925292985090508082016104008038833950506040805160208082528183019092529297509050808201610400803883395050604080516020808252818301909252929b5090508082016104008038833901905050975063020d949d93506057925062012b0191506040805190810160405280600e81526020017f436f7079206b6f6e206c6173686900000000000000000000000000000000000081525095506040805190810160405280601681526020017f42696120696e6a6120646168616e207365727669636500000000000000000000815250945060c8905061066c818460000b89610c2d565b61067660086109e8565b90036106888162ffffff841689610c2d565b6106926018610c17565b900361069f818689610c33565b6106a885610c73565b90036106b5818789610c33565b6106be86610c73565b90036106cb818589610c2d565b6106d66101006109e8565b810390507fdf79f13c845246e71cd84544641dfbd220b1545367755283016e622785ed193f876040518080602001828103825283818151815260200191508051906020019080838360005b83811015610739578181015183820152602001610721565b50505050905090810190601f1680156107665780820380516001836020036101000a031916815260200191505b509250505060405180910390a1505050505050509091929394565b604080516020808252818301909252600091829182916060918291829182918691908082016104008038833950506040805160208082528183019092529297509050808201610400803883390190505093506040805190810160405280600e81526020017f436f7079206b6f6e206c6173686900000000000000000000000000000000000081525092506040805190810160405280601681526020017f42696120696e6a6120646168616e207365727669636500000000000000000000815250915060c89050610851818a6109e3565b965061085d60086109e8565b9003610869818a6109e3565b95506108756018610c17565b9003610882818a86610c90565b61088b82610c73565b9003610898818a87610c90565b6108a183610c73565b90036108ad818a6109e3565b97507f8f65143b697631467b1ed86b16f2f51b3c45375e2dca50f056669c0b72574e8e8888888888604051808681526020018560000b60000b81526020018462ffffff1662ffffff1681526020018060200180602001838103835285818151815260200191508051906020019080838360005b83811015610938578181015183820152602001610920565b50505050905090810190601f1680156109655780820380516001836020036101000a031916815260200191505b50838103825284518152845160209182019186019080838360005b83811015610998578181015183820152602001610980565b50505050905090810190601f1680156109c55780820380516001836020036101000a031916815260200191505b5097505050505050505060405180910390a150505091939590929450565b015190565b60008160088114610af55760108114610afe5760188114610b075760208114610b105760288114610b195760308114610b225760388114610b2b5760408114610b345760488114610b3d5760508114610b465760588114610b4f5760608114610b585760688114610b615760708114610b6a5760788114610b735760808114610b7c5760888114610b855760908114610b8e5760988114610b975760a08114610ba05760a88114610ba95760b08114610bb25760b88114610bbb5760c08114610bc45760c88114610bcd5760d08114610bd65760d88114610bdf5760e08114610be85760e88114610bf15760f08114610bfa5760f88114610c03576101008114610c0c5760209150610c11565b60019150610c11565b60029150610c11565b60039150610c11565b60049150610c11565b60059150610c11565b60069150610c11565b60079150610c11565b60089150610c11565b60099150610c11565b600a9150610c11565b600b9150610c11565b600c9150610c11565b600d9150610c11565b600e9150610c11565b600f9150610c11565b60109150610c11565b60119150610c11565b60129150610c11565b60139150610c11565b60149150610c11565b60159150610c11565b60169150610c11565b60179150610c11565b60189150610c11565b60199150610c11565b601a9150610c11565b601b9150610c11565b601c9150610c11565b601d9150610c11565b601e9150610c11565b601f9150610c11565b602091505b50919050565b6000610c22826109e8565b92915050565b601490565b90910152565b815160208082049160009190061115610c4a576001015b60010160005b6020810284015183860152601f1990940193600101818110610c50575050505050565b80516020808204910615610c85576001015b600101602002919050565b81830151600060208204600101601f8316821015610cac576001015b5b8585015160208302850152602086039550600182019150808210610cad575050505050505600a165627a7a72305820f3bac0ad9537e3d4b0bfc75c8a1aeb3cebd63c355cee8f961b2220b9e232e1420029",
  "source": "pragma solidity ^0.4.2;\n\nimport \"../installed_contracts/Seriality/Seriality.sol\";\n\ncontract SerialityTest is Seriality {\n    event Sample1(int n1, int8 n2, uint24 n3, string n4, string n5);\n    event Sample1Serializing(bytes buffer);\n\n    function testSample1Serializing() public returns(int n1, int8 n2, uint24 n3, string n4,string n5) {\n\n        bytes memory buffer = new  bytes(200);\n        string memory out4  = new string(32);\n        string memory out5  = new string(32);\n        n4 = new string(32);\n        n5 = new string(32);\n        int     out1 = 34444445;\n        int8    out2 = 87;\n        uint24  out3 = 76545;\n        out4 = \"Copy kon lashi\";\n        out5 = \"Bia inja dahan service\";\n\n        // Serializing\n        uint offset = 200;\n\n        intToBytes(offset, out2, buffer);\n        offset -= sizeOfInt(8);\n\n        uintToBytes(offset, out3, buffer);\n        offset -= sizeOfUint(24);\n\n        stringToBytes(offset, bytes(out5), buffer);\n        offset -= sizeOfString(out5);\n\n        stringToBytes(offset, bytes(out4), buffer);\n        offset -= sizeOfString(out4);\n\n        intToBytes(offset, out1, buffer);\n        offset -= sizeOfInt(256);\n\n        emit Sample1Serializing(buffer);\n    }\n\n    function testSample1(bytes memory buffer) public returns(int n1, int8 n2, uint24 n3, string n4,string n5) {\n\n        // bytes memory buffer = new  bytes(200);\n        // string memory out4  = new string(32);\n        // string memory out5  = new string(32);\n        n4 = new string(32);\n        n5 = new string(32);\n        // int     out1 = 34444445;\n        // int8    out2 = 87;\n        // uint24  out3 = 76545;\n        string memory out4 = \"Copy kon lashi\";\n        string memory out5 = \"Bia inja dahan service\";\n\n        // Deserializing\n        uint offset = 200;\n\n        n2 = bytesToInt8(offset, buffer);\n        offset -= sizeOfInt(8);\n\n        n3 = bytesToUint24(offset, buffer);\n        offset -= sizeOfUint(24);\n\n        bytesToString(offset, buffer, bytes(n5));\n        offset -= sizeOfString(out5);\n\n        bytesToString(offset, buffer, bytes(n4));\n        offset -= sizeOfString(out4);\n\n        n1 = bytesToInt256(offset, buffer);\n\n        emit Sample1(n1, n2, n3, n4, n5);\n    }\n\n    event Sample2(int8 n1, int24 n2, uint32 n3, int128 n4, address n5, address n6);\n\n    function testSample2(bytes memory buffer) public returns(int8 n1, int24 n2, uint32 n3, int128 n4, address n5, address n6) {\n\n        // bytes memory buffer = new bytes(64);\n        // int8    out1 = -12;\n        // int24   out2 = 838860;\n        // uint32  out3 = 333333333;\n        // int128  out4 = -44444444444;\n        // address out5 = 0x15B7926835A7C2FD6D297E3ADECC5B45F7309F59;\n        // address out6 = 0x1CB5CF010E407AFC6249627BFD769D82D8DBBF71;\n\n        // Deserializing\n        uint offset = 64;\n\n        n1 = bytesToInt8(offset, buffer);\n        offset -= sizeOfInt(8);\n\n        n2 = bytesToInt24(offset, buffer);\n        offset -= sizeOfUint(24);\n\n        n3 = bytesToUint8(offset, buffer);\n        offset -= sizeOfInt(32);\n\n        n4 = bytesToInt128(offset, buffer);\n        offset -= sizeOfUint(128);\n\n        n5 = bytesToAddress(offset, buffer);\n        offset -= sizeOfAddress();\n\n        n6 = bytesToAddress(offset, buffer);\n\n        emit Sample2(n1, n2, n3, n4, n5, n6);\n    }\n\n\n    event Sample3(address n1, bytes buffer);\n\n    function testSample3(bytes memory buffer) public returns(address n1) {\n        uint offset = 20;\n\n        n1 = bytesToAddress(offset, buffer);\n\n        emit Sample3(n1, buffer);\n    }\n}\n",
  "sourcePath": "/home/dmitrya2e/Work/Projects/ProofOfToss/Code/proof-of-toss/contracts/test/SerialityTest.sol",
  "compiler": {
    "name": "solc",
    "version": "0.4.24+commit.e67f0147.Emscripten.clang"
  },
  "schemaVersion": "2.0.0",
  "updatedAt": "2018-06-11T07:21:38.094Z"
}