{
  "contractName": "TestEventBase",
  "abi": [
    {
      "constant": true,
      "inputs": [],
      "name": "creator",
      "outputs": [
        {
          "name": "",
          "type": "address"
        }
      ],
      "payable": false,
      "stateMutability": "view",
      "type": "function"
    },
    {
      "constant": true,
      "inputs": [
        {
          "name": "",
          "type": "uint256"
        }
      ],
      "name": "possibleResults",
      "outputs": [
        {
          "name": "customCoefficient",
          "type": "uint64"
        },
        {
          "name": "betCount",
          "type": "uint32"
        },
        {
          "name": "betSum",
          "type": "uint256"
        }
      ],
      "payable": false,
      "stateMutability": "view",
      "type": "function"
    },
    {
      "constant": true,
      "inputs": [],
      "name": "startDate",
      "outputs": [
        {
          "name": "",
          "type": "uint64"
        }
      ],
      "payable": false,
      "stateMutability": "view",
      "type": "function"
    },
    {
      "constant": false,
      "inputs": [
        {
          "name": "customCoefficient",
          "type": "uint64"
        }
      ],
      "name": "addResult",
      "outputs": [],
      "payable": false,
      "stateMutability": "nonpayable",
      "type": "function"
    },
    {
      "constant": true,
      "inputs": [],
      "name": "getState",
      "outputs": [
        {
          "name": "",
          "type": "uint8"
        }
      ],
      "payable": false,
      "stateMutability": "view",
      "type": "function"
    },
    {
      "constant": true,
      "inputs": [
        {
          "name": "",
          "type": "address"
        }
      ],
      "name": "rewardWithdraws",
      "outputs": [
        {
          "name": "",
          "type": "uint256"
        }
      ],
      "payable": false,
      "stateMutability": "view",
      "type": "function"
    },
    {
      "constant": true,
      "inputs": [],
      "name": "betsCount",
      "outputs": [
        {
          "name": "",
          "type": "uint256"
        }
      ],
      "payable": false,
      "stateMutability": "view",
      "type": "function"
    },
    {
      "constant": true,
      "inputs": [],
      "name": "resultsCount",
      "outputs": [
        {
          "name": "",
          "type": "uint8"
        }
      ],
      "payable": false,
      "stateMutability": "view",
      "type": "function"
    },
    {
      "constant": true,
      "inputs": [
        {
          "name": "",
          "type": "uint256"
        }
      ],
      "name": "bets",
      "outputs": [
        {
          "name": "timestamp",
          "type": "uint256"
        },
        {
          "name": "bettor",
          "type": "address"
        },
        {
          "name": "result",
          "type": "uint8"
        },
        {
          "name": "amount",
          "type": "uint256"
        }
      ],
      "payable": false,
      "stateMutability": "view",
      "type": "function"
    },
    {
      "constant": true,
      "inputs": [
        {
          "name": "_user",
          "type": "address"
        }
      ],
      "name": "getUserBets",
      "outputs": [
        {
          "name": "",
          "type": "uint256[]"
        }
      ],
      "payable": false,
      "stateMutability": "view",
      "type": "function"
    },
    {
      "constant": true,
      "inputs": [],
      "name": "getEventCreatorReward",
      "outputs": [
        {
          "name": "",
          "type": "uint256"
        }
      ],
      "payable": false,
      "stateMutability": "view",
      "type": "function"
    },
    {
      "constant": false,
      "inputs": [],
      "name": "withdraw",
      "outputs": [],
      "payable": false,
      "stateMutability": "nonpayable",
      "type": "function"
    },
    {
      "constant": false,
      "inputs": [
        {
          "name": "_contract",
          "type": "address"
        },
        {
          "name": "_data",
          "type": "bytes"
        }
      ],
      "name": "updated",
      "outputs": [],
      "payable": false,
      "stateMutability": "nonpayable",
      "type": "function"
    },
    {
      "constant": true,
      "inputs": [
        {
          "name": "",
          "type": "address"
        }
      ],
      "name": "withdraws",
      "outputs": [
        {
          "name": "",
          "type": "uint256"
        }
      ],
      "payable": false,
      "stateMutability": "view",
      "type": "function"
    },
    {
      "constant": true,
      "inputs": [
        {
          "name": "user",
          "type": "address"
        }
      ],
      "name": "getShare",
      "outputs": [
        {
          "name": "",
          "type": "uint256"
        }
      ],
      "payable": false,
      "stateMutability": "view",
      "type": "function"
    },
    {
      "constant": false,
      "inputs": [
        {
          "name": "_token",
          "type": "address"
        },
        {
          "name": "_whitelist",
          "type": "address"
        },
        {
          "name": "_creator",
          "type": "address"
        },
        {
          "name": "_deposit",
          "type": "uint256"
        },
        {
          "name": "buffer",
          "type": "bytes"
        }
      ],
      "name": "init",
      "outputs": [],
      "payable": false,
      "stateMutability": "nonpayable",
      "type": "function"
    },
    {
      "constant": true,
      "inputs": [],
      "name": "calculateBetsSums",
      "outputs": [
        {
          "name": "",
          "type": "uint256"
        },
        {
          "name": "",
          "type": "uint256"
        },
        {
          "name": "",
          "type": "uint256"
        }
      ],
      "payable": false,
      "stateMutability": "view",
      "type": "function"
    },
    {
      "constant": true,
      "inputs": [],
      "name": "resolvedResult",
      "outputs": [
        {
          "name": "",
          "type": "uint8"
        }
      ],
      "payable": false,
      "stateMutability": "view",
      "type": "function"
    },
    {
      "constant": true,
      "inputs": [
        {
          "name": "",
          "type": "address"
        },
        {
          "name": "",
          "type": "uint256"
        }
      ],
      "name": "betWithdraws",
      "outputs": [
        {
          "name": "",
          "type": "uint256"
        }
      ],
      "payable": false,
      "stateMutability": "view",
      "type": "function"
    },
    {
      "constant": true,
      "inputs": [
        {
          "name": "_user",
          "type": "address"
        }
      ],
      "name": "userBetsCount",
      "outputs": [
        {
          "name": "",
          "type": "uint256"
        }
      ],
      "payable": false,
      "stateMutability": "view",
      "type": "function"
    },
    {
      "constant": true,
      "inputs": [],
      "name": "owner",
      "outputs": [
        {
          "name": "",
          "type": "address"
        }
      ],
      "payable": false,
      "stateMutability": "view",
      "type": "function"
    },
    {
      "constant": true,
      "inputs": [],
      "name": "whitelist",
      "outputs": [
        {
          "name": "",
          "type": "address"
        }
      ],
      "payable": false,
      "stateMutability": "view",
      "type": "function"
    },
    {
      "constant": false,
      "inputs": [
        {
          "name": "result",
          "type": "uint8"
        }
      ],
      "name": "resolve",
      "outputs": [],
      "payable": false,
      "stateMutability": "nonpayable",
      "type": "function"
    },
    {
      "constant": true,
      "inputs": [
        {
          "name": "_userBet",
          "type": "uint256"
        }
      ],
      "name": "getPrize",
      "outputs": [
        {
          "name": "",
          "type": "uint256"
        }
      ],
      "payable": false,
      "stateMutability": "view",
      "type": "function"
    },
    {
      "constant": true,
      "inputs": [],
      "name": "getEventCreatorRefund",
      "outputs": [
        {
          "name": "",
          "type": "uint256"
        }
      ],
      "payable": false,
      "stateMutability": "view",
      "type": "function"
    },
    {
      "constant": true,
      "inputs": [],
      "name": "lastWithdraw",
      "outputs": [
        {
          "name": "",
          "type": "uint256"
        }
      ],
      "payable": false,
      "stateMutability": "view",
      "type": "function"
    },
    {
      "constant": true,
      "inputs": [],
      "name": "operatorId",
      "outputs": [
        {
          "name": "",
          "type": "address"
        }
      ],
      "payable": false,
      "stateMutability": "view",
      "type": "function"
    },
    {
      "constant": false,
      "inputs": [
        {
          "name": "_from",
          "type": "address"
        },
        {
          "name": "_value",
          "type": "uint256"
        },
        {
          "name": "_data",
          "type": "bytes"
        }
      ],
      "name": "tokenFallback",
      "outputs": [],
      "payable": false,
      "stateMutability": "nonpayable",
      "type": "function"
    },
    {
      "constant": true,
      "inputs": [],
      "name": "state",
      "outputs": [
        {
          "name": "",
          "type": "uint8"
        }
      ],
      "payable": false,
      "stateMutability": "view",
      "type": "function"
    },
    {
      "constant": false,
      "inputs": [
        {
          "name": "bet",
          "type": "uint256"
        }
      ],
      "name": "withdrawPrize",
      "outputs": [],
      "payable": false,
      "stateMutability": "nonpayable",
      "type": "function"
    },
    {
      "constant": true,
      "inputs": [],
      "name": "endDate",
      "outputs": [
        {
          "name": "",
          "type": "uint64"
        }
      ],
      "payable": false,
      "stateMutability": "view",
      "type": "function"
    },
    {
      "constant": false,
      "inputs": [],
      "name": "withdrawReward",
      "outputs": [],
      "payable": false,
      "stateMutability": "nonpayable",
      "type": "function"
    },
    {
      "constant": true,
      "inputs": [],
      "name": "deposit",
      "outputs": [
        {
          "name": "",
          "type": "uint256"
        }
      ],
      "payable": false,
      "stateMutability": "view",
      "type": "function"
    },
    {
      "constant": true,
      "inputs": [
        {
          "name": "_userBet",
          "type": "uint256"
        }
      ],
      "name": "getRefund",
      "outputs": [
        {
          "name": "",
          "type": "uint256"
        }
      ],
      "payable": false,
      "stateMutability": "view",
      "type": "function"
    },
    {
      "constant": true,
      "inputs": [
        {
          "name": "",
          "type": "address"
        },
        {
          "name": "",
          "type": "uint256"
        }
      ],
      "name": "usersBets",
      "outputs": [
        {
          "name": "",
          "type": "uint256"
        }
      ],
      "payable": false,
      "stateMutability": "view",
      "type": "function"
    },
    {
      "constant": true,
      "inputs": [],
      "name": "bidType",
      "outputs": [
        {
          "name": "",
          "type": "bytes32"
        }
      ],
      "payable": false,
      "stateMutability": "view",
      "type": "function"
    },
    {
      "constant": true,
      "inputs": [],
      "name": "meta_version",
      "outputs": [
        {
          "name": "",
          "type": "uint256"
        }
      ],
      "payable": false,
      "stateMutability": "view",
      "type": "function"
    },
    {
      "constant": true,
      "inputs": [],
      "name": "token",
      "outputs": [
        {
          "name": "",
          "type": "address"
        }
      ],
      "payable": false,
      "stateMutability": "view",
      "type": "function"
    },
    {
      "inputs": [
        {
          "name": "_token",
          "type": "address"
        }
      ],
      "payable": false,
      "stateMutability": "nonpayable",
      "type": "constructor"
    },
    {
      "anonymous": false,
      "inputs": [
        {
          "indexed": false,
          "name": "_contract",
          "type": "address"
        },
        {
          "indexed": false,
          "name": "_data",
          "type": "bytes"
        }
      ],
      "name": "Updated",
      "type": "event"
    },
    {
      "constant": false,
      "inputs": [
        {
          "name": "_startDate",
          "type": "uint64"
        }
      ],
      "name": "setStartDate",
      "outputs": [],
      "payable": false,
      "stateMutability": "nonpayable",
      "type": "function"
    },
    {
      "constant": false,
      "inputs": [
        {
          "name": "_endDate",
          "type": "uint64"
        }
      ],
      "name": "setEndDate",
      "outputs": [],
      "payable": false,
      "stateMutability": "nonpayable",
      "type": "function"
    }
  ],
  "bytecode": "0x608060405260058054600160a060020a03191660011790556000600f5534801561002857600080fd5b506040516020806123e983398101604052516001805433600160a060020a03199182161790915560028054909116600160a060020a03909216919091179055612373806100766000396000f3006080604052600436106101ed5763ffffffff7c010000000000000000000000000000000000000000000000000000000060003504166302d05d3f81146101f257806304ef0a3d146102235780630b97bc8614610269578063112292b61461029b5780631865c57d146102bf5780631a1e0927146102f85780631a8ba72f1461032b578063209b5bc21461034057806322af00fa1461036b5780632d56657d146103b35780633b887c96146104245780633ccfd60b1461043957806346a4e92f1461044e57806348179ee5146104b55780634b3ab9c5146104d65780635632cae1146104f7578063626a5b41146105725780636a50965c146105a55780637420b9d4146105ba5780637b2386bb146105de5780638da5cb5b146105ff57806393e59dc1146106145780639548fd7d14610629578063a0270dbc1461064b578063a1099bf214610666578063aa74dc751461067e578063b52eea7414610693578063bf68b816146106a8578063c0ee0b8a146106bd578063c19d93fb14610726578063c20eec7b1461073b578063c24a0f8b14610753578063c6a8e72614610768578063c885bc581461078a578063d0e30db01461079f578063d2f0be99146107b4578063e7519f2f146107cc578063eca41b89146107f0578063f1c23a7614610805578063fc0c546a1461081a575b600080fd5b3480156101fe57600080fd5b5061020761082f565b60408051600160a060020a039092168252519081900360200190f35b34801561022f57600080fd5b5061023b60043561083e565b6040805167ffffffffffffffff909416845263ffffffff909216602084015282820152519081900360600190f35b34801561027557600080fd5b5061027e610888565b6040805167ffffffffffffffff9092168252519081900360200190f35b3480156102a757600080fd5b506102bd67ffffffffffffffff60043516610898565b005b3480156102cb57600080fd5b506102d46109bf565b604051808260068111156102e457fe5b60ff16815260200191505060405180910390f35b34801561030457600080fd5b50610319600160a060020a0360043516610ae1565b60408051918252519081900360200190f35b34801561033757600080fd5b50610319610af3565b34801561034c57600080fd5b50610355610af9565b6040805160ff9092168252519081900360200190f35b34801561037757600080fd5b50610383600435610b02565b60408051948552600160a060020a03909316602085015260ff909116838301526060830152519081900360800190f35b3480156103bf57600080fd5b506103d4600160a060020a0360043516610b5a565b60408051602080825283518183015283519192839290830191858101910280838360005b838110156104105781810151838201526020016103f8565b505050509050019250505060405180910390f35b34801561043057600080fd5b50610319610bc7565b34801561044557600080fd5b506102bd610c6a565b34801561045a57600080fd5b5060408051602060046024803582810135601f81018590048502860185019096528585526102bd958335600160a060020a0316953695604494919390910191908190840183828082843750949750610eec9650505050505050565b3480156104c157600080fd5b50610319600160a060020a0360043516610fc9565b3480156104e257600080fd5b50610319600160a060020a0360043516610fdb565b34801561050357600080fd5b50604080516020601f6084356004818101359283018490048402850184019095528184526102bd94600160a060020a03813581169560248035831696604435909316956064359536959460a4949391909101919081908401838280828437509497506110539650505050505050565b34801561057e57600080fd5b5061058761120b565b60408051938452602084019290925282820152519081900360600190f35b3480156105b157600080fd5b506103556112f2565b3480156105c657600080fd5b50610319600160a060020a03600435166024356112fb565b3480156105ea57600080fd5b50610319600160a060020a0360043516611318565b34801561060b57600080fd5b50610207611333565b34801561062057600080fd5b50610207611342565b34801561063557600080fd5b506102bd67ffffffffffffffff60043516611351565b34801561065757600080fd5b506102bd60ff60043516611375565b34801561067257600080fd5b50610319600435611511565b34801561068a57600080fd5b506103196116fe565b34801561069f57600080fd5b50610319611775565b3480156106b457600080fd5b5061020761177b565b3480156106c957600080fd5b50604080516020600460443581810135601f81018490048402850184019095528484526102bd948235600160a060020a031694602480359536959460649492019190819084018382808284375094975061178a9650505050505050565b34801561073257600080fd5b506102d461180d565b34801561074757600080fd5b506102bd60043561181b565b34801561075f57600080fd5b5061027e611a03565b34801561077457600080fd5b506102bd67ffffffffffffffff60043516611a1f565b34801561079657600080fd5b506102bd611a57565b3480156107ab57600080fd5b50610319611b4c565b3480156107c057600080fd5b50610319600435611b52565b3480156107d857600080fd5b50610319600160a060020a0360043516602435611bf3565b3480156107fc57600080fd5b50610319611c23565b34801561081157600080fd5b50610319611c29565b34801561082657600080fd5b50610207611c2e565b600454600160a060020a031681565b600a80548290811061084c57fe5b60009182526020909120600290910201805460019091015467ffffffffffffffff821692506801000000000000000090910463ffffffff169083565b60075467ffffffffffffffff1681565b600154600160a060020a031633146108af57600080fd5b6000600954610100900460ff1660068111156108c757fe5b146108d157600080fd5b6040805160608101825267ffffffffffffffff8084168252600060208301818152938301818152600a805460018101825592819052935160029092027fc65a7bb8d6351c1cf70c95a316cc6a92839c986682d98bc35f958f4883f9d2a881018054965163ffffffff1668010000000000000000026bffffffff0000000000000000199490951667ffffffffffffffff19909716969096179290921692909217909355517fc65a7bb8d6351c1cf70c95a316cc6a92839c986682d98bc35f958f4883f9d2a990920191909155600954905460ff90911614156109bc576009805461ff0019166101001790555b50565b60075460009067ffffffffffffffff164210156109f157600b54600010156109e957506002610ade565b506001610ade565b600b5460001015610a3a5760075468010000000000000000900467ffffffffffffffff16421015610a2457506003610ade565b600d5460ff9081161415610a3a57506004610ade565b600254604080517f70a082310000000000000000000000000000000000000000000000000000000081523060048201529051600160a060020a03909216916370a08231916024808201926020929091908290030181600087803b158015610aa057600080fd5b505af1158015610ab4573d6000803e3d6000fd5b505050506040513d6020811015610aca57600080fd5b50511515610ada57506006610ade565b5060055b90565b60116020526000908152604090205481565b600b5490565b60095460ff1681565b600b805482908110610b1057fe5b6000918252602090912060039091020180546001820154600290920154909250600160a060020a0382169174010000000000000000000000000000000000000000900460ff169084565b600160a060020a0381166000908152600c6020908152604091829020805483518184028101840190945280845260609392830182828015610bba57602002820191906000526020600020905b815481526020019060010190808311610ba6575b505050505090505b919050565b60045460009081908190600160a060020a03163214610be95760009250610c65565b6005610bf36109bf565b6006811115610bfe57fe5b14610c0c5760009250610c65565b610c14611c3d565b9150610c2782606463ffffffff611c9916565b9050600654811015610c4e57600654610c4790829063ffffffff611cb516565b9250610c65565b600654610c6290600263ffffffff611ccb16565b92505b505090565b336000908152600e602052604081205460609015610ce957604080517f08c379a000000000000000000000000000000000000000000000000000000000815260206004820152601560248201527f576974686472617720616c726561647920646f6e650000000000000000000000604482015290519081900360640190fd5b610cf233610fdb565b915060008211610d6357604080517f08c379a000000000000000000000000000000000000000000000000000000000815260206004820152601360248201527f53686172652073686f756c64206265203e203000000000000000000000000000604482015290519081900360640190fd5b42600f819055336000818152600e602090815260408083209490945560025484517fa9059cbb0000000000000000000000000000000000000000000000000000000081526004810194909452602484018790529351600160a060020a039094169363a9059cbb93604480820194918390030190829087803b158015610de757600080fd5b505af1158015610dfb573d6000803e3d6000fd5b505050506040513d6020811015610e1157600080fd5b5050600080546040805160e060020a6346a4e92f028152306004820181815260248301938452865160448401528651600160a060020a03909516956346a4e92f959294889492939092606401916020860191908190849084905b83811015610e83578181015183820152602001610e6b565b50505050905090810190601f168015610eb05780820380516001836020036101000a031916815260200191505b509350505050600060405180830381600087803b158015610ed057600080fd5b505af1158015610ee4573d6000803e3d6000fd5b505050505050565b813b600081118015610f06575033600160a060020a038416145b1515610f1157600080fd5b7fcbbecdace00991a8a26d8fc6085c610d5474f351252a818795d55a375a84bfa183836040518083600160a060020a0316600160a060020a0316815260200180602001828103825283818151815260200191508051906020019080838360005b83811015610f89578181015183820152602001610f71565b50505050905090810190601f168015610fb65780820380516001836020036101000a031916815260200191505b50935050505060405180910390a1505050565b600e6020526000908152604090205481565b6000808080610ff8610feb610bc7565b849063ffffffff611cb516565b9250611005610feb6116fe565b326000908152600c602052604081205491945090925090505b8181101561104a57611032610feb82611511565b9250611040610feb82611b52565b925060010161101e565b50909392505050565b60015460009081908190819081908190600160a060020a0316331461107757600080fd5b60028054600160a060020a03808e1673ffffffffffffffffffffffffffffffffffffffff199283161790925560038054928d1692909116919091179055865191506110c28288611cf6565b9550600719909101906104b0420167ffffffffffffffff8716116110e557600080fd5b6110ef8288611cf6565b94506007199091019067ffffffffffffffff808616908716111561111257600080fd5b61111c8288611cf6565b93506000199091019060dc60ff85161061113557600080fd5b5060048054600160a060020a038a1673ffffffffffffffffffffffffffffffffffffffff1990911617905560068790556007805467ffffffffffffffff86811668010000000000000000026fffffffffffffffff00000000000000001991891667ffffffffffffffff1990931692909217161790556009805460ff80861660ff1992831617909255600d805490911690911790556000190160005b8360ff168110156111fe576111e58288611cf6565b92506008820391506111f683610898565b6001016111d0565b5050505050505050505050565b600d54600a805460009283928392839283928392839260ff1690811061122d57fe5b9060005260206000209060020201600101549150600090505b60095460ff90811690821610156112e65761128d600a8260ff1681548110151561126c57fe5b90600052602060002090600202016001015485611cb590919063ffffffff16565b600d5490945060ff828116911614156112a5576112de565b6112db600a8260ff168154811015156112ba57fe5b90600052602060002090600202016001015484611cb590919063ffffffff16565b92505b600101611246565b50919591945092509050565b600d5460ff1681565b601060209081526000928352604080842090915290825290205481565b600160a060020a03166000908152600c602052604090205490565b600154600160a060020a031681565b600354600160a060020a031681565b6007805467ffffffffffffffff191667ffffffffffffffff92909216919091179055565b606061137f6109bf565b6009805461ff00191661010083600681111561139757fe5b0217905550600354604080517f9b19251a0000000000000000000000000000000000000000000000000000000081523360048201529051600160a060020a0390921691639b19251a916024808201926020929091908290030181600087803b15801561140257600080fd5b505af1158015611416573d6000803e3d6000fd5b505050506040513d602081101561142c57600080fd5b5051151560011461143c57600080fd5b6004600954610100900460ff16600681111561145457fe5b1461145e57600080fd5b60095460ff9081169083161080611479575060dc8260ff1610155b151561148457600080fd5b600d805460ff191660ff84161790556009805461ff001916610500179055600080546040805160e060020a6346a4e92f028152306004820181815260248301938452865160448401528651600160a060020a03909516956346a4e92f9592948894929390926064019160208601919081908490849083811015610e83578181015183820152602001610e6b565b600061151b612320565b6000808080806005600954610100900460ff16600681111561153957fe5b1461154757600096506116f3565b326000908152600c6020526040902054881061156257600080fd5b326000908152600c602052604090208054600b91908a90811061158157fe5b906000526020600020015481548110151561159857fe5b6000918252602091829020604080516080810182526003909302909101805483526001810154600160a060020a0381169484019490945260ff740100000000000000000000000000000000000000009094048416918301829052600201546060830152600d54919850911614156116ee57611611611cfb565b1561166057600d54600a80546116599260ff1690811061162d57fe5b600091825260209091206002909102015460608801519067ffffffffffffffff1663ffffffff611ccb16565b96506116f3565b61166861120b565b606089015192975095509350611684908463ffffffff611c9916565b91506116e46116bb836116af60646116a389606363ffffffff611ccb16565b9063ffffffff611c9916565b9063ffffffff611ccb16565b6116d860646116a360638b60600151611ccb90919063ffffffff16565b9063ffffffff611cb516565b90508096506116f3565b600096505b505050505050919050565b6004546000908190600160a060020a0316321461171e5760009150611771565b60056117286109bf565b600681111561173357fe5b1415806117435750611743611d00565b156117515760009150611771565b611759611c3d565b905080151561176b5760009150611771565b60065491505b5090565b600f5481565b600554600160a060020a031681565b80516000908181151561179c57610ee4565b6117a68285611cf6565b92506000199091019060ff831615156117be57610ee4565b8260ff16600114156117eb576117d48285611cf6565b90506001820391506117e68186611d0e565b610ee4565b8260ff16600214156117fc57600080fd5b8260ff16600314156101ed57600080fd5b600954610100900460ff1681565b3360009081526010602090815260408083208484529091528120546060901561184357600080fd5b61185861184f84611b52565b6116d885611511565b91506000821161186757600080fd5b42600f819055336000818152600e602090815260408083208590556010825280832088845282528083209490945560025484517fa9059cbb0000000000000000000000000000000000000000000000000000000081526004810194909452602484018790529351600160a060020a039094169363a9059cbb93604480820194918390030190829087803b1580156118fd57600080fd5b505af1158015611911573d6000803e3d6000fd5b505050506040513d602081101561192757600080fd5b5050600080546040805160e060020a6346a4e92f028152306004820181815260248301938452865160448401528651600160a060020a03909516956346a4e92f959294889492939092606401916020860191908190849084905b83811015611999578181015183820152602001611981565b50505050905090810190601f1680156119c65780820380516001836020036101000a031916815260200191505b509350505050600060405180830381600087803b1580156119e657600080fd5b505af11580156119fa573d6000803e3d6000fd5b50505050505050565b60075468010000000000000000900467ffffffffffffffff1681565b6007805467ffffffffffffffff90921668010000000000000000026fffffffffffffffff000000000000000019909216919091179055565b600454600090606090600160a060020a03163214611a7457600080fd5b3360009081526011602052604090205415611a8e57600080fd5b611a96611d00565b611aa757611aa26116fe565b611aaf565b611aaf610bc7565b915060008211611abe57600080fd5b42600f819055336000818152600e60209081526040808320859055601182528083209490945560025484517fa9059cbb0000000000000000000000000000000000000000000000000000000081526004810194909452602484018790529351600160a060020a039094169363a9059cbb93604480820194918390030190829087803b158015610de757600080fd5b60065481565b60006005600954610100900460ff166006811115611b6c57fe5b141580611b7c5750611b7c611d00565b15611b8957506000610bc2565b326000908152600c60205260409020548210611ba457600080fd5b326000908152600c602052604090208054600b919084908110611bc357fe5b9060005260206000200154815481101515611bda57fe5b9060005260206000209060030201600201549050919050565b600c60205281600052604060002081815481101515611c0e57fe5b90600052602060002001600091509150505481565b60085481565b600181565b600254600160a060020a031681565b600080805b60095460ff9081169082161015611c9357611c89600a8260ff16815481101515611c6857fe5b90600052602060002090600202016001015483611cb590919063ffffffff16565b9150600101611c42565b50919050565b6000808284811515611ca757fe5b0490508091505b5092915050565b600082820183811015611cc457fe5b9392505050565b600080831515611cde5760009150611cae565b50828202828482811515611cee57fe5b0414611cc457fe5b015190565b600090565b600d5460dc60ff9091161090565b6060611d186109bf565b6009805461ff001916610100836006811115611d3057fe5b02179055506001600954610100900460ff166006811115611d4d57fe5b1480611d6e57506002600954610100900460ff166006811115611d6c57fe5b145b1515611d7957600080fd5b60008360ff1610158015611d95575060095460ff908116908416105b1515611da057600080fd5b6007546102571967ffffffffffffffff91821601164210611dc057600080fd5b60408051608081018252428152326020820190815260ff80871693830184815260608401878152600b805460018181018355600092909252955160039096027f0175b7a638427703f0dbe7bb9bbf987a2551717b34e79f33b5b1008d1fa01db981019690965593517f0175b7a638427703f0dbe7bb9bbf987a2551717b34e79f33b5b1008d1fa01dba860180549351909416740100000000000000000000000000000000000000000274ff000000000000000000000000000000000000000019600160a060020a039290921673ffffffffffffffffffffffffffffffffffffffff19909416939093171691909117909155517f0175b7a638427703f0dbe7bb9bbf987a2551717b34e79f33b5b1008d1fa01dbb90920191909155600a8054611f1893908110611eeb57fe5b600091825260209091206002909102015463ffffffff6801000000000000000090910481169190611cb516565b600a805460ff8616908110611f2957fe5b906000526020600020906002020160000160086101000a81548163ffffffff021916908363ffffffff160217905550611f8e82600a8560ff16815481101515611f6e57fe5b906000526020600020906002020160010154611cb590919063ffffffff16565b600a805460ff8616908110611f9f57fe5b60009182526020808320600292909202909101600190810193909355328252600c815260408220600b548154948501825590835291206000199091019101556009805461ff001916610200179055611ff86101006120dc565b6002026040519080825280601f01601f191660200182016040528015612028578160200160208202803883390190505b5090506120426120396101006120dc565b600b54836120ed565b61206d6120506101006120dc565b326000908152600c602052604090205460029190910290836120ed565b600080546040805160e060020a6346a4e92f028152306004820181815260248301938452865160448401528651600160a060020a03909516956346a4e92f9592948894929390926064019160208601919081908490849083811015611999578181015183820152602001611981565b60006120e7826120f3565b92915050565b90910152565b6000816008811461220057601081146122095760188114612212576020811461221b5760288114612224576030811461222d5760388114612236576040811461223f57604881146122485760508114612251576058811461225a5760608114612263576068811461226c5760708114612275576078811461227e57608081146122875760888114612290576090811461229957609881146122a25760a081146122ab5760a881146122b45760b081146122bd5760b881146122c65760c081146122cf5760c881146122d85760d081146122e15760d881146122ea5760e081146122f35760e881146122fc5760f081146123055760f8811461230e5761010081146123175760209150611c93565b60019150611c93565b60029150611c93565b60039150611c93565b60049150611c93565b60059150611c93565b60069150611c93565b60079150611c93565b60089150611c93565b60099150611c93565b600a9150611c93565b600b9150611c93565b600c9150611c93565b600d9150611c93565b600e9150611c93565b600f9150611c93565b60109150611c93565b60119150611c93565b60129150611c93565b60139150611c93565b60149150611c93565b60159150611c93565b60169150611c93565b60179150611c93565b60189150611c93565b60199150611c93565b601a9150611c93565b601b9150611c93565b601c9150611c93565b601d9150611c93565b601e9150611c93565b601f9150611c93565b50602092915050565b604080516080810182526000808252602082018190529181018290526060810191909152905600a165627a7a723058200f3359247c26f352a1156719711baec00fb6679a02786fe8da60c2bb3285d5af0029",
  "source": "pragma solidity ^0.4.2;\n\nimport \"../EventBase.sol\";\n\ncontract TestEventBase is EventBase {\n    constructor(address _token) public EventBase(_token) {}\n\n    function setStartDate(uint64 _startDate) public {\n        startDate = _startDate;\n    }\n\n    function setEndDate(uint64 _endDate) public {\n        endDate = _endDate;\n    }\n\n    event Updated(address _contract, bytes _data);\n}\n",
  "sourcePath": "/home/dmitrya2e/Work/Projects/ProofOfToss/Code/proof-of-toss/contracts/test/TestEventBase.sol",
  "compiler": {
    "name": "solc",
    "version": "0.4.24+commit.e67f0147.Emscripten.clang"
  },
  "schemaVersion": "2.0.0",
  "updatedAt": "2018-06-11T07:21:38.071Z"
}