{
  "contractName": "TestSafeMath",
  "abi": [
    {
      "constant": true,
      "inputs": [
        {
          "name": "",
          "type": "uint256"
        }
      ],
      "name": "possibleResults",
      "outputs": [
        {
          "name": "customCoefficient",
          "type": "uint64"
        },
        {
          "name": "betCount",
          "type": "uint32"
        },
        {
          "name": "betSum",
          "type": "uint64"
        },
        {
          "name": "voteSum",
          "type": "uint64"
        }
      ],
      "payable": false,
      "stateMutability": "view",
      "type": "function"
    },
    {
      "constant": true,
      "inputs": [
        {
          "name": "",
          "type": "uint256"
        }
      ],
      "name": "bets",
      "outputs": [
        {
          "name": "timestamp",
          "type": "uint256"
        },
        {
          "name": "bettor",
          "type": "address"
        },
        {
          "name": "result",
          "type": "uint8"
        },
        {
          "name": "amount",
          "type": "uint64"
        }
      ],
      "payable": false,
      "stateMutability": "view",
      "type": "function"
    },
    {
      "constant": true,
      "inputs": [],
      "name": "resolvedResult",
      "outputs": [
        {
          "name": "",
          "type": "uint8"
        }
      ],
      "payable": false,
      "stateMutability": "view",
      "type": "function"
    },
    {
      "constant": true,
      "inputs": [],
      "name": "owner",
      "outputs": [
        {
          "name": "",
          "type": "address"
        }
      ],
      "payable": false,
      "stateMutability": "view",
      "type": "function"
    },
    {
      "constant": true,
      "inputs": [],
      "name": "deposit",
      "outputs": [
        {
          "name": "",
          "type": "uint64"
        }
      ],
      "payable": false,
      "stateMutability": "view",
      "type": "function"
    },
    {
      "constant": true,
      "inputs": [
        {
          "name": "",
          "type": "address"
        }
      ],
      "name": "votes",
      "outputs": [
        {
          "name": "voter",
          "type": "address"
        },
        {
          "name": "result",
          "type": "uint8"
        },
        {
          "name": "deposit",
          "type": "uint64"
        }
      ],
      "payable": false,
      "stateMutability": "view",
      "type": "function"
    },
    {
      "constant": true,
      "inputs": [
        {
          "name": "",
          "type": "address"
        },
        {
          "name": "",
          "type": "uint256"
        }
      ],
      "name": "usersBets",
      "outputs": [
        {
          "name": "",
          "type": "uint256"
        }
      ],
      "payable": false,
      "stateMutability": "view",
      "type": "function"
    },
    {
      "constant": true,
      "inputs": [],
      "name": "token",
      "outputs": [
        {
          "name": "",
          "type": "address"
        }
      ],
      "payable": false,
      "stateMutability": "view",
      "type": "function"
    },
    {
      "inputs": [],
      "payable": false,
      "stateMutability": "nonpayable",
      "type": "constructor"
    },
    {
      "constant": false,
      "inputs": [
        {
          "name": "customCoefficient",
          "type": "uint64"
        }
      ],
      "name": "addResult",
      "outputs": [],
      "payable": false,
      "stateMutability": "nonpayable",
      "type": "function"
    },
    {
      "constant": false,
      "inputs": [],
      "name": "generateTokens",
      "outputs": [],
      "payable": true,
      "stateMutability": "payable",
      "type": "function"
    },
    {
      "constant": true,
      "inputs": [],
      "name": "getEventBalance",
      "outputs": [
        {
          "name": "",
          "type": "uint256"
        }
      ],
      "payable": false,
      "stateMutability": "view",
      "type": "function"
    },
    {
      "constant": true,
      "inputs": [
        {
          "name": "user",
          "type": "address"
        }
      ],
      "name": "getBalance",
      "outputs": [
        {
          "name": "",
          "type": "uint256"
        }
      ],
      "payable": false,
      "stateMutability": "view",
      "type": "function"
    },
    {
      "constant": false,
      "inputs": [],
      "name": "withdrawEventCreator",
      "outputs": [
        {
          "name": "",
          "type": "bool"
        }
      ],
      "payable": false,
      "stateMutability": "nonpayable",
      "type": "function"
    },
    {
      "constant": true,
      "inputs": [],
      "name": "calculateHalfPercentBetsSum",
      "outputs": [
        {
          "name": "",
          "type": "uint256"
        }
      ],
      "payable": false,
      "stateMutability": "view",
      "type": "function"
    },
    {
      "constant": false,
      "inputs": [],
      "name": "withdrawBettorA",
      "outputs": [
        {
          "name": "",
          "type": "uint256"
        }
      ],
      "payable": false,
      "stateMutability": "nonpayable",
      "type": "function"
    },
    {
      "constant": false,
      "inputs": [],
      "name": "withdrawBettorB",
      "outputs": [
        {
          "name": "",
          "type": "uint256"
        }
      ],
      "payable": false,
      "stateMutability": "nonpayable",
      "type": "function"
    },
    {
      "constant": false,
      "inputs": [],
      "name": "withdrawVoter0",
      "outputs": [
        {
          "name": "",
          "type": "uint256"
        }
      ],
      "payable": false,
      "stateMutability": "nonpayable",
      "type": "function"
    },
    {
      "constant": false,
      "inputs": [],
      "name": "withdrawVoter26",
      "outputs": [
        {
          "name": "",
          "type": "uint256"
        }
      ],
      "payable": false,
      "stateMutability": "nonpayable",
      "type": "function"
    },
    {
      "constant": false,
      "inputs": [],
      "name": "withdrawVoter46",
      "outputs": [
        {
          "name": "",
          "type": "uint256"
        }
      ],
      "payable": false,
      "stateMutability": "nonpayable",
      "type": "function"
    },
    {
      "constant": true,
      "inputs": [],
      "name": "calculateIncorrectVotesSum",
      "outputs": [
        {
          "name": "",
          "type": "uint64"
        }
      ],
      "payable": false,
      "stateMutability": "view",
      "type": "function"
    }
  ],
  "bytecode": "0x60806040523480156200001157600080fd5b506200001c62000a60565b604051809103906000f08015801562000039573d6000803e3d6000fd5b5060008054600160a060020a0319908116600160a060020a0393909316929092179055600180543392169190911760a060020a60e060020a031916760f424000000000000000000000000000000000000000001760e060020a60ff0219169055620000ae601e64010000000062000667810204565b620000c3604664010000000062000667810204565b620000f17314723a09acff6d2a60dcdf7aa4aff308fddc160c6000620f424064010000000062000759810204565b6200011f734b0897b0513fdc7c541b6d9d7e929c4e5364d2db6001621e848064010000000062000759810204565b6200014d73583031d1113ad414f02576bd6afabfb30214022560016207a12064010000000062000759810204565b62000167600060016103e864010000000062000949810204565b62000181600060026103e864010000000062000949810204565b6200019b600060036103e864010000000062000949810204565b620001b5600060046103e864010000000062000949810204565b620001cf600060056103e864010000000062000949810204565b620001e9600060066103e864010000000062000949810204565b62000203600060076103e864010000000062000949810204565b6200021d600060086103e864010000000062000949810204565b62000237600060096103e864010000000062000949810204565b62000251600060106103e864010000000062000949810204565b6200026b600060116103e864010000000062000949810204565b62000285600060126103e864010000000062000949810204565b6200029f600060136103e864010000000062000949810204565b620002b9600060146103e864010000000062000949810204565b620002d3600060156103e864010000000062000949810204565b620002ed600060166103e864010000000062000949810204565b62000307600060176103e864010000000062000949810204565b62000321600060186103e864010000000062000949810204565b6200033b600060196103e864010000000062000949810204565b62000355600060206103e864010000000062000949810204565b6200036f600060216103e864010000000062000949810204565b62000389600060226103e864010000000062000949810204565b620003a3600060236103e864010000000062000949810204565b620003bd600060246103e864010000000062000949810204565b620003d7600060256103e864010000000062000949810204565b620003f1600060266107d064010000000062000949810204565b6200040b600060276107d064010000000062000949810204565b62000425600060286107d064010000000062000949810204565b6200043f600060296107d064010000000062000949810204565b62000459600060306107d064010000000062000949810204565b62000473600060316107d064010000000062000949810204565b6200048d600060326107d064010000000062000949810204565b620004a7600060336107d064010000000062000949810204565b620004c1600060346107d064010000000062000949810204565b620004db600060356107d064010000000062000949810204565b620004f5600060366107d064010000000062000949810204565b6200050f600060376107d064010000000062000949810204565b62000529600060386107d064010000000062000949810204565b62000543600060396107d064010000000062000949810204565b6200055d600060406107d064010000000062000949810204565b62000577600060416107d064010000000062000949810204565b62000591600060426107d064010000000062000949810204565b620005ab600060436107d064010000000062000949810204565b620005c5600060446107d064010000000062000949810204565b620005df600060456107d064010000000062000949810204565b620005f9600160466107d064010000000062000949810204565b62000613600160476107d064010000000062000949810204565b6200062d600160486107d064010000000062000949810204565b62000647600160496107d064010000000062000949810204565b62000661600160506107d064010000000062000949810204565b62000a71565b604080516080810182526001604060020a0392831681526000602082018181529282018181526060830182815260028054600181018255935292517f405787fa12a823e0f2b7631cc41b3ba8828b3321ca811111fa75cd3aa3bb5ace90920180549451915193518616740100000000000000000000000000000000000000000260a060020a60e060020a03199487166c0100000000000000000000000002606060020a60a060020a031963ffffffff949094166801000000000000000002604060020a63ffffffff02199590981667ffffffffffffffff19909716969096179390931695909517169290921716179055565b60408051608081018252428152600160a060020a038581166020830190815260ff8681169484018581526001604060020a0387811660608701908152600380546001808201835560009290925297517fc2575a0e9e593c00f959f8c92f12db2869c3395a3b0502d05e2516446f71f85b6002998a029081019190915595517fc2575a0e9e593c00f959f8c92f12db2869c3395a3b0502d05e2516446f71f85c909601805494519251600160a060020a0319909516969097169590951760a060020a60ff0219167401000000000000000000000000000000000000000091909416029290921760a860020a60e860020a0319167501000000000000000000000000000000000000000000919092160217909155815490929081106200087957fe5b6000918252602090912001805463ffffffff68010000000000000000808304821690940116909202604060020a63ffffffff02199092169190911790556002805482919060ff8516908110620008cb57fe5b6000918252602080832090910180546001604060020a036c01000000000000000000000000808304821690960116909402606060020a60a060020a031990941693909317909255600160a060020a03909416845260048152604084206003548154600181018355918652919094206000199091019301929092555050565b60408051606081018252600160a060020a0384811680835260ff87811660208086018281526001604060020a03898116888a0190815260009687526005909352979094209551865494519151600160a060020a031990951695169490941760a060020a60ff0219167401000000000000000000000000000000000000000094909216939093021760a860020a60e860020a0319167501000000000000000000000000000000000000000000919094160292909217905560028054839290811062000a0f57fe5b600091825260209091200180546001604060020a037401000000000000000000000000000000000000000080830482169094011690920260a060020a60e060020a0319909216919091179055505050565b6040516106068062001ab383390190565b6110328062000a816000396000f3006080604052600436106100f85763ffffffff60e060020a60003504166304ef0a3d81146100fd5780630ca83fce1461014f578063112292b6146101765780632150b3b91461019a57806322af00fa146101af57806351e37f641461020157806369410cad1461022a5780636a50965c1461023f5780638da5cb5b1461026a578063a5e330481461029b578063ae13f5be146102a3578063c738e017146102b8578063cdf72dc3146102cd578063d0e30db0146102ff578063d81c3bcb14610314578063d8bff5a514610329578063e7519f2f1461037e578063efff8e81146103a2578063f8b2cb4f146103b7578063fc0c546a146103d8575b600080fd5b34801561010957600080fd5b506101156004356103ed565b6040805167ffffffffffffffff958616815263ffffffff909416602085015291841683830152909216606082015290519081900360800190f35b34801561015b57600080fd5b50610164610447565b60408051918252519081900360200190f35b34801561018257600080fd5b5061019867ffffffffffffffff6004351661046d565b005b3480156101a657600080fd5b50610164610570565b3480156101bb57600080fd5b506101c760043561057c565b60408051948552600160a060020a03909316602085015260ff9091168383015267ffffffffffffffff166060830152519081900360800190f35b34801561020d57600080fd5b506102166105cf565b604080519115158252519081900360200190f35b34801561023657600080fd5b50610164610700565b34801561024b57600080fd5b5061025461070c565b6040805160ff9092168252519081900360200190f35b34801561027657600080fd5b5061027f61071c565b60408051600160a060020a039092168252519081900360200190f35b61019861072b565b3480156102af57600080fd5b506101646107ae565b3480156102c457600080fd5b5061016461082f565b3480156102d957600080fd5b506102e261083b565b6040805167ffffffffffffffff9092168252519081900360200190f35b34801561030b57600080fd5b506102e26108ae565b34801561032057600080fd5b506101646108c5565b34801561033557600080fd5b5061034a600160a060020a0360043516610942565b60408051600160a060020a03909416845260ff909216602084015267ffffffffffffffff1682820152519081900360600190f35b34801561038a57600080fd5b50610164600160a060020a036004351660243561097b565b3480156103ae57600080fd5b506101646109ab565b3480156103c357600080fd5b50610164600160a060020a03600435166109cc565b3480156103e457600080fd5b5061027f610a50565b60028054829081106103fb57fe5b60009182526020909120015467ffffffffffffffff808216925063ffffffff68010000000000000000830416916c01000000000000000000000000810482169160a060020a9091041684565b60006104686001734b0897b0513fdc7c541b6d9d7e929c4e5364d2db610a5f565b905090565b6040805160808101825267ffffffffffffffff92831681526000602082018181529282018181526060830182815260028054600181018255935292517f405787fa12a823e0f2b7631cc41b3ba8828b3321ca811111fa75cd3aa3bb5ace9092018054945191519351861660a060020a027fffffffff0000000000000000ffffffffffffffffffffffffffffffffffffffff9487166c010000000000000000000000000273ffffffffffffffff0000000000000000000000001963ffffffff9490941668010000000000000000026bffffffff0000000000000000199590981667ffffffffffffffff19909716969096179390931695909517169290921716179055565b60006104686001610cb3565b600380548290811061058a57fe5b600091825260209091206002909102018054600190910154909150600160a060020a0381169060a060020a810460ff169060a860020a900467ffffffffffffffff1684565b60015460009060a060020a900467ffffffffffffffff166105ee610ebe565b01600080546040805160e060020a6370a0823102815230600482015290518493600160a060020a03909316926370a0823192602480820193602093909283900390910190829087803b15801561064357600080fd5b505af1158015610657573d6000803e3d6000fd5b505050506040513d602081101561066d57600080fd5b50511161067657fe5b60008054600154604080517fa9059cbb000000000000000000000000000000000000000000000000000000008152600160a060020a039283166004820152602481018690529051919092169263a9059cbb926044808201939182900301818387803b1580156106e457600080fd5b505af11580156106f8573d6000803e3d6000fd5b505050505090565b60006104686026610cb3565b60015460e060020a900460ff1681565b600154600160a060020a031681565b60008054604080517f827f32c00000000000000000000000000000000000000000000000000000000081523060048201526245cf1860248201529051600160a060020a039092169263827f32c09260448084019382900301818387803b15801561079457600080fd5b505af11580156107a8573d6000803e3d6000fd5b50505050565b600080546040805160e060020a6370a082310281523060048201529051600160a060020a03909216916370a082319160248082019260209290919082900301818787803b1580156107fe57600080fd5b505af1158015610812573d6000803e3d6000fd5b505050506040513d602081101561082857600080fd5b5051905090565b60006104686046610cb3565b60025460009081805b828160ff1610156108a75760015460ff82811660e060020a90920416141561086b5761089f565b6002805460ff831690811061087c57fe5b60009182526020909120015460a060020a900467ffffffffffffffff1691909101905b600101610844565b5092915050565b60015460a060020a900467ffffffffffffffff1681565b60025460009081805b828110156109175760028054829081106108e457fe5b6000918252602090912001546c01000000000000000000000000900467ffffffffffffffff1691909101906001016108ce565b61093a6103e861092e84600563ffffffff610f0a16565b9063ffffffff610f3c16565b935050505090565b600560205260009081526040902054600160a060020a0381169060a060020a810460ff169060a860020a900467ffffffffffffffff1683565b60046020528160005260406000208181548110151561099657fe5b90600052602060002001600091509150505481565b600061046860007314723a09acff6d2a60dcdf7aa4aff308fddc160c610a5f565b600080546040805160e060020a6370a08231028152600160a060020a038581166004830152915191909216916370a0823191602480830192602092919082900301818787803b158015610a1e57600080fd5b505af1158015610a32573d6000803e3d6000fd5b505050506040513d6020811015610a4857600080fd5b505192915050565b600054600160a060020a031681565b6000610a69610fbf565b600080600080600388815481101515610a7e57fe5b60009182526020918290206040805160808101825260029093029091018054835260010154600160a060020a0380821694840185905260ff60a060020a8304169284019290925267ffffffffffffffff60a860020a909104166060830152909650881614610ae857fe5b600154604086015160ff90811660e060020a9092041614610b0557fe5b610b0d610f53565b600154600280549296509160e060020a90910460ff16908110610b2c57fe5b600091825260209091200154606086015163ffffffff680100000000000000009092048216945067ffffffffffffffff1692508390610b779060649061092e908890606390610f0a16565b811515610b8057fe5b04610b97606461092e85606363ffffffff610f0a16565b600080546040805160e060020a6370a0823102815230600482015290519390940194508493600160a060020a03909116926370a0823192602480840193602093929083900390910190829087803b158015610bf157600080fd5b505af1158015610c05573d6000803e3d6000fd5b505050506040513d6020811015610c1b57600080fd5b505111610c2457fe5b60008054604080517fa9059cbb000000000000000000000000000000000000000000000000000000008152600160a060020a038b81166004830152602482018690529151919092169263a9059cbb926044808201939182900301818387803b158015610c8f57600080fd5b505af1158015610ca3573d6000803e3d6000fd5b50929a9950505050505050505050565b6000610cbd610fe6565b600080610cc8610fbf565b600160a060020a03868116600090815260056020908152604080832081516060810183529054948516815260a060020a850460ff90811693820184905260a860020a90950467ffffffffffffffff16918101919091526001549097509192839260e060020a90041614610d3757fe5b610d3f6108c5565b9450610d4961083b565b93506002866020015160ff16815481101515610d6157fe5b600091825260209182902060408051608081018252919092015467ffffffffffffffff808216835263ffffffff68010000000000000000830416948301949094526c01000000000000000000000000810484169282019290925260a060020a918290048316606082018190526001549196509450868316880193500416851115610dfd5760015460a060020a900467ffffffffffffffff168503015b600160a060020a03881660009081526005602052604090205467ffffffffffffffff60a860020a90910481169190910290821681811515610e3a57fe5b6040808901516000805483517fa9059cbb000000000000000000000000000000000000000000000000000000008152600160a060020a038f8116600483015267ffffffffffffffff909416969095049590950160248501819052925192955093169263a9059cbb926044808201939182900301818387803b158015610c8f57600080fd5b600080610ec96108c5565b60015490915060a060020a900467ffffffffffffffff16811015610eef57809150610f06565b60015460a060020a900467ffffffffffffffff1691505b5090565b600080831515610f1d57600091506108a7565b50828202828482811515610f2d57fe5b0414610f3557fe5b9392505050565b6000808284811515610f4a57fe5b04949350505050565b60025460009081805b828110156108a75760015460e060020a900460ff16811415610f7d57610fb7565b6002805482908110610f8b57fe5b6000918252602090912001546c01000000000000000000000000900467ffffffffffffffff1691909101905b600101610f5c565b60408051608081018252600080825260208201819052918101829052606081019190915290565b6040805160608101825260008082526020820181905291810191909152905600a165627a7a72305820a4ba4decdf65acd85a9b191cc21e408aaa3ff250b6e80c44457e967d45b44846002960c0604052600960808190527f546f6b656e20302e31000000000000000000000000000000000000000000000060a090815261003e91600091906100e8565b506040805180820190915260048082527f544f5353000000000000000000000000000000000000000000000000000000006020909201918252610083916001916100e8565b506040805180820190915260048082527f544f53530000000000000000000000000000000000000000000000000000000060209092019182526100c8916002916100e8565b506003805460ff191660041790553480156100e257600080fd5b50610183565b828054600181600116156101000203166002900490600052602060002090601f016020900481019282601f1061012957805160ff1916838001178555610156565b82800160010185558215610156579182015b8281111561015657825182559160200191906001019061013b565b50610162929150610166565b5090565b61018091905b80821115610162576000815560010161016c565b90565b610474806101926000396000f3006080604052600436106100825763ffffffff7c010000000000000000000000000000000000000000000000000000000060003504166306fdde038114610087578063313ce567146101115780635a3b7e421461013c57806370a0823114610151578063827f32c01461019157806395d89b41146101c4578063a9059cbb146101d9575b600080fd5b34801561009357600080fd5b5061009c61020a565b6040805160208082528351818301528351919283929083019185019080838360005b838110156100d65781810151838201526020016100be565b50505050905090810190601f1680156101035780820380516001836020036101000a031916815260200191505b509250505060405180910390f35b34801561011d57600080fd5b50610126610297565b6040805160ff9092168252519081900360200190f35b34801561014857600080fd5b5061009c6102a0565b34801561015d57600080fd5b5061017f73ffffffffffffffffffffffffffffffffffffffff600435166102fb565b60408051918252519081900360200190f35b34801561019d57600080fd5b506101c273ffffffffffffffffffffffffffffffffffffffff6004351660243561030d565b005b3480156101d057600080fd5b5061009c61033c565b3480156101e557600080fd5b506101c273ffffffffffffffffffffffffffffffffffffffff60043516602435610394565b60018054604080516020600284861615610100026000190190941693909304601f8101849004840282018401909252818152929183018282801561028f5780601f106102645761010080835404028352916020019161028f565b820191906000526020600020905b81548152906001019060200180831161027257829003601f168201915b505050505081565b60035460ff1681565b6000805460408051602060026001851615610100026000190190941693909304601f8101849004840282018401909252818152929183018282801561028f5780601f106102645761010080835404028352916020019161028f565b60046020526000908152604090205481565b73ffffffffffffffffffffffffffffffffffffffff909116600090815260046020526040902080549091019055565b6002805460408051602060018416156101000260001901909316849004601f8101849004840282018401909252818152929183018282801561028f5780601f106102645761010080835404028352916020019161028f565b336000908152600460205260409020546103b4908263ffffffff61042016565b336000908152600460205260408082209290925573ffffffffffffffffffffffffffffffffffffffff8416815220546103f3908263ffffffff61043216565b73ffffffffffffffffffffffffffffffffffffffff90921660009081526004602052604090209190915550565b60008282111561042c57fe5b50900390565b60008282018381101561044157fe5b93925050505600a165627a7a723058205be5a11ea178dc968b537705b4ffaff00deee345359afbb58bcf61d17d53f46b0029",
  "source": "pragma solidity ^0.4.2;\n\nimport \"./TestSafeMathToken.sol\";\nimport \"../../installed_contracts/SafeMath.sol\";\n\ncontract TestSafeMath {\n\n    using SafeMath for uint256;\n\n    TestSafeMathToken public token;\n    address public owner;\n    uint64 public deposit;\n    uint8 public resolvedResult;\n\n    struct Result {\n        uint64 customCoefficient;\n        uint32 betCount;\n        uint64 betSum;\n        uint64 voteSum;\n    }\n\n    struct Bet {\n        uint timestamp;\n        address bettor;\n        uint8 result;\n        uint64 amount;\n    }\n\n    struct Vote {\n        address voter;\n        uint8 result;\n        uint64 deposit;\n    }\n\n    Result[] public possibleResults;\n    Bet[] public bets;\n    mapping (address => uint[]) public usersBets;\n    mapping (address => Vote) public votes;\n\n    constructor() public {\n        token = new TestSafeMathToken();\n\n        owner = msg.sender;\n        deposit = 1000000;\n        resolvedResult = 0;\n\n        addResult(30);\n        addResult(70);\n\n        addBet(0x14723a09acff6d2a60dcdf7aa4aff308fddc160c, 0, 1000000);\n        addBet(0x4b0897b0513fdc7c541b6d9d7e929c4e5364d2db, 1, 2000000);\n        addBet(0x583031d1113ad414f02576bd6afabfb302140225, 1, 500000);\n\n        //Correct voice with 0.1 deposit\n        addVote(0, 0x1, 1000);\n        addVote(0, 0x2, 1000);\n        addVote(0, 0x3, 1000);\n        addVote(0, 0x4, 1000);\n        addVote(0, 0x5, 1000);\n        addVote(0, 0x6, 1000);\n        addVote(0, 0x7, 1000);\n        addVote(0, 0x8, 1000);\n        addVote(0, 0x9, 1000);\n        addVote(0, 0x10, 1000);\n        addVote(0, 0x11, 1000);\n        addVote(0, 0x12, 1000);\n        addVote(0, 0x13, 1000);\n        addVote(0, 0x14, 1000);\n        addVote(0, 0x15, 1000);\n        addVote(0, 0x16, 1000);\n        addVote(0, 0x17, 1000);\n        addVote(0, 0x18, 1000);\n        addVote(0, 0x19, 1000);\n        addVote(0, 0x20, 1000);\n        addVote(0, 0x21, 1000);\n        addVote(0, 0x22, 1000);\n        addVote(0, 0x23, 1000);\n        addVote(0, 0x24, 1000);\n        addVote(0, 0x25, 1000);\n\n        //Correct voice with 0.2 deposit\n        addVote(0, 0x26, 2000);\n        addVote(0, 0x27, 2000);\n        addVote(0, 0x28, 2000);\n        addVote(0, 0x29, 2000);\n        addVote(0, 0x30, 2000);\n        addVote(0, 0x31, 2000);\n        addVote(0, 0x32, 2000);\n        addVote(0, 0x33, 2000);\n        addVote(0, 0x34, 2000);\n        addVote(0, 0x35, 2000);\n        addVote(0, 0x36, 2000);\n        addVote(0, 0x37, 2000);\n        addVote(0, 0x38, 2000);\n        addVote(0, 0x39, 2000);\n        addVote(0, 0x40, 2000);\n        addVote(0, 0x41, 2000);\n        addVote(0, 0x42, 2000);\n        addVote(0, 0x43, 2000);\n        addVote(0, 0x44, 2000);\n        addVote(0, 0x45, 2000);\n\n        //Inorrect voice with 0.2 deposit\n        addVote(1, 0x46, 2000);\n        addVote(1, 0x47, 2000);\n        addVote(1, 0x48, 2000);\n        addVote(1, 0x49, 2000);\n        addVote(1, 0x50, 2000);\n    }\n\n    function addResult(uint64 customCoefficient) public {\n        possibleResults.push(Result(customCoefficient, 0, 0, 0));\n    }\n\n    function addBet(address sender, uint8 result, uint64 amount) private {\n        bets.push(Bet(now, sender, result, amount));\n\n        possibleResults[result].betCount += 1;\n        possibleResults[result].betSum += amount;\n\n        usersBets[sender].push(bets.length - 1);\n    }\n\n    /**\n     * Voting function\n     */\n    function addVote(uint8 result, address user, uint64 deposit) private {\n        // Vote vote = Vote(user, result, deposit);\n        votes[user] = Vote(user, result, deposit);\n        possibleResults[result].voteSum += deposit;\n    }\n\n    /*-----------------------Helper functions----------------------*/\n\n    function generateTokens() payable public {\n        token.generateTokens(address(this), 4575000);\n    }\n\n    function getEventBalance() public view returns (uint256) {\n        return token.balanceOf(address(this));\n    }\n\n    function getBalance(address user) public view returns (uint256) {\n        return token.balanceOf(user);\n    }\n\n    /*-----------------------Withdraw event creator----------------------*/\n\n    /**\n     * Withdraw event creator tokens\n     */\n    function withdrawEventCreator() public returns (bool) {\n        uint256 withdrawSum = 0;\n        if(owner == owner) {\n            withdrawSum += deposit;\n            withdrawSum += getEventCreatorReward();\n        }\n\n        assert(token.balanceOf(address(this)) > withdrawSum);\n\n        token.transfer(owner, withdrawSum);\n    }\n\n    function calculateHalfPercentBetsSum() public view returns (uint256) {\n        uint256 resultCount = possibleResults.length;\n        uint256 betsSum = 0;\n        for(uint256 i = 0; i < resultCount; i++ ) {\n            betsSum += possibleResults[i].betSum;\n        }\n\n        return betsSum.mul(5).div(1000);\n    }\n\n    /**\n     * Return event creator reward\n     */\n    function getEventCreatorReward() private view returns (uint256) {\n        uint256 eventCreatorPercent = calculateHalfPercentBetsSum();\n\n        if(eventCreatorPercent < deposit) {\n            return eventCreatorPercent;\n        }\n\n        return deposit;\n    }\n\n    /*-----------------------Withdraw bettor----------------------*/\n\n    /**\n     * Main function for withdraw bettor tokens.\n     * Should be public in real contract\n     */\n    function withdrawBettor(uint256 betIndex, address user) private returns (uint256) {\n        Bet memory bet = bets[betIndex];\n\n        assert(bet.bettor == user);\n        assert(bet.result == resolvedResult);\n\n        uint256 loosersBetSum = calculateLosersBetSum();\n        uint256 winnerCount = possibleResults[resolvedResult].betCount;\n\n        uint256 userBetAmount = bet.amount;\n\n        uint256 prize = (userBetAmount.mul(99).div(100)) + (loosersBetSum.mul(99).div(100) / winnerCount);\n\n        assert(token.balanceOf(address(this)) > prize);\n\n        token.transfer(user, prize);\n\n        return prize;\n    }\n\n    /**\n     * Test function\n     * Return bettorA tokens\n     */\n    function withdrawBettorA() public returns (uint256) {\n        return withdrawBettor(0, 0x14723a09acff6d2a60dcdf7aa4aff308fddc160c);\n    }\n\n    /**\n     * Test function\n     * Throw exception because of result 1 is not winning\n     */\n    function withdrawBettorB() public returns (uint256) {\n        return withdrawBettor(1, 0x4b0897b0513fdc7c541b6d9d7e929c4e5364d2db);\n    }\n\n    /**\n     * Return losers bet sum\n     */\n    function calculateLosersBetSum() private view returns (uint256) {\n        uint256 resultCount = possibleResults.length;\n        uint256 loosersBetSum = 0;\n        for(uint256 i = 0; i < resultCount; i++ ) {\n            if(i == resolvedResult) {\n                continue;\n            }\n\n            loosersBetSum += possibleResults[i].betSum;\n        }\n\n        return loosersBetSum;\n    }\n\n    /*-----------------------Withdraw judge----------------------*/\n\n    function withdrawVoter(address user) private returns (uint256) {\n        Vote memory vote = votes[user];\n\n        assert(vote.result == resolvedResult);\n\n        uint256 eventCreatorPercent = calculateHalfPercentBetsSum();\n        uint64 incorrectVotesSum = calculateIncorrectVotesSum();\n        Result memory result = possibleResults[vote.result];\n\n        uint64 votersCorrectSum = result.voteSum;\n        uint256 voterReward = 0;\n\n        voterReward += eventCreatorPercent;\n        voterReward += incorrectVotesSum;\n\n        if(eventCreatorPercent > deposit) {\n            voterReward += eventCreatorPercent - deposit;\n        }\n\n        voterReward = voterReward * votes[user].deposit;\n        voterReward = voterReward / votersCorrectSum;\n\n        voterReward += vote.deposit;\n\n        token.transfer(user, voterReward);\n\n        //Return for test\n        return voterReward;\n    }\n\n    /**\n     * Return 423 tokens\n     */\n    function withdrawVoter0() public returns (uint256) {\n        return withdrawVoter(0x1);\n    }\n\n    /**\n     * Return 846 tokens\n     */\n    function withdrawVoter26() public returns (uint256) {\n        return withdrawVoter(0x26);\n    }\n\n    /**\n    * Throw exception\n    */\n    function withdrawVoter46() public returns (uint256) {\n        return withdrawVoter(0x46);\n    }\n\n    /**\n     *\n     */\n    function calculateIncorrectVotesSum() public view returns (uint64) {\n        uint256 resultCount = possibleResults.length;\n        uint64 incorrectVotesSum = 0;\n\n        for(uint8 i = 0; i < resultCount; i++ ) {\n            if(i == resolvedResult) {\n                continue;\n            }\n\n            incorrectVotesSum += possibleResults[i].voteSum;\n        }\n\n        return incorrectVotesSum;\n    }\n}",
  "sourcePath": "/home/dmitrya2e/Work/Projects/ProofOfToss/Code/proof-of-toss/contracts/test/TestSafeMath/TestSafeMath.sol",
  "compiler": {
    "name": "solc",
    "version": "0.4.24+commit.e67f0147.Emscripten.clang"
  },
  "schemaVersion": "2.0.0",
  "updatedAt": "2018-06-08T15:45:57.048Z"
}