{
  "contractName": "TestMainSC",
  "abi": [
    {
      "constant": true,
      "inputs": [],
      "name": "eventBase",
      "outputs": [
        {
          "name": "",
          "type": "address"
        }
      ],
      "payable": false,
      "stateMutability": "view",
      "type": "function"
    },
    {
      "constant": true,
      "inputs": [],
      "name": "getToken",
      "outputs": [
        {
          "name": "",
          "type": "address"
        }
      ],
      "payable": false,
      "stateMutability": "view",
      "type": "function"
    },
    {
      "constant": false,
      "inputs": [
        {
          "name": "_eventBase",
          "type": "address"
        }
      ],
      "name": "updateEventBase",
      "outputs": [],
      "payable": false,
      "stateMutability": "nonpayable",
      "type": "function"
    },
    {
      "constant": false,
      "inputs": [
        {
          "name": "newOwner",
          "type": "address"
        }
      ],
      "name": "transferOwnership",
      "outputs": [],
      "payable": false,
      "stateMutability": "nonpayable",
      "type": "function"
    },
    {
      "inputs": [
        {
          "name": "_token",
          "type": "address"
        },
        {
          "name": "_whitelist",
          "type": "address"
        },
        {
          "name": "_eventBase",
          "type": "address"
        }
      ],
      "payable": false,
      "stateMutability": "nonpayable",
      "type": "constructor"
    },
    {
      "anonymous": false,
      "inputs": [
        {
          "indexed": true,
          "name": "eventAddress",
          "type": "address"
        },
        {
          "indexed": false,
          "name": "deposit",
          "type": "uint64"
        },
        {
          "indexed": false,
          "name": "eventData",
          "type": "bytes"
        }
      ],
      "name": "NewEvent",
      "type": "event"
    },
    {
      "constant": false,
      "inputs": [
        {
          "name": "_from",
          "type": "address"
        },
        {
          "name": "_value",
          "type": "uint256"
        },
        {
          "name": "_data",
          "type": "bytes"
        }
      ],
      "name": "tokenFallback",
      "outputs": [],
      "payable": false,
      "stateMutability": "nonpayable",
      "type": "function"
    },
    {
      "constant": true,
      "inputs": [],
      "name": "getLastEvent",
      "outputs": [
        {
          "name": "",
          "type": "address"
        }
      ],
      "payable": false,
      "stateMutability": "view",
      "type": "function"
    }
  ],
  "bytecode": "0x60806040526002805460a060020a60ff0219167401000000000000000000000000000000000000000017905534801561003757600080fd5b506040516060806109bd83398101604090815281516020830151919092015160038054600160a060020a0319908116331790915560008054600160a060020a03958616908316179055600180549385169382169390931790925560028054939091169290911691909117905561090b806100b26000396000f3006080604052600436106100775763ffffffff7c010000000000000000000000000000000000000000000000000000000060003504166313781d87811461007c578063215c0a2e146100ad57806321df0da7146100c257806335373d80146100d7578063c0ee0b8a146100fa578063f2fde38b14610163575b600080fd5b34801561008857600080fd5b50610091610184565b60408051600160a060020a039092168252519081900360200190f35b3480156100b957600080fd5b50610091610193565b3480156100ce57600080fd5b506100916101a2565b3480156100e357600080fd5b506100f8600160a060020a03600435166101b1565b005b34801561010657600080fd5b50604080516020600460443581810135601f81018490048402850184019095528484526100f8948235600160a060020a031694602480359536959460649492019190819084018382808284375094975061021e9650505050505050565b34801561016f57600080fd5b506100f8600160a060020a03600435166102ef565b600254600160a060020a031681565b600454600160a060020a031690565b600054600160a060020a031690565b600354600160a060020a031633146101c857600080fd5b80803b600081116101d857600080fd5b600160a060020a03831615156101ed57600080fd5b50506002805473ffffffffffffffffffffffffffffffffffffffff1916600160a060020a0392909216919091179055565b61022983838361034a565b6004805473ffffffffffffffffffffffffffffffffffffffff1916600160a060020a039283161780825560008054604080517fa9059cbb00000000000000000000000000000000000000000000000000000000815293861694840194909452602483018790529251929093169263a9059cbb926044808401936020939083900390910190829087803b1580156102be57600080fd5b505af11580156102d2573d6000803e3d6000fd5b505050506040513d60208110156102e857600080fd5b5050505050565b600354600160a060020a0316331461030657600080fd5b600160a060020a038116151561031b57600080fd5b6003805473ffffffffffffffffffffffffffffffffffffffff1916600160a060020a0392909216919091179055565b600154604080517f9b19251a00000000000000000000000000000000000000000000000000000000815232600482015290516000928392600160a060020a0390911691639b19251a9160248082019260209290919082900301818787803b1580156103b457600080fd5b505af11580156103c8573d6000803e3d6000fd5b505050506040513d60208110156103de57600080fd5b505115156001146103ee57600080fd5b60008054604080517f17221e2c0000000000000000000000000000000000000000000000000000000081523060048201529051600160a060020a03909216926317221e2c926024808401936020939083900390910190829087803b15801561045557600080fd5b505af1158015610469573d6000803e3d6000fd5b505050506040513d602081101561047f57600080fd5b5051151560011461048f57600080fd5b600254600160a060020a03166104a3610739565b600160a060020a03909116815260405190819003602001906000f0801580156104d0573d6000803e3d6000fd5b50600080546001546040517f5632cae1000000000000000000000000000000000000000000000000000000008152600160a060020a0392831660048201818152928416602483018190528b8516604484015267ffffffffffffffff8b16606484015260a0608484019081528a5160a48501528a5197985094881696635632cae196929591948d948d948d94929360c49092019160208601918190849084905b8381101561058757818101518382015260200161056f565b50505050905090810190601f1680156105b45780820380516001836020036101000a031916815260200191505b509650505050505050600060405180830381600087803b1580156105d757600080fd5b505af11580156105eb573d6000803e3d6000fd5b505060008054604080517fb3e1f523000000000000000000000000000000000000000000000000000000008152600160a060020a03878116600483015260016024830152915191909216945063b3e1f52393506044808301939282900301818387803b15801561065a57600080fd5b505af115801561066e573d6000803e3d6000fd5b5050505080600160a060020a03167f6687c86e22b35b067161dc12847d7418869e3f18b76897e9b6d01edee3201b5c8585604051808367ffffffffffffffff1667ffffffffffffffff16815260200180602001828103825283818151815260200191508051906020019080838360005b838110156106f65781810151838201526020016106de565b50505050905090810190601f1680156107235780820380516001836020036101000a031916815260200191505b50935050505060405180910390a2949350505050565b6040516101968061074a833901905600608060405234801561001057600080fd5b50604051602080610196833981016040525160018054600160a060020a0319908116331790915560008054600160a060020a03909316929091169190911790556101378061005f6000396000f30060806040526004361061004b5763ffffffff7c01000000000000000000000000000000000000000000000000000000006000350416635001f3b581146100805780638da5cb5b146100be575b34801561005757600080fd5b506000543660008037600080366000845af43d806000803e81801561007b57816000f35b600080fd5b34801561008c57600080fd5b506100956100d3565b6040805173ffffffffffffffffffffffffffffffffffffffff9092168252519081900360200190f35b3480156100ca57600080fd5b506100956100ef565b60005473ffffffffffffffffffffffffffffffffffffffff1681565b60015473ffffffffffffffffffffffffffffffffffffffff16815600a165627a7a72305820ef4398c8003c2448f2a0452064d130554d091db04da3e2f5312fb64ec87c09f90029a165627a7a723058202f963094fd7a8d8cb74d1d0b6f55eef683a4c9d70eb4e91af9fa3626c19d55d40029",
  "source": "pragma solidity ^0.4.2;\n\nimport \"../Main.sol\";\n\ncontract TestMainSC is Main {\n    address lastEvent;\n\n    constructor(address _token, address _whitelist, address _eventBase) public Main(_token, _whitelist, _eventBase) {}\n\n    function tokenFallback(address _from, uint _value, bytes memory _data) public {\n        lastEvent = newEvent(_from, uint64(_value), _data);\n        token.transfer(lastEvent, _value);\n    }\n\n    function getLastEvent() public constant returns (address) {\n        return lastEvent;\n    }\n}\n",
  "sourcePath": "/Users/nickolay/workspace/rsk/app/contracts/test/TestMainSC.sol",
  "compiler": {
    "name": "solc",
    "version": "0.4.24+commit.e67f0147.Emscripten.clang"
  },
  "schemaVersion": "2.0.0",
  "updatedAt": "2018-06-12T11:40:14.117Z"
}