{
  "contractName": "TestMainSC",
  "abi": [
    {
      "constant": true,
      "inputs": [],
      "name": "eventBase",
      "outputs": [
        {
          "name": "",
          "type": "address"
        }
      ],
      "payable": false,
      "stateMutability": "view",
      "type": "function"
    },
    {
      "constant": true,
      "inputs": [],
      "name": "getToken",
      "outputs": [
        {
          "name": "",
          "type": "address"
        }
      ],
      "payable": false,
      "stateMutability": "view",
      "type": "function"
    },
    {
      "constant": false,
      "inputs": [
        {
          "name": "newOwner",
          "type": "address"
        }
      ],
      "name": "transferOwnership",
      "outputs": [],
      "payable": false,
      "stateMutability": "nonpayable",
      "type": "function"
    },
    {
      "inputs": [
        {
          "name": "_token",
          "type": "address"
        },
        {
          "name": "_whitelist",
          "type": "address"
        },
        {
          "name": "_eventBase",
          "type": "address"
        }
      ],
      "payable": false,
      "stateMutability": "nonpayable",
      "type": "constructor"
    },
    {
      "anonymous": false,
      "inputs": [
        {
          "indexed": true,
          "name": "eventAddress",
          "type": "address"
        },
        {
          "indexed": false,
          "name": "deposit",
          "type": "uint64"
        },
        {
          "indexed": false,
          "name": "eventData",
          "type": "bytes"
        }
      ],
      "name": "NewEvent",
      "type": "event"
    },
    {
      "constant": false,
      "inputs": [
        {
          "name": "_from",
          "type": "address"
        },
        {
          "name": "_value",
          "type": "uint256"
        },
        {
          "name": "_data",
          "type": "bytes"
        }
      ],
      "name": "tokenFallback",
      "outputs": [],
      "payable": false,
      "stateMutability": "nonpayable",
      "type": "function"
    },
    {
      "constant": true,
      "inputs": [],
      "name": "getLastEvent",
      "outputs": [
        {
          "name": "",
          "type": "address"
        }
      ],
      "payable": false,
      "stateMutability": "view",
      "type": "function"
    }
  ],
  "bytecode": "0x60606040526002805460a060020a60ff02191674010000000000000000000000000000000000000000179055341561003657600080fd5b6040516060806108ba83398101604052808051919060200180519190602001805160038054600160a060020a031990811633600160a060020a0390811691909117909255600080548216978316979097178755600180548216968316969096179095556002805490951691161790925550610802918291506100b890396000f3006060604052600436106100535763ffffffff60e060020a60003504166313781d878114610058578063215c0a2e1461008757806321df0da71461009a578063c0ee0b8a146100ad578063f2fde38b14610114575b600080fd5b341561006357600080fd5b61006b610133565b604051600160a060020a03909116815260200160405180910390f35b341561009257600080fd5b61006b610142565b34156100a557600080fd5b61006b610151565b34156100b857600080fd5b61011260048035600160a060020a03169060248035919060649060443590810190830135806020601f8201819004810201604051908101604052818152929190602084018383808284375094965061016095505050505050565b005b341561011f57600080fd5b610112600160a060020a0360043516610203565b600254600160a060020a031681565b600454600160a060020a031690565b600054600160a060020a031690565b61016b838383610262565b6004805473ffffffffffffffffffffffffffffffffffffffff1916600160a060020a03928316179081905560005482169163a9059cbb91168460405160e060020a63ffffffff8516028152600160a060020a0390921660048301526024820152604401602060405180830381600087803b15156101e757600080fd5b5af115156101f457600080fd5b50505060405180515050505050565b60035433600160a060020a0390811691161461021e57600080fd5b600160a060020a038116151561023357600080fd5b6003805473ffffffffffffffffffffffffffffffffffffffff1916600160a060020a0392909216919091179055565b6001546000908190819081908190819081908190600160a060020a0316639b19251a3260405160e060020a63ffffffff8416028152600160a060020a039091166004820152602401602060405180830381600087803b15156102c357600080fd5b5af115156102d057600080fd5b5050506040518051151560011490506102e857600080fd5b600054600160a060020a03166317221e2c3060405160e060020a63ffffffff8416028152600160a060020a039091166004820152602401602060405180830381600087803b151561033857600080fd5b5af1151561034557600080fd5b50505060405180511515600114905061035d57600080fd5b8851925061036b838a610634565b965060088303925061037d838a610634565b955060088303925061038f838a610634565b60025490955060011990930192600160a060020a03166103ad610641565b600160a060020a039091168152602001604051809103906000f08015156103d357600080fd5b600054600154919350600160a060020a03808516926365f90fee92821691168e8e8c8c8c60405163ffffffff891660e060020a028152600160a060020a039788166004820152958716602487015293909516604485015267ffffffffffffffff91821660648501528116608484015290921660a482015260ff90911660c482015260e401600060405180830381600087803b151561047057600080fd5b5af1151561047d57600080fd5b505050600090505b8460ff168110156105095761049a838a610634565b935060088303925081600160a060020a031663112292b68560405160e060020a63ffffffff841602815267ffffffffffffffff9091166004820152602401600060405180830381600087803b15156104f157600080fd5b5af115156104fe57600080fd5b505050600101610485565b600054600160a060020a031663b3e1f52383600160405160e060020a63ffffffff8516028152600160a060020a03909216600483015215156024820152604401600060405180830381600087803b151561056257600080fd5b5af1151561056f57600080fd5b50505081600160a060020a03167f6687c86e22b35b067161dc12847d7418869e3f18b76897e9b6d01edee3201b5c8b8b60405167ffffffffffffffff8316815260406020820181815290820183818151815260200191508051906020019080838360005b838110156105eb5780820151838201526020016105d3565b50505050905090810190601f1680156106185780820380516001836020036101000a031916815260200191505b50935050505060405180910390a2509998505050505050505050565b6000828201519392505050565b604051610185806106528339019056006060604052341561000f57600080fd5b6040516020806101858339810160405280805160018054600160a060020a03338116600160a060020a0319928316179092556000805492909316911617905550506101268061005f6000396000f30060606040526004361060485763ffffffff7c01000000000000000000000000000000000000000000000000000000006000350416635001f3b5811460795780638da5cb5b1460b2575b3415605257600080fd5b6000543660008037600080366000845af43d806000803e818015607457816000f35b600080fd5b3415608357600080fd5b608960c2565b60405173ffffffffffffffffffffffffffffffffffffffff909116815260200160405180910390f35b341560bc57600080fd5b608960de565b60005473ffffffffffffffffffffffffffffffffffffffff1681565b60015473ffffffffffffffffffffffffffffffffffffffff16815600a165627a7a72305820a72e6005d029e0d86ff6030430758e677f27c197dfc80f8feb75c7a0be99e5920029a165627a7a7230582050b33ed16dc8fc27d91333338939f4a03b6245b7addbf2ebb08da65f29de528e0029",
  "source": "pragma solidity ^0.4.2;\n\nimport \"../Main.sol\";\n\ncontract TestMainSC is Main {\n    address lastEvent;\n\n    function TestMainSC(address _token, address _whitelist, address _eventBase) Main(_token, _whitelist, _eventBase) {}\n\n    function tokenFallback(address _from, uint _value, bytes memory _data) {\n        lastEvent = newEvent(_from, uint64(_value), _data);\n        token.transfer(lastEvent, _value);\n    }\n\n    function getLastEvent() constant returns (address) {\n        return lastEvent;\n    }\n}\n",
  "sourcePath": "/Users/nickolay/workspace/rsk/app/contracts/test/TestMainSC.sol",
  "compiler": {
    "name": "solc",
    "version": "0.4.21+commit.dfe3193c.Emscripten.clang"
  },
  "schemaVersion": "2.0.0",
  "updatedAt": "2018-05-29T10:37:55.326Z"
}