{
  "contractName": "TestSafeMathToken",
  "abi": [
    {
      "constant": true,
      "inputs": [],
      "name": "name",
      "outputs": [
        {
          "name": "",
          "type": "string"
        }
      ],
      "payable": false,
      "stateMutability": "view",
      "type": "function"
    },
    {
      "constant": true,
      "inputs": [],
      "name": "decimals",
      "outputs": [
        {
          "name": "",
          "type": "uint8"
        }
      ],
      "payable": false,
      "stateMutability": "view",
      "type": "function"
    },
    {
      "constant": true,
      "inputs": [],
      "name": "standard",
      "outputs": [
        {
          "name": "",
          "type": "string"
        }
      ],
      "payable": false,
      "stateMutability": "view",
      "type": "function"
    },
    {
      "constant": true,
      "inputs": [
        {
          "name": "",
          "type": "address"
        }
      ],
      "name": "balanceOf",
      "outputs": [
        {
          "name": "",
          "type": "uint256"
        }
      ],
      "payable": false,
      "stateMutability": "view",
      "type": "function"
    },
    {
      "constant": true,
      "inputs": [],
      "name": "symbol",
      "outputs": [
        {
          "name": "",
          "type": "string"
        }
      ],
      "payable": false,
      "stateMutability": "view",
      "type": "function"
    },
    {
      "constant": false,
      "inputs": [
        {
          "name": "_user",
          "type": "address"
        },
        {
          "name": "_value",
          "type": "uint256"
        }
      ],
      "name": "generateTokens",
      "outputs": [],
      "payable": false,
      "stateMutability": "nonpayable",
      "type": "function"
    },
    {
      "constant": false,
      "inputs": [
        {
          "name": "to",
          "type": "address"
        },
        {
          "name": "value",
          "type": "uint256"
        }
      ],
      "name": "transfer",
      "outputs": [],
      "payable": false,
      "stateMutability": "nonpayable",
      "type": "function"
    }
  ],
  "bytecode": "0x60c0604052600960808190527f546f6b656e20302e31000000000000000000000000000000000000000000000060a090815261003e91600091906100e8565b506040805180820190915260048082527f544f5353000000000000000000000000000000000000000000000000000000006020909201918252610083916001916100e8565b506040805180820190915260048082527f544f53530000000000000000000000000000000000000000000000000000000060209092019182526100c8916002916100e8565b506003805460ff191660041790553480156100e257600080fd5b50610183565b828054600181600116156101000203166002900490600052602060002090601f016020900481019282601f1061012957805160ff1916838001178555610156565b82800160010185558215610156579182015b8281111561015657825182559160200191906001019061013b565b50610162929150610166565b5090565b61018091905b80821115610162576000815560010161016c565b90565b610474806101926000396000f3006080604052600436106100825763ffffffff7c010000000000000000000000000000000000000000000000000000000060003504166306fdde038114610087578063313ce567146101115780635a3b7e421461013c57806370a0823114610151578063827f32c01461019157806395d89b41146101c4578063a9059cbb146101d9575b600080fd5b34801561009357600080fd5b5061009c61020a565b6040805160208082528351818301528351919283929083019185019080838360005b838110156100d65781810151838201526020016100be565b50505050905090810190601f1680156101035780820380516001836020036101000a031916815260200191505b509250505060405180910390f35b34801561011d57600080fd5b50610126610297565b6040805160ff9092168252519081900360200190f35b34801561014857600080fd5b5061009c6102a0565b34801561015d57600080fd5b5061017f73ffffffffffffffffffffffffffffffffffffffff600435166102fb565b60408051918252519081900360200190f35b34801561019d57600080fd5b506101c273ffffffffffffffffffffffffffffffffffffffff6004351660243561030d565b005b3480156101d057600080fd5b5061009c61033c565b3480156101e557600080fd5b506101c273ffffffffffffffffffffffffffffffffffffffff60043516602435610394565b60018054604080516020600284861615610100026000190190941693909304601f8101849004840282018401909252818152929183018282801561028f5780601f106102645761010080835404028352916020019161028f565b820191906000526020600020905b81548152906001019060200180831161027257829003601f168201915b505050505081565b60035460ff1681565b6000805460408051602060026001851615610100026000190190941693909304601f8101849004840282018401909252818152929183018282801561028f5780601f106102645761010080835404028352916020019161028f565b60046020526000908152604090205481565b73ffffffffffffffffffffffffffffffffffffffff909116600090815260046020526040902080549091019055565b6002805460408051602060018416156101000260001901909316849004601f8101849004840282018401909252818152929183018282801561028f5780601f106102645761010080835404028352916020019161028f565b336000908152600460205260409020546103b4908263ffffffff61042016565b336000908152600460205260408082209290925573ffffffffffffffffffffffffffffffffffffffff8416815220546103f3908263ffffffff61043216565b73ffffffffffffffffffffffffffffffffffffffff90921660009081526004602052604090209190915550565b60008282111561042c57fe5b50900390565b60008282018381101561044157fe5b93925050505600a165627a7a723058205be5a11ea178dc968b537705b4ffaff00deee345359afbb58bcf61d17d53f46b0029",
  "source": "pragma solidity ^0.4.2;\n\nimport \"../../installed_contracts/SafeMath.sol\";\n\ncontract TestSafeMathToken {\n\n    using SafeMath for uint;\n\n    string public standard = 'Token 0.1';\n    string public name = 'TOSS';\n    string public symbol = 'TOSS';\n    uint8 public decimals = 4;\n\n    mapping (address => uint256) public balanceOf;\n\n    function generateTokens(address _user, uint256 _value) public {\n        balanceOf[_user] += _value;\n    }\n\n    function transfer(address to, uint value) public {\n        balanceOf[msg.sender] = balanceOf[msg.sender].sub(value);\n        balanceOf[to] = balanceOf[to].add(value);\n    }\n}\n",
  "sourcePath": "/home/dmitrya2e/Work/Projects/ProofOfToss/Code/proof-of-toss/contracts/test/TestSafeMath/TestSafeMathToken.sol",
  "compiler": {
    "name": "solc",
    "version": "0.4.24+commit.e67f0147.Emscripten.clang"
  },
  "schemaVersion": "2.0.0",
  "updatedAt": "2018-06-08T15:45:57.034Z"
}