{
  "contractName": "Token",
  "abi": [
    {
      "constant": true,
      "inputs": [],
      "name": "name",
      "outputs": [
        {
          "name": "",
          "type": "string"
        }
      ],
      "payable": false,
      "stateMutability": "view",
      "type": "function"
    },
    {
      "constant": false,
      "inputs": [
        {
          "name": "_spender",
          "type": "address"
        },
        {
          "name": "_value",
          "type": "uint256"
        }
      ],
      "name": "approve",
      "outputs": [
        {
          "name": "",
          "type": "bool"
        }
      ],
      "payable": false,
      "stateMutability": "nonpayable",
      "type": "function"
    },
    {
      "constant": true,
      "inputs": [
        {
          "name": "_beneficiary",
          "type": "address"
        }
      ],
      "name": "freezedTokenOf",
      "outputs": [
        {
          "name": "amount",
          "type": "uint256"
        }
      ],
      "payable": false,
      "stateMutability": "view",
      "type": "function"
    },
    {
      "constant": true,
      "inputs": [
        {
          "name": "",
          "type": "address"
        }
      ],
      "name": "grantedToSetUnpausedWallet",
      "outputs": [
        {
          "name": "",
          "type": "bool"
        }
      ],
      "payable": false,
      "stateMutability": "view",
      "type": "function"
    },
    {
      "constant": true,
      "inputs": [],
      "name": "totalSupply",
      "outputs": [
        {
          "name": "",
          "type": "uint256"
        }
      ],
      "payable": false,
      "stateMutability": "view",
      "type": "function"
    },
    {
      "constant": true,
      "inputs": [
        {
          "name": "",
          "type": "address"
        },
        {
          "name": "",
          "type": "address"
        }
      ],
      "name": "allowedToBlocking",
      "outputs": [
        {
          "name": "",
          "type": "bool"
        }
      ],
      "payable": false,
      "stateMutability": "view",
      "type": "function"
    },
    {
      "constant": true,
      "inputs": [
        {
          "name": "",
          "type": "address"
        },
        {
          "name": "",
          "type": "address"
        }
      ],
      "name": "blocked",
      "outputs": [
        {
          "name": "",
          "type": "uint256"
        }
      ],
      "payable": false,
      "stateMutability": "view",
      "type": "function"
    },
    {
      "constant": false,
      "inputs": [
        {
          "name": "_to",
          "type": "address"
        },
        {
          "name": "permission",
          "type": "bool"
        }
      ],
      "name": "grantToSetUnpausedWallet",
      "outputs": [],
      "payable": false,
      "stateMutability": "nonpayable",
      "type": "function"
    },
    {
      "constant": false,
      "inputs": [
        {
          "name": "_from",
          "type": "address"
        },
        {
          "name": "_to",
          "type": "address"
        },
        {
          "name": "_value",
          "type": "uint256"
        }
      ],
      "name": "transferFrom",
      "outputs": [
        {
          "name": "",
          "type": "bool"
        }
      ],
      "payable": false,
      "stateMutability": "nonpayable",
      "type": "function"
    },
    {
      "constant": false,
      "inputs": [
        {
          "name": "_beneficiary",
          "type": "address[]"
        },
        {
          "name": "_amount",
          "type": "uint256[]"
        },
        {
          "name": "_when",
          "type": "uint256[]"
        }
      ],
      "name": "masFreezedTokens",
      "outputs": [],
      "payable": false,
      "stateMutability": "nonpayable",
      "type": "function"
    },
    {
      "constant": true,
      "inputs": [],
      "name": "decimals",
      "outputs": [
        {
          "name": "",
          "type": "uint8"
        }
      ],
      "payable": false,
      "stateMutability": "view",
      "type": "function"
    },
    {
      "constant": false,
      "inputs": [
        {
          "name": "_to",
          "type": "address"
        },
        {
          "name": "_amount",
          "type": "uint256"
        }
      ],
      "name": "mint",
      "outputs": [
        {
          "name": "",
          "type": "bool"
        }
      ],
      "payable": false,
      "stateMutability": "nonpayable",
      "type": "function"
    },
    {
      "constant": true,
      "inputs": [
        {
          "name": "_beneficiary",
          "type": "address"
        }
      ],
      "name": "defrostDate",
      "outputs": [
        {
          "name": "Date",
          "type": "uint256"
        }
      ],
      "payable": false,
      "stateMutability": "view",
      "type": "function"
    },
    {
      "constant": true,
      "inputs": [],
      "name": "paused",
      "outputs": [
        {
          "name": "",
          "type": "bool"
        }
      ],
      "payable": false,
      "stateMutability": "view",
      "type": "function"
    },
    {
      "constant": true,
      "inputs": [
        {
          "name": "",
          "type": "address"
        },
        {
          "name": "",
          "type": "address"
        }
      ],
      "name": "grantedToAllowBlocking",
      "outputs": [
        {
          "name": "",
          "type": "bool"
        }
      ],
      "payable": false,
      "stateMutability": "view",
      "type": "function"
    },
    {
      "constant": false,
      "inputs": [
        {
          "name": "_spender",
          "type": "address"
        },
        {
          "name": "_subtractedValue",
          "type": "uint256"
        }
      ],
      "name": "decreaseApproval",
      "outputs": [
        {
          "name": "",
          "type": "bool"
        }
      ],
      "payable": false,
      "stateMutability": "nonpayable",
      "type": "function"
    },
    {
      "constant": false,
      "inputs": [
        {
          "name": "_holders",
          "type": "address[]"
        }
      ],
      "name": "migrateAll",
      "outputs": [],
      "payable": false,
      "stateMutability": "nonpayable",
      "type": "function"
    },
    {
      "constant": true,
      "inputs": [
        {
          "name": "_owner",
          "type": "address"
        }
      ],
      "name": "balanceOf",
      "outputs": [
        {
          "name": "balance",
          "type": "uint256"
        }
      ],
      "payable": false,
      "stateMutability": "view",
      "type": "function"
    },
    {
      "constant": false,
      "inputs": [
        {
          "name": "_migrationAgent",
          "type": "address"
        }
      ],
      "name": "setMigrationAgent",
      "outputs": [],
      "payable": false,
      "stateMutability": "nonpayable",
      "type": "function"
    },
    {
      "constant": true,
      "inputs": [],
      "name": "migrationAgent",
      "outputs": [
        {
          "name": "",
          "type": "address"
        }
      ],
      "payable": false,
      "stateMutability": "view",
      "type": "function"
    },
    {
      "constant": false,
      "inputs": [
        {
          "name": "_to",
          "type": "address"
        },
        {
          "name": "_value",
          "type": "uint256"
        },
        {
          "name": "_when",
          "type": "uint256"
        }
      ],
      "name": "transferAndFreeze",
      "outputs": [],
      "payable": false,
      "stateMutability": "nonpayable",
      "type": "function"
    },
    {
      "constant": true,
      "inputs": [],
      "name": "owner",
      "outputs": [
        {
          "name": "",
          "type": "address"
        }
      ],
      "payable": false,
      "stateMutability": "view",
      "type": "function"
    },
    {
      "constant": false,
      "inputs": [],
      "name": "migrate",
      "outputs": [],
      "payable": false,
      "stateMutability": "nonpayable",
      "type": "function"
    },
    {
      "constant": true,
      "inputs": [],
      "name": "totalMigrated",
      "outputs": [
        {
          "name": "",
          "type": "uint256"
        }
      ],
      "payable": false,
      "stateMutability": "view",
      "type": "function"
    },
    {
      "constant": true,
      "inputs": [],
      "name": "symbol",
      "outputs": [
        {
          "name": "",
          "type": "string"
        }
      ],
      "payable": false,
      "stateMutability": "view",
      "type": "function"
    },
    {
      "constant": false,
      "inputs": [
        {
          "name": "_beneficiary",
          "type": "address"
        },
        {
          "name": "_value",
          "type": "uint256"
        }
      ],
      "name": "burn",
      "outputs": [],
      "payable": false,
      "stateMutability": "nonpayable",
      "type": "function"
    },
    {
      "constant": false,
      "inputs": [
        {
          "name": "_to",
          "type": "address"
        },
        {
          "name": "_value",
          "type": "uint256"
        }
      ],
      "name": "transfer",
      "outputs": [
        {
          "name": "",
          "type": "bool"
        }
      ],
      "payable": false,
      "stateMutability": "nonpayable",
      "type": "function"
    },
    {
      "constant": false,
      "inputs": [
        {
          "name": "_wallet",
          "type": "address"
        },
        {
          "name": "mode",
          "type": "bool"
        }
      ],
      "name": "setUnpausedWallet",
      "outputs": [],
      "payable": false,
      "stateMutability": "nonpayable",
      "type": "function"
    },
    {
      "constant": true,
      "inputs": [
        {
          "name": "",
          "type": "address"
        }
      ],
      "name": "unpausedWallet",
      "outputs": [
        {
          "name": "",
          "type": "bool"
        }
      ],
      "payable": false,
      "stateMutability": "view",
      "type": "function"
    },
    {
      "constant": false,
      "inputs": [
        {
          "name": "mode",
          "type": "bool"
        }
      ],
      "name": "setPause",
      "outputs": [],
      "payable": false,
      "stateMutability": "nonpayable",
      "type": "function"
    },
    {
      "constant": false,
      "inputs": [
        {
          "name": "_spender",
          "type": "address"
        },
        {
          "name": "_addedValue",
          "type": "uint256"
        }
      ],
      "name": "increaseApproval",
      "outputs": [
        {
          "name": "",
          "type": "bool"
        }
      ],
      "payable": false,
      "stateMutability": "nonpayable",
      "type": "function"
    },
    {
      "constant": true,
      "inputs": [
        {
          "name": "_owner",
          "type": "address"
        },
        {
          "name": "_spender",
          "type": "address"
        }
      ],
      "name": "allowance",
      "outputs": [
        {
          "name": "",
          "type": "uint256"
        }
      ],
      "payable": false,
      "stateMutability": "view",
      "type": "function"
    },
    {
      "constant": false,
      "inputs": [
        {
          "name": "newOwner",
          "type": "address"
        }
      ],
      "name": "transferOwnership",
      "outputs": [],
      "payable": false,
      "stateMutability": "nonpayable",
      "type": "function"
    },
    {
      "constant": false,
      "inputs": [
        {
          "name": "_beneficiary",
          "type": "address"
        },
        {
          "name": "_amount",
          "type": "uint256"
        },
        {
          "name": "_when",
          "type": "uint256"
        }
      ],
      "name": "freezeTokens",
      "outputs": [],
      "payable": false,
      "stateMutability": "nonpayable",
      "type": "function"
    },
    {
      "anonymous": false,
      "inputs": [
        {
          "indexed": false,
          "name": "operation",
          "type": "string"
        },
        {
          "indexed": true,
          "name": "from",
          "type": "address"
        },
        {
          "indexed": true,
          "name": "to",
          "type": "address"
        },
        {
          "indexed": false,
          "name": "value",
          "type": "uint256"
        },
        {
          "indexed": true,
          "name": "_contract",
          "type": "address"
        }
      ],
      "name": "TokenOperationEvent",
      "type": "event"
    },
    {
      "anonymous": false,
      "inputs": [
        {
          "indexed": true,
          "name": "burner",
          "type": "address"
        },
        {
          "indexed": false,
          "name": "value",
          "type": "uint256"
        }
      ],
      "name": "Burn",
      "type": "event"
    },
    {
      "anonymous": false,
      "inputs": [
        {
          "indexed": true,
          "name": "_from",
          "type": "address"
        },
        {
          "indexed": true,
          "name": "_to",
          "type": "address"
        },
        {
          "indexed": false,
          "name": "_value",
          "type": "uint256"
        }
      ],
      "name": "Migrate",
      "type": "event"
    },
    {
      "anonymous": false,
      "inputs": [
        {
          "indexed": true,
          "name": "to",
          "type": "address"
        },
        {
          "indexed": false,
          "name": "amount",
          "type": "uint256"
        }
      ],
      "name": "Mint",
      "type": "event"
    },
    {
      "anonymous": false,
      "inputs": [],
      "name": "MintFinished",
      "type": "event"
    },
    {
      "anonymous": false,
      "inputs": [],
      "name": "Pause",
      "type": "event"
    },
    {
      "anonymous": false,
      "inputs": [],
      "name": "Unpause",
      "type": "event"
    },
    {
      "anonymous": false,
      "inputs": [
        {
          "indexed": true,
          "name": "previousOwner",
          "type": "address"
        },
        {
          "indexed": true,
          "name": "newOwner",
          "type": "address"
        }
      ],
      "name": "OwnershipTransferred",
      "type": "event"
    },
    {
      "anonymous": false,
      "inputs": [
        {
          "indexed": true,
          "name": "owner",
          "type": "address"
        },
        {
          "indexed": true,
          "name": "spender",
          "type": "address"
        },
        {
          "indexed": false,
          "name": "value",
          "type": "uint256"
        }
      ],
      "name": "Approval",
      "type": "event"
    },
    {
      "anonymous": false,
      "inputs": [
        {
          "indexed": true,
          "name": "from",
          "type": "address"
        },
        {
          "indexed": true,
          "name": "to",
          "type": "address"
        },
        {
          "indexed": false,
          "name": "value",
          "type": "uint256"
        }
      ],
      "name": "Transfer",
      "type": "event"
    },
    {
      "constant": false,
      "inputs": [
        {
          "name": "_to",
          "type": "address"
        },
        {
          "name": "_value",
          "type": "uint256"
        },
        {
          "name": "_data",
          "type": "bytes"
        }
      ],
      "name": "transferToContract",
      "outputs": [
        {
          "name": "",
          "type": "bool"
        }
      ],
      "payable": false,
      "stateMutability": "nonpayable",
      "type": "function"
    },
    {
      "constant": false,
      "inputs": [
        {
          "name": "_contract",
          "type": "address"
        },
        {
          "name": "permission",
          "type": "bool"
        }
      ],
      "name": "grantToAllowBlocking",
      "outputs": [],
      "payable": false,
      "stateMutability": "nonpayable",
      "type": "function"
    },
    {
      "constant": false,
      "inputs": [
        {
          "name": "_owner",
          "type": "address"
        },
        {
          "name": "_contract",
          "type": "address"
        }
      ],
      "name": "allowBlocking",
      "outputs": [],
      "payable": false,
      "stateMutability": "nonpayable",
      "type": "function"
    },
    {
      "constant": false,
      "inputs": [
        {
          "name": "_blocking",
          "type": "address"
        },
        {
          "name": "_value",
          "type": "uint256"
        }
      ],
      "name": "blockTokens",
      "outputs": [],
      "payable": false,
      "stateMutability": "nonpayable",
      "type": "function"
    },
    {
      "constant": false,
      "inputs": [
        {
          "name": "_blocking",
          "type": "address"
        },
        {
          "name": "_unblockTo",
          "type": "address"
        },
        {
          "name": "_value",
          "type": "uint256"
        }
      ],
      "name": "unblockTokens",
      "outputs": [],
      "payable": false,
      "stateMutability": "nonpayable",
      "type": "function"
    }
  ],
  "bytecode": "0x60806040526005805460ff1916600117905560038054600160a060020a031916331790556120df806100326000396000f3006080604052600436106101c95763ffffffff60e060020a60003504166306fdde0381146101ce578063095ea7b31461025857806311cfb19d1461029057806317221e2c146102c357806318160ddd146102e45780631b0a7774146102f95780631d67ef251461032057806320ceb5361461034757806323b872dd1461036f57806324db1f5014610399578063313ce567146104605780633c1a88d71461048b5780633f35d033146104af57806340c10f191461051857806347b27b8b1461053c57806350bb117a146105665780635c975abb146105875780636093e22a1461059c57806366188463146105c3578063680b3bdf146105e757806370a082311461063c57806375e2ff651461065d5780638328dbcd1461067e578063852e9f46146106af5780638da5cb5b146106d65780638fd3ab80146106eb57806395a0f5eb1461070057806395d89b41146107155780639dc29fac1461072a578063a9059cbb1461074e578063b3e1f52314610772578063b58e521614610798578063b8b3db4f146107bf578063ba8ad39e146107e0578063bedb86fb14610806578063d73dd62314610820578063dd62ed3e14610844578063f2fde38b1461086b578063f831ebab1461088c575b600080fd5b3480156101da57600080fd5b506101e36108b3565b6040805160208082528351818301528351919283929083019185019080838360005b8381101561021d578181015183820152602001610205565b50505050905090810190601f16801561024a5780820380516001836020036101000a031916815260200191505b509250505060405180910390f35b34801561026457600080fd5b5061027c600160a060020a03600435166024356108ea565b604080519115158252519081900360200190f35b34801561029c57600080fd5b506102b1600160a060020a0360043516610950565b60408051918252519081900360200190f35b3480156102cf57600080fd5b5061027c600160a060020a0360043516610988565b3480156102f057600080fd5b506102b161099d565b34801561030557600080fd5b5061027c600160a060020a03600435811690602435166109a3565b34801561032c57600080fd5b506102b1600160a060020a03600435811690602435166109c3565b34801561035357600080fd5b5061036d600160a060020a036004351660243515156109e0565b005b34801561037b57600080fd5b5061027c600160a060020a0360043581169060243516604435610ab1565b3480156103a557600080fd5b506040805160206004803580820135838102808601850190965280855261036d95369593946024949385019291829185019084908082843750506040805187358901803560208181028481018201909552818452989b9a998901989297509082019550935083925085019084908082843750506040805187358901803560208181028481018201909552818452989b9a998901989297509082019550935083925085019084908082843750949750610af39650505050505050565b34801561046c57600080fd5b50610475610c65565b6040805160ff9092168252519081900360200190f35b34801561049757600080fd5b5061036d600160a060020a0360043516602435610c6a565b3480156104bb57600080fd5b50604080516020600460443581810135601f810184900484028501840190955284845261027c948235600160a060020a0316946024803595369594606494920191908190840183828082843750949750610e339650505050505050565b34801561052457600080fd5b5061027c600160a060020a0360043516602435610f45565b34801561054857600080fd5b5061036d600160a060020a0360043581169060243516604435611026565b34801561057257600080fd5b506102b1600160a060020a036004351661125b565b34801561059357600080fd5b5061027c611292565b3480156105a857600080fd5b5061027c600160a060020a036004358116906024351661129b565b3480156105cf57600080fd5b5061027c600160a060020a03600435166024356112bb565b3480156105f357600080fd5b506040805160206004803580820135838102808601850190965280855261036d953695939460249493850192918291850190849080828437509497506113ab9650505050505050565b34801561064857600080fd5b506102b1600160a060020a03600435166113fe565b34801561066957600080fd5b5061036d600160a060020a0360043516611419565b34801561068a57600080fd5b50610693611475565b60408051600160a060020a039092168252519081900360200190f35b3480156106bb57600080fd5b5061036d600160a060020a0360043516602435604435611484565b3480156106e257600080fd5b506106936114ff565b3480156106f757600080fd5b5061036d61150e565b34801561070c57600080fd5b506102b1611533565b34801561072157600080fd5b506101e3611539565b34801561073657600080fd5b5061036d600160a060020a0360043516602435611570565b34801561075a57600080fd5b5061027c600160a060020a0360043516602435611676565b34801561077e57600080fd5b5061036d600160a060020a036004351660243515156116aa565b3480156107a457600080fd5b5061036d600160a060020a0360043581169060243516611795565b3480156107cb57600080fd5b5061027c600160a060020a0360043516611899565b3480156107ec57600080fd5b5061036d600160a060020a036004351660243515156118ae565b34801561081257600080fd5b5061036d600435151561194f565b34801561082c57600080fd5b5061027c600160a060020a03600435166024356119fe565b34801561085057600080fd5b506102b1600160a060020a0360043581169060243516611a97565b34801561087757600080fd5b5061036d600160a060020a0360043516611ac2565b34801561089857600080fd5b5061036d600160a060020a0360043516602435604435611b57565b60408051808201909152600481527f544f535300000000000000000000000000000000000000000000000000000000602082015281565b336000818152600260209081526040808320600160a060020a038716808552908352818420869055815186815291519394909390927f8c5be1e5ebec7d5bd14f71427d1e84f3dd0314c0f7b2291e5b200ac8c7c3b925928290030190a350600192915050565b600160a060020a0381166000908152600760205260408120600181015442111561097d5760009150610982565b805491505b50919050565b60066020526000908152604090205460ff1681565b60015490565b600b60209081526000928352604080842090915290825290205460ff1681565b600c60209081526000928352604080842090915290825290205481565b600354600160a060020a0316331480610a7b5750600354600160a060020a0316637ad71f7260026040518263ffffffff1660e060020a028152600401808260ff168152602001915050602060405180830381600087803b158015610a4357600080fd5b505af1158015610a57573d6000803e3d6000fd5b505050506040513d6020811015610a6d57600080fd5b5051600160a060020a031633145b1515610a8657600080fd5b600160a060020a03919091166000908152600660205260409020805460ff1916911515919091179055565b6000610acc82610ac086610950565b9063ffffffff611c2316565b610ad5856113fe565b1015610ae057600080fd5b610aeb848484611c32565b949350505050565b6003546000908190600160a060020a0316331480610b935750600354600160a060020a0316637ad71f7260026040518263ffffffff1660e060020a028152600401808260ff168152602001915050602060405180830381600087803b158015610b5b57600080fd5b505af1158015610b6f573d6000803e3d6000fd5b505050506040513d6020811015610b8557600080fd5b5051600160a060020a031633145b1515610b9e57600080fd5b83518551148015610bb0575082518551145b1515610bbb57600080fd5b600091505b84518261ffff161015610c5e5760076000868461ffff16815181101515610be357fe5b90602001906020020151600160a060020a0316600160a060020a031681526020019081526020016000209050838261ffff16815181101515610c2157fe5b6020908102909101015181558251839061ffff8416908110610c3f57fe5b9060200190602002015181600101819055508180600101925050610bc0565b5050505050565b601281565b600554829060ff161580610c8d57503360009081526004602052604090205460ff165b80610cb05750600160a060020a03811660009081526004602052604090205460ff165b1515610cbb57600080fd5b600160a060020a0383166000908152600b6020908152604080832033845290915290205460ff161515610ced57600080fd5b610cfa82610ac085610950565b610d03846113fe565b10158015610d115750600082115b1515610d1c57600080fd5b600160a060020a038316600090815260208190526040902054610d45908363ffffffff611c9a16565b600160a060020a03841660009081526020818152604080832093909355600c815282822033835290522054610d80908363ffffffff611c2316565b600160a060020a0384166000818152600c60209081526040808320338452825280832094909455835186815293519193600080516020612094833981519152929081900390910190a360408051602081018490528181526005818301527f626c6f636b000000000000000000000000000000000000000000000000000000606082015290513391600091600160a060020a03871691600080516020612074833981519152919081900360800190a4505050565b60008084803b828111610e4557600080fd5b610e4f8787611676565b5086925082600160a060020a031663c0ee0b8a3388886040518463ffffffff1660e060020a0281526004018084600160a060020a0316600160a060020a0316815260200183815260200180602001828103825283818151815260200191508051906020019080838360005b83811015610ed2578181015183820152602001610eba565b50505050905090810190601f168015610eff5780820380516001836020036101000a031916815260200191505b50945050505050600060405180830381600087803b158015610f2057600080fd5b505af1158015610f34573d6000803e3d6000fd5b5060019a9950505050505050505050565b600354600090600160a060020a03163314610f5f57600080fd5b600154610f72908363ffffffff611c2316565b600155600160a060020a038316600090815260208190526040902054610f9e908363ffffffff611c2316565b600160a060020a03841660008181526020818152604091829020939093558051858152905191927f0f6798a560793a54c3bcfe86a93cde1e73087d944c0ea20544137d412139688592918290030190a2604080518381529051600160a060020a038516916000916000805160206120948339815191529181900360200190a350600192915050565b600554829060ff16158061104957503360009081526004602052604090205460ff165b8061106c5750600160a060020a03811660009081526004602052604090205460ff165b151561107757600080fd5b600160a060020a0384166000908152600b6020908152604080832033845290915290205460ff1615156110a957600080fd5b600160a060020a0384166000908152600c6020908152604080832033845290915290205482118015906110dc5750600082115b15156110e757600080fd5b600160a060020a0384166000908152600c6020908152604080832033845290915290205461111b908363ffffffff611c9a16565b600160a060020a038086166000908152600c60209081526040808320338452825280832094909455918616815290819052205461115e908363ffffffff611c2316565b600160a060020a0380851660009081526020818152604080832094909455835186815293519288169391926000805160206120948339815191529281900390910190a3600160a060020a03848116908416146111ee5782600160a060020a031684600160a060020a0316600080516020612094833981519152846040518082815260200191505060405180910390a35b60408051602081018490528181526007818301527f756e626c6f636b00000000000000000000000000000000000000000000000000606082015290513391600160a060020a038681169290881691600080516020612074833981519152919081900360800190a450505050565b600160a060020a038116600090815260076020526040812060018101544211156112885760009150610982565b6001015492915050565b60055460ff1681565b600a60209081526000928352604080842090915290825290205460ff1681565b336000908152600260209081526040808320600160a060020a03861684529091528120548083111561131057336000908152600260209081526040808320600160a060020a0388168452909152812055611345565b611320818463ffffffff611c9a16565b336000908152600260209081526040808320600160a060020a03891684529091529020555b336000818152600260209081526040808320600160a060020a0389168085529083529281902054815190815290519293927f8c5be1e5ebec7d5bd14f71427d1e84f3dd0314c0f7b2291e5b200ac8c7c3b925929181900390910190a35060019392505050565b600354600090600160a060020a031633146113c557600080fd5b5060005b81518110156113fa576113f282828151811015156113e357fe5b90602001906020020151611cac565b6001016113c9565b5050565b600160a060020a031660009081526020819052604090205490565b600354600160a060020a0316331461143057600080fd5b600954600160a060020a03161561144657600080fd5b6009805473ffffffffffffffffffffffffffffffffffffffff1916600160a060020a0392909216919091179055565b600954600160a060020a031681565b3360009081526004602052604081205460ff1615156114a257600080fd5b60008211156114f55750600160a060020a038316600090815260076020526040902080546114d6908463ffffffff611c2316565b8155600181015482106114e957816114ef565b80600101545b60018201555b610c5e8484611676565b600354600160a060020a031681565b336000908152602081905260408120541161152857600080fd5b61153133611cac565b565b60085481565b60408051808201909152600d81527f50524f4f46204f4620544f535300000000000000000000000000000000000000602082015281565b600354600160a060020a0316331461158757600080fd5b600160a060020a0382166000908152602081905260409020548111156115ac57600080fd5b600160a060020a0382166000908152602081905260409020546115d5908263ffffffff611c9a16565b600160a060020a038316600090815260208190526040902055600154611601908263ffffffff611c9a16565b600155604080518281529051600160a060020a038416917fcc16f5dbb4873280815c1ee09dbd06736cffcc184412cf7a71a0fdb75d397ca5919081900360200190a2604080518281529051600091600160a060020a038516916000805160206120948339815191529181900360200190a35050565b600061168582610ac033610950565b61168e336113fe565b101561169957600080fd5b6116a38383611de1565b9392505050565b600354600160a060020a03163314806116d257503360009081526006602052604090205460ff165b8061175f5750600354600160a060020a0316637ad71f7260026040518263ffffffff1660e060020a028152600401808260ff168152602001915050602060405180830381600087803b15801561172757600080fd5b505af115801561173b573d6000803e3d6000fd5b505050506040513d602081101561175157600080fd5b5051600160a060020a031633145b151561176a57600080fd5b600160a060020a03919091166000908152600460205260409020805460ff1916911515919091179055565b80803b600081116117a557600080fd5b600160a060020a03831633148015906117cc5750600354600160a060020a03848116911614155b15156117d757600080fd5b600160a060020a0384166000908152600a6020908152604080832033845290915290205460ff16151561180957600080fd5b600160a060020a038085166000818152600b60209081526040808320948816808452948252808320805460ff19166001179055805191820192909252818152600e818301527f616c6c6f775f626c6f636b696e670000000000000000000000000000000000006060820152905133939291600080516020612074833981519152919081900360800190a450505050565b60046020526000908152604090205460ff1681565b81803b600081116118be57600080fd5b336000818152600a60209081526040808320600160a060020a038916808552908352818420805489151560ff1990911617905581519283018490528183526014838301527f6772616e745f616c6c6f775f626c6f636b696e6700000000000000000000000060608401529051929390929091600080516020612074833981519152919081900360800190a450505050565b600354600160a060020a0316331461196657600080fd5b60055460ff161580156119765750805b156119b2576005805460ff191660011790556040517f6985a02210a168e66602d3235cb6db0e70f92b3ba4d376a33c0f3d9434bff62590600090a15b60055460ff1680156119c2575080155b156119fb576005805460ff191690556040517f7805862f689e2f13df9f062ff482ad3ad112aca9e0847911ed832e158c525b3390600090a15b50565b336000908152600260209081526040808320600160a060020a0386168452909152812054611a32908363ffffffff611c2316565b336000818152600260209081526040808320600160a060020a0389168085529083529281902085905580519485525191937f8c5be1e5ebec7d5bd14f71427d1e84f3dd0314c0f7b2291e5b200ac8c7c3b925929081900390910190a350600192915050565b600160a060020a03918216600090815260026020908152604080832093909416825291909152205490565b600354600160a060020a03163314611ad957600080fd5b600160a060020a0381161515611aee57600080fd5b600354604051600160a060020a038084169216907f8be0079c531659141344cd1fd0a4f28419497f9722a3daafe3b4186f6b6457e090600090a36003805473ffffffffffffffffffffffffffffffffffffffff1916600160a060020a0392909216919091179055565b600354600090600160a060020a0316331480611bf55750600354600160a060020a0316637ad71f7260026040518263ffffffff1660e060020a028152600401808260ff168152602001915050602060405180830381600087803b158015611bbd57600080fd5b505af1158015611bd1573d6000803e3d6000fd5b505050506040513d6020811015611be757600080fd5b5051600160a060020a031633145b1515611c0057600080fd5b50600160a060020a03909216600090815260076020526040902090815560010155565b6000828201838110156116a357fe5b600554600090839060ff161580611c5857503360009081526004602052604090205460ff165b80611c7b5750600160a060020a03811660009081526004602052604090205460ff165b1515611c8657600080fd5b611c91858585611e3f565b95945050505050565b600082821115611ca657fe5b50900390565b600954600090600160a060020a03161515611cc657600080fd5b50600160a060020a03811660009081526020819052604081208054919055600154611cf7908263ffffffff611c9a16565b600155600854611d0d908263ffffffff611c2316565b600855600954604080517f7a3130e3000000000000000000000000000000000000000000000000000000008152600160a060020a0385811660048301526024820185905291519190921691637a3130e391604480830192600092919082900301818387803b158015611d7e57600080fd5b505af1158015611d92573d6000803e3d6000fd5b5050600954604080518581529051600160a060020a03928316945091861692507f18df02dcc52b9c494f391df09661519c0069bd8540141946280399408205ca1a919081900360200190a35050565b600554600090839060ff161580611e0757503360009081526004602052604090205460ff165b80611e2a5750600160a060020a03811660009081526004602052604090205460ff165b1515611e3557600080fd5b610aeb8484611fa4565b6000600160a060020a0383161515611e5657600080fd5b600160a060020a038416600090815260208190526040902054821115611e7b57600080fd5b600160a060020a0384166000908152600260209081526040808320338452909152902054821115611eab57600080fd5b600160a060020a038416600090815260208190526040902054611ed4908363ffffffff611c9a16565b600160a060020a038086166000908152602081905260408082209390935590851681522054611f09908363ffffffff611c2316565b600160a060020a03808516600090815260208181526040808320949094559187168152600282528281203382529091522054611f4b908363ffffffff611c9a16565b600160a060020a0380861660008181526002602090815260408083203384528252918290209490945580518681529051928716939192600080516020612094833981519152929181900390910190a35060019392505050565b6000600160a060020a0383161515611fbb57600080fd5b33600090815260208190526040902054821115611fd757600080fd5b33600090815260208190526040902054611ff7908363ffffffff611c9a16565b3360009081526020819052604080822092909255600160a060020a03851681522054612029908363ffffffff611c2316565b600160a060020a038416600081815260208181526040918290209390935580518581529051919233926000805160206120948339815191529281900390910190a35060019291505056009b56fa31e6a762f0fbec5f6102fd26a9d0c578481150835eed4ad0c037eb7e95ddf252ad1be2c89b69c2b068fc378daa952ba7f163c4a11628f55a4df523b3efa165627a7a72305820769e7c3279a75029bc799a2e4a244df1b3ddc86a722f2e81f8b0d9f6b09c6bbf0029",
  "source": "pragma solidity ^0.4.21;\n\nimport './FreezingToken.sol';\nimport './MintableToken.sol';\nimport './MigratableToken.sol';\nimport './BurnableToken.sol';\nimport '../Pausable.sol';\nimport \"../ERC223ReceivingContract.sol\";\n\n// (A2)\n// Contract token\ncontract Token is FreezingToken, MintableToken, MigratableToken, BurnableToken {\n    string public constant name = \"TOSS\";\n\n    string public constant symbol = \"PROOF OF TOSS\";\n\n    uint8 public constant decimals = 18;\n\n    mapping (address => mapping (address => bool)) public grantedToAllowBlocking; // Address of smart contract that can allow other contracts to block tokens\n    mapping (address => mapping (address => bool)) public allowedToBlocking; // Address of smart contract that can block tokens\n    mapping (address => mapping (address => uint256)) public blocked; // Blocked tokens per blocker\n\n    event TokenOperationEvent(string operation, address indexed from, address indexed to, uint256 value, address indexed _contract);\n\n\n    modifier contractOnly(address _to) {\n        uint256 codeLength;\n\n        assembly {\n        // Retrieve the size of the code on target address, this needs assembly .\n        codeLength := extcodesize(_to)\n        }\n\n        require(codeLength > 0);\n\n        _;\n    }\n\n    /**\n    * @dev Transfer the specified amount of tokens to the specified address.\n    * Invokes the `tokenFallback` function if the recipient is a contract.\n    * The token transfer fails if the recipient is a contract\n    * but does not implement the `tokenFallback` function\n    * or the fallback function to receive funds.\n    *\n    * @param _to Receiver address.\n    * @param _value Amount of tokens that will be transferred.\n    * @param _data Transaction metadata.\n    */\n\n    function transferToContract(address _to, uint256 _value, bytes _data) public contractOnly(_to) returns (bool) {\n        // Standard function transfer similar to ERC20 transfer with no _data .\n        // Added due to backwards compatibility reasons .\n\n\n        super.transfer(_to, _value);\n\n        ERC223ReceivingContract receiver = ERC223ReceivingContract(_to);\n        receiver.tokenFallback(msg.sender, _value, _data);\n\n        return true;\n    }\n\n    // @brief Allow another contract to allow another contract to block tokens. Can be revoked\n    // @param _spender another contract address\n    // @param _value amount of approved tokens\n    function grantToAllowBlocking(address _contract, bool permission) contractOnly(_contract) public {\n\n\n        grantedToAllowBlocking[msg.sender][_contract] = permission;\n\n        emit TokenOperationEvent('grant_allow_blocking', msg.sender, _contract, 0, 0);\n    }\n\n    // @brief Allow another contract to block tokens. Can't be revoked\n    // @param _owner tokens owner\n    // @param _contract another contract address\n    function allowBlocking(address _owner, address _contract) contractOnly(_contract) public {\n\n\n        require(_contract != msg.sender && _contract != owner);\n\n        require(grantedToAllowBlocking[_owner][msg.sender]);\n\n        allowedToBlocking[_owner][_contract] = true;\n\n        emit TokenOperationEvent('allow_blocking', _owner, _contract, 0, msg.sender);\n    }\n\n    // @brief Blocks tokens\n    // @param _blocking The address of tokens which are being blocked\n    // @param _value The blocked token count\n    function blockTokens(address _blocking, uint256 _value) whenNotPaused(_blocking) public {\n        require(allowedToBlocking[_blocking][msg.sender]);\n\n        require(balanceOf(_blocking) >= freezedTokenOf(_blocking).add(_value) && _value > 0);\n\n        balances[_blocking] = balances[_blocking].sub(_value);\n        blocked[_blocking][msg.sender] = blocked[_blocking][msg.sender].add(_value);\n\n        emit Transfer(_blocking, address(0), _value);\n        emit TokenOperationEvent('block', _blocking, 0, _value, msg.sender);\n    }\n\n    // @brief Unblocks tokens and sends them to the given address (to _unblockTo)\n    // @param _blocking The address of tokens which are blocked\n    // @param _unblockTo The address to send to the blocked tokens after unblocking\n    // @param _value The blocked token count to unblock\n    function unblockTokens(address _blocking, address _unblockTo, uint256 _value) whenNotPaused(_unblockTo) public {\n        require(allowedToBlocking[_blocking][msg.sender]);\n        require(blocked[_blocking][msg.sender] >= _value && _value > 0);\n\n        blocked[_blocking][msg.sender] = blocked[_blocking][msg.sender].sub(_value);\n        balances[_unblockTo] = balances[_unblockTo].add(_value);\n\n        emit Transfer(address(0), _blocking, _value);\n\n        if (_blocking != _unblockTo) {\n            emit Transfer(_blocking, _unblockTo, _value);\n        }\n\n        emit TokenOperationEvent('unblock', _blocking, _unblockTo, _value, msg.sender);\n    }\n}\n",
  "sourcePath": "/Users/nickolay/workspace/rsk/app/contracts/token-sale-contracts/TokenSale/Token/Token.sol",
  "compiler": {
    "name": "solc",
    "version": "0.4.24+commit.e67f0147.Emscripten.clang"
  },
  "schemaVersion": "2.0.0",
  "updatedAt": "2018-10-15T20:45:32.543Z"
}