{
  "contractName": "Whitelist",
  "abi": [
    {
      "constant": true,
      "inputs": [
        {
          "name": "",
          "type": "address"
        }
      ],
      "name": "whitelist",
      "outputs": [
        {
          "name": "",
          "type": "bool"
        }
      ],
      "payable": false,
      "stateMutability": "view",
      "type": "function"
    },
    {
      "inputs": [],
      "payable": false,
      "stateMutability": "nonpayable",
      "type": "constructor"
    },
    {
      "constant": false,
      "inputs": [
        {
          "name": "newOwner",
          "type": "address"
        }
      ],
      "name": "transferOwnership",
      "outputs": [],
      "payable": false,
      "stateMutability": "nonpayable",
      "type": "function"
    },
    {
      "constant": false,
      "inputs": [
        {
          "name": "user",
          "type": "address"
        },
        {
          "name": "whitelisted",
          "type": "bool"
        }
      ],
      "name": "updateWhitelist",
      "outputs": [],
      "payable": false,
      "stateMutability": "nonpayable",
      "type": "function"
    }
  ],
  "bytecode": "0x6060604052341561000f57600080fd5b60018054600160a060020a03191633600160a060020a03161790556101b9806100396000396000f3006060604052600436106100565763ffffffff7c01000000000000000000000000000000000000000000000000000000006000350416630d392cd9811461005b5780639b19251a14610081578063f2fde38b146100b4575b600080fd5b341561006657600080fd5b61007f600160a060020a036004351660243515156100d3565b005b341561008c57600080fd5b6100a0600160a060020a0360043516610119565b604051901515815260200160405180910390f35b34156100bf57600080fd5b61007f600160a060020a036004351661012e565b60015433600160a060020a039081169116146100ee57600080fd5b600160a060020a03919091166000908152602081905260409020805460ff1916911515919091179055565b60006020819052908152604090205460ff1681565b60015433600160a060020a0390811691161461014957600080fd5b600160a060020a038116151561015e57600080fd5b6001805473ffffffffffffffffffffffffffffffffffffffff1916600160a060020a03929092169190911790555600a165627a7a72305820f101739da73242603c17f478010b233ee45dd982f32924c1326a41436f7be88b0029",
  "source": "pragma solidity ^0.4.2;\n\ncontract Whitelist {\n    mapping (address => bool) public whitelist;\n    address owner;\n\n    modifier onlyOwner() {\n        require(msg.sender == owner);\n        _;\n    }\n\n    function transferOwnership(address newOwner) public onlyOwner {\n        require(newOwner != address(0));\n        owner = newOwner;\n    }\n\n    function Whitelist() {\n        owner = msg.sender;\n    }\n\n    function updateWhitelist(address user, bool whitelisted) public onlyOwner {\n        whitelist[user] = whitelisted;\n    }\n}\n",
  "sourcePath": "/Users/nickolay/workspace/rsk/app/contracts/Whitelist.sol",
  "compiler": {
    "name": "solc",
    "version": "0.4.21+commit.dfe3193c.Emscripten.clang"
  },
  "schemaVersion": "2.0.0",
  "updatedAt": "2018-05-29T10:37:55.332Z"
}