{
  "contractName": "Whitelist",
  "abi": [
    {
      "constant": true,
      "inputs": [
        {
          "name": "",
          "type": "address"
        }
      ],
      "name": "whitelist",
      "outputs": [
        {
          "name": "",
          "type": "bool"
        }
      ],
      "payable": false,
      "stateMutability": "view",
      "type": "function"
    },
    {
      "inputs": [],
      "payable": false,
      "stateMutability": "nonpayable",
      "type": "constructor"
    },
    {
      "constant": false,
      "inputs": [
        {
          "name": "newOwner",
          "type": "address"
        }
      ],
      "name": "transferOwnership",
      "outputs": [],
      "payable": false,
      "stateMutability": "nonpayable",
      "type": "function"
    },
    {
      "constant": false,
      "inputs": [
        {
          "name": "user",
          "type": "address"
        },
        {
          "name": "whitelisted",
          "type": "bool"
        }
      ],
      "name": "updateWhitelist",
      "outputs": [],
      "payable": false,
      "stateMutability": "nonpayable",
      "type": "function"
    }
  ],
  "bytecode": "0x608060405234801561001057600080fd5b5060018054600160a060020a031916331790556101b7806100326000396000f3006080604052600436106100565763ffffffff7c01000000000000000000000000000000000000000000000000000000006000350416630d392cd9811461005b5780639b19251a14610083578063f2fde38b146100b8575b600080fd5b34801561006757600080fd5b50610081600160a060020a036004351660243515156100d9565b005b34801561008f57600080fd5b506100a4600160a060020a036004351661011b565b604080519115158252519081900360200190f35b3480156100c457600080fd5b50610081600160a060020a0360043516610130565b600154600160a060020a031633146100f057600080fd5b600160a060020a03919091166000908152602081905260409020805460ff1916911515919091179055565b60006020819052908152604090205460ff1681565b600154600160a060020a0316331461014757600080fd5b600160a060020a038116151561015c57600080fd5b6001805473ffffffffffffffffffffffffffffffffffffffff1916600160a060020a03929092169190911790555600a165627a7a7230582024dbf39cda8bfbcfdb4f763ac490dba69b2c29362c7cda90acd4a142bbdf24960029",
  "source": "pragma solidity ^0.4.2;\n\ncontract Whitelist {\n    mapping (address => bool) public whitelist;\n    address owner;\n\n    modifier onlyOwner() {\n        require(msg.sender == owner);\n        _;\n    }\n\n    constructor() public {\n        owner = msg.sender;\n    }\n\n    function transferOwnership(address newOwner) public onlyOwner {\n        require(newOwner != address(0));\n        owner = newOwner;\n    }\n\n    function updateWhitelist(address user, bool whitelisted) public onlyOwner {\n        whitelist[user] = whitelisted;\n    }\n}\n",
  "sourcePath": "/Users/nickolay/workspace/rsk/app/contracts/Whitelist.sol",
  "compiler": {
    "name": "solc",
    "version": "0.4.24+commit.e67f0147.Emscripten.clang"
  },
  "schemaVersion": "2.0.0",
  "updatedAt": "2018-06-12T11:40:14.120Z"
}